:020000040800F2
:1000000000800020D5540008A9500008B350000813
:1000100000000000000000000000000000000000E0
:10002000000000000000000000000000B9500008BF
:100030000000000000000000C3500008CD50000880
:1000400025550008255500082555000825550008A8
:100050002555000825550008255500082555000898
:100060002555000825550008255500082555000888
:100070002555000825550008255500082555000878
:100080002555000825550008255500082555000868
:100090002555000825550008255500082555000858
:1000A0002555000825550008255500082555000848
:0C00B000195100082555000831510008C6
:1000BC0010B5064C2378002B07D1054B002B02D032
:1000CC00044800E000BF0123237010BDA4000020F1
:1000DC000000000080BC0008044B10B5002B03D0BE
:1000EC000349044800E000BF10BDC04600000000FA
:1000FC00A800002080BC00080023C25C0133002A49
:10010C00FBD1581E70470000002243088B4274D369
:10011C0003098B425FD3030A8B4244D3030B8B42FC
:10012C0028D3030C8B420DD3FF22090212BA030C05
:10013C008B4202D31212090265D0030B8B4219D3E6
:10014C0000E0090AC30B8B4201D3CB03C01A524106
:10015C00830B8B4201D38B03C01A5241430B8B424E
:10016C0001D34B03C01A5241030B8B4201D30B0337
:10017C00C01A5241C30A8B4201D3CB02C01A52415E
:10018C00830A8B4201D38B02C01A5241430A8B4221
:10019C0001D34B02C01A5241030A8B4201D30B020A
:1001AC00C01A5241CDD2C3098B4201D3CB01C01A24
:1001BC00524183098B4201D38B01C01A524143092E
:1001CC008B4201D34B01C01A524103098B4201D31C
:1001DC000B01C01A5241C3088B4201D3CB00C01A89
:1001EC00524183088B4201D38B00C01A5241430801
:1001FC008B4201D34B00C01A5241411A00D2014626
:10020C00524110467047FFE701B5002000F0F0F8AE
:10021C0002BDC0460029F7D076E7704703460B4372
:10022C007FD4002243088B4274D303098B425FD3E3
:10023C00030A8B4244D3030B8B4228D3030C8B420F
:10024C000DD3FF22090212BA030C8B4202D31212F5
:10025C00090265D0030B8B4219D300E0090AC30BCA
:10026C008B4201D3CB03C01A5241830B8B4201D377
:10027C008B03C01A5241430B8B4201D34B03C01A60
:10028C005241030B8B4201D30B03C01A5241C30AD8
:10029C008B4201D3CB02C01A5241830A8B4201D349
:1002AC008B02C01A5241430A8B4201D34B02C01A33
:1002BC005241030A8B4201D30B02C01A5241CDD2D8
:1002CC00C3098B4201D3CB01C01A524183098B4223
:1002DC0001D38B01C01A524143098B4201D34B010C
:1002EC00C01A524103098B4201D30B01C01A52416F
:1002FC00C3088B4201D3CB00C01A524183088B42F6
:10030C0001D38B00C01A524143088B4201D34B00DE
:10031C00C01A5241411A00D2014652411046704750
:10032C005DE0CA0F00D04942031000D34042534055
:10033C0000229C4603098B422DD3030A8B4212D315
:10034C00FC22890112BA030A8B420CD38901921147
:10035C008B4208D3890192118B4204D389013AD084
:10036C00921100E08909C3098B4201D3CB01C01A59
:10037C00524183098B4201D38B01C01A524143096C
:10038C008B4201D34B01C01A524103098B4201D35A
:10039C000B01C01A5241C3088B4201D3CB00C01AC7
:1003AC00524183088B4201D38B00C01A5241D9D2DF
:1003BC0043088B4201D34B00C01A5241411A00D260
:1003CC000146634652415B10104601D34042002B5C
:1003DC0000D54942704763465B1000D3404201B5DB
:1003EC00002000F005F802BD0029F8D016E7704790
:1003FC007047C046002B15D1002A13D1002906DB0B
:10040C0001DC002806D00020C043410802E0802116
:10041C000906002007B4024801A14018029003BD50
:10042C00D1FFFFFF03B4684601B5029800F030F825
:10043C00019B9E4602B00CBC7047C046F0B5CE4640
:10044C00474615042D0C2E0080B50704140C3F0CE8
:10045C009946030C7E435D43674363437F19340C19
:10046C00E4199C46A54203D980235B029846C444F8
:10047C004B4643435143250C36046544360C240447
:10048C00A4195B19591820000CBC90469946F0BD74
:10049C00F0B583B016001F000090019100F014F825
:1004AC0004000D0002000B0030003900FFF7C6FFFE
:1004BC00009A019B121A8B41089920000A604B602C
:1004CC00290003B0F0BDC046F0B54E465746DE4697
:1004DC004546E0B50F00002183B006008946002F89
:1004EC0006DA3900002746428F41012149428946EC
:1004FC00002B07DA4946C94310008946190000232E
:10050C0042428B4134003D0092469846BB4269D82A
:10051C0066D04146504600F0AFF8834639003000B3
:10052C0000F0AAF85B461B1A9C46203B9B4600D564
:10053C0075E05146584681400B005146604681405B
:10054C000A00BB4261D85ED034003D005946A41A63
:10055C009D41002900DA7AE000210020012600905C
:10056C00019159468E400196614601268E406146A6
:10057C000096002950D0D90756085F080E436346F1
:10058C000EE0AF4201D1A6420CD8A41BBD41012103
:10059C0024196D410022013B64185541002B06D0F3
:1005AC00AF42EED9013B24196D41002BF8D10098D4
:1005BC0001995B4600196941002B3DDB2E00DE40A2
:1005CC0063462C00DC405B46002B4BDB34005D4665
:1005DC00AC4023006446A6403200801A994103E0E7
:1005EC00B24296D9002000214B46002B04D00300C8
:1005FC000C0000215842A14103B03CBC90469946E6
:10060C00A246AB46F0BDB1429ED90021002000901D
:10061C00019161460029AED100980199E4E72023AD
:10062C00624651469B1AD94040460091614688402B
:10063C00030000990B4380E7624620239B1A2A0093
:10064C009A40260013006246D6401E43B8E7614626
:10065C0020260127761A00200021F74000900191F6
:10066C00019781E76746202362463500BC409B1A00
:10067C00DD4023002B43ADE710B5002903D100F07A
:10068C0007F8203002E0081C00F002F810BDC0464C
:10069C001C2101231B04984201D3000C10391B0AA6
:1006AC00984201D3000A08391B09984201D300096A
:1006BC00043902A2105C40187047C04604030202C1
:1006CC0001010101000000000000000080B582B0B3
:1006DC0000AF78600A00BB1C1A8010E07B68DB88D6
:1006EC009BB25A1C7B689B8819001000FFF77CFE9C
:1006FC000B009AB27B68DA807B6800229A72BB1C72
:10070C001B88BA1C591E1180002B05D07B68180061
:10071C0000F0C9F8031EE1D1C046BD4602B080BD51
:10072C0080B582B000AF78600A00BB1C1A8024E050
:10073C007B681B899BB25A1C7B689B881900100034
:10074C00FFF752FE0B009AB27B681A817B689B7A8A
:10075C00DBB2002B05D07B681B899AB27B68DA80F0
:10076C000BE07B681B899AB27B68DB889BB2D31A3F
:10077C005A425341DAB27B689A72BB1C1B88BA1C72
:10078C00591E1180002BD3D1C046BD4602B080BD8E
:10079C0080B582B000AF78607B68002B06D07B6898
:1007AC001B687A68D28892B29B1800E0002318006C
:1007BC00BD4602B080BD80B582B000AF78607B686A
:1007CC00002B06D07B681B687A68128992B29B1842
:1007DC0000E000231800BD4602B080BD90B585B086
:1007EC0000AF78600023FB607B68002B1CD07B681B
:1007FC001B687A6892889B181C007B681800FFF7AE
:10080C00C7FF0300E31AFB607B68180000F04BF88D
:10081C000200FB68934205D37B68180000F043F894
:10082C00030000E0FB68FB60FB681800BD4605B0E8
:10083C0090BD80B584B000AFF860B9607A60FB6899
:10084C00002B10D0BB68002B0DD07B68002B0AD07E
:10085C00FB68BA681A607B689AB2FB689A80FB687E
:10086C00180000F004F8C046BD4604B080BD80B549
:10087C0082B000AF78607B68002B10D07B680022C0
:10088C00DA807B6800221A817B6800229A727B686E
:10089C0018687B689B881A0000210AF00BF9C04687
:1008AC00BD4602B080BD80B584B000AF7860002337
:1008BC00FB607B68002B31D07B681B899AB27B680C
:1008CC00DB889BB29A4209D97B681B899BB21A00C0
:1008DC007B68DB889BB2D31AFB601FE07B681B89AB
:1008EC009AB27B68DB889BB29A420CD27B689B885D
:1008FC001A007B68DB889BB2D31A7A68128992B291
:10090C009B18FB600AE07B689B7ADBB2002B03D060
:10091C007B689B88FB6001E00023FB60FB68180090
:10092C00BD4604B080BD90B585B000AF78600023A3
:10093C00FB607B68002B09D07B689B881C007B6864
:10094C001800FFF7B0FF0300E31AFB60FB68180008
:10095C00BD4605B090BD80B584B000AF78600A008C
:10096C00FB1C1A700023FB600023BB6011E0BA680B
:10097C007B681100180000F03CF803001A00FB1C07
:10098C001B78934202D1BB68FB600AE0BB68013361
:10099C00BB607B681800FFF786FF0200BB689342C0
:1009AC00E5D3FB681800BD4604B080BD80B582B0AD
:1009BC0000AF78600A00FB1C1A700EE07B68180010
:1009CC0000F046F803001A00FB1C1B7893420BD076
:1009DC007B6801211800FFF779FE7B681800FFF790
:1009EC0062FF031EEAD100E0C046C046BD4602B01D
:1009FC0080BD90B585B000AF786039600F23FB18CF
:100A0C0000221A707B68002B1BD07B681800FFF744
:100A1C004AFF02003B68934213D27B681C687B68D8
:100A2C00DB889BB21A003B68D2187B689B88190044
:100A3C001000FFF7EFFB0B00E2180F23FB181278E6
:100A4C001A700F23FB181B781800BD4605B090BD1B
:100A5C0080B584B000AF78600F23FB1800221A70A9
:100A6C007B68002B09D07B681B687A68D28892B2AD
:100A7C009A180F23FB1812781A700F23FB181B7887
:100A8C001800BD4604B080BD80B584B000AF78605E
:100A9C000F23FB1800221A707B681800FFF703FF66
:100AAC00031E0ED07B681B687A68D28892B29A18A3
:100ABC000F23FB1812781A707B6801211800FFF7BE
:100ACC0005FE0F23FB181B781800BD4604B080BD33
:100ADC0090B587B000AFF860B9607A6000237B6195
:100AEC000AE07B695A1C7A61BA68D418FB68180052
:100AFC00FFF7CAFF03002370FB681800FFF7D3FE53
:100B0C00031E03D07A697B689A42EAD37B6918008A
:100B1C00BD4607B090BD80B582B000AF78600A00CA
:100B2C00FB1C1A707B68002B0DD07B681B687A68E5
:100B3C00128992B29B18FA1C12781A707B680121E8
:100B4C001800FFF7EDFDC046BD4602B080BD80B574
:100B5C0086B000AFF860B9607A6000237B61FB68F7
:100B6C00002B0FD00AE07B695A1C7A61BA68D31843
:100B7C001A78FB6811001800FFF7CDFF7A697B68C3
:100B8C009A42F0D37B691800BD4606B080BD80B593
:100B9C0082B000AF786039607B681B693A6813409B
:100BAC003A68D31A5A425341DBB21800BD4602B020
:100BBC0080BD000090B58FB000AFF860B9607A606E
:100BCC001A00FB1C1A7014210C007B18180024232B
:100BDC001A00002109F06EFF21007B1806221A7200
:100BEC007B18402208208446BC44624412789A72D6
:100BFC007B18FA1C12781A737B18BA681A617B1866
:100C0C007A685A617B1832229A617B18084ADA6139
:100C1C007B18084A1A62FB687A1813CA13C313CAE2
:100C2C0013C313CA13C3F868BD460FB090BDC046BA
:100C3C00B80B00001027000080B584B000AF7860BE
:100C4C007B68180000F024F90300FB607B68180037
:100C5C0000F035F903001A000B23FB181A707B689F
:100C6C001B7A5BB2062B0DD17B68180000F027F9BC
:100C7C00031E01D0052200E004227B681A727B68F7
:100C8C00FF225A727B681B68FA689A4206D87B6806
:100C9C001A68FB68D21A7B681A6002E07B68002233
:100CAC001A607B681B7A5BB2052B00D9C3E09A00F3
:100CBC00684BD3181B689F460B23FB181B785BB241
:100CCC00012B07D17B6805221A727B689A697B68B5
:100CDC001A60B2E07B681B68002B00D0ADE07B682B
:100CEC0000221A727B685B7A5BB2002B00D1A4E005
:100CFC007B68180004F034F89FE00B23FB181B787A
:100D0C005BB2012B2DD17B681B68002B31D17B682A
:100D1C005B7A5BB2022B0BD0032B11D0012B13D1BE
:100D2C007B68DA697B681A607B6801221A7221E0A1
:100D3C007B681A6A7B681A607B6802221A7219E057
:100D4C007B6803221A7215E07B68DA697B681A608B
:100D5C007B6801221A727B68180000F0D9F8C04633
:100D6C0008E07B689A697B681A607B6800221A72BB
:100D7C006CE0C0466AE00B23FB181B785BB2012BBE
:100D8C005DD17B6800225A727B6805221A727B68DF
:100D9C009A697B681A6052E00B23FB181B785BB2D4
:100DAC00012B0FD17B681B68002B4AD17B681A6A18
:100DBC007B681A607B6802221A727B68180004F048
:100DCC001DF83EE07B6801225A727B6804221A727D
:100DDC007B689A697B681A6033E00B23FB181B78DD
:100DEC005BB2012B0BD17B681B68002B2BD17B6872
:100DFC0003221A727B68180000F09CF823E07B68D1
:100E0C0002225A727B6804221A727B689A697B6888
:100E1C001A6018E00B23FB181B785BB2002B14D163
:100E2C007B6803225A727B6804221A727B689A6967
:100E3C007B681A6009E0C04608E0C04606E0C04680
:100E4C0004E0C04602E0C04600E0C046C046BD46D5
:100E5C0004B080BDF4BE000880B582B000AF7860ED
:100E6C007B685B69002B0AD07B681B69002B06D062
:100E7C007B681B7A5BB2013301D0012300E00023B5
:100E8C001A1C01231340DBB21800BD4602B080BD12
:100E9C0080B584B000AF786004F09AFB0300FB606F
:100EAC007B685B68FA68D31ABB6004F091FB0200A4
:100EBC007B685A60BB681800BD4604B080BD80B525
:100ECC0084B000AF78607B681B69002B1AD07B68FC
:100EDC005B69002B16D07B681A697B685B6919000B
:100EEC001000FFF754FE02000F203B18511E8A41E0
:100EFC001A703B181B787A68127B9B1A5A42534122
:100F0C00DBB200E000231800BD4604B080BD000039
:100F1C0080B582B000AF78607B689B7A1A00044B76
:100F2C001100180009F0CEFDC046BD4602B080BDD0
:100F3C00B0BC000880B582B000AF78607B689B7A4B
:100F4C001A00044B1100180009F0BCFDC046BD4648
:100F5C0002B080BDE4BC000880B582B000AF786000
:100F6C0039607B685B693A6813403A68D31A5A4215
:100F7C005341DBB21800BD4602B080BD80B582B0D3
:100F8C0000AF786039607B683A689A61C046BD46AC
:100F9C0002B080BD80B582B000AF786039607B68EC
:100FAC003A689A62C046BD4602B080BD80B584B036
:100FBC0000AFF860B9607A603B60FB68180000F025
:100FCC0011F903001A0001235340DBB2002B03D0AC
:100FDC00FB68180000F03EF9FB68180000F01EF9E1
:100FEC0003001A0001235340DBB2002B54D0FB68E2
:100FFC003A685A621823FB181B88294A934203D17A
:10100C001823FB181A8807E01823FB181B881C22CE
:10101C00BA18128853431A00FB689A62FB687A6804
:10102C009A61FB68BA68DA61FB685B6A012213405B
:10103C0026D0FB68180000F07AF9031E16D0FB6866
:10104C009A6AFB689B6A17498C466344591E8B410C
:10105C00DBB2D218FB689A62FB689A69FB681A606B
:10106C00FB680021180000F08AF912E0FB68DA69CD
:10107C00FB681A60FB680121180000F080F908E099
:10108C00FB689A69FB681A60FB680021180000F085
:10109C0076F9FB6802221A72C046BD4604B080BDC8
:1010AC00FFFF00000100FFFF90B591B000AFF860AA
:1010BC00B9607A601A00FB1C1A7014210C007B18A2
:1010CC0018002C231A00002109F0F4FC21007B18D5
:1010DC00482208208446BC44624412785A727B1819
:1010EC00FA1C12781A737B18BA681A617B187A6822
:1010FC005A61FB687A1813CA13C313CA13C313CAF1
:10110C0013C303CA03C3F868BD4611B090BD0000F9
:10111C0080B584B000AF78607B68180000F0F0F800
:10112C000300FB607B681B68FA689A4206D87B68F0
:10113C001A68FB68D21A7B681A604DE07B68002243
:10114C001A607B681B7A5BB2012B02D0022B06D093
:10115C003CE07B680121180000F011F93CE07B6851
:10116C009B6A1F4A934204D07B689B6A5A1E7B6819
:10117C009A627B689B6A002B1FD07B685B6A01229A
:10118C00D3411A007B685A627B685B6A0122134068
:10119C0009D07B68DA697B681A607B6801211800CA
:1011AC0000F0EDF818E07B689A697B681A607B6840
:1011BC000021180000F0E3F80EE07B6800221A72A0
:1011CC007B680021180000F0DAF805E07B6800214C
:1011DC00180000F0D4F8C046C046BD4604B080BD2F
:1011EC00FFFF000080B582B000AF78607B685B6960
:1011FC00002B0AD07B681B69002B06D07B681B7AFE
:10120C005BB2013301D0012300E000231A1C01233F
:10121C001340DBB21800BD4602B080BD80B582B071
:10122C0000AF78607B685B69002B0AD07B681B6918
:10123C00002B06D07B681B7A5BB2022B01D10123F9
:10124C0000E000231A1C01231340DBB21800BD463A
:10125C0002B080BD80B582B000AF78607B680022A0
:10126C001A727B680021180000F089F8C046BD4650
:10127C0002B080BD80B582B000AF78600A00FB1C64
:10128C001A707B6800221A607B6820220021995416
:10129C00FB1C1B785AB27B681A72FB1C1A787B6891
:1012AC001100180000F06BF8C046BD4602B080BDBE
:1012BC0090B587B002AFF860B9601900BB1D1A80F9
:1012CC007B1D0A1C1A70FB687A1D202112785A5457
:1012DC00BB1D1B88012B01D9BA6800E00122074C09
:1012EC00B968F86802230193BB1D1B880093230087
:1012FC00FFF75CFEC046BD4605B090BD5555555533
:10130C0080B584B000AF786004F062F90300FB6034
:10131C007B685B68FA68D31ABB6004F059F9020069
:10132C007B685A60BB681800BD4604B080BD80B5B0
:10133C0084B000AF78607B681B69002B1AD07B6887
:10134C005B69002B16D07B681A697B685B69190096
:10135C001000FFF701FE02000F203B18511E8A41BE
:10136C001A703B181B787A68127B9B1A5A425341AD
:10137C00DBB200E000231800BD4604B080BD80B590
:10138C0084B000AF78600A00FB1C1A707B681B6984
:10139C00002B3FD07B685B69002B3BD0FB1C1A7881
:1013AC007B681B7B19000F23FB18521A51424A41D0
:1013BC001A707B6820229B5C002B0DD00F23FB182E
:1013CC001B785A1E9341DBB201225340DBB21A1C2C
:1013DC0001231340DBB205E00F23FB181B785A1EC8
:1013EC009341DBB20F217A1813707B181B78002BFA
:1013FC0008D07B681A697B685B6919001000FFF7DD
:10140C00BDFD07E07B681A697B685B6919001000F9
:10141C00FFF7C0FDC046BD4604B080BD80B586B0A8
:10142C0000AF786039601723FB1801221A70032370
:10143C00FB607B681800FFF736FA0200FB689342EA
:10144C002CD87B681800FFF71FFB03009BB21B0214
:10145C009AB23B681A807B681800FFF715FB0300F3
:10146C0019003B681A888BB2D3189AB23B681A8061
:10147C007B681800FFF708FB03001A003B689A70A2
:10148C003B68D91C3B689B781A007B681800FFF7F7
:10149C001FFB1723FB1800221A7013E07B6818003F
:1014AC00FFF701FA0300FB6000233B6106E07B6859
:1014BC001800FFF7E9FA3B6901333B613B69FA68B5
:1014CC009A42F4D81723FB181B781800BD4606B0B7
:1014DC0080BD80B582B000AF786039603B681B88F6
:1014EC001B0A9BB2DBB27F221340DAB27B6811007D
:1014FC001800FFF710FB3B681B88DAB27B68110001
:10150C001800FFF708FB3B689A787B6811001800FD
:10151C00FFF701FB3B68D91C3B689B781A007B6882
:10152C001800FFF714FB00231800BD4602B080BD65
:10153C0090B585B000AF786039600F23FB1801229D
:10154C001A703B681B88002B26D13B689B78012BBB
:10155C0022D13B681B885AB20E203B187F210A40CF
:10156C001A707B681B7C5BB23A18127852B29A42A2
:10157C0006D00E23FB181B785BB2002B00D0F7E0D3
:10158C003B68DA1C0F23FC187B681100180000F074
:10159C00A7FC03002370EBE03B681B88802B0CD16D
:1015AC003B689B78002B08D10F23FC187B68180034
:1015BC0001F03FFC03002370DBE03B681B881A0042
:1015CC00F023DB001340802B1DD13B689B78082B4C
:1015DC0019D13B681B885AB20E203B187F210A4058
:1015EC001A703B181B785BB2002B00D0C1E03B6833
:1015FC00DA1C0F23FC187B681100180000F0C6FBE6
:10160C0003002370B5E03B681B881A00F023DB0055
:10161C001A4080235B009A420FD13B689B78062BC3
:10162C000BD13B68DA1C0F23FC187B6811001800E7
:10163C0001F030FC030023709BE03B681B881A0010
:10164C00F023DB001A40B023DB009A4225D13B6823
:10165C009B78082B21D13B681B881A00484B134000
:10166C007A68127C52B2934201D0012384E07B68E9
:10167C005B7C032B03D07B685B7C002B01D10123AB
:10168C007AE03B68DA1C0F23FC187B681100180009
:10169C0001F062FB030023706BE03B681B881A00AF
:1016AC00F023DB001A40C023DB009A4261D13B6877
:1016BC009B78082B21D13B681B881A00304B1340B8
:1016CC007A68127C52B2934201D0012354E07B68B9
:1016DC005B7C032B03D07B685B7C002B01D101234B
:1016EC004AE03B68DA1C0F23FC187B6811001800D9
:1016FC0001F0FAF9030023703BE03B681B881A00E9
:10170C00F023DB001A40C0235B009A4231D03B68C7
:10171C001B881A00F023DB001A40A0239B009A427E
:10172C0027D03B681B881A00F023DB001A40E0230B
:10173C009B009A421DD03B681B881A00F023DB00EB
:10174C001A409023DB009A4213D03B681B881A0086
:10175C00F023DB001A4080239B009A4209D03B689F
:10176C001B881A00F023DB001A40C0239B0000E00A
:10177C00C0460F23FB181B781800BD4605B090BD62
:10178C007FF8FFFF90B587B000AF78607B689C69ED
:10179C0003F01EFF03009C425ED003F019FF030010
:1017AC0099B27B689B699AB216203B188A1A1A80E8
:1017BC007B689A8A01007B181B88D3189AB27B68C5
:1017CC009A827B689A697B181B88D2187B689A610D
:1017DC007B68180000F0E9FA7B68180000F08FFBBA
:1017EC007B68180001F002F936E07B68B4229B5844
:1017FC001800FFF749F903009BB21B029AB20824A8
:10180C003B191A807B68B4229B581800FFF73CF9EF
:10181C00030019003B191A888BB2D3189AB23B19E2
:10182C001A807B68B4229B581800FFF72DF903002F
:10183C001A003B199A707B68B42298583B199B7814
:10184C001A003B1903331900FFF742F93A197B6868
:10185C0011001800FFF76CFE7B68B4229B5818002F
:10186C00FFF721F8031EC0D1C0467B68180000F0BA
:10187C00F3F8031EF9D0C046BD4607B090BD00007A
:10188C0080B582B000AF786039607B68B0213A686F
:10189C005A507B68B421214A5A507B68B4229B5819
:1018AC001F4940221800FEF7C4FF7B68B8211D4A6F
:1018BC005A507B68B822985880235A001A4B19004A
:1018CC00FEF7B7FF03F0B0FE02007B681A6003F06E
:1018DC00B5FE02007B685A6003F0BAFE02007B681A
:1018EC009A607B680022DA607B6800225A747B68FD
:1018FC00FF221A747B682022012199547B680B4AC1
:10190C009A847B6826220221995403F061FE02001E
:10191C007B689A61C046BD4602B080BD00020020C3
:10192C00C00000200C02002000010020DC0500009B
:10193C0080B584B000AF786039603B68DB68002B01
:10194C003ED13B685B68002B3AD13B681B69033383
:10195C00FB607B68B4229B581800FEF7E4FF020082
:10196C00FB6893422DD87B68B42298583B681B685F
:10197C001B0ADBB27F221340DBB21900FFF7CBF856
:10198C007B68B4229A583B681B68DBB219001000C4
:10199C00FFF7C1F87B68B4229A583B681B69DBB22D
:1019AC0019001000FFF7B7F87B68B42298583B6811
:1019BC001C3319003B681B691A00FFF7C8F800E0DC
:1019CC00C046BD4604B080BDB0B58CB000AF7860E9
:1019DC0039602F23FB1801221A701E4B180004F0DB
:1019EC0031FC031E2FD00C203B180022DA603B1870
:1019FC0000229A603B1800225A603B681B881A0030
:101A0C003B181A603B689B781A003B181A613B68BC
:101A1C00D91C3B689B781A0005003B18183318003A
:101A2C0009F03FF80823FC1828003B1818331A005B
:101A3C0039180848230004F06FFA031E03D12F2332
:101A4C00FB1800221A702F23FB181B781800BD46B8
:101A5C000CB0B0BD6C030020B0B58CB000AF78609A
:101A6C002F23FB1801221A707B68B8229B58180090
:101A7C00FEF719FF031E65D0364B180004F0E2FB8D
:101A8C00031E5FD00C243B190022DA603B190022A4
:101A9C009A603B1900225A607B68B8229B58180048
:101AAC00FEF7F2FF03001B021A003B191A607B6859
:101ABC00B8229B581800FEF7E7FF03001A003B19E9
:101ACC001B689A183B191A603B191B687F2213403C
:101ADC007A68127C52B293420FD00C217B181B688F
:101AEC007F2293431A007B181A607B181B687A6854
:101AFC00127C52B21A437B181A607B68B8229B582E
:101B0C001800FEF7C1FF03001A000C257B191A619F
:101B1C007B68B82298587B191A697B1918331900FD
:101B2C00FEF7D6FF0823FC187B1918331A00791915
:101B3C000848230004F0F0F9031E03D12F23FB18EF
:101B4C0000221A702F23FB181B781800BD460CB00E
:101B5C00B0BDC0466C03002080B586B000AF786085
:101B6C0039603B689B7803337B6108E07B68B82263
:101B7C009B580822BA1811001800FFF74FFC7B681D
:101B8C00B8229B581800FEF7CEFE02007B699342E8
:101B9C00ECD87B68B8229B583A6811001800FFF704
:101BAC0098FC03001800BD4606B080BD80B586B019
:101BBC0000AF786008001100BB1C021C1A807B1C53
:101BCC000A1C1A70BB1C1B88584A93420ED9BB1CAA
:101BDC001B88574A934209D87B1C1A78BB1C19885E
:101BEC007B68180002F006F903009BE0BB1C1B8805
:101BFC00504A93420ED9BB1C1B884F4A934209D8BA
:101C0C007B1C1A78BB1C19887B68180000F09CF8A8
:101C1C00030087E0BB1C1B88484A93420ED9BB1CAF
:101C2C001B88474A934209D87B1C1A78BB1C19881D
:101C3C007B68180000F099F8030073E000237B61C7
:101C4C0062E07B68B02299587A6913005B009B189C
:101C5C009B00CB181B88BA1C12889A4251D17B6806
:101C6C00B02299587A6913005B009B189B00CB1823
:101C7C009B78072B35D17B68B02299587A69130071
:101C8C005B009B189B00CB185B68FB60FB685A6879
:101C9C000B23FB1812781A7000233B6119E03A6988
:101CAC0013005B009B189B001A00FB689B181A889A
:101CBC007B1C1B789BB29A4208D13A6913005B00DB
:101CCC009B189B001A00FB689B182BE03B690133A7
:101CDC003B610B23FB181B7801333A699A42DEDB1C
:101CEC000FE07B1C1B78002B09D17B68B022995824
:101CFC007A6913005B009B189B00CB1812E0002341
:101D0C0010E07B6901337B617B68B02299587A695A
:101D1C0013005B009B189B00CB181B88094A93424D
:101D2C008FD100231800BD4606B080BDFF1F0000F8
:101D3C00FF5F0000FF130000FF150000FF170000FD
:101D4C00FF190000FFFF000080B582B000AF786083
:101D5C0008001100BB1C021C1A807B1C0A1C1A7088
:101D6C0000231800BD4602B080BD80B582B000AF24
:101D7C00786008001100BB1C021C1A807B1C0A1C1A
:101D8C001A7000231800BD4602B080BD80B584B027
:101D9C0000AF786039600F217B1801221A707B1814
:101DAC001B781800BD4604B080BD90B585B000AF5F
:101DBC0078607B68DB8B002B16D07B68998A7B68FC
:101DCC009A8B0E203B188A1A1A807B68DB8B3A1888
:101DDC0012889A4241D37B68180000F042F87B6865
:101DEC009A8A7B689A8338E07B689B8C002B34D072
:101DFC007B68998A7B685A8C0E203B188A1A1A8049
:101E0C007B689A8C7B6826215B5C99B20C243B190D
:101E1C004A431A807B6827229B5C19003A183B19AD
:101E2C0012881B889A429B415B42DBB2994214D0C8
:101E3C000E23FA180C23FB1812881B889A429B411C
:101E4C005B42D9B27B68272299547B6827229A5C23
:101E5C007B681100180002F0C7F8C046BD4605B0FB
:101E6C0090BD90B587B000AF78600C243B1918007A
:101E7C000C231A00002108F01DFE7B681B7C5BB252
:101E8C001BB2E022D20013431BB29AB23B191A8048
:101E9C003B1901229A707B685B7C022B08D0032BC8
:101EAC000BD0012B0ED10C23FB187F22DA700BE028
:101EBC000C23FB180522DA7006E00C23FB18042215
:101ECC00DA7001E0012307E00C23FA187B6811009B
:101EDC001800FFF779FD03001800BD4607B090BD50
:101EEC0080B584B000AF786039600F217B18012277
:101EFC001A707B181B781800BD4604B080BD80B5E5
:101F0C0084B000AF78600023FB6034E07A68FB6833
:101F1C0004331B01D31804331B88002B28D07B6897
:101F2C00998A7A68FB6804331B01D31802331A8828
:101F3C000A203B188A1A1A807A68FB6804331B0142
:101F4C00D31804331B883A1812889A4210D3FB68B2
:101F5C005A1C7B681100180000F014F87B68998AF1
:101F6C007A68FB6804331B01D31802330A1C1A80ED
:101F7C00FB680133FB60FB68032BC7D9C046BD4629
:101F8C0004B080BDB0B588B000AF786039601F2355
:101F9C00FB1801221A700C23FB1818000C231A00D2
:101FAC00002108F087FD7B685B7C022B01D00123AC
:101FBC006CE03A687B681100180001F09BFF031E6F
:101FCC0061D13B68022B11D002DC012B05D028E03B
:101FDC00032B14D0042B1BD023E00C23FB18C022A2
:101FEC0052001A807B684033BB611CE00C23FB1849
:101FFC00A02292001A807B685033BB6113E00C2343
:10200C00FB18E02292001A807B686033BB610AE007
:10201C000C23FB189022D2001A807B687033BB61B2
:10202C0001E0012332E0BB699B68002B2BD0BB691C
:10203C00DB68082B27D80C217B181B881AB27B680D
:10204C001B7C5BB21BB213431BB29AB27B181A8077
:10205C00BB69DB68DAB208007B189A70BB699968B7
:10206C00BB69DA6805003B180333180008F019FD4A
:10207C001F23FC1828003A187B6811001800FFF782
:10208C006BFD030023701F23FB181B781800BD4643
:10209C0008B0B0BD80B582B000AF78607B6800221C
:1020AC001A637B680022DA627B6800225A637B68C1
:1020BC0000221A877B683A22002199547B680022FF
:1020CC00DA87C046BD4602B080BD80B586B000AF91
:1020DC0078600823FB1818000C231A00002108F064
:1020EC00E9FC7B68198F7B683A229A5C7B68180044
:1020FC0001F0BEFF031E08D080231A057B68110077
:10210C00180000F094FC01237DE07B681B7C5BB223
:10211C001BB2B022D20013431BB29AB208217B1817
:10212C001A807B1808229A707B681B8FDAB27B1896
:10213C001A717B681B8F1B0A9BB2DAB27B185A711F
:10214C007B683A229A5C7B189A717B685B6B9B78F4
:10215C00022B11D0032B22D0012B3DD108217B184F
:10216C004F22DA707B685B6B5B681B787B617B69E9
:10217C00DAB27B18DA7131E008217B184B22DA7065
:10218C007B685B6B5B681B887B617B69DAB27B1855
:10219C00DA717B691B0ADAB27B181A721EE008210D
:1021AC007B184322DA707B685B6B5B681B687B6116
:1021BC007B69DAB27B18DA717B691B0ADAB27B189D
:1021CC001A727B691B0CDAB27B185A727B691B0E74
:1021DC00DAB27B189A7201E0012314E00823FA1892
:1021EC007B6811001800FFF7B7FC031E0AD17B684F
:1021FC00198F7B683A229A5C7B68180000F0F6FD18
:10220C00002300E001231800BD4606B080BD00008D
:10221C00B0B588B000AFF8607A600B257B190A1C4A
:10222C001A7010243B1918000C231A00002108F016
:10223C0041FCFB681B7C5BB21BB2B022D200134387
:10224C001BB29AB23B191A803B1908229A70FB6890
:10225C001B8FDAB23B191A71FB681B8F1B0A9BB2DE
:10226C00DAB23B195A71FB683A229A5C3B199A71A3
:10227C003B196022DA707B191B782B2B1BD02F2B70
:10228C0002D0232B36D063E0FB685B6B9B78012B71
:10229C0009D17B681B78FB61FB685B6B5B68FA6937
:1022AC00D2B21A7056E0424AFB681100180000F0D6
:1022BC00BEFB012377E0FB685B6B9B78022B11D193
:1022CC007B681B78FB617B6801331B781B021A004F
:1022DC00FB699B18FB61FB685B6B5B68FA6992B2EC
:1022EC001A8037E0324AFB681100180000F09FFB9F
:1022FC00012358E0FB685B6B9B78032B20D17B6838
:10230C001B78FB617B6801331B781B021A00FB698D
:10231C009B18FB617B6802331B781B041A00FB695A
:10232C009B18FB617B6803331B781B061A00FB6947
:10233C009B18FB61FB685B6B5B68FA691A6009E0D0
:10234C001B4AFB681100180000F071FB01232AE006
:10235C00012328E0FB68198FFB683A229A5CFB6822
:10236C00180001F0ADFE031E08D080231A05FB688F
:10237C001100180000F05BFB012314E01023FA1885
:10238C00FB6811001800FFF7E7FB031E0AD1FB687E
:10239C00198FFB683A229A5CFB68180000F016FD56
:1023AC00002300E001231800BD4608B0B0BDC046B4
:1023BC000500040580B586B000AF78600C23FB18CF
:1023CC0018000C231A00002108F074FB7B68198F8D
:1023DC007B683A229A5C7B68180001F049FE031E68
:1023EC0008D080231A057B681100180000F01FFB31
:1023FC0001239CE07B681B7C5BB21BB2B022D20039
:10240C0013431BB29AB20C217B181A807B1808223A
:10241C009A707B685B6B9B78052B1DD0062B05D0C7
:10242C00042B33D17B680822DA623AE07B68198F7F
:10243C007B683A229A5C7B68180001F0E7FD020089
:10244C007B68DA627B68DB6A002B27D17B685B6B6D
:10245C009A687B68DA6221E07B68198F7B683A2284
:10246C009A5C7B68180000F086FC02007B68DA62DC
:10247C007B68DB6A002B13D17B685B6B5B68180095
:10248C00FDF73AFE02007B68DA6209E02A4A7B68B3
:10249C001100180000F0CBFA012348E0C04600E020
:1024AC00C0467B682922012199547B68282201218E
:1024BC0099547B6800221A630C217B184122DA7034
:1024CC007B681B8FDAB27B181A717B681B8F1B0A17
:1024DC009BB2DAB27B185A717B683A229A5C7B18F1
:1024EC009A717B68DB6ADAB27B18DA717B68DB6A1B
:1024FC001B0ADAB27B181A727B68DB6A1B0CDAB225
:10250C007B185A727B68DB6A1B0EDAB27B189A72E4
:10251C007B68FA229200DA877B689A8A7B689A87B2
:10252C007A187B6811001800FFF716FB03001800DF
:10253C00BD4606B080BDC0460000010690B58BB00C
:10254C0000AF78600A00FB1C1A7008243B191800B5
:10255C000C231A00002108F0ADFAFB1C1B781B0998
:10256C00DBB21A0001231A401B23FB18511E8A41AF
:10257C001A707B685B6B5B687B617B681B7C5BB2F6
:10258C001BB2B022D20013431BB29AB23B191A8071
:10259C003B1908229A707B685B6B002B07D07B6819
:1025AC0028229B5C01225340DBB2002B07D04F4A00
:1025BC007B681100180000F03AFA012392E07B6866
:1025CC0029229B5C1B22BA1812789A4207D1484ADE
:1025DC007B681100180000F02AFA012382E07B6866
:1025EC001B22BA18292112785A547B681A6B7B6803
:1025FC00DB6A9A4207D33F4A7B681100180000F04F
:10260C0016FA01236EE07B68DA6A7B681B6BD31ABF
:10261C00072B0BD87B681A6B7B68DB6AD31A0733E2
:10262C003B622723FB1801221A7005E000233B6252
:10263C002723FB1800221A700023FB6113E07B6830
:10264C001B6B7A69D218FB69013311780822BA180E
:10265C00D3180A1CDA707B681B6B5A1C7B681A63D4
:10266C00FB690133FB613B6A0722D21AFB699A4270
:10267C00E5D81B23FB181B781B01DAB23B6ADBB2D3
:10268C00DB18DBB21343DAB22723FB181B78134396
:10269C00DAB208217B18DA707A187B6811001800FE
:1026AC00FFF75AFA031E1CD12723FB181B78002BAB
:1026BC000DD07B68198F7B683A229A5C7B68180076
:1026CC0000F094FB7B681800FFF7E4FC07E07B68E4
:1026DC00FA229200DA877B689A8A7B689A870023B1
:1026EC0000E001231800BD460BB090BD01000405AD
:1026FC00000003050500040580B586B000AF7860C6
:10270C000C23FB1818000C231A00002108F0D2F936
:10271C007B685B6B9B78042B0BD17B68DB6A082B8B
:10272C0007D9394A7B681100180000F080F90123A1
:10273C0065E07B685B6B9B78062B0ED17B68DA6A55
:10274C007B685B6B9B689A4207D92F4A7B681100A8
:10275C00180000F06CF9012351E07B685B6B9B78EF
:10276C00052B0FD17B68DA6A7B685B6B9B68013B3E
:10277C009A4207D9244A7B681100180000F057F9D7
:10278C0001233CE07B682822002199547B68292294
:10279C00012199547B6800221A637B681B7C5BB215
:1027AC001BB2B022D20013431BB29AB20C217B187D
:1027BC001A807B1808229A707B186022DA707B686A
:1027CC001B8FDAB27B181A717B681B8F1B0A9BB2AA
:1027DC00DAB27B185A717B683A229A5C7B189A7130
:1027EC007B68FA229200DA877B689A8A7B689A87E0
:1027FC007A187B6811001800FFF7AEF90300180077
:10280C00BD4606B080BDC0460500040590B58DB030
:10281C0000AFF8607A600B203B180A1C1A703B184A
:10282C001B781B09DBB21A0001231A402B23FB185F
:10283C00511E8A411A703B181B7801221A402A2318
:10284C00FB18511E8A411A703B181B785B08DBB2CF
:10285C001A00072313407B62FB685B6B5B683B626F
:10286C00FB685B6B002B04D0FB6828229B5C002B65
:10287C0007D05B4AFB681100180000F0D8F8012360
:10288C00A9E0FB6829229B5C2B22BA1812789A4289
:10289C0007D1544AFB681100180000F0C8F8012356
:1028AC0099E0FB682B22BA18292112785A54FB683C
:1028BC001B6B002B06D1FB68DA6A3B6A00211800FF
:1028CC0008F0F8F8FB681A6B7B6AD31ADA1DFB6800
:1028DC00DB6A9A4207D9444AFB681100180000F0E1
:1028EC00A6F8012377E00023FB6210E0FB6A7A680C
:1028FC00D218FB681B6B396ACB1812781A70FB68FC
:10290C001B6B5A1CFB681A63FB6A0133FB627B6A04
:10291C000722D21AFB6A9A42E8D814243B191800F1
:10292C000C231A00002108F0C5F8FB681B7C5BB275
:10293C001BB2B022D20013431BB29AB221007B18F7
:10294C001A807B1808229A707B182022DA707B1868
:10295C00DB785AB22B23FB181B781B015BB2134399
:10296C005BB2DAB27B18DA702A23FB181B78002BC7
:10297C0021D0FB68198FFB683A229A5CFB6818001F
:10298C0001F09EFB031E08D080231A05FB68110082
:10299C00180000F04CF801231DE0FB68198FFB6850
:1029AC003A229A5CFB68180000F010FAFB681800D9
:1029BC00FFF770FB07E0FB68FA229200DA87FB68EE
:1029CC009A8AFB689A871423FA18FB68110018007E
:1029DC00FFF7C2F803001800BD460DB090BDC0460D
:1029EC0001000405000003050500040580B584B052
:1029FC0000AF78607B68DB8F002B14D07B68998AE2
:102A0C007B689A8F0E203B188A1A1A807B68DB8FA2
:102A1C003A1812889A4206D37B689A8A7B689A87FE
:102A2C007B680022DA87C046BD4604B080BD90B5F5
:102A3C0087B000AF786039600C243B1918000C2368
:102A4C001A00002108F036F87B681B7C5BB21BB2C5
:102A5C00B022D20013431BB29AB221007B181A8009
:102A6C007B1808229A707B188022DA707B681B8F87
:102A7C00DAB27B181A717B681B8F1B0A9BB2DAB215
:102A8C000C003B195A717B683A229A5C3B199A717B
:102A9C003B68DAB23B19DA713B681B0ADAB23B19B4
:102AAC001A723B681B0CDAB23B195A723B681B0E4C
:102ABC00DAB23B199A727B68198F7B683A229A5C5E
:102ACC003B68786800F0A2F97B681800FFF7E2FA1F
:102ADC003A197B6811001800FFF73EF80300180044
:102AEC00BD4607B090BD000090B585B000AF7860D2
:102AFC0039600F23FB1801221A700E217B183A68DB
:102B0C0012781A700D203B187A1812780F218A430C
:102B1C001A703B181B78802B05D17B681800FFF7C7
:102B2C00B9FA00230CE10D23FB181B78602B04D0A1
:102B3C000D23FB181B78702B09D10E23FB181A7868
:102B4C007B6811001800FFF7F9FC0300F8E00D2377
:102B5C00FB181B78002B04D00D23FB181B78102BB3
:102B6C000AD13B685A1C0E23FB1819787B68180095
:102B7C00FFF74CFE0300E3E03B6801331B781AB20D
:102B8C003B6802331B781B021BB213431BB29AB275
:102B9C007B681A873B68D9787B683A2299547B68A2
:102BAC00198F7B6800221800FFF700F802007B6881
:102BBC005A637B685B6B002B07D1634A7B681100FF
:102BCC001800FFF734FF0123BAE07B68198F7B688C
:102BDC003A229A5C7B681800FEF7E8FF02007B68DB
:102BEC005A637B685B6B002B07D1584A7B681100DA
:102BFC001800FFF71CFF0123A2E03B681B78402B59
:102C0C002FD17B685B6BDB78012B09D1504A7B6839
:102C1C0011001800FFF70BFF0F23FB1801221A708D
:102C2C007B685B6B9B78042B09D07B685B6B9B7818
:102C3C00062B04D07B685B6B9B78052B08D10F238C
:102C4C00FC187B681800FFF7B5FB0300237074E0D9
:102C5C000F23FC187B681800FFF737FA030023706A
:102C6C006BE03B681B782F2B07D03B681B782B2B1A
:102C7C0003D03B681B78232B1DD17B685B6BDB7807
:102C8C00002B0DD03B681A1D0F23FC180E23FB18CC
:102C9C0019787B681800FFF7BBFA030023704CE02F
:102CAC002C4A7B6811001800FFF7C1FE0F23FB189C
:102CBC0001221A7041E03B681B78212B39D17B68CB
:102CCC005B6BDB78002B29D03B6804331B781A0034
:102CDC007B68DA627B68DB6A3A680532127812022A
:102CEC009A187B68DA627B68DB6A3A68063212787B
:102CFC0012049A187B68DA627B68DB6A3A680732DE
:102D0C00127812069A187B68DA620F23FC187B681B
:102D1C001800FFF7F1FC030023700EE00D4A7B68EE
:102D2C0011001800FFF783FE0F23FB1801221A7005
:102D3C0003E00F23FB1801221A700F23FB181B78DA
:102D4C001800BD4605B090BD000002061100090632
:102D5C00010001060200010680B584B000AF786066
:102D6C0039600F217B1801221A707B181B78180010
:102D7C00BD4604B080BD80B584B000AF786008005B
:102D8C001100BB1C021C1A807B1C0A1C1A7000232D
:102D9C00FB607B1C1A78BB1C19887B681800FEF73B
:102DAC0005FF0300BB60BB68002B0AD0BB689B7897
:102DBC00052B06D1BB685B681800FDF79DF9030075
:102DCC00FB60FB681800BD4604B080BD80B582B0C6
:102DDC0000AF786008001100BB1C021C1A807B1C21
:102DEC000A1C1A70C046BD4602B080BD80B582B0C8
:102DFC0000AF786008001100BB1C021C1A807B1C01
:102E0C000A1C1A70C046BD4602B080BD80B584B0A5
:102E1C0000AFF860080011007B600A23FB18021C4D
:102E2C001A800923FB180A1C1A70C046BD4604B050
:102E3C0080BD80B584B000AF78607B6820229B5C3D
:102E4C00002B0BD07B68DB8B002B07D17B689A8A1D
:102E5C007B685A847B681800FFF703F80023FB603B
:102E6C0010E07B68FA6804321201D35C002B06D0A8
:102E7C00FB685A1C7B6811001800FFF783F8FB688D
:102E8C000133FB60FB68032BEBD900231800BD4614
:102E9C0004B080BDF0B589B000AF786139613B6991
:102EAC001B78BB610023FB613B6901331B781B0260
:102EBC00BB60DB17FB60BB69FC69B968FA685B181F
:102ECC005441BB61FC613B6902331B781B043B60C2
:102EDC00DB177B60BB69FC6939687A685B18544105
:102EEC00BB61FC613B6903331B781B061D00DB17C0
:102EFC001E00BB69FC695B197441BB61FC61BB6959
:102F0C00FC691800210000F061FA00231800BD468E
:102F1C0009B0F0BD80B582B000AF78607B681B68EB
:102F2C001B0C3F2213401800BD4602B080BD80B57B
:102F3C0082B000AF78607B681B681B0A7F2213404D
:102F4C001800BD4602B080BD80B582B000AF78607D
:102F5C007B681B687F2213401800BD4602B080BD01
:102F6C0080B582B000AF78607B685B681B0CFF2279
:102F7C0013401800BD4602B080BD80B582B000AFD2
:102F8C0078607B685B681B0A1F2213401800BD46E3
:102F9C0002B080BD80B582B000AF78607B685B68A2
:102FAC003F2213401800BD4602B080BD80B584B0EE
:102FBC0000AF78607B68DBB21B09DBB21A1C920095
:102FCC00D318DB18DAB27B68DBB20F210B40DBB213
:102FDC00D318DBB29AB20E217B1816488446624491
:102FEC001A807B181A88C82359001000FDF712F9B3
:102FFC000B009BB2002B12D00E23FB181B88032254
:10300C0013409BB2002B0CD10E23FB181B886421A0
:10301C001800FDF7FFF80B009BB2002B01D0012329
:10302C0000E000231A1C01231340DBB21800BD463C
:10303C0004B080BDB207000090B58BB000AF7860D3
:10304C0039600823FB181E4A13CA13C313CA13C3CF
:10305C0000237B627B68DBB21B09DBB21A1C92007B
:10306C00D318DB18DAB27B68DBB20F210B40DBB272
:10307C00D318DBB23B623B6A002B1CD03B6A122B91
:10308C0019D83B6A5A1E0823FB185200D35A1A004F
:10309C007B6A9B187B623B6A022B07D93B68180042
:1030AC00FFF784FF031E01D0012300E000231A0068
:1030BC007B6A9B187B627B6A1800BD460BB090BD87
:1030CC0010BD000890B585B000AF78600023FB60A0
:1030DC007B68DBB21B09DBB21A1C9200D318DB181D
:1030EC00DAB27B68DBB20F210B40DBB2D318DBB258
:1030FC00BB607B68982B1AD8BA681300DB009B184E
:10310C00DB009B189A009A18BB6801339B08D418F3
:10311C00BB6809491800FCF7F7FF0300E418BB680B
:10312C0006491800FCF7F0FF0300E318FB60FB688E
:10313C001800BD4605B090BDF41A00009040020086
:10314C0090B585B000AF386079600023FB603868BB
:10315C0079680D4A0023FDF74DF903000C00BB60A4
:10316C00BB68043307211800FDF754F80B00FB6013
:10317C00FB68002B02D0FB68DBB200E007231800D1
:10318C00BD4605B090BDC04680510100F0B587B07A
:10319C0000AF002300243B617C61424B1800FFF719
:1031AC00B9FE0300DBB21B11DBB20F221340DBB202
:1031BC001A1C9200D318DB18DCB23A4B1800FFF73C
:1031CC00A9FE0300DBB20F221340DBB2E318DBB223
:1031DC001A0013001B019B1A1A01D21A13011A00B0
:1031EC001300BB600023FB603B697C69B968FA681B
:1031FC005B1854413B617C612A4B1800FFF797FE2A
:10320C000300DBB21B11DBB20F221340DBB21A1C22
:10321C009200D318DB18DCB2224B1800FFF787FEA4
:10322C000300DBB20F221340DBB2E318DBB21A004F
:10323C0013001B019B1A9B003B6000237B603B69C6
:10324C007C6939687A685B1854413B617C61154B29
:10325C001800FFF779FE0300DBB21B11DBB20F2263
:10326C001340DBB21A1C9200D318DB18DCB20D4BE6
:10327C001800FFF769FE0300DBB20F221340DBB22C
:10328C00E318DBB21D0000231E003B697C695B194F
:10329C0074413B617C613B697C6918002100BD462F
:1032AC0007B0F0BD00280040F0B587B000AF002398
:1032BC0000243B617C61324B1800FFF751FE030088
:1032CC001800FFF7FFFE0300BB600023FB603B69A7
:1032DC007C69B968FA685B1854413B617C61284B86
:1032EC001800FFF74AFE0400254B1800FFF738FEC4
:1032FC00030019002000FFF79FFE03003B60002332
:10330C007B603B697C6939687A685B1854413B6126
:10331C007C611B4B1800FFF73DFE0300DBB21B1159
:10332C00DBB20F221340DBB21A1C9200D318DB184D
:10333C00DCB2134B1800FFF72DFE0300DBB20F229B
:10334C001340DBB2E318DBB2013B1D00DB171E00A0
:10335C003B697C695B1974413B617C61094A0023C0
:10336C0038697969FDF76AF803000C003B617C61F0
:10337C003B697C6918002100BD4607B0F0BDC04612
:10338C00002800408051010090B583B000AF0023AD
:10339C0000243B607C60FFF787FF0A0001003B685C
:1033AC007C685B1854413B607C60FFF7EFFE0A00C1
:1033BC0001003B687C685B1854413B607C603B6857
:1033CC007C6818002100BD4603B090BDF0B58BB0F1
:1033DC0000AF3860796038687968934A0023FDF74C
:1033EC0009F803000C00BB61BA696E23FF331900A6
:1033FC001000FCF789FE0300FB61FB690A21180031
:10340C00FCF782FE0300DBB21B01DCB2FB690A2174
:10341C001800FCF7FFFE0B00DBB22343DBB21800F5
:10342C00FFF750FE03007B62BA697B6A9A4219D29D
:10343C00FB69013BFB61FB690A211800FCF764FE88
:10344C000300DBB21B01DCB2FB690A211800FCF79C
:10345C00E1FE0B00DBB22343DBB21800FFF732FEB8
:10346C0003007B62FB69DAB21423FB18DA70BA69C9
:10347C007B6AD31A0133BB61BB691D211800FCF7B1
:10348C0043FE03000133FB61FB690C2B00D90C23B9
:10349C00FB61FB690A211800FCF736FE0300DBB266
:1034AC001B01DCB2FB690A211800FCF7B3FE0B0010
:1034BC00DBB22343DBB21D001426BB19DB780A21D7
:1034CC001800FCF721FE0300DBB21B01DCB2BB19B8
:1034DC00DB780A211800FCF79DFE0B00DBB22343BE
:1034EC00DBB219002800FFF7A7FD03003B62BA69A5
:1034FC003B6A9A4230D8FB69013BFB61FB690A21AC
:10350C001800FCF701FE0300DBB21B01DCB2FB6907
:10351C000A211800FCF77EFE0B00DBB22343DBB262
:10352C001D001426BB19DB780A211800FCF7ECFDF2
:10353C000300DBB21B01DCB2BB19DB780A211800DB
:10354C00FCF768FE0B00DBB22343DBB2190028004A
:10355C00FFF772FD03003B62FB69DAB214217B18A2
:10356C005A70BA693B6AD31AFB61FB69DAB20D0077
:10357C007B189A703B687C6818002100FFF7E0FD0F
:10358C0003001A0029007B181A707B1827481A00B0
:10359C00002106F021FC39687A6A3B6AD218FB6973
:1035AC00D21813005B009B181A01D21A13019B1A34
:1035BC00DB015B42CB181C4A94466344FB61FA69FD
:1035CC00E12319011000FCF79FFD0300DAB20C2473
:1035DC003B191A71FA69E12319011000FCF71AFE64
:1035EC000B00FB61FB693C211800FCF78DFD03000F
:1035FC00DAB23B195A71FB693C211800FCF70AFE40
:10360C000B00FB61FB69DAB23B199A713B19002282
:10361C001A603B1905481A00002106F049FAC04609
:10362C00BD460BB0F0BDC0468051010000280040E3
:10363C0080B500AF184B194A1A60174B20225A60FC
:10364C00154B8022D2059A60134B0022DA60124B84
:10365C00A022D2021A61104B8022D2035A610E4B67
:10366C0000221A760C4B00225A760B4B00229A76CB
:10367C00094B0022DA76084B00221A77064B0022FF
:10368C005A77054B180001F0EDFF031E01D001F035
:10369C00E3FBC046BD4680BD6C03002000640040C7
:1036AC0080B58AB000AF78601423FB18180014237F
:1036BC001A00002107F0FEF97B681B68204A934230
:1036CC003AD1204BDA691F4B802189040A43DA6115
:1036DC001C4BDA6980239B0413403B613B69194BFB
:1036EC005A69184B8021C9020A435A61154B5A6911
:1036FC008023DB021340FB60FB6814217B18C02283
:10370C0092001A607B1802225A607B1800229A6081
:10371C007B180322DA607B1804221A617B180A4A90
:10372C001900100003F07EFA002200211E2003F085
:10373C00E9F91E2003F006FAC046BD460AB080BD6A
:10374C0000640040001002400004004880B582B0C4
:10375C0000AF786039607B6820229B5CDBB2022B67
:10376C0001D1002315E00D4B18683A6813005B007B
:10377C009B189B001900FCF7C7FC03001A007B6820
:10378C005A607B68180001F06DFF03005A425341E8
:10379C00DBB21800BD4602B080BDC0462C00002034
:1037AC0080B582B000AF78607B6820229B5CDBB276
:1037BC00022B08D17B68180002F062FB03005A420E
:1037CC005341DBB200E001231800BD4602B080BDBE
:1037DC0080B58EB000AF78600C217B1800225A6146
:1037EC007B1800229A617B180122DA617B18002277
:1037FC001A607B1800225A607B1800229A607B1892
:10380C000022DA607B1800221A617B1801221A62EE
:10381C007B180E225A627A187B681100180002F08D
:10382C0075F903001A0037203B1851424A411A70AF
:10383C003B181B78002B0CD0114A7B681100180028
:10384C0002F064FE03001A003723FB1851424A4170
:10385C001A703723FB181B78002B0AD07B681800D2
:10386C0002F0C8FA03001A003723FB1851424A41F0
:10387C001A703723FB181B781800BD460EB080BD9C
:10388C001380000080B582B000AF78603960396871
:10389C003B6818331A000D4B786802F03DFB031E91
:1038AC000ED07B681800FFF77BFF7B681800FFF7D2
:1038BC008FFF074B1B685A1C054B1A60002300E056
:1038CC0001231800BD4602B080BDC046180200207E
:1038DC00C003002080B582B000AF7860204B1B681D
:1038EC005A1C1F4B1A607B685A6A80235B01134079
:1038FC0004D07B680121180002F04EFC7B685A6AE8
:10390C008023DB01134004D07B680221180002F0F5
:10391C0043FC7B685A6A80235B02134004D07B68AB
:10392C000421180002F038FC7B685A6AFF235B0004
:10393C0013400CD07B681800FFF732FF7B6818002F
:10394C00FFF746FF074B1B685A1C064B1A607B6837
:10395C00180002F0FEFFC046BD4602B080BDC04656
:10396C0098030020C003002080B582B000AF7860BF
:10397C00044B1B685A1C034B1A60C046BD4602B070
:10398C0080BDC0469403002080B582B000AF786043
:10399C00044B1B685A1C034B1A60C046BD4602B050
:1039AC0080BDC0469403002080B582B000AF786023
:1039BC00044B1B685A1C034B1A60C046BD4602B030
:1039CC0080BDC0469403002080B582B000AF786003
:1039DC000E4B0F4A7868002102F06CFC031E11D1CB
:1039EC000C4B1B680A4A1100180000F003FE084A31
:1039FC00094B11001800FDF79BFF084B1B685A1C64
:103A0C00064B1A60C046BD4602B080BDB80300200C
:103A1C009C0300203400002090020020C4030020EE
:103A2C0080B582B000AF78600E4B0F4A78680121E8
:103A3C0002F040FC031E11D10C4B1B680A4A11000A
:103A4C00180000F0D7FD084A094B11001800FDF7CB
:103A5C006FFF084B1B685A1C064B1A60C046BD46CC
:103A6C0002B080BDB80300209C030020340000206D
:103A7C0090020020C403002080B586B000AFF8602F
:103A8C00B9607A60BB68042B13D800237B610CE00F
:103A9C007B69DB007A68DA4011007B69FA68D3181D
:103AAC00CAB21A707B6901337B617B69BA689A422E
:103ABC00EED8C046BD4606B080BDB0B586B000AFEE
:103ACC00F860B9603A607B60BB68082B24D800238F
:103ADC007B611DE07B69DB001A00203A002A03DBC6
:103AEC007968D1400C0008E02022D21A7968914004
:103AFC000A003968D9400C0014437A68DA40150082
:103B0C007B69FA68D318E2B21A707B6901337B6166
:103B1C007B69BA689A42DDD8C046BD4606B0B0BDD6
:103B2C00F0B58DB000AF78620A002223FB181A8022
:103B3C007B6ABB62444B05221A80BB6A00221A7056
:103B4C00BB6A40225A70BB6A00229A70BB6A181D6D
:103B5C003E4B3F4C1A0023000821FFF7AEFF012318
:103B6C00FB6266E0FA6A13005B009B189B001A006C
:103B7C00BB6A9B1801221A70FA6A13005B009B182F
:103B8C009B001A00BB6A9B1840225A70FA6A1300F9
:103B9C005B009B189B001A00BB6A9B1801229A7051
:103BAC00FA6A13005B009B189B001A00BB6A9B18F7
:103BBC00181DFB6A3B60DB177B603B687C685A080E
:103BCC00E6071643DD0739687A680B0014005B19A9
:103BDC007441DB1864415B1A94411A0F2101F9619D
:103BEC00F9691143F9611A01BA61B969FA695B188B
:103BFC0054411A0E210279617969114379611A02D3
:103C0C003A6139697A695B1854411A0C2104F960DC
:103C1C00F9681143F9601A04BA60B968FA685B185C
:103C2C0054411A0023000821FFF747FFFB6A0133B8
:103C3C00FB62054B1B881A00FB6A934292DBC04661
:103C4C00BD460DB0F0BDC046B0330020EFCDAB8902
:103C5C006745230180B582B000AF78600A00BB1CB9
:103C6C001A80C046BD4602B080BD000080B586B04B
:103C7C0000AF02003960FB1D1A701223FB180222E0
:103C8C0052421A803B68002B2ED0FB1D1B78002B58
:103C9C002AD0FB1D1B78402B26D8174BFB6000232A
:103CAC007B611BE0FB685B78FA1D12789A4212D19B
:103CBC007A6913005B009B189B001A00FB689B1829
:103CCC00043339680822180006F0DCFE031E02D10A
:103CDC007B699BB20BE07B6901337B61074B1B88D3
:103CEC001A007B699342DDDB1223FB181B8818003A
:103CFC00BD4606B080BDC046C0040020B0330020D5
:103D0C0080B584B000AF78600A00BB1C1A807B6859
:103D1C00FB60FB68354A04211800FFF7ADFEFB6819
:103D2C000433324A04211800FFF7A6FEFB6808335F
:103D3C002E4A04211800FFF79FFEFB680C332B4A18
:103D4C0004211800FFF798FEFB681033274A042162
:103D5C001800FFF791FEFB681433244A0421180065
:103D6C00FFF78AFEFB681833204A04211800FFF77E
:103D7C0083FEFB681C3318001D4B1A000421FFF74F
:103D8C007BFEFB681C330433194A04211800FFF72F
:103D9C0073FEFB681C330833154A04211800FFF727
:103DAC006BFEFB681C330C33114A04211800FFF71F
:103DBC0063FEFB681C3310330D4A04211800FFF717
:103DCC005BFEFB681C331433002204211800FFF740
:103DDC0053FEFB681C331833002204211800FFF734
:103DEC004BFEC046BD4604B080BDC046FFFFFF0081
:103DFC0000FF010080B586B000AF786008001100AC
:103E0C00BB1C021C1A807B1C0A1C1A7000237B61D1
:103E1C005CE036497A6913005B009B189B005B5A87
:103E2C00BA1C12889A424ED130497A6913005B0051
:103E3C009B189B00CB1802331B78072B34D12B49D2
:103E4C007A6913005B009B189B00CB1804331B682A
:103E5C00FB60FB685A680B23FB1812781A7000235E
:103E6C003B6119E03A6913005B009B189B001A0038
:103E7C00FB689B181A887B1C1B789BB29A4208D152
:103E8C003A6913005B009B189B001A00FB689B1897
:103E9C0027E03B6901333B610B23FB181B78013393
:103EAC003A699A42DEDB0EE07B1C1B78002B08D1B2
:103EBC007A6913005B009B189B001A000B4BD318FC
:103ECC000FE000230DE07B6901337B6107497A69C0
:103EDC0013005B009B189B005B5A054A934298D1D8
:103EEC0000231800BD4606B080BDC04674C0000853
:103EFC00FFFF000090B585B000AF786039600F23EC
:103F0C00FB1801221A70FFF73FFA03000C00BB608C
:103F1C003B68012B22D1BB68DAB22E4B1A70BB68FE
:103F2C001B0ADAB22B4B5A70BB681B0CDAB2294B4A
:103F3C009A70BB681B0EDAB2264BDA702649274BF7
:103F4C000422180006F0ADFD7B68224A9A647B6857
:103F5C000822DA640F23FB1800221A703B68022B2C
:103F6C0011D11F4A1C4B100004330822190006F013
:103F7C0098FD7B681A4A9A657B680822DA650F23DC
:103F8C00FB1800221A703B68032B1CD1BB68DAB2F9
:103F9C00144B1A70BB681B0ADAB2124B5A70BB680E
:103FAC001B0CDAB20F4B9A70BB681B0EDAB20D4BBE
:103FBC00DA707B680B4A9A667B680422DA660F23F8
:103FCC00FB1800221A700F23FB181B781800BD4633
:103FDC0005B090BD6C020020C803002070020020C8
:103FEC00740200207C02002080B582B000AF7860A3
:103FFC000A00FB1C1A70044BFA1C12781A70C0468B
:10400C00BD4602B080BDC046A033002080B584B050
:10401C0000AF786008001100BB1C021C1A807B1CCE
:10402C000A1C1A700023FB607B1C1A78BB1C1988B5
:10403C007B681800FDF7BAFD0300BB60BB68002B62
:10404C000CD0BB685A68084B9A4207D1074B1B88A7
:10405C001A0013005B009B189B00FB60FB681800A8
:10406C00BD4604B080BDC046C0040020B033002063
:10407C0080B582B000AF786008001100BB1C021C38
:10408C001A807B1C0A1C1A70BB1C1B88094A9342A1
:10409C000BD17B1C1B78002B07D1074A074B100058
:1040AC0019000C231A0006F0FCFC00231800BD4676
:1040BC0002B080BD01200000A4330020C004002009
:1040CC00B0B58AB000AF786008001100BB1C021CB0
:1040DC001A807B1C0A1C1A70BB1C1B88674A9342F3
:1040EC0017D17B1C1B78002B13D1654B3B623B6AB1
:1040FC001B78002B03D13B6A9B78002B01D001234A
:10410C00B8E0604A5E4B100019000C231A0006F050
:10411C00C8FCBB1C1B885C4A934237D17B1C1B78A8
:10412C00002B33D1594BFB61594B1B88594A934295
:10413C000BD8FB695B78002B07D0FB695B78402BB5
:10414C0003D8FB691B78002B01D1012392E0504B63
:10415C001A881A203B180C214A431A803B181A88DB
:10416C00484BD218494B100019000C231A0006F0CA
:10417C0098FC474B1B8801339AB2454B1A80444B31
:10418C001A88404B11001800FFF764FDBB1C1B88FC
:10419C00414A934200D06CE07B1C1B78002B00D072
:1041AC0067E03E4B7B613A4B1B88012B0BD97B693B
:1041BC005B78002B07D07B695B78402B03D87B693D
:1041CC001B78002B01D1012354E07B695A787B6961
:1041DC00043312257C1919001000FFF747FD03006A
:1041EC0023807B191B88002B43D01223FB181B88C0
:1041FC002B4A93423DD01223FB181B887B621DE097
:10420C007B6A9AB210203B180C214A431A807B6AB5
:10421C0001339AB20E243B190C214A431A803B18E5
:10422C001A88184BD0183B191A88164BD3180C2225
:10423C00190006F036FC7B6A01337B62144B1B8839
:10424C001A007B6A9342DBDB114B1B88013B9AB251
:10425C000F4B1A800E4B1B881A0013005B009B1827
:10426C009B001A00074BD3180C220021180006F0F3
:10427C0021FC00231800BD460AB0B0BD012000008F
:10428C00A4330020C004002002200000B40400204D
:10429C00B0330020E703000003200000B4330020FB
:1042AC00FEFF000090B58BB000AF14243B19180032
:1042BC0014231A00002106F0FDFB634B5A69624B74
:1042CC00802109030A435A615F4B5A6980231B03FF
:1042DC0013403B613B695C4B5A695B4B8021C903C2
:1042EC000A435A61584B5A698023DB031340FB6025
:1042FC00FB68554B5A69544B802189020A435A6119
:10430C00514B5A6980239B021340BB60BB684E4BD8
:10431C005A694D4B8021C9020A435A614A4B5A696A
:10432C008023DB0213407B607B68474B5A69464B0A
:10433C00802149030A435A61434B5A6980235B032A
:10434C0013403B603B689023DB05002220211800C2
:10435C0002F0A6FE3B19802292011A603B193B4ADF
:10436C005A603B1900229A603B19394A1900100017
:10437C0002F058FC3B19374A1A603B1903225A6069
:10438C003B1900229A603B19314A1900100002F0C7
:10439C0049FC3B19304A1A603B1903225A603B19FD
:1043AC0000229A603A199023DB051100180002F0E4
:1043BC0039FC3B1920221A603B1901225A603B1927
:1043CC0000229A603B190022DA603A199023DB052F
:1043DC001100180002F026FC21007B181F4A1A60FD
:1043EC007B1803225A607B1800229A600C007B1801
:1043FC001B4A1900100002F015FC21007B18042246
:10440C001A607B1803225A607B1800229A600C00F9
:10441C007B18144A1900100002F004FC21007B18D0
:10442C00802212011A607B1803225A607B1800222A
:10443C009A607B180C4A1900100002F0F3FBC0467E
:10444C00BD460BB090BDC0460010024000002110CC
:10445C0000080048FF1F0000D39F0000FFFC000075
:10446C0000040048000C00480014004880B500AF60
:10447C00074B1B889BB2013306491800FBF7B4FFAE
:10448C000B009AB2024B1A80C046BD4680BDC04696
:10449C00C233002060EA000080B582B000AF020099
:1044AC00FB1D1A70FB1DFA1D12780F210A401A70A1
:1044BC00FB1D1B78092B04D9FB1D1B783733DBB292
:1044CC0003E0FB1D1B783033DBB21800BD4602B095
:1044DC0080BD80B582B000AF0200FB1D1A70FB1DC1
:1044EC001B782F2B08D9FB1D1B78392B04D8FB1DEF
:1044FC001B78303BDBB21AE0FB1D1B78602B08D914
:10450C00FB1D1B78662B04D8FB1D1B78573BDBB2BD
:10451C000DE0FB1D1B78402B08D9FB1D1B78462B8F
:10452C0004D8FB1D1B78373BDBB200E0FF231800DF
:10453C00BD4602B080BD000080B584B000AF78608D
:10454C007B681800FCF784FA0300532B04D17B68BA
:10455C0001211800FCF7BAF87B681800FCF794FAF4
:10456C0003001800FFF7B5FF0300082B1FD89A00B3
:10457C00154BD3181B689F46144BFB6019E0144B6A
:10458C00FB6016E0134BFB6013E0134BFB6010E079
:10459C00124BFB600DE0124BFB600AE0114BFB6011
:1045AC0007E0114BFB6004E0104BFB6001E00023C3
:1045BC0006E0FA680E4B11001800FFF7C7F803006D
:1045CC001800BD4604B080BDC8C00008102700000C
:1045DC00204E000050C30000A086010048E80100F6
:1045EC0090D0030020A1070000350C0040420F00C2
:1045FC006C03002080B584B000AF786039603B68F4
:10460C001B695B00624A12789B18053301D00423A6
:10461C0000E00123BB607B681800FCF784F9020002
:10462C00BB68934201D90023ADE07B68742118006C
:10463C00FCF771FA3B681B681B0ADBB21800FFF72A
:10464C002BFF03001A007B6811001800FCF763FABB
:10465C003B681B681B09DBB21800FFF71DFF03004A
:10466C001A007B6811001800FCF755FA3B681B68B0
:10467C00DBB21800FFF710FF03001A007B68110073
:10468C001800FCF748FA3B681B69DBB21800FFF70F
:10469C0003FF03001A007B6811001800FCF73BFABB
:1046AC000023FB6022E03A68FB68D3181C331B78AC
:1046BC001B09DBB21800FFF7EFFE03001A007B6842
:1046CC0011001800FCF727FA3A68FB68D3181C3362
:1046DC001B781800FFF7E0FE03001A007B6811003E
:1046EC001800FCF718FAFB680133FB603B681A6989
:1046FC00FB689A42D7D8264B1B78002B3DD0254B14
:10470C001B889BB21B0B9BB2DBB21800FFF7C4FEDD
:10471C0003001A007B6811001800FCF7FCF91D4B14
:10472C001B889BB21B0A9BB2DBB21800FFF7B4FECE
:10473C0003001A007B6811001800FCF7ECF9154B0C
:10474C001B889BB21B099BB2DBB21800FFF7A4FEBF
:10475C0003001A007B6811001800FCF7DCF90D4B04
:10476C001B889BB2DBB21800FFF796FE03001A0001
:10477C007B6811001800FCF7CEF97B680D2118003E
:10478C00FCF7C9F901231800BD4604B080BDC04632
:10479C0080020020C233002080B584B000AF786066
:1047AC0039607B681800FCF753F90300742B04D1B3
:1047BC007B6801211800FBF789FF7B68002118003A
:1047CC00FCF717F903001800FFF783FE0300FF2B1B
:1047DC0017D07B6801211800FCF70BF903001800B7
:1047EC00FFF777FE0300FF2B0BD07B68022118002C
:1047FC00FCF7FFF803001800FFF76BFE0300FF2B1C
:10480C0001D10023A2E07B681800FCF73DF90300FE
:10481C001800FFF75EFE03001B021A003B681A60CB
:10482C007B681800FCF730F903001800FFF751FE05
:10483C0003001A013B681B689A183B681A607B6876
:10484C001800FCF721F903001800FFF742FE0300E3
:10485C001A003B681B689A183B681A607B68180042
:10486C00FCF712F903001800FFF733FE03001A00DF
:10487C003B681A613B681B69082B01D9002365E072
:10488C000023FB6044E07B6800211800FCF7B1F8C2
:10489C0003001800FFF71DFE0300FF2B0BD07B68F5
:1048AC0001211800FCF7A5F803001800FFF711FE12
:1048BC000300FF2B01D1002348E07B681800FCF7B4
:1048CC00E3F803001800FFF704FE03001B01D9B244
:1048DC003A68FB68D31818330A1C1A707B681800E6
:1048EC00FCF7D2F803001800FFF7F3FD03001900E2
:1048FC003A68FB68D31818331B78CB18D9B23A68CE
:10490C00FB68D31818330A1C1A70FB680133FB6060
:10491C003B681A69FB689A42B5D87B681800FCF7AB
:10492C0097F803000D2B01D000230FE03B68002209
:10493C00DA603B6800229A603B6800225A603A6851
:10494C00044B11001800FEF79DFF03001800BD4634
:10495C0004B080BD6C03002080B58CB000AF7860D3
:10496C0039600023FB62D2E07B680D211800FBF755
:10497C00F2FF031E00D1CAE07B681800FCF768F850
:10498C000300433B332B00D99EE09A00714BD318A4
:10499C001B689F460C23FB186F4A03CA03C30723EB
:1049AC00FB6298E06D490C23F8180323012206F0F2
:1049BC00A3F80300FB628EE0694B1800FEF7F0FED3
:1049CC00031E0CD0674B1B6800211800FCF752FC2F
:1049DC000C23FB180D221A700123FB627BE00C23C5
:1049EC00FB1807221A700123FB6274E05C4B180061
:1049FC00FEF7EEFE031E0CD05A4B1B68012118006B
:104A0C00FCF738FC0C23FB180D221A700123FB62F7
:104A1C0061E00C23FB1807221A700123FB625AE099
:104A2C00514A7B6811001800FFF7B6FE031E06D032
:104A3C000C23FB180D221A700123FB624BE00C2394
:104A4C00FB1807221A700123FB6244E07B680121EA
:104A5C001800FBF7CEFF03001800FFF73AFD031E0A
:104A6C0002D0012B0AD013E0404B00221A700C2309
:104A7C00FB180D221A700123FB6210E03B4B012244
:104A8C001A700C23FB180D221A700123FB6206E02E
:104A9C000C23FB1807221A700123FB621BE01AE09F
:104AAC007B681800FFF748FD031E06D00C23FB188B
:104ABC000D221A700123FB620DE00C23FB18072258
:104ACC001A700123FB6206E00C23FB180D221A70EE
:104ADC000123FB62C046FB6A002B13D0FA6A0C233D
:104AEC00F9183B681800FCF732F80023FB627B686E
:104AFC000D211800FBF75AFF7B6801211800FBF70A
:104B0C00E5FD04E07B6801211800FBF7DFFD7B6805
:104B1C001800FBF7C8FE031E00D025E73B68180001
:104B2C00FBF7C1FE031E10D0114B180000F07CFCEB
:104B3C0003001A0001235340DBB2002B05D03A6866
:104B4C000B4B1100180000F04CFCC046BD460CB0DD
:104B5C0080BDC046ECC0000828BD000830BD000870
:104B6C006C030020080000204C0300208002002071
:104B7C00D057002090B58FB002AF00F0CFFC00F002
:104B8C007DF8FA23DB00180000F02CFDFFF78AFB00
:104B9C0000F076FBFEF74CFD00F0CEF92C4B002418
:104BAC0018002100FEF712FC2A4B1C6838009023D9
:104BBC00D9050123009301232022FCF775FA3A0052
:104BCC00230013CA13C313CA13C313CA13C303CAD0
:104BDC0003C3214B1C68380080239A011F49012311
:104BEC0000930023FBF7E6FF3A00230013CA13C31C
:104BFC0013CA13C313CA13C3194B1A68194B1100E8
:104C0C00180000F0D9FB184A184B11001800FCF7DB
:104C1C0037FE164B64221A74144B02225A74FA2370
:104C2C009A00134B11001800FEF77AFF114B082164
:104C3C001800FFF765F80A4B1A680F4B1B68190030
:104C4C001000FFF789FE094B1800FCF79BFDF2E7FB
:104C5C0070F46D38080000200400002000080048A3
:104C6C0030000020D057002064BF000890020020C4
:104C7C00C0040020D40300203400002090B599B06B
:104C8C0000AF2C243B19180034231A00002105F026
:104C9C0011FF1C23FB18180010231A00002105F02B
:104CAC0009FF3B0018001C231A00002105F002FF2D
:104CBC0002F064FA284B1A6A274B18210A431A622D
:104CCC0021007B1805221A607B1801225A607B1880
:104CDC0001229A607B1802225A627B1880225202AF
:104CEC009A627B18A0229203DA627B1801221A6363
:104CFC007B18180002F050FA031E01D000F0ACF83B
:104D0C001C217B1807221A607B1802225A607B1820
:104D1C0000229A607B180022DA607B1801211800AF
:104D2C0002F050FF031E01D000F096F83B000B4A36
:104D3C001A603B000022DA603B00802252005A606D
:104D4C003B00180003F046F9031E01D000F084F874
:104D5C00C046BD4619B090BD0010024002000100D3
:104D6C0090B583B000AF78607B685B7A5BB2012B47
:104D7C0034D11C4B1C681B4B1B681800FCF7D7FA72
:104D8C000300022264212000FCF792FA164B1B88C8
:104D9C000133164A1288934204DA134B1B880133F1
:104DAC009AB200E00122104B1A800F4B1B881A009C
:104DBC0013005B009B189B001A000D4BD1180D4B78
:104DCC000C22180005F06DFE0B4B01211800FDF7AD
:104DDC00D9F8094B02211800FDF7D4F8C046BD469E
:104DEC0003B090BD0800002082020020B0330020E8
:104DFC00C0040020C80300209002002090B583B0AE
:104E0C0000AF7860104B1C680F4B1B681800FCF748
:104E1C008EFA0300032296212000FCF749FA0B4975
:104E2C000B4B0C22180005F03CFE0A4B012118001C
:104E3C00FDF7A8F8074B02211800FDF7A3F8C046B0
:104E4C00BD4603B090BDC04608000020C004002041
:104E5C00C80300209002002080B500AF9023DB0532
:104E6C002021180002F05CF9962000F0BBFBF5E75E
:104E7C0080B582B000AF78603960C046BD4602B0E4
:104E8C0080BD000080B582B000AF786039607B686F
:104E9C001B69054A1A403B681B041A437B681A615C
:104EAC00C046BD4602B080BDFFFF80FF80B582B01A
:104EBC0000AF786039607B681B69DB0BDA033B68F9
:104ECC001A437B681A61C046BD4602B080BD90B5DE
:104EDC0085B000AFF860B9607A600024FB6850338D
:104EEC001C00BB689B00E41823007A681A60C0465B
:104EFC00BD4605B090BD90B583B000AF7860396009
:104F0C0000247B6850331C003B689B00E418230092
:104F1C001B681800BD4603B090BD000080B500AF03
:104F2C00044B1A6A034B802109020A431A62C046D9
:104F3C00BD4680BD0010024090B58DB000AF24245A
:104F4C003B1918000C231A00002105F0B3FD1C239B
:104F5C00FB18180008231A00002105F0ABFD1823DC
:104F6C00FB1800221A603B1D180014231A000021A4
:104F7C0005F0A0FDFFF7D2FF3B1900221A603B1988
:104F8C007F225A603B19FF229A603B192F4A190065
:104F9C00100004F021FD2D4B7F211800FFF772FF4C
:104FAC002A4BFF211800FFF781FF284B0021180026
:104FBC00FFF7A1FF0200264B9A4225D01C217B183B
:104FCC000D221A717B1825225A717B1800229A71B6
:104FDC007B181E481A00012104F06AFD18217B1869
:104FEC0002221A707B1809225A707B181422DA706C
:104FFC007B1816481A00012104F0EEFE144A134BDC
:10500C0000211800FFF763FF104B00211800FFF779
:10501C0072FF02000E4B9A4205D00D4A0B4B002139
:10502C001800FFF754FF3B1D00229A603B1D002225
:10503C00DA603B1D01221A743B1D04481A00012141
:10504C0005F03AF9C046BD460DB090BD00280040B1
:10505C00F232000080B582B000AF0F4B9A690E4B54
:10506C0001210A439A610C4B9B69012213407B601E
:10507C007B68094BDA69084B802149050A43DA61E0
:10508C00054BDA6980235B0513403B603B68C046E7
:10509C00BD4602B080BDC0460010024080B500AFD6
:1050AC00C046BD4680BD80B500AFFEE780B500AF01
:1050BC00C046BD4680BD80B500AFC046BD4680BD74
:1050CC0080B500AF00F072FAFFF7D0F90D4B1B68FA
:1050DC001800FBF7C1FE031E04D00A4B1B68180016
:1050EC00FBF7AAFD084B1B681800FCF77BF8031EA6
:1050FC0004D0054B1B681800FCF70AF8C046BD46E7
:10510C0080BDC046040000200800002080B500AF20
:10511C00034B180003F0CAFAC046BD4680BDC0461A
:10512C00D057002080B500AF034B180001F028FACF
:10513C00C046BD4680BDC0466C03002080B586B01D
:10514C0000AFF860B9607A6000237B610AE000E090
:10515C0000BF0100BB685A1CBA60CAB21A707B69E6
:10516C0001337B617A697B689A42F0DB7B681800BB
:10517C00BD4606B080BD80B586B000AFF860B960A2
:10518C007A6000237B6109E0BB685A1CBA601B780B
:10519C00180000E000BF7B6901337B617A697B6892
:1051AC009A42F1DB7B681800BD4606B080BD80B525
:1051BC0082B000AF786001235B421800BD4602B09C
:1051CC0080BD80B582B000AF786039603B688022CA
:1051DC0092015A6000231800BD4602B080BD80B514
:1051EC0082B000AF786001231800BD4602B080BDCC
:1051FC0080B584B000AFF860B9607A600023180005
:10520C00BD4604B080BD000080B586B000AF7860AC
:10521C00144A154BD31A7B617B693B61134B1B689A
:10522C00002B02D1114B124A1A60104B1A687B6882
:10523C00D3183A699A4207D205F0FAFB03000C2204
:10524C001A6001235B4209E0084B1B68FB60074BAB
:10525C001A687B68D218054B1A60FB681800BD46AB
:10526C0006B080BD008000200008000084020020F1
:10527C006858002080B500AFC046BD4680BD000018
:10528C0080B500AF144B154A1A60134BE122520241
:10529C005A60114B00229A600F4B0022DA600E4BC1
:1052AC0000221A610C4B0C225A610B4B00229A61A2
:1052BC00094B0022DA61084B00221A62064B0022CD
:1052CC005A62054B180003F015F8031E01D0FFF7C6
:1052DC00C3FDC046BD4680BDD057002000440040F1
:1052EC0080B58AB000AF78601423FB181800142323
:1052FC001A00002105F0DEFB7B681B68284A9342EC
:10530C004AD1284BDA69274B802189020A43DA619A
:10531C00244BDA6980239B0213403B613B69214B90
:10532C005A69204B802189020A435A611D4B5A69E4
:10533C0080239B021340FB60FB6814217B180C221A
:10534C001A607B1802225A607B1800229A607B1824
:10535C000022DA607B1801221A617A189023DB058F
:10536C001100180001F05EFC002200211C2001F04D
:10537C00C9FB1C2001F0E6FB0B4B18688023DA00FC
:10538C000A4B1900FBF755FA094B186880239A0150
:10539C00084B1900FBF74DFAC046BD460AB080BD5C
:1053AC00004400400010024030000020D053002088
:1053BC0034000020D033002080B584B000AF78607A
:1053CC0039603B681800FBF7F6F90300FB60F968DD
:1053DC007B680122180003F0B1F8C046BD4604B04A
:1053EC0080BD80B584B000AF786039603B68180030
:1053FC00FBF7CEF90300FB603B681800FBF7EEF9F6
:10540C000300BB60BB689AB2F9687B68180003F0B4
:10541C0027F8BB689AB23B6811001800FBF756F9E5
:10542C00C046BD4604B080BD80B582B000AF786088
:10543C007B685B6F232B03D07B685B6F212B01D1C7
:10544C00012300E000231A1C01231340DBB21800D7
:10545C00BD4602B080BD000080B582B000AF786060
:10546C000C4B1B681800FBF7A6F903001B780A2BE2
:10547C0005D0084B1B6801211800FBF751F9054BAF
:10548C001A687B6811001800FFF796FFC046BD46EE
:10549C0002B080BD3000002080B582B000AF7860D3
:1054AC00084B1B681800FBF7FEF9031E06D0054BD2
:1054BC001A687B6811001800FFF793FFC046BD46C1
:1054CC0002B080BD340000200D4885460D480E49C1
:1054DC000E4A002302E0D458C4500433C4188C4242
:1054EC00F9D30B4A0B4C002301E013600432A242A7
:1054FC00FBD3FFF7BFFE05F0A1FAFFF73BFBFEE77E
:10550C000080002000000020A40000207CC20008C5
:10551C00A400002064580020FEE7000080B500AF16
:10552C00074B1A68064B10210A431A60002000F042
:10553C0009F8FFF78FFD00231800BD4680BDC0465B
:10554C000020024090B583B000AF7860144B1C680B
:10555C00144B1B781900FA239800FAF7D5FD0300B9
:10556C0019002000FAF7D0FD0300180001F006FB2B
:10557C00031E01D001230FE07B68032B0BD8796845
:10558C0001235B420022180001F0BCFA064B7A683A
:10559C001A60002300E001231800BD4603B090BD43
:1055AC002C0000203C0000203800002080B500AF0B
:1055BC00054B1B781A00054B1B68D218034B1A605D
:1055CC00C046BD4680BDC0463C0000205C58002053
:1055DC0080B500AF024B1B681800BD4680BDC046AD
:1055EC005C58002080B584B000AF7860FFF7F0FF06
:1055FC000300BB607B68FB60FB68013305D0094B83
:10560C001B781A00FB689B18FB60C046FFF7E0FF95
:10561C000200BB68D31AFA689A42F7D8C046BD4656
:10562C0004B080BD3C00002080B500AF024B1B686D
:10563C001800BD4680BDC046ACF7FF1F80B500AF5B
:10564C00024B1B681800BD4680BDC046B0F7FF1F5B
:10565C0080B500AF024B1B681800BD4680BDC0462C
:10566C00B4F7FF1F80B584B000AF78607B68002B67
:10567C0001D1012345E27B681B68C64A934207D0DF
:10568C001E23FF331A00C44B11001800FFF7F0FB68
:10569C007B681B7E002B0AD07B681B7E012B06D0FF
:1056AC008F235A00BC4B11001800FFF7E1FB7B68FD
:1056BC005B7E002B0BD07B685B7E012B07D02023FD
:1056CC00FF331A00B44B11001800FFF7D1FB7B68B5
:1056DC009B7E002B0AD07B689B7E012B06D09023EF
:1056EC005A00AD4B11001800FFF7C2FB7B68DB7E44
:1056FC00002B0BD07B68DB7E012B07D02223FF33E2
:10570C001A00A54B11001800FFF7B2FB7B681B7F3A
:10571C00002B0AD07B681B7F012B06D091235A00EB
:10572C009D4B11001800FFF7A3FB7B685B7F002BE0
:10573C000BD07B685B7F012B07D02423FF331A002F
:10574C00954B11001800FFF793FB7B689B68002BAF
:10575C0018D07B689A688023DB059A4212D07B684C
:10576C009A6880231B069A420CD07B689A68C023E7
:10577C001B069A4206D092235A00874B1100180040
:10578C00FFF776FB7B68DB68002B19D07B68DA6847
:10579C0080235B049A4213D07B68DA6880239B04D5
:1057AC009A420DD07B68DA68C0239B049A4207D0DA
:1057BC002623FF331A00784B11001800FFF758FB13
:1057CC007B681B69002B60D07B681A6980235B02A5
:1057DC009A425AD07B681A6980239B029A4254D011
:1057EC007B681A69C0239B029A424ED07B681A6967
:1057FC008023DB029A4248D07B681A69A023DB0223
:10580C009A4242D07B681A69C023DB029A423CD090
:10581C007B681A69E023DB029A4236D07B681A69EE
:10582C0080231B039A4230D07B681A6990231B0398
:10583C009A422AD07B681A69A0231B039A4224D06F
:10584C007B681A69B0231B039A421ED07B681A69C5
:10585C00C0231B039A4218D07B681A69D0231B0300
:10586C009A4212D07B681A69E0231B039A420CD02F
:10587C007B681A69F0231B039A4206D093235A00C3
:10588C00454B11001800FFF7F3FA7B685B69002B9E
:10589C0031D07B685A6980235B039A422BD07B689A
:1058AC005A6980239B039A4225D07B685A69C0238E
:1058BC009B039A421FD07B685A698023DB039A4270
:1058CC0019D07B685A69A023DB039A4213D07B68FA
:1058DC005A69C023DB039A420DD07B685A69E023D6
:1058EC00DB039A4207D02823FF331A002A4B1100FE
:1058FC001800FFF7BDFA7B685B68002B05D07B684E
:10590C005A688023DB009A4206D994235A00224B12
:10591C0011001800FFF7ACFA7B6820229B5CDBB20D
:10592C00002B03D17B681800FDF7BAFE7B681B685F
:10593C001A687B681B6802218A431A60FFF748FECD
:10594C000300FB6013E0FFF743FE0200FB68D31A71
:10595C000A2B0CD97B685B6A802292021A437B6803
:10596C005A627B682022052199540123C9E07B6887
:10597C001B685B6802221340E5D17B681B681A68C0
:10598C007B681B6801210A431A60FFF721FE0300A4
:10599C00FB6017E0006400403CBD0008FFF718FEF8
:1059AC000200FB68D31A0A2B0CD97B685B6A802235
:1059BC0092021A437B685A627B6820220521995413
:1059CC0001239EE07B681B685B6801221340E5D0D5
:1059DC007B681B7E012B08D17B681B681A687B686F
:1059EC001B6880210A431A6007E07B681B681A68F1
:1059FC007B681B6880218A431A607B685B7E012B65
:105A0C0008D17B681B681A687B681B6840210A43B5
:105A1C001A6007E07B681B681A687B681B6840216A
:105A2C008A431A607B689B7E012B08D17B681B68BC
:105A3C001A687B681B6820210A431A6007E07B68A0
:105A4C001B681A687B681B6820218A431A607B6874
:105A5C00DB7E012B08D17B681B681A687B681B688E
:105A6C0010218A431A6007E07B681B681A687B6800
:105A7C001B6810210A431A607B681B7F012B08D11D
:105A8C007B681B681A687B681B6808210A431A60CC
:105A9C0007E07B681B681A687B681B6808218A43CF
:105AAC001A607B685B7F012B08D17B681B681A68C6
:105ABC007B681B6804210A431A6007E07B681B683B
:105ACC001A687B681B6804218A431A607B689A6891
