:020000040800F2
:10000000008000200D1A0008E5160008EF16000811
:1000100000000000000000000000000000000000E0
:10002000000000000000000000000000F5160008BD
:100030000000000000000000FF160008091700087B
:100040005D1A00085D1A00085D1A00085D1A0008B4
:100050005D1A00085D1A00085D1A00085D1A0008A4
:100060005D1A00085D1A00085D1A00085D1A000894
:100070005D1A00085D1A00085D1A00085D1A000884
:100080005D1A00085D1A00085D1A00085D1A000874
:100090005D1A00085D1A00085D1A00085D1A000864
:1000A0005D1A00085D1A00085D1A00085D1A000854
:0C00B0001D1700085D1A00083517000835
:1000BC0010B5064C2378002B07D1054B002B02D032
:1000CC00044800E000BF0123237010BD780000201D
:1000DC00000000008C630008044B10B5002B03D00B
:1000EC000349044800E000BF10BDC04600000000FA
:1000FC007C0000208C630008002243088B4274D3E0
:10010C0003098B425FD3030A8B4244D3030B8B420C
:10011C0028D3030C8B420DD3FF22090212BA030C15
:10012C008B4202D31212090265D0030B8B4219D3F6
:10013C0000E0090AC30B8B4201D3CB03C01A524116
:10014C00830B8B4201D38B03C01A5241430B8B425E
:10015C0001D34B03C01A5241030B8B4201D30B0347
:10016C00C01A5241C30A8B4201D3CB02C01A52416E
:10017C00830A8B4201D38B02C01A5241430A8B4231
:10018C0001D34B02C01A5241030A8B4201D30B021A
:10019C00C01A5241CDD2C3098B4201D3CB01C01A34
:1001AC00524183098B4201D38B01C01A524143093E
:1001BC008B4201D34B01C01A524103098B4201D32C
:1001CC000B01C01A5241C3088B4201D3CB00C01A99
:1001DC00524183088B4201D38B00C01A5241430811
:1001EC008B4201D34B00C01A5241411A00D2014636
:1001FC00524110467047FFE701B5002000F0F0F8BF
:10020C0002BDC0460029F7D076E7704703460B4382
:10021C007FD4002243088B4274D303098B425FD3F3
:10022C00030A8B4244D3030B8B4228D3030C8B421F
:10023C000DD3FF22090212BA030C8B4202D3121205
:10024C00090265D0030B8B4219D300E0090AC30BDA
:10025C008B4201D3CB03C01A5241830B8B4201D387
:10026C008B03C01A5241430B8B4201D34B03C01A70
:10027C005241030B8B4201D30B03C01A5241C30AE8
:10028C008B4201D3CB02C01A5241830A8B4201D359
:10029C008B02C01A5241430A8B4201D34B02C01A43
:1002AC005241030A8B4201D30B02C01A5241CDD2E8
:1002BC00C3098B4201D3CB01C01A524183098B4233
:1002CC0001D38B01C01A524143098B4201D34B011C
:1002DC00C01A524103098B4201D30B01C01A52417F
:1002EC00C3088B4201D3CB00C01A524183088B4206
:1002FC0001D38B00C01A524143088B4201D34B00EF
:10030C00C01A5241411A00D2014652411046704760
:10031C005DE0CA0F00D04942031000D34042534065
:10032C0000229C4603098B422DD3030A8B4212D325
:10033C00FC22890112BA030A8B420CD38901921157
:10034C008B4208D3890192118B4204D389013AD094
:10035C00921100E08909C3098B4201D3CB01C01A69
:10036C00524183098B4201D38B01C01A524143097C
:10037C008B4201D34B01C01A524103098B4201D36A
:10038C000B01C01A5241C3088B4201D3CB00C01AD7
:10039C00524183088B4201D38B00C01A5241D9D2EF
:1003AC0043088B4201D34B00C01A5241411A00D270
:1003BC000146634652415B10104601D34042002B6C
:1003CC0000D54942704763465B1000D3404201B5EB
:1003DC00002000F005F802BD0029F8D016E77047A0
:1003EC007047C04680B500AF184B194A1A60174BBE
:1003FC0020225A60154B00229A60144B0022DA60BE
:10040C00124BA022D2021A61104B8022D2035A61E5
:10041C000E4B00221A760D4B00225A760B4B002203
:10042C009A760A4B0022DA76084B00221A77074B91
:10043C0000225A77054B180001F092FB031E01D0E5
:10044C0000F0D3FEC046BD4680BDC046C8000020AB
:10045C000064004080B58AB000AF78601423FB18AC
:10046C00180014231A00002105F07AFB7B681B6826
:10047C00204A93423AD1204BDA691F4B80218904E0
:10048C000A43DA611C4BDA6980239B0413403B61FD
:10049C003B69194B5A69184B8021C9020A435A61AE
:1004AC00154B5A698023DB021340FB60FB68142157
:1004BC007B18C02292001A607B1802225A607B18AB
:1004CC0000229A607B180322DA607B1804221A61DE
:1004DC007B180A4A1900100002F0EAFD00220021E4
:1004EC001E2002F055FD1E2002F072FDC046BD46D6
:1004FC000AB080BD006400400010024000040048B7
:10050C0080B582B000AF786039607B6820229B5C3C
:10051C00DBB2022B01D1002315E00D4B18683A68B1
:10052C0013005B009B189B001900FFF7E5FD03000F
:10053C001A007B685A607B68180001F011FB0300FD
:10054C005A425341DBB21800BD4602B080BDC046D2
:10055C000000002080B582B000AF78607B6820225C
:10056C009B5CDBB2022B08D17B68180001F006FF04
:10057C0003005A425341DBB200E001231800BD4690
:10058C0002B080BD80B58EB000AF78600C217B18B6
:10059C0000225A617B1800229A617B180122DA61D1
:1005AC007B1800221A607B1800225A607B180022EC
:1005BC009A607B180022DA607B1800221A617B1883
:1005CC0001221A627B180E225A627A187B6811007B
:1005DC00180001F019FD03001A0037203B18514296
:1005EC004A411A703B181B78002B0CD0114A7B68BF
:1005FC001100180002F0D0F903001A003723FB1881
:10060C0051424A411A703723FB181B78002B0AD031
:10061C007B68180001F06CFE03001A003723FB18EE
:10062C0051424A411A703723FB181B781800BD46FB
:10063C000EB080BD1380000080B582B000AF786032
:10064C00396039683B6818331A000D4B786801F033
:10065C00E1FE031E0ED07B681800FFF77BFF7B6862
:10066C001800FFF78FFF074B1B685A1C054B1A60CD
:10067C00002300E001231800BD4602B080BDC04637
:10068C00940000201C01002080B582B000AF78607F
:10069C00204B1B685A1C1F4B1A607B685A6A8023BC
:1006AC005B01134004D07B680121180001F0F2FFBC
:1006BC007B685A6A8023DB01134004D07B680221DB
:1006CC00180001F0E7FF7B685A6A80235B02134035
:1006DC0004D07B680421180001F0DCFF7B685A6AA7
:1006EC00FF235B0013400CD07B681800FFF732FF30
:1006FC007B681800FFF746FF074B1B685A1C064B1C
:10070C001A607B68180002F06AFBC046BD4602B056
:10071C0080BDC046F40000201C01002080B582B0D2
:10072C0000AF7860044B1B685A1C034B1A60C04620
:10073C00BD4602B080BDC046F000002080B582B03E
:10074C0000AF7860044B1B685A1C034B1A60C04600
:10075C00BD4602B080BDC046F000002080B582B01E
:10076C0000AF7860044B1B685A1C034B1A60C046E0
:10077C00BD4602B080BDC046F000002080B582B0FE
:10078C0000AF78600B4B0C4A7868002101F0D8FF61
:10079C00031E0BD1094B1B68074A1100180000F00F
:1007AC00DDF9074B1B685A1C054B1A60C046BD4649
:1007BC0002B080BD14010020F800002008000020C9
:1007CC002001002080B582B000AF78600B4B0C4A42
:1007DC007868012101F0B4FF031E0BD1094B1B6893
:1007EC00074A1100180000F0B9F9074B1B685A1C96
:1007FC00054B1A60C046BD4602B080BD14010020F6
:10080C00F8000020080000202001002090B58BB0DB
:10081C0000AF14243B19180014231A00002105F012
:10082C009FF9634B5A69624B802109030A435A6151
:10083C005F4B5A6980231B0313403B613B695C4B44
:10084C005A695B4B8021C9030A435A61584B5A6958
:10085C008023DB031340FB60FB68554B5A69544BF8
:10086C00802189020A435A61514B5A6980239B02A9
:10087C001340BB60BB684E4B5A694D4B8021C9027B
:10088C000A435A614A4B5A698023DB0213407B604E
:10089C007B68474B5A69464B802149030A435A618E
:1008AC00434B5A6980235B0313403B603B689023A6
:1008BC00DB0500222021180002F038FE3B198022B3
:1008CC0092011A603B193B4A5A603B1900229A600C
:1008DC003B19394A1900100002F0EAFB3B19374A60
:1008EC001A603B1903225A603B1900229A603B198B
:1008FC00314A1900100002F0DBFB3B19304A1A6038
:10090C003B1903225A603B1900229A603A19902332
:10091C00DB051100180002F0CBFB3B1920221A60FA
:10092C003B1901225A603B1900229A603B190022A4
:10093C00DA603A199023DB051100180002F0B8FBBD
:10094C0021007B181F4A1A607B1803225A607B18FF
:10095C0000229A600C007B181B4A1900100002F050
:10096C00A7FB21007B1804221A607B1803225A6013
:10097C007B1800229A600C007B18144A1900100096
:10098C0002F096FB21007B18802212011A607B1862
:10099C0003225A607B1800229A607B180C4A1900BB
:1009AC00100002F085FBC046BD460BB090BDC046A2
:1009BC00001002400000211000080048FF1F00003A
:1009CC00D39F0000FFFC000000040048000C00480E
:1009DC000014004880B500AF074B1B889BB2013355
:1009EC0006491800FFF7F8FC0B009AB2024B1A806C
:1009FC00C046BD4680BDC0462401002060EA000010
:100A0C0080B582B000AF0200FB1D1A70FB1DFA1DF1
:100A1C0012780F210A401A70FB1D1B78092B04D980
:100A2C00FB1D1B783733DBB203E0FB1D1B78303327
:100A3C00DBB21800BD4602B080BD80B582B000AFFD
:100A4C000200FB1D1A70FB1D1B782F2B08D9FB1DF8
:100A5C001B78392B04D8FB1D1B78303BDBB21AE01A
:100A6C00FB1D1B78602B08D9FB1D1B78662B04D84B
:100A7C00FB1D1B78573BDBB20DE0FB1D1B78402B9D
:100A8C0008D9FB1D1B78462B04D8FB1D1B78373B64
:100A9C00DBB200E0FF231800BD4602B080BD0000B1
:100AAC0080B584B000AF78607B68180000F074FDEE
:100ABC000300532B04D17B680121180000F0AAFB22
:100ACC007B68180000F084FD03001800FFF7B5FFE9
:100ADC000300082B1FD89A00154BD3181B689F4690
:100AEC00144BFB6019E0144BFB6016E0134BFB60DE
:100AFC0013E0134BFB6010E0124BFB600DE0124B4C
:100B0C00FB600AE0114BFB6007E0114BFB6004E05B
:100B1C00104BFB6001E0002306E0FA680E4B11005D
:100B2C001800FFF7EDFC03001800BD4604B080BDB3
:100B3C003865000810270000204E000050C300004C
:100B4C00A086010048E8010090D0030020A1070016
:100B5C0000350C0040420F00C800002080B584B066
:100B6C0000AF786039603B681B695B00624A1278A1
:100B7C009B18053301D0042300E00123BB607B6884
:100B8C00180000F074FC0200BB68934201D90023EA
:100B9C00ADE07B687421180000F03EFD3B681B68DB
:100BAC001B0ADBB21800FFF72BFF03001A007B684F
:100BBC001100180000F030FD3B681B681B09DBB20C
:100BCC001800FFF71DFF03001A007B6811001800C6
:100BDC0000F022FD3B681B68DBB21800FFF710FF2A
:100BEC0003001A007B681100180000F015FD3B682B
:100BFC001B69DBB21800FFF703FF03001A007B68C8
:100C0C001100180000F008FD0023FB6022E03A6898
:100C1C00FB68D3181C331B781B09DBB21800FFF7D9
:100C2C00EFFE03001A007B681100180000F0F4FCC2
:100C3C003A68FB68D3181C331B781800FFF7E0FEEA
:100C4C0003001A007B681100180000F0E5FCFB683B
:100C5C000133FB603B681A69FB689A42D7D8264B74
:100C6C001B78002B3DD0254B1B889BB21B0B9BB2DA
:100C7C00DBB21800FFF7C4FE03001A007B681100FA
:100C8C00180000F0C9FC1D4B1B889BB21B0A9BB2C1
:100C9C00DBB21800FFF7B4FE03001A007B681100EA
:100CAC00180000F0B9FC154B1B889BB21B099BB2BA
:100CBC00DBB21800FFF7A4FE03001A007B681100DA
:100CCC00180000F0A9FC0D4B1B889BB2DBB218007E
:100CDC00FFF796FE03001A007B681100180000F065
:100CEC009BFC7B680D21180000F096FC012318007A
:100CFC00BD4604B080BDC0469800002024010020F1
:100D0C0080B584B000AF786039607B68180000F063
:100D1C0043FC0300742B04D17B680121180000F004
:100D2C0079FA7B680021180000F007FC030018001A
:100D3C00FFF783FE0300FF2B17D07B6801211800FF
:100D4C0000F0FBFB03001800FFF777FE0300FF2BFE
:100D5C000BD07B680221180000F0EFFB0300180099
:100D6C00FFF76BFE0300FF2B01D10023A2E07B6891
:100D7C00180000F02DFC03001800FFF75EFE0300C6
:100D8C001B021A003B681A607B68180000F020FCFC
:100D9C0003001800FFF751FE03001A013B681B68A3
:100DAC009A183B681A607B68180000F011FC03006D
:100DBC001800FFF742FE03001A003B681B689A18E4
:100DCC003B681A607B68180000F002FC03001800F6
:100DDC00FFF733FE03001A003B681A613B681B697E
:100DEC00082B01D9002365E00023FB6044E07B68FD
:100DFC000021180000F0A1FB03001800FFF71DFEF6
:100E0C000300FF2B0BD07B680121180000F095FB31
:100E1C0003001800FFF711FE0300FF2B01D1002384
:100E2C0048E07B68180000F0D3FB03001800FFF7C4
:100E3C0004FE03001B01D9B23A68FB68D3181833BF
:100E4C000A1C1A707B68180000F0C2FB0300180023
:100E5C00FFF7F3FD030019003A68FB68D318183349
:100E6C001B78CB18D9B23A68FB68D31818330A1C14
:100E7C001A70FB680133FB603B681A69FB689A4285
:100E8C00B5D87B68180000F087FB03000D2B01D050
:100E9C0000230FE03B680022DA603B6800229A6076
:100EAC003B6800225A603A68044B11001800FFF7A7
:100EBC00C3FB03001800BD4604B080BDC800002071
:100ECC0080B58CB000AF786039600023FB62D4E051
:100EDC007B680D21180000F0E2FA031E00D1CCE073
:100EEC007B68180000F058FB0300433B332B00D900
:100EFC00A0E09A00724BD3181B689F460C23FB187A
:100F0C00704A03CA03C30723FB629AE06E490C23A1
:100F1C00F8180323012204F02BFE0300FB6290E07F
:100F2C006A4B1800FFF716FB031E0DD09023DB0550
:100F3C0000222021180002F0F9FA0C23FB180D22D4
:100F4C001A700123FB627CE00C23FB1807221A7039
:100F5C000123FB6275E05D4B1800FFF713FB031ECA
:100F6C000DD09023DB0501222021180002F0DEFABF
:100F7C000C23FB180D221A700123FB6261E00C2379
:100F8C00FB1807221A700123FB625AE0504A7B6857
:100F9C0011001800FFF7B4FE031E06D00C23FB183B
:100FAC000D221A700123FB624BE00C23FB18072265
:100FBC001A700123FB6244E07B680121180000F0E9
:100FCC00BCFA03001800FFF738FD031E02D0012BFA
:100FDC000AD013E03F4B00221A700C23FB180D2291
:100FEC001A700123FB6210E03A4B01221A700C2399
:100FFC00FB180D221A700123FB6206E00C23FB1870
:10100C0007221A700123FB621BE01AE07B681800B0
:10101C00FFF746FD031E06D00C23FB180D221A7099
:10102C000123FB620DE00C23FB1807221A7001232D
:10103C00FB6206E00C23FB180D221A700123FB62E5
:10104C00C046FB6A002B13D0FA6A0C23F9183B68D4
:10105C00180000F0FDFA0023FB627B680D211800DC
:10106C0000F048FA7B680121180000F0D3F804E086
:10107C007B680121180000F0CDF87B68180000F0A7
:10108C00B6F9031E00D023E73B68180000F0AFF957
:10109C00031E10D0104B180000F062FC03001A0065
:1010AC0001235340DBB2002B05D03A680A4B1100E8
:1010BC00180000F032FCC046BD460CB080BDC046E6
:1010CC005C650008A4630008AC630008C80000203D
:1010DC00A8000020980000203425002080B500AF27
:1010EC0000F0B8FC00F022F8FA23DB00180000F046
:1010FC0015FDFFF78BFB00F05FFBFFF773F9084B57
:10110C001A68084B1100180000F0F2FB044B1A6827
:10111C00054B1B6819001000FFF7D2FEF6E7C0461E
:10112C0004000020342500200800002090B599B060
:10113C0000AF2C243B19180034231A00002104F0B2
:10114C000FFD1C23FB18180010231A00002104F0BB
:10115C0007FD3B0018001C231A00002104F000FDC1
:10116C0021007B1801221A607B1801225A607B181F
:10117C0002225A627B18802252029A627B18A022A9
:10118C009203DA627B1801221A637B18180002F0B2
:10119C003BFA031E01D000F028F81C217B18072213
:1011AC001A607B1802225A607B1800229A607B1806
:1011BC000022DA607B180121180002F03BFF031EAD
:1011CC0001D000F012F83B0002221A603B00002212
:1011DC00DA603B00180003F035F9031E01D000F073
:1011EC0004F8C046BD4619B090BD80B500AF902341
:1011FC00DB052021180002F0D9F9962000F08EFCB6
:10120C00F5E780B582B000AF78603960C046BD4666
:10121C0002B080BD80B582B000AF78600A00BB1C04
:10122C001A8010E07B68DB889BB25A1C7B689B8819
:10123C0019001000FFF7D0F80B009AB27B68DA8027
:10124C007B6800229A72BB1C1B88BA1C591E118029
:10125C00002B05D07B68180000F0C9F8031EE1D103
:10126C00C046BD4602B080BD80B582B000AF78608C
:10127C000A00BB1C1A8024E07B681B899BB25A1C99
:10128C007B689B8819001000FFF7A6F80B009AB238
:10129C007B681A817B689B7ADBB2002B05D07B685C
:1012AC001B899AB27B68DA800BE07B681B899AB247
:1012BC007B68DB889BB2D31A5A425341DAB27B6803
:1012CC009A72BB1C1B88BA1C591E1180002BD3D1DF
:1012DC00C046BD4602B080BD80B582B000AF78601C
:1012EC007B68002B06D07B681B687A68D28892B228
:1012FC009B1800E000231800BD4602B080BD80B5ED
:10130C0082B000AF78607B68002B06D07B681B68CE
:10131C007A68128992B29B1800E000231800BD462F
:10132C0002B080BD90B585B000AF78600023FB6043
:10133C007B68002B1CD07B681B687A6892889B1892
:10134C001C007B681800FFF7C7FF0300E31AFB6063
:10135C007B68180000F04BF80200FB68934205D341
:10136C007B68180000F043F8030000E0FB68FB60AA
:10137C00FB681800BD4605B090BD80B584B000AFC9
:10138C00F860B9607A60FB68002B10D0BB68002B4A
:10139C000DD07B68002B0AD0FB68BA681A607B689A
:1013AC009AB2FB689A80FB68180000F004F8C046FB
:1013BC00BD4604B080BD80B582B000AF78607B685C
:1013CC00002B10D07B680022DA807B6800221A8107
:1013DC007B6800229A727B6818687B689B881A006D
:1013EC00002104F0BDFBC046BD4602B080BD80B5F7
:1013FC0084B000AF78600023FB607B68002B31D099
:10140C007B681B899AB27B68DB889BB29A4209D9AC
:10141C007B681B899BB21A007B68DB889BB2D31A52
:10142C00FB601FE07B681B899AB27B68DB889BB2F0
:10143C009A420CD27B689B881A007B68DB889BB233
:10144C00D31A7A68128992B29B18FB600AE07B6807
:10145C009B7ADBB2002B03D07B689B88FB6001E09E
:10146C000023FB60FB681800BD4604B080BD90B53E
:10147C0085B000AF78600023FB607B68002B09D03F
:10148C007B689B881C007B681800FFF7B0FF03008B
:10149C00E31AFB60FB681800BD4605B090BD80B533
:1014AC0084B000AF78600A00FB1C1A700023FB604C
:1014BC000023BB6011E0BA687B681100180000F0D3
:1014CC003CF803001A00FB1C1B78934202D1BB684A
:1014DC00FB600AE0BB680133BB607B681800FFF758
:1014EC0086FF0200BB689342E5D3FB681800BD463B
:1014FC0004B080BD80B582B000AF78600A00FB1CE0
:10150C001A700EE07B68180000F046F803001A0011
:10151C00FB1C1B7893420BD07B6801211800FFF752
:10152C0079FE7B681800FFF762FF031EEAD100E02A
:10153C00C046C046BD4602B080BD90B585B000AF78
:10154C00786039600F23FB1800221A707B68002B1F
:10155C001BD07B681800FFF74AFF02003B689342E0
:10156C0013D27B681C687B68DB889BB21A003B68D3
:10157C00D2187B689B8819001000FEF743FE0B0005
:10158C00E2180F23FB1812781A700F23FB181B7824
:10159C001800BD4605B090BD80B584B000AF786032
:1015AC000F23FB1800221A707B68002B09D07B6874
:1015BC001B687A68D28892B29A180F23FB1812789B
:1015CC001A700F23FB181B781800BD4604B080BDA1
:1015DC0080B584B000AF78600F23FB1800221A701E
:1015EC007B681800FFF703FF031E0ED07B681B6897
:1015FC007A68D28892B29A180F23FB1812781A7054
:10160C007B6801211800FFF705FE0F23FB181B78E0
:10161C001800BD4604B080BD80B582B000AF7860C4
:10162C000A00FB1C1A707B68002B0DD07B681B68B2
:10163C007A68128992B29B18FA1C12781A707B681D
:10164C0001211800FFF710FEC046BD4602B080BD58
:10165C0080B586B000AFF860B9607A6000237B611A
:10166C00FB68002B0FD00AE07B695A1C7A61BA68C0
:10167C00D3181A78FB6811001800FFF7CDFF7A69B0
:10168C007B689A42F0D37B691800BD4606B080BDDA
:10169C0080B582B000AF0F4B9A690E4B01210A4303
:1016AC009A610C4B9B69012213407B607B68094B50
:1016BC00DA69084B802149050A43DA61054BDA697E
:1016CC0080235B0513403B603B68C046BD4602B0BF
:1016DC0080BDC0460010024080B500AFC046BD467C
:1016EC0080BD80B500AFFEE780B500AFC046BD46FB
:1016FC0080BD80B500AFC046BD4680BD80B500AF93
:10170C0000F0F0F9FFF766F9C046BD4680BD000059
:10171C0080B500AF034B180003F000FAC046BD467D
:10172C0080BDC0463425002080B500AF034B1800A7
:10173C0001F06CF9C046BD4680BDC046C800002013
:10174C0080B586B000AF7860144A154BD31A7B6114
:10175C007B693B61134B1B68002B02D1114B124A66
:10176C001A60104B1A687B68D3183A699A4207D2F0
:10177C0004F0CCF903000C221A6001235B4209E04F
:10178C00084B1B68FB60074B1A687B68D218054B2B
:10179C001A60FB681800BD4606B080BD00800020B2
:1017AC00000800009C000020C825002080B500AF78
:1017BC00C046BD4680BD000080B500AF144B154A35
:1017CC001A60134BE12252025A60114B00229A60AC
:1017DC000F4B0022DA600E4B00221A610C4B0C22CC
:1017EC005A610B4B00229A61094B0022DA61084BBB
:1017FC0000221A62064B00225A62054B180002F0B6
:10180C00B1FF031E01D0FFF7F0FCC046BD4680BD02
:10181C00342500200044004080B58AB000AF7860C9
:10182C001423FB18180014231A00002104F098F953
:10183C007B681B68284A93424AD1284BDA69274BAC
:10184C00802189020A43DA61244BDA6980239B02E6
:10185C0013403B613B69214B5A69204B8021890223
:10186C000A435A611D4B5A6980239B021340FB604B
:10187C00FB6814217B180C221A607B1802225A6018
:10188C007B1800229A607B180022DA607B180122F8
:10189C001A617A189023DB051100180001F008FC7E
:1018AC00002200211C2001F073FB1C2001F090FB96
:1018BC000B4B18688023DA000A4B1900FFF75DFD0B
:1018CC00094B186880239A01084B1900FFF755FD46
:1018DC00C046BD460AB080BD004400400010024026
:1018EC0004000020342100200800002034010020D6
:1018FC0080B584B000AF786039603B681800FFF7A2
:10190C00FEFC0300FB60F9687B680122180003F001
:10191C004DF8C046BD4604B080BD80B584B000AF64
:10192C00786039603B681800FFF7D6FC0300FB6059
:10193C003B681800FFF7F6FC0300BB60BB689AB26B
:10194C00F9687B68180002F0C3FFBB689AB23B6869
:10195C0011001800FFF75EFCC046BD4604B080BD08
:10196C0080B582B000AF78607B685B6F232B03D0AF
:10197C007B685B6F212B01D1012300E000231A1C33
:10198C0001231340DBB21800BD4602B080BD00003D
:10199C0080B582B000AF78600C4B1B681800FFF765
:1019AC00AEFC03001B780A2B05D0084B1B680121E9
:1019BC001800FFF759FC054B1A687B6811001800DA
:1019CC00FFF796FFC046BD4602B080BD0400002064
:1019DC0080B582B000AF7860084B1B681800FFF729
:1019EC0006FD031E06D0054B1A687B681100180013
:1019FC00FFF793FFC046BD4602B080BD0800002033
:101A0C000D4885460D480E490E4A002302E0D45875
:101A1C00C4500433C4188C42F9D30B4A0B4C00232A
:101A2C0001E013600432A242FBD3FFF7BFFE04F0C7
:101A3C0073F8FFF753FBFEE7008000200000002046
:101A4C00780000208066000878000020C82500205F
:101A5C00FEE7000080B500AF074B1A68064B10215B
:101A6C000A431A60002000F009F8FFF711FE00236A
:101A7C001800BD4680BDC0460020024090B583B022
:101A8C0000AF7860144B1C68144B1B781900FA23B8
:101A9C009800FEF731FB030019002000FEF72CFB29
:101AAC000300180001F0B0FA031E01D001230FE06F
:101ABC007B68032B0BD8796801235B42002218004A
:101ACC0001F066FA064B7A681A60002300E00123E5
:101ADC001800BD4603B090BD00000020100000208F
:101AEC000C00002080B500AF054B1B781A00054B8D
:101AFC001B68D218034B1A60C046BD4680BDC04659
:101B0C0010000020C025002080B500AF024B1B68E0
:101B1C001800BD4680BDC046C025002080B584B0ED
:101B2C0000AF7860FFF7F0FF0300BB607B68FB60E1
:101B3C00FB68013305D0094B1B781A00FB689B1816
:101B4C00FB60C046FFF7E0FF0200BB68D31AFA68DF
:101B5C009A42F7D8C046BD4604B080BD10000020A4
:101B6C0080B584B000AF78607B68002B01D1012375
:101B7C0045E27B681B68C64A934207D01E23FF339D
:101B8C001A00C44B11001800FFF73BFB7B681B7E4F
:101B9C00002B0AD07B681B7E012B06D08F235A00AA
:101BAC00BC4B11001800FFF72CFB7B685B7E002BF5
:101BBC000BD07B685B7E012B07D02023FF331A00F0
:101BCC00B44B11001800FFF71CFB7B689B7E002BAD
:101BDC000AD07B689B7E012B06D090235A00AD4B1C
:101BEC0011001800FFF70DFB7B68DB7E002B0BD080
:101BFC007B68DB7E012B07D02223FF331A00A54B19
:101C0C0011001800FFF7FDFA7B681B7F002B0AD030
:101C1C007B681B7F012B06D091235A009D4B110032
:101C2C001800FFF7EEFA7B685B7F002B0BD07B680C
:101C3C005B7F012B07D02423FF331A00954B110037
:101C4C001800FFF7DEFA7B689B68002B18D07B68C6
:101C5C009A688023DB059A4212D07B689A688023AD
:101C6C001B069A420CD07B689A68C0231B069A42CA
:101C7C0006D092235A00874B11001800FFF7C1FAC7
:101C8C007B68DB68002B19D07B68DA6880235B04E7
:101C9C009A4213D07B68DA6880239B049A420DD059
:101CAC007B68DA68C0239B049A4207D02623FF3353
:101CBC001A00784B11001800FFF7A3FA7B681B6918
:101CCC00002B60D07B681A6980235B029A425AD041
:101CDC007B681A6980239B029A4254D07B681A69EC
:101CEC00C0239B029A424ED07B681A698023DB0288
:101CFC009A4248D07B681A69A023DB029A4242D0F0
:101D0C007B681A69C023DB029A423CD07B681A6953
:101D1C00E023DB029A4236D07B681A6980231B03CE
:101D2C009A4230D07B681A6990231B039A422AD0BE
:101D3C007B681A69A0231B039A4224D07B681A691A
:101D4C00B0231B039A421ED07B681A69C0231B0365
:101D5C009A4218D07B681A69D0231B039A4212D07E
:101D6C007B681A69E0231B039A420CD07B681A69C2
:101D7C00F0231B039A4206D093235A00454B1100C3
:101D8C001800FFF73EFA7B685B69002B31D07B684B
:101D9C005A6980235B039A422BD07B685A69802353
:101DAC009B039A4225D07B685A69C0239B039A42B5
:101DBC001FD07B685A698023DB039A4219D07B6859
:101DCC005A69A023DB039A4213D07B685A69C0235B
:101DDC00DB039A420DD07B685A69E023DB039A42FD
:101DEC0007D02823FF331A002A4B11001800FFF7E5
:101DFC0008FA7B685B68002B05D07B685A688023E7
:101E0C00DB009A4206D994235A00224B1100180089
:101E1C00FFF7F7F97B6820229B5CDBB2002B03D128
:101E2C007B681800FEF716FB7B681B681A687B68DA
:101E3C001B6802218A431A60FFF766FE0300FB60F1
:101E4C0013E0FFF761FE0200FB68D31A0A2B0CD9D2
:101E5C007B685B6A802292021A437B685A627B68B9
:101E6C002022052199540123C9E07B681B685B681B
:101E7C0002221340E5D17B681B681A687B681B68DB
:101E8C0001210A431A60FFF73FFE0300FB6017E0D5
:101E9C0000640040B8630008FFF736FE0200FB68E0
:101EAC00D31A0A2B0CD97B685B6A802292021A43E4
:101EBC007B685A627B6820220521995401239EE09D
:101ECC007B681B685B6801221340E5D07B681B7E36
:101EDC00012B08D17B681B681A687B681B68802102
:101EEC000A431A6007E07B681B681A687B681B68EA
:101EFC0080218A431A607B685B7E012B08D17B684A
:101F0C001B681A687B681B6840210A431A6007E04B
:101F1C007B681B681A687B681B6840218A431A60BF
:101F2C007B689B7E012B08D17B681B681A687B68D9
:101F3C001B6820210A431A6007E07B681B681A683B
:101F4C007B681B6820218A431A607B68DB7E012B2F
:101F5C0008D17B681B681A687B681B6810218A4350
:101F6C001A6007E07B681B681A687B681B68102185
:101F7C000A431A607B681B7F012B08D17B681B68A6
:101F8C001A687B681B6808210A431A6007E07B68A3
:101F9C001B681A687B681B6808218A431A607B6877
:101FAC005B7F012B08D17B681B681A687B681B68F8
:101FBC0004210A431A6007E07B681B681A687B6877
:101FCC001B6804218A431A607B689A687B68DB680B
:101FDC001A437B681B691A437B685B691A431100BF
:101FEC007B685B685A1E7B681B680A43DA617B68F6
:101FFC0000225A627B682022012199540023180088
:10200C00BD4604B080BDC04680B586B000AF7860D8
:10201C0039607B681B687B6113203B187A68202130
:10202C00525C1A703B181B78012B05D01323FB183C
:10203C001B78022B00D03EE13B681B68A44A9342FC
:10204C0006D9D4239A00A34B11001800FFF7D9F836
:10205C003B685B689E4A934205D99F4A9D4B110091
:10206C001800FFF7CEF83B689B68994A934205D954
:10207C009A4A984B11001800FFF7C3F83B68DB68CD
:10208C00934A934205D9964A924B11001800FFF7D8
:10209C00B8F83B689B69002B0AD03B689B69012B05
:1020AC0006D0D5239A008B4B11001800FFF7A9F826
:1020BC003B68DB69002B09D03B68DB69012B05D041
:1020CC00884A844B11001800FFF79BF83B681B698A
:1020DC00002B09D03B681B69012B05D0824A7D4B34
:1020EC0011001800FFF78DF83B681B6A002B09D014
:1020FC003B681B6A012B05D07C4A764B11001800FB
:10210C00FFF77FF83B685B690D2B06D9D7239A0044
:10211C00704B11001800FFF774F87A6980239B004C
:10212C00D35801221A4311007A6980239B00D150A5
:10213C003B685B691F22134001229A401300FB602D
:10214C007A6987239B00D358FA68D2431A4011004E
:10215C007A6987239B00D1503B68DB69002B29D11E
:10216C007A6983239B00D358FA68D2431A40110032
:10217C007A6983239B00D1503B68DB6818043B6869
:10218C005B681B04190C3B685A6901437B69483234
:10219C00D200D1503B689B6819043B681B681B0438
:1021AC001A0C3B685B690A4379694833DB00CB182E
:1021BC0004331A603B68DB69012B28D17A698323CD
:1021CC009B00D258FB681A4311007A6983239B0049
:1021DC00D1503B681B6818043B685B681B04190CE6
:1021EC003B685A6901437B694832D200D1503B6845
:1021FC009B6819043B68DB681B041A0C3B685B6921
:10220C000A4379694833DB00CB1804331A603B6806
:10221C009B69002B0CD17A6981239B00D358FA68F7
:10222C00D2431A4011007A6981239B00D1500AE0F5
:10223C007A6981239B00D258FB681A4311007A6992
:10224C0081239B00D1503B681B69002B0CD17A6910
:10225C0085239B00D358FA68D2431A4011007A693F
:10226C0085239B00D1500AE07A6985239B00D258C4
:10227C00FB681A4311007A6985239B00D1503B6897
:10228C001B6A012B0AD17A6987239B00D258FB6801
:10229C001A4311007A6987239B00D1507A698023F5
:1022AC009B00D3580122934319007A6980239B0029
:1022BC00D150002307E07B685B6A8022D2021A436C
:1022CC007B685A6201231800BD4606B080BDC0462B
:1022DC00FFFF0000B8630008510300005203000028
:1022EC005303000055030000560300005703000081
:1022FC0080B584B000AF78607B6820229B5CDBB239
:10230C00012B2FD17B682022022199547B681B68FA
:10231C001A687B681B6801218A431A60FFF7F4FB7B
:10232C000300FB6013E0FFF7EFFB0200FB68D31A1E
:10233C000A2B0CD97B685B6A802292021A437B6859
:10234C005A627B68202205219954012312E07B6894
:10235C001B685B6801221340E5D17B6800225A623E
:10236C00002307E07B685B6A802212031A437B68B8
:10237C005A6201231800BD4604B080BD80B584B0FC
:10238C0000AF78607B6820229B5CDBB2022B34D1DF
:10239C007B681B681A687B681B6801210A431A60FA
:1023AC00FFF7B2FB0300FB6013E0FFF7ADFB02008D
:1023BC00FB68D31A0A2B0CD97B685B6A80229202C9
:1023CC001A437B685A627B682022052199540123A9
:1023DC001BE07B681B685B6801221340E5D07B68BF
:1023EC001B681A687B681B6802218A431A607B6829
:1023FC00202201219954002307E07B685B6A80222C
:10240C0052031A437B685A6201231800BD4604B07C
:10241C0080BD000080B588B000AFF860B9607A600C
:10242C003B601F23FB18FA682021525C1A70FB6872
:10243C001B689B68BB61BB689B68002B09D0BB68A1
:10244C009B68042B05D08B4A8B4B11001800FEF7B0
:10245C00D8FEBB68DB68002B09D0BB68DB68022B9D
:10246C0005D0864A844B11001800FEF7CAFEBB68E3
:10247C001B69082B05D9824A7F4B11001800FEF707
:10248C00C0FEBB689B68002B0BD1BB681B687D4AE8
:10249C00934211D97C4A784B11001800FEF7B1FE1B
:1024AC000AE0BB685B68794A934205D9784A724B5B
:1024BC0011001800FEF7A5FEBB681B7D002B0AD08F
:1024CC00BB681B7D012B06D09923DA006A4B1100E7
:1024DC001800FEF796FE1F23FB181B78012B05D066
:1024EC001F23FB181B78022B00D0B7E0BA6980239E
:1024FC00DB0413400AD1BA6980231B05134005D1B4
:10250C00BA6980235B05134000D19EE0BB691B0EAA
:10251C00032213407B617B69022B08D9FB685B6A41
:10252C00802212041A43FB685A6201239EE00122A6
:10253C007B699A403B681A60BB689B68002B0CD186
:10254C00BB681B685905BB68DA68FB681B681143DC
:10255C007A6918321201D1500FE0BB685B68DA005F
:10256C00BB689B681A431100BB68DA68FB681B6880
:10257C0011437A6918321201D150FB681968BB6893
:10258C001A697B6918331B01CB1804331A60BB68BA
:10259C001B7D012B12D1FB681A687B6918331B0158
:1025AC00D31804331A68FB68196880235B001A433C
:1025BC007B6918331B01CB1804331A607B68073313
:1025CC001B781A067B6806331B781B041A437B683E
:1025DC0005331B781B021A437B6804331B781900E4
:1025EC00FB6818680A437969C6235B000901411826
:1025FC00CB181A607B6803331B781A067B6802338E
:10260C001B781B041A437B6801331B781B021A438B
:10261C007B681B781900FB6818680A437969C42326
:10262C005B0009014118CB181A60FB681B687A69BA
:10263C0018321201D258FB681B68012111437A69C8
:10264C0018321201D150002310E0FB685B6A802223
:10265C0092031A43FB685A62012307E0FB685B6A2A
:10266C008022D2021A43FB685A6201231800BD462D
:10267C0008B080BDBD040000B8630008BE040000B3
:10268C00BF040000FF070000C2040000FFFFFF1F93
:10269C00C604000080B584B000AF786039600F23A9
:1026AC00FB187A682021525C1A703B68072B05D9FD
:1026BC00214A224B11001800FEF7A3FD0F23FB1833
:1026CC001B78012B04D00F23FB181B78022B27D16E
:1026DC003B680122134007D07B681B689A687B68B3
:1026EC001B6880210A439A603B680222134008D081
:1026FC007B681B689A687B681B68802109020A4307
:10270C009A603B680422134008D07B681B689A6867
:10271C007B681B68802109040A439A60002307E048
:10272C007B685B6A8022D2021A437B685A6201235F
:10273C001800BD4604B080BD27050000B863000832
:10274C0080B586B000AFF860B9607A603B60172343
:10275C00FB18FA682021525C1A70BB68002B09D058
:10276C00BB68012B06D0BA23DA008A4B1100180083
:10277C00FEF747FD1723FB181B78012B05D01723F9
:10278C00FB181B78022B00D0F8E0BB68002B0ED195
:10279C00FB681B68DB680322134017D1FB685B6A7C
:1027AC00802292031A43FB685A620123EEE0FB6815
:1027BC001B681B690322134008D1FB685B6A8022EB
:1027CC0092031A43FB685A620123DFE0FB681B6823
:1027DC00BA681B321201D35804221A407B689A60E3
:1027EC007B689B68002B0BD1FB681B68BA681B329B
:1027FC001201D3585B0D5B055A0D7B681A600AE019
:10280C00FB681B68BA681B321201D358DB08DB006B
:10281C00DA087B685A60FB681B68BA681B321201C5
:10282C00D35802221A407B68DA60FB681A68BB68CE
:10283C001B331B01D31804331B680F221A407B680F
:10284C001A61FB681A68BB681B331B01D31804336D
:10285C001B681B0AFF221A407B689A61FB681A6886
:10286C00BB681B331B01D31804331B681B0C1B04E4
:10287C001A0C7B685A61FB681968BA68DC235B0028
:10288C0012018A18D3181B68DAB23B681A70FB68FD
:10289C001968BA68DC235B0012018A18D3181B680C
:1028AC001A0A3B680133D2B21A70FB681968BA680D
:1028BC00DC235B0012018A18D3181B681A0C3B68C6
:1028CC000233D2B21A70FB681968BA68DC235B0059
:1028DC0012018A18D3181B681A0E3B680333D2B244
:1028EC001A70FB681968BA68DE235B0012018A183B
:1028FC00D3181A683B680433D2B21A70FB68196893
:10290C00BA68DE235B0012018A18D3181B681A0AF6
:10291C003B680533D2B21A70FB681968BA68DE23BB
:10292C005B0012018A18D3181B681A0C3B6806331B
:10293C00D2B21A70FB681968BA68DE235B00120108
:10294C008A18D3181B681A0E3B680733D2B21A7058
:10295C00BB68002B08D1FB681B68DA68FB681B6836
:10296C0020210A43DA6007E0FB681B681A69FB68E0
:10297C001B6820210A431A61002307E0FB685B6A8D
:10298C008022D2021A43FB685A6201231800BD460A
:10299C0006B080BDB863000880B584B000AF786025
:1029AC0039600F23FB187A682021525C1A703B683F
:1029BC00144A934206D9CC23DA00134B11001800A9
:1029CC00FEF71FFC0F23FB181B78012B04D00F23E1
:1029DC00FB181B78022B09D17B681B6859697B6833
:1029EC001B683A680A435A61002307E07B685B6AFC
:1029FC008022D2021A437B685A6201231800BD461A
:102A0C0004B080BD7F8F0300B863000880B58AB026
:102A1C0000AF786000237B627B681B685B693B625C
:102A2C007B681B685B68FB617B681B689B68BB6190
:102A3C007B681B68DB687B617B681B681B693B617F
:102A4C007B681B689B69FB603B6A0122134000D1C9
:102A5C0084E0BB690122134024D07B681B680122EF
:102A6C009A60BB690222134004D07B681800FDF702
:102A7C0055FE17E0BB690422134005D07B6A802207
:102A8C00120113437B620DE0BB690822134005D091
:102A9C007B6A8022520113437B6203E07B6818003F
:102AAC0000F065F9BA6980235B00134028D07B687D
:102ABC001B68802252009A60BA6980239B001340E5
:102ACC0004D07B681800FDF739FE19E0BA69802341
:102ADC00DB00134005D07B6A8022920113437B629A
:102AEC000EE0BA6980231B01134005D07B6A80225B
:102AFC00D20113437B6203E07B68180000F03FF9BE
:102B0C00BA6980235B02134028D07B681B68802243
:102B1C0052029A60BA6980239B02134004D07B68EE
:102B2C001800FDF71BFE19E0BA698023DB02134085
:102B3C0005D07B6A8022120213437B620EE0BA69D5
:102B4C0080231B03134005D07B6A8022520213435F
:102B5C007B6203E07B68180000F019F93B6A0822DD
:102B6C0013400CD07B691022134008D07B6A802262
:102B7C00920013437B627B681B681022DA603B6A0D
:102B8C00042213400BD07B690822134007D07B68CA
:102B9C001B680822DA607B68180000F000F93B6AB9
:102BAC000222134009D07B681B68DB6803221340A8
:102BBC0003D07B681800FDF7E1FD3B6A402213400F
:102BCC000CD03B691022134008D07B6A8022D200C3
:102BDC0013437B627B681B6810221A613B6A2022BC
:102BEC0013400BD03B690822134007D07B681B684D
:102BFC0008221A617B68180000F0D9F83B6A102291
:102C0C00134009D07B681B681B690322134003D057
:102C1C007B681800FDF7D6FD3A6A80239B021340AF
:102C2C000BD0FB691022134007D07B681B68102265
:102C3C005A607B68180000F0C2F83A6A80235B0285
:102C4C0013400BD0FB690822134007D07B681B682C
:102C5C0008225A607B68180000F0B9F83A6A8023A1
:102C6C001B02134000D171E0FB690422134000D118
:102C7C0068E03A6A80235B00134007D0FB680122AE
:102C8C00134003D07B6A012213437B623A6A802390
:102C9C009B00134007D0FB680222134003D07B6AD1
:102CAC00022213437B623A6A8023DB00134007D075
:102CBC00FB680422134003D07B6A042213437B621B
:102CCC003A6A80231B0113403CD0FB6870221340EE
:102CDC0038D0FB6870221340302B16D004D8102B40
:102CEC0009D0202B0CD025E0502B18D0602B1BD0FA
:102CFC00402B0FD01EE07B6A082213437B6219E045
:102D0C007B6A102213437B6214E07B6A20221343FC
:102D1C007B620FE07B6A402213437B620AE07B6A92
:102D2C00802213437B6205E07B6A802252001343AE
:102D3C007B62C0467B681B689A697B681B68702144
:102D4C008A439A617B681B6804225A607B6A002B59
:102D5C0009D07B685A6A7B6A1A437B685A627B6823
:102D6C001800FDF791FCC046BD460AB080BD80B589
:102D7C0082B000AF7860C046BD4602B080BD80B561
:102D8C0082B000AF7860C046BD4602B080BD80B551
:102D9C0082B000AF7860C046BD4602B080BD80B541
:102DAC0082B000AF7860C046BD4602B080BD80B531
:102DBC0082B000AF7860C046BD4602B080BD80B521
:102DCC0082B000AF7860C046BD4602B080BD80B511
:102DDC0082B000AF7860C046BD4602B080BD80B501
:102DEC0084B000AF78600F23FB1800221A700E20FD
:102DFC003B187A682021525C1A703B181B78012B07
:102E0C0004D00E23FB181B78022B03D17B68002205
:102E1C005A620AE07B685B6A8022D2021A437B68A2
:102E2C005A620F23FB1801221A700F23FB181B7810
:102E3C001800BD4604B080BD80B582B000AF020062
:102E4C00FB1D1A70FB1D1B787F2B09D8FB1D1B78F3
:102E5C001A001F231A40044B012191400A001A60EA
:102E6C00C046BD4602B080BD00E100E090B583B025
:102E7C0000AF02003960FB1D1A70FB1D1B787F2B05
:102E8C0028D82F4AFB1D1B785BB29B08C0339B00D4
:102E9C009B58FA1D1278110003220A40D200FF2120
:102EAC0091400A00D2431A4011003B689B01FF225B
:102EBC001A40FB1D1B78180003230340DB009A40CB
:102ECC001F48FB1D1B785BB29B080A43C0339B0059
:102EDC001A5031E01B4AFB1D1B7819000F230B40C5
:102EEC00083B9B0806339B00D31804331B68FA1D60
:102EFC001278110003220A40D200FF2191400A00EF
:102F0C00D2431A4011003B689B01FF221A40FB1D63
:102F1C001B78180003230340DB009A400948FB1D73
:102F2C001B781C000F232340083B9B080A430633E5
:102F3C009B00C31804331A60C046BD4603B090BD55
:102F4C0000E100E000ED00E080B582B000AF7860F9
:102F5C007B68013B0C4A934201D9012310E00B4BD7
:102F6C007A68013A5A6001235B4203211800FFF78B
:102F7C007DFF064B00229A60044B07221A60002347
:102F8C001800BD4602B080BDFFFFFF0010E000E05E
:102F9C0080B584B000AFB9607A600F23FB18021CB7
:102FAC001A70BB68032B04D9084B8B211800FEF751
:102FBC0028F9BA680F23FB181B785BB211001800B4
:102FCC00FFF754FFC046BD4604B080BDF063000857
:102FDC0080B582B000AF0200FB1D1A70FB1D1B7880
:102FEC007F2B04D9074B9B211800FEF70AF9FB1D18
:102FFC001B785BB21800FFF71FFFC046BD4602B03E
:10300C0080BDC046F063000880B582B000AF786028
:10301C007B681800FFF798FF03001800BD4602B04C
:10302C0080BD80B584B000AF78600F23FB18002200
:10303C001A707B6821229B5CDBB2022B07D07B6869
:10304C0004229A630F23FB1801221A7028E07B6874
:10305C001B681A687B681B680E218A431A607B68A0
:10306C001B681A687B681B6801218A431A607B689D
:10307C001A6C7B68DB6B012191400A005A607B68FB
:10308C002122012199547B682022002199547B68CC
:10309C005B6B002B04D07B685B6B7A6810009847E5
:1030AC000F23FB181B781800BD4604B080BD000030
:1030BC0080B586B000AF7860396000237B617A6898
:1030CC009023DB059A4218D07B68CF4A934214D0E8
:1030DC007B68CE4A934210D07B68CD4A93420CD089
:1030EC007B68CC4A934208D07B68CB4A934204D08D
:1030FC00CA4BB8211800FEF784F83B681B681B0408
:10310C001B0C04D03B681B681B0C1B0404D0C34B6A
:10311C00B9211800FEF775F83B685B68002B36D0B8
:10312C003B685B68012B32D03B685B68112B2ED05F
:10313C003B685B68022B2AD03B685B68122B26D05D
:10314C003B685B68B64A934221D03B685B68B54AE2
:10315C0093421CD03B685B68B34A934217D03B68E0
:10316C005B68B24A934212D03B685B68B04A9342A8
:10317C000DD03B685B68AF4A934208D03B685B68F4
:10318C00032B04D0A54BBA211800FEF73AF83B6884
:10319C009B68002B00D1BAE13B689B68012B00D1E6
:1031AC00B5E13B689B68022B00D1B0E19B4BBB2186
:1031BC001800FEF726F8AAE13B681B6801217A6922
:1031CC0091400A001340FB60FB68002B00D19BE18F
:1031DC003B685B68012B0BD03B685B68022B07D00C
:1031EC003B685B68112B03D03B685B68122B41D1A9
:1031FC003B68DB68002B0CD03B68DB68012B08D0EC
:10320C003B68DB68032B04D0844BCB211800FDF703
:10321C00F8FF7B689B683B617B695B0003229A40EB
:10322C001300DA433B6913403B613B68DA687B6906
:10323C005B009A4013003A6913433B617B683A691F
:10324C009A607B685B683B6101227B699A40130042
:10325C00DA433B6913403B613B685B681B09012205
:10326C001A407B699A4013003A6913433B617B68AF
:10327C003A695A607B68DB683B617B695B000322BF
:10328C009A401300DA433B6913403B613B689A68F0
:10329C007B695B009A4013003A6913433B617B687E
:1032AC003A69DA603B685B68022B03D03B685B6869
:1032BC00122B4AD17A689023DB059A4218D07B688E
:1032CC00514A934214D07B68504A934210D07B6889
:1032DC004F4A93420CD07B684E4A934208D07B688D
:1032EC004D4A934204D04D4BE3211800FDF789FF62
:1032FC003B681B69072B04D9484BE4211800FDF7E8
:10330C0080FF7B69DA087B6808329200D3583B61F6
:10331C007B69072213409B000F229A401300DA436B
:10332C003B6913403B613B681A697B6907210B4081
:10333C009B009A4013003A6913433B617B69DA089E
:10334C007B68083292003969D1507B681B683B61FD
:10335C007B695B0003229A401300DA433B691340FC
:10336C003B613B685B6803221A407B695B009A40B7
:10337C0013003A6913433B617B683A691A603B68F6
:10338C005A6880235B05134000D1BDE02A4B9A6933
:10339C00294B01210A439A61274B9B690122134057
:1033AC00BB60BB68254A7B699B0802339B009B581A
:1033BC003B617B69032213409B000F229A40130050
:1033CC00DA433B6913403B617A689023DB059A42F0
:1033DC0036D07B680C4A934213D07B680B4A9342DD
:1033EC000DD07B680A4A934207D07B68094A934206
:1033FC0001D1042325E0052323E0032321E002234C
:10340C001FE001231DE0C0460004004800080048EE
:10341C00000C004800100048001400482C64000800
:10342C0000001110000021100000311000001210DB
:10343C000000221000003210001002400000014079
:10344C0000237A6903210A40920093403A6913439E
:10345C003B6134497B699B0802339B003A695A50A3
:10346C00314B1B683B61FB68DA433B6913403B61A2
:10347C003B685A6880235B02134003D03A69FB68AF
:10348C0013433B61284B3A691A60274B5B683B61DD
:10349C00FB68DA433B6913403B613B685A68802305
:1034AC009B02134003D03A69FB6813433B611E4BEC
:1034BC003A695A601C4B9B683B61FB68DA433B6979
:1034CC0013403B613B685A6880235B03134003D075
:1034DC003A69FB6813433B61134B3A699A60124B90
:1034EC00DB683B61FB68DA433B6913403B613B683B
:1034FC005A6880239B03134003D03A69FB6813433B
:10350C003B61094B3A69DA607B6901337B613B684B
:10351C001A687B69DA40131E00D04DE6C046BD46E2
:10352C0006B080BD000001400004014080B582B0AF
:10353C0000AF786008001100BB1C021C1A807B1CB9
:10354C000A1C1A70BB1C1B88002B04D0BB1C1B88CC
:10355C001B0C1B0407D0A623FF331A00124B1100BF
:10356C001800FDF74EFE7B1C1B78002B0AD07B1C31
:10357C001B78012B06D0D3235A000B4B11001800DB
:10358C00FDF73FFE7B1C1B78002B04D0BB1C1A885C
:10359C007B689A6103E0BB1C1A887B689A62C04600
:1035AC00BD4602B080BDC0462C64000880B584B016
:1035BC0000AF78600A00BB1C1A80BB1C1B88002B58
:1035CC0004D0BB1C1B881B0C1B0407D0BE23FF3371
:1035DC001A000C4B11001800FDF713FE7B685B6999
:1035EC00FB60BB1C1B88FA6813401A04FB68DB43A6
:1035FC00B91C09880B401A437B689A61C046BD46CA
:10360C0004B080BD2C64000880B588B000AF786031
:10361C007B68002B02D1012300F006FD7B681B6840
:10362C00002B25D07B681B680122134020D17B68BE
:10363C001B68022213401BD17B681B6808221340B5
:10364C0016D17B681B680422134011D17B681B6860
:10365C00102213400CD17B681B682022134007D129
:10366C003A23FF331A00C44B11001800FDF7C9FDB3
:10367C007B681B680122134000D1A4E07B685B6867
:10368C00002B0FD07B685B68012B0BD07B685B68D1
:10369C00052B07D04023FF331A00B74B110018003D
:1036AC00FDF7AFFDB54B5B680C221340042B0ED01D
:1036BC00B24B5B680C221340082B17D1AF4B5A68E6
:1036CC00C0235B021A4080235B029A420ED1AB4BA3
:1036DC001A6880239B02134000D173E07B685B68FF
:1036EC00002B00D06EE0012300F09EFC7B685B6831
:1036FC00012B07D1A14B1A68A04B802149020A4328
:10370C001A602FE07B685B68002B0CD19B4B1A680E
:10371C009A4B9B490A401A60984B1A68974B9949E7
:10372C000A401A601EE07B685B68052B0ED1934B38
:10373C001A68924B8021C9020A431A608F4B1A688F
:10374C008E4B802149020A431A600BE08B4B1A689E
:10375C008A4B8B490A401A60884B1A68874B8949F7
:10376C000A401A607B685B68002B15D0FEF7CCF919
:10377C000300BB6109E0FEF7C7F90200BB69D31A6D
:10378C00642B02D9032300F04FFC7C4B1A68802376
:10379C009B021340EFD016E0FEF7B6F90300BB61B5
:1037AC0009E0FEF7B1F90200BB69D31A642B02D908
:1037BC00032300F039FC714B1A6880239B021340E1
:1037CC00EFD100E0C0467B681B680222134000D199
:1037DC008AE07B68DB68002B0BD07B68DB68012BF5
:1037EC0007D07423FF331A00634B11001800FDF748
:1037FC0008FD7B681B691F2B06D9BA235A005E4B48
:10380C0011001800FDF7FDFC5C4B5B680C221340AB
:10381C000ED05A4B5B680C221340082B20D1574B0F
:10382C005A68C0235B021A4080231B029A4217D1AC
:10383C00524B1B680222134006D07B68DB68012BBD
:10384C0002D0012300F0F0FB4C4B1B68F822934391
:10385C0019007B681B69DA00484B0A431A6043E085
:10386C007B68DB68002B25D0444B1A68434B012145
:10387C000A431A60FEF748F90300BB6109E0FEF742
:10388C0043F90200BB69D31A022B02D9032300F0BF
:10389C00CBFB3A4B1B6802221340F0D0374B1B6812
:1038AC00F822934319007B681B69DA00334B0A43F7
:1038BC001A6019E0314B1A68304B01218A431A60A7
:1038CC00FEF722F90300BB6109E0FEF71DF90200C7
:1038DC00BB69D31A022B02D9032300F0A5FB274B9B
:1038EC001B6802221340F0D17B681B68082213402E
:1038FC004FD07B68DB69002B0AD07B68DB69012B1E
:10390C0006D0DA235A001C4B11001800FDF779FC85
:10391C007B68DB69002B1AD0184B5A6A174B0121B4
:10392C000A435A62FEF7F0F80300BB6109E0FEF7A8
:10393C00EBF80200BB69D31A022B02D9032300F067
:10394C0073FB0E4B5B6A02221340F0D021E00B4B51
:10395C005A6A0A4B01218A435A62FEF7D5F80300D2
:10396C00BB6111E0FEF7D0F80200BB69D31A022B41
:10397C000AD9032300F058FB6864000800100240C9
:10398C00FFFFFEFFFFFFFBFFC34B5B6A02221340EE
:10399C00E8D17B681B680422134000D1C0E01F23D0
:1039AC00FB1800221A707B689B68002B0ED07B687A
:1039BC009B68012B0AD07B689B68052B06D0F023F3
:1039CC005A00B64B11001800FDF71BFCB24BDA691C
:1039DC0080235B05134011D1AF4BDA69AE4B8021CC
:1039EC0049050A43DA61AC4BDA6980235B05134065
:1039FC00FB60FB681F23FB1801221A70A84B1A6886
:103A0C0080235B0013401AD1A54B1A68A44B80216C
:103A1C0049000A431A60FEF777F80300BB6108E01F
:103A2C00FEF772F80200BB69D31A642B01D9032389
:103A3C00FAE29B4B1A6880235B001340F0D07B6842
:103A4C009B68012B06D1944B1A6A934B01210A43B4
:103A5C001A622DE07B689B68002B0CD18E4B1A6A86
:103A6C008D4B01218A431A628B4B1A6A8A4B0421B3
:103A7C008A431A621CE07B689B68052B0CD1864B31
:103A8C001A6A854B04210A431A62834B1A6A824BC9
:103A9C0001210A431A620BE07F4B1A6A7E4B01210B
:103AAC008A431A627C4B1A6A7B4B04218A431A6242
:103ABC007B689B68002B14D0FEF726F80300BB61D3
:103ACC0009E0FEF721F80200BB69D31A754A93424C
:103ADC0001D90323A8E2704B1B6A02221340F0D0D9
:103AEC0013E0FEF711F80300BB6109E0FEF70CF8D8
:103AFC000200BB69D31A6B4A934201D9032393E2A8
:103B0C00654B1B6A02221340F0D11F23FB181B7854
:103B1C00012B05D1604BDA695F4B63490A40DA61CE
:103B2C007B681B681022134000D17FE07B685B69C7
:103B3C00002B0DD07B685B69012B09D07B685B691E
:103B4C00053305D0594A554B11001800FDF759FBA8
:103B5C007B689B691F2B05D9554A504B11001800E7
:103B6C00FDF74FFB7B685B69012B2AD14A4B5A6BE3
:103B7C00494B04210A435A63474B5A6B464B01216C
:103B8C000A435A63FDF7C0FF0300BB6108E0FDF771
:103B9C00BBFF0200BB69D31A022B01D9032343E2FA
:103BAC003D4B5B6B02221340F1D03B4B5B6BF8221D
:103BBC00934319007B689B69DA00374B0A435A63BD
:103BCC0034E07B685B69053311D1334B5A6B324B54
:103BDC0004218A435A63304B5B6BF82293431900E0
:103BEC007B689B69DA002C4B0A435A631EE02A4B14
:103BFC005A6B294B04210A435A63274B5A6B264BA9
:103C0C0001218A435A63FDF77FFF0300BB6108E083
:103C1C00FDF77AFF0200BB69D31A022B01D90323EB
:103C2C0002E21D4B5B6B02221340F1D17B681B68D7
:103C3C002022134000D179E07B681B6A002B0AD04C
:103C4C007B681B6A012B06D099239A00134B110039
:103C5C001800FDF7D6FA104B5B680C2213400C2BA6
:103C6C000ED00D4B5B680C221340082B22D10A4B53
:103C7C005A68C0235B021A40C0235B029A4219D1D6
:103C8C00054B5A6B80235B0213404ED07B681B6A3A
:103C9C00012B4AD00123C7E10010024068640008E0
:103CAC000070004088130000FFFFFFEF26020000A9
:103CBC00270200007B681B6A002B1BD0BF4B5A6B82
:103CCC00BE4B802149020A435A63FDF71DFF0300D6
:103CDC00BB6108E0FDF718FF0200BB69D31A022B89
:103CEC0001D90323A0E1B54B5A6B80235B0213402F
:103CFC00F0D01BE0B14B5A6BB04BB1490A405A6340
:103D0C00FDF702FF0300BB6108E0FDF7FDFE0200BA
:103D1C00BB69D31A022B01D9032385E1A74B5A6B3C
:103D2C0080235B021340F0D100E0C0467B685B6AE5
:103D3C00002B0DD07B685B6A012B09D07B685B6A1A
:103D4C00022B05D09F4AA04B11001800FDF759FA21
:103D5C007B685B6A002B00D165E1984B5B680C2299
:103D6C001340082B00D139E17B685B6A022B00D031
:103D7C0009E17B689A6A80231B029A4211D07B6806
:103D8C009A6AC0235B029A420BD07B689A6A8023A2
:103D9C005B029A4205D08D4A8B4B11001800FDF73F
:103DAC0030FA7B68DB6A002B5AD07B68DA6A802396
:103DBC00DB029A4254D07B68DA6A80231B039A4256
:103DCC004ED07B68DA6AC0231B039A4248D07B68CA
:103DDC00DA6A80235B039A4242D07B68DA6AA023BA
:103DEC005B039A423CD07B68DA6AC0235B039A423D
:103DFC0036D07B68DA6AE0235B039A4230D07B686A
:103E0C00DA6A80239B039A422AD07B68DA6A902371
:103E1C009B039A4224D07B68DA6AA0239B039A42C4
:103E2C001ED07B68DA6AB0239B039A4218D07B6859
:103E3C00DA6AC0239B039A4212D07B68DA6AD023D9
:103E4C009B039A420CD07B68DA6AE0239B039A426C
:103E5C0006D0A9239A005C4B11001800FDF7D1F98C
:103E6C007B681B6B002B41D07B681B6B012B3DD0FF
:103E7C007B681B6B022B39D07B681B6B032B35D0FB
:103E8C007B681B6B042B31D07B681B6B052B2DD0F7
:103E9C007B681B6B062B29D07B681B6B072B25D0F3
:103EAC007B681B6B082B21D07B681B6B092B1DD0EF
:103EBC007B681B6B0A2B19D07B681B6B0B2B15D0EB
:103ECC007B681B6B0C2B11D07B681B6B0D2B0DD0E7
:103EDC007B681B6B0E2B09D07B681B6B0F2B05D0E3
:103EEC003B4A394B11001800FDF78BF9334B1A681C
:103EFC00324B38490A401A60FDF706FE0300BB61DD
:103F0C0008E0FDF701FE0200BB69D31A022B01D9B0
:103F1C00032389E0294B1A6880239B041340F0D1BA
:103F2C00264BDB6A0F22934319007B681A6B234BD9
:103F3C000A43DA62214B5B68274A134019007B68FD
:103F4C00DA6A7B689B6A1A431C4B0A435A601B4B08
:103F5C001A681A4B802149040A431A60FDF7D4FDF4
:103F6C000300BB6108E0FDF7CFFD0200BB69D31A6B
:103F7C00022B01D9032357E0104B1A6880239B04B2
:103F8C001340F0D04FE00D4B1A680C4B11490A400E
:103F9C001A60FDF7B9FD0300BB6108E0FDF7B4FD45
:103FAC000200BB69D31A022B01D903233CE0034B5B
:103FBC001A6880239B041340F0D134E000100240B7
:103FCC00FFFFFEFF9A02000068640008A3020000D5
:103FDC00A5020000FFFFFFFEFF7FC2FF7B685B6A4C
:103FEC00012B01D101231FE0114B5B687B61104B4E
:103FFC00DB6A3B617A69C0235B021A407B689B6A6F
:10400C009A420ED13B690F221A407B681B6B9A4275
:10401C0007D17A69F0239B031A407B68DB6A9A42CA
:10402C0001D0012300E000231800BD4608B080BD7C
:10403C000010024080B584B000AF786039607B68B6
:10404C00002B01D1012344E17B681B680122134042
:10405C000FD17B681B68022213400AD17B681B6856
:10406C000422134005D19D4A9D4B11001800FDF709
:10407C00C8F83B68002B08D03B68012B05D0994A47
:10408C00974B11001800FDF7BCF8974B1B680122E9
:10409C0013403A689A4211D9934B1B6801229343FF
:1040AC001900914B3A680A431A608F4B1B68012226
:1040BC0013403A689A4201D001230AE17B681B68DD
:1040CC00022213403FD07B681B680422134006D0A9
:1040DC00864B5A68854BE021C9000A435A607B68BD
:1040EC009B68002B25D07B689B68802B21D07B683C
:1040FC009B68902B1DD07B689B68A02B19D07B688C
:10410C009B68B02B15D07B689B68C02B11D07B684B
:10411C009B68D02B0DD07B689B68E02B09D07B680B
:10412C009B68F02B05D0724A6D4B11001800FDF7FF
:10413C0068F86E4B5B68F022934319007B689A68B1
:10414C006A4B0A435A607B681B680122134000D1FA
:10415C0062E07B685B68002B11D07B685B68012B8D
:10416C000DD07B685B68022B09D07B685B68032BE6
:10417C0005D0604A5A4B11001800FDF742F87B68D5
:10418C005B68012B07D1594B1A6880239B021340A3
:10419C0020D101239DE07B685B68022B07D1534B38
:1041AC001A6880239B04134014D1012391E07B688F
:1041BC005B68032B07D14D4B5A6B80235B0213407A
:1041CC0008D1012385E0494B1B680222134001D121
:1041DC0001237EE0454B5B680322934319007B6807
:1041EC005A68424B0A435A60FDF78EFC0300FB6091
:1041FC0009E0FDF789FC0200FB68D31A3E4A9342A2
:10420C0001D9032365E0394B5B680C221A407B68AB
:10421C005B689B009A42ECD1334B1B680122134024
:10422C003A689A4211D2304B1B6801229343190011
:10423C002D4B3A680A431A602B4B1B680122134022
:10424C003A689A4201D0012343E07B681B68042240
:10425C0013402CD07B68DB68002B1ED07B68DA689F
:10426C008023DB009A4218D07B68DA68A023DB003D
:10427C009A4212D07B68DA68C023DB009A420CD0D9
:10428C007B68DA68E023DB009A4206D0E1239A00CF
:10429C00134B11001800FCF7B4FF144B5B68174A62
:1042AC00134019007B68DA68104B0A435A6000F01F
:1042BC002BF801000D4B5B681B090F221340104AB1
:1042CC00D35C0A00DA400F4B1A600020FDF7D6FBD6
:1042DC0000231800BD4604B080BDC0461603000084
:1042EC006864000817030000002002400010024020
:1042FC00360300003D03000088130000FFF8FFFFA9
:10430C002C6600080000002090B58FB000AF14237D
:10431C00FB18374A13CA13C312681A603B1D354A7F
:10432C0013CA13C312681A600023FB620023BB621A
:10433C0000237B6300237B6200233B632E4B5B6873
:10434C00FB62FB6A0C221340082B06D00C2B43D0CB
:10435C00042B44D1294B3B6344E0FB6A9B0C0F229A
:10436C0013401422BA18D35C7B62234BDB6A0F22F6
:10437C0013403A1DD35CBB62FA6AC0235B021A403D
:10438C0080235B029A4209D1B96A1C48FBF7B4FE40
:10439C0003001A007B6A53437B631AE0FA6AC0235A
:1043AC005B021A40C0235B029A4209D1B96A1448D5
:1043BC00FBF7A2FE03001A007B6A53437B6308E001
:1043CC00B96A0E48FBF798FE03001A007B6A534348
:1043DC007B637B6B3B6305E0094B3B6302E0074B64
:1043EC003B63C0463B6B1800BD460FB090BDC0464A
:1043FC00A0640008B06400080010024000127A00AB
:10440C00006CDC0280B500AF024B1B681800BD4687
:10441C0080BDC0460000002080B500AFFFF7F2FF62
:10442C000100064B5B681B0A07221340044AD35C4D
:10443C00D9400B001800BD4680BDC046001002409C
:10444C003C66000880B586B000AF786000233B6105
:10445C000023FB607B681B68B84A934204D9B84BB5
:10446C006E211800FCF7CDFE7B681A6880235B0276
:10447C00134000D1AAE07B685B68002B16D07B68E8
:10448C005A6880235B009A4210D07B685A6880235C
:10449C009B009A420AD07B685A68C0239B009A42C0
:1044AC0004D0A74B74211800FCF7ABFE1723FB18A4
:1044BC0000221A70A34BDA6980235B05134011D1DB
:1044CC00A04BDA699F4B802149050A43DA619D4B69
:1044DC00DA6980235B051340BB60BB681723FB18AC
:1044EC0001221A70984B1A6880235B0013401AD172
:1044FC00954B1A68944B802149000A431A60FDF7CA
:10450C0003FB03003B6108E0FDF7FEFA02003B6988
:10451C00D31A642B01D903230BE18B4B1A6880232C
:10452C005B001340F0D0874B1A6AC0239B001340EA
:10453C00FB60FB68002B34D07B685A68C0239B005F
:10454C001340FA689A422CD07E4B1B6A7F4A134068
:10455C00FB607C4B1A6A7B4B802149020A431A622E
:10456C00784B1A6A774B7A490A401A62754BFA688B
:10457C001A62FB680122134013D0FDF7C5FA030041
:10458C003B6109E0FDF7C0FA02003B69D31A714A9E
:10459C00934201D90323CCE06A4B1B6A02221340DD
:1045AC00F0D0684B1B6A694A134019007B685A6843
:1045BC00644B0A431A621723FB181B78012B05D195
:1045CC00604BDA695F4B64490A40DA617B681B68AF
:1045DC00012213401ED07B689B68002B10D07B6897
:1045EC009B68012B0CD07B689B68022B08D07B68E6
:1045FC009B68032B04D0524BBB211800FCF701FE27
:10460C00504B1B6B0322934319007B689A684D4BEC
:10461C000A431A637B681B680222134024D07B6810
:10462C00DB68002B16D07B68DA6880235B029A4229
:10463C0010D07B68DA6880239B029A420AD07B6890
:10464C00DA68C0239B029A4204D03D4BC721180064
:10465C00FCF7D7FD3B4B1B6B404A134019007B68A2
:10466C00DA68384B0A431A637B681A688023DB02CA
:10467C00134024D07B681B69002B16D07B681A6909
:10468C008023DB029A4210D07B681A6980231B03BB
:10469C009A420AD07B681A69C0231B039A4204D041
:1046AC00274BD4211800FCF7ACFD264B1B6B2C4A76
:1046BC00134019007B681A69224B0A431A637B6802
:1046CC001B682022134016D07B685B69002B08D036
:1046DC007B685B69102B04D0194BDF211800FCF7A9
:1046EC0090FD184B1B6B1022934319007B685A6981
:1046FC00144B0A431A637B681A688023DB0013404F
:10470C0016D07B689B69002B08D07B689B69402B7B
:10471C0004D00B4BF9211800FCF773FD094B1B6BF4
:10472C004022934319007B689A69064B0A431A632B
:10473C0000231800BD4606B080BDC046230405000A
:10474C00C06400080010024000700040FFFCFFFF36
:10475C00FFFFFEFF88130000FFFFFFEFFFFFFCFFD2
:10476C00FFFFF3FF80B582B000AF78607B68002B51
:10477C0001D1012394E07B689B69002B1BD07B68E3
:10478C001B68494A934246D07B681B68474A934250
:10479C0041D07B681B68464A93423CD07B681B68BF
:1047AC00444A934237D095235A00434B11001800CA
:1047BC00FCF727FD2FE07B681B683B4A93422AD00D
:1047CC007B681B68394A934225D07B681B68384A42
:1047DC00934220D07B681B68364A93421BD07B687F
:1047EC001B68364A934216D07B681B68344A934246
:1047FC0011D07B681B68334A93420CD07B681B68D2
:10480C00314A934207D03023FF331A002A4B110050
:10481C001800FCF7F6FC7B685B6F002B07D17B68FC
:10482C007022002199547B681800FCF7F5FF7B6817
:10483C0024225A677B681B681A687B681B680121F5
:10484C008A431A607B68180000F0ACFA0300012B55
:10485C0001D1012324E07B685B6A002B03D07B68C9
:10486C00180000F079FD7B681B685A687B681B6830
:10487C0016490A405A607B681B689A687B681B68FB
:10488C002A218A439A607B681B681A687B681B68BC
:10489C0001210A431A607B68180000F0E9FE03004E
:1048AC001800BD4602B080BD0038014000440040F5
:1048BC0000480040004C0040FC64000800500040E0
:1048CC000014014000180140001C0140FFB7FFFF1D
:1048DC0080B584B000AFF860B960BB1D1A80FB686E
:1048EC005B6F202B58D1BB68002B03D0BB1D1B88E2
:1048FC00002B01D1012350E0FB689A6880235B01F7
:10490C009A4209D1FB681B69002B05D1BB680122B7
:10491C00134001D0012340E0FB6870229B5C012B0B
:10492C0001D1022339E0FB68702201219954FB6804
:10493C00BA68DA64FB68BA1D502112885A52FB68B7
:10494C00BA1D522112885A52FB6800225A66FB6823
:10495C000022DA67FB6821225A67FB689A68802379
:10496C005B019A4207D1FB681B69002B03D1FB68E2
:10497C000C4A5A6602E0FB680B4A5A66FB687022C6
:10498C0000219954FB681B681A68FB681B6880211E
:10499C000A431A60002300E002231800BD4604B04D
:1049AC0080BDC046E35800087358000880B584B039
:1049BC0000AFF860B960BB1D1A80FB689B6F202BA1
:1049CC0000D09FE0BB68002B03D0BB1D1B88002BC5
:1049DC0001D1012397E0FB689A6880235B019A421E
:1049EC0009D1FB681B69002B05D1BB680122134060
:1049FC0001D0012387E0FB6870229B5C012B01D165
:104A0C00022380E0FB68702201219954FB68BA688C
:104A1C005A65FB68BA1D582112885A52FB68BA1D98
:104A2C005A2112885A52FB6800221A66FB689A684F
:104A3C0080235B019A420DD1FB681B69002B04D1CA
:104A4C00FB685C22324999522EE0FB685C22FF2104
:104A5C00995229E0FB689B68002B0DD1FB681B6900
:104A6C00002B04D1FB685C22FF2199521CE0FB68EF
:104A7C005C227F21995217E0FB689A6880235B05C2
:104A8C009A420DD1FB681B69002B04D1FB685C2298
:104A9C007F21995208E0FB685C223F21995203E088
:104AAC00FB685C2200219952FB680022DA67FB68E4
:104ABC0022229A67FB681B689A68FB681B680121B5
:104ACC000A439A60FB689A6880235B019A4207D17B
:104ADC00FB681B69002B03D1FB680E4A1A6602E0C7
:104AEC00FB680D4A1A66FB68702200219954FB681A
:104AFC001B681A68FB681B68902149000A431A60FE
:104B0C00002300E002231800BD4604B080BDC0465F
:104B1C00FF0100004D5A00089159000880B588B07B
:104B2C0000AF78607B681B68DB69FB617B681B6886
:104B3C001B68BB617B681B689B687B61FB69934A44
:104B4C0013403B613B69002B12D1FB6920221340BF
:104B5C000ED0BB69202213400AD07B681B6E002B41
:104B6C0000D10BE17B681B6E7A681000984705E159
:104B7C003B69002B00D1CDE07B690122134005D1AC
:104B8C00BA6990235B00134000D1C3E0FB6901229A
:104B9C0013400ED0BA6980235B00134009D07B68A8
:104BAC001B6801221A627B68DB6F01221A437B6847
:104BBC00DA67FB69022213400DD07B690122134096
:104BCC0009D07B681B6802221A627B68DB6F0422A7
:104BDC001A437B68DA67FB69042213400DD07B69AA
:104BEC000122134009D07B681B6804221A627B687F
:104BFC00DB6F02221A437B68DA67FB6908221340D9
:104C0C0011D0BB692022134003D17B6901221340D0
:104C1C0009D07B681B6808221A627B68DB6F08224C
:104C2C001A437B68DA67FA6980231B0113400FD0A3
:104C3C00BA698023DB0413400AD07B681B6880228E
:104C4C0012011A627B68DB6F20221A437B68DA67D9
:104C5C007B68DB6F002B00D192E0FB6920221340B4
:104C6C000CD0BB692022134008D07B681B6E002B34
:104C7C0004D07B681B6E7A68100098477B68DB6FEA
:104C8C00FB607B681B689B6840221340402B03D061
:104C9C00FB682822134033D07B68180000F0ACFD71
:104CAC007B681B689B6840221340402B23D17B6898
:104CBC001B689A687B681B6840218A439A607B68F2
:104CCC00DB6E002B12D07B68DB6E314A5A637B683B
:104CDC00DB6E1800FEF7A5F9031E19D07B68DB6E9E
:104CEC005A6B7B68DB6E1800904711E07B681800EC
:104CFC0000F050F80CE07B68180000F04BF807E06F
:104D0C007B68180000F046F87B680022DA6737E011
:104D1C00C04635E0FA6980235B0313400ED07A69F4
:104D2C008023DB03134009D07B681B68802252036D
:104D3C001A627B68180000F0E1FE24E0FB69802217
:104D4C0013400DD0BB698022134009D07B685B6E89
:104D5C00002B17D07B685B6E7A681000984711E0C7
:104D6C00FB69402213400ED0BB69402213400AD08D
:104D7C007B68180000F0EBFDC04604E0C04602E082
:104D8C00C04600E0C046BD4608B080BD0F0800001C
:104D9C004558000880B582B000AF7860C046BD466B
:104DAC0002B080BD80B588B000AF78600023BB61D5
:104DBC001723FB1800221A707B685B68C54A934264
:104DCC0006D9B4231A01C44B11001800FCF719FAC8
:104DDC007B689A6880235B059A420FD07B689B683E
:104DEC00002B0BD07B689A6880235B019A4205D01C
:104DFC00BA4AB94B11001800FCF703FA7B68DA6861
:104E0C0080235B019A4215D07B68DB68002B11D0A4
:104E1C007B68DA68C0239B019A420BD07B68DA6806
:104E2C0080239B019A4205D0AD4AAB4B1100180070
:104E3C00FCF7E7F97B681B6A002B0BD07B681A6ABE
:104E4C0080231B019A4205D0A64AA34B11001800DF
:104E5C00FCF7D7F97B681B69002B11D07B681A69AA
:104E6C008023DB009A420BD07B681A69C023DB00DD
:104E7C009A4205D09C4A984B11001800FCF7C1F9D6
:104E8C007B685B690C22934303D17B685B69002BC5
:104E9C0005D1964A904B11001800FCF7B2F97B68CB
:104EAC009B69002B17D07B689A6980235B009A4220
:104EBC0011D07B689A6980239B009A420BD07B6847
:104ECC009A69C0239B009A4205D0894A824B1100F3
:104EDC001800FCF796F97B68DB69002B0BD07B681C
:104EEC00DA6980231B029A4205D0824A7A4B110060
:104EFC001800FCF786F97B689A687B681B691A4373
:104F0C007B685B691A437B68DB6913433B617B6895
:104F1C001B681B68784A134019007B681B683A6948
:104F2C000A431A607B681B685B68744A134019005B
:104F3C007B68DA687B681B680A435A607B689B69EC
:104F4C003B617B681B6A3A6913433B617B681B6856
:104F5C009B686B4A134019007B681B683A690A43CB
:104F6C009A607B681B68674A934225D1664B1B6B22
:104F7C0003221340012B0FD004D3022B11D0032B8F
:104F8C0005D013E01F23FB1800221A70E0E01F234A
:104F9C00FB1802221A70DBE01F23FB1804221A7084
:104FAC00D6E01F23FB1808221A70D1E01F23FB1830
:104FBC0010221A70C046CBE07B681B68534A9342A0
:104FCC0032D1514B1A6BC0239B02134080225202E8
:104FDC00934219D080225202934202D8002B09D05E
:104FEC001CE080229202934213D0C0229202934280
:104FFC0005D013E01F23FB1800221A70A8E01F2312
:10500C00FB1802221A70A3E01F23FB1804221A704B
:10501C009EE01F23FB1808221A7099E01F23FB182F
:10502C0010221A70C04693E07B681B68384A934282
:10503C0032D1354B1A6BC0231B0313408022D20292
:10504C00934219D08022D202934202D8002B09D06D
:10505C001CE080221203934213D0C022120393420D
:10506C0005D013E01F23FB1800221A7070E01F23D9
:10507C00FB1802221A706BE01F23FB1804221A7013
:10508C0066E01F23FB1808221A7061E01F23FB182F
:10509C0010221A70C0465BE07B681B681D4A934265
:1050AC0004D11F23FB1800221A7051E07B681B6887
:1050BC00194A934204D11F23FB1800221A7047E0AF
:1050CC007B681B68154A93422AD11F23FB180022C8
:1050DC001A703DE0808D5B00FC640008410B000001
:1050EC00420B0000430B0000450B0000460B000078
:1050FC00470B0000480B0000F369FFEFFFCFFFFFE9
:10510C00FFF4FFFF00380140001002400044004053
:10511C0000480040004C004000500040001401408A
:10512C007B681B68874A934204D11F23FB1800221B
:10513C001A700DE07B681B68834A934204D11F23CD
:10514C00FB1800221A7003E01F23FB1810221A70A0
:10515C007B68DA6980231B029A4200D07DE01F2312
:10516C00FB181B78022B1CD002DC002B05D04BE06B
:10517C00042B25D0082B37D046E0FFF74DF9030060
:10518C00FB60FB685A007B685B685B08D2187B6825
:10519C005B6819001000FAF7AFFF03009BB2BB610C
:1051AC0037E07B685B685B08684A9A187B685B68C9
:1051BC0019001000FAF7A0FF03009BB2BB6128E0B6
:1051CC00FFF7A2F80300FB60FB685A007B685B6882
:1051DC005B08D2187B685B6819001000FAF78CFF2B
:1051EC0003009BB2BB6114E07B685B685B088022A8
:1051FC0052029A187B685B6819001000FAF77CFF62
:10520C0003009BB2BB6104E01723FB1801221A7048
:10521C00C046BB690F2B1BD9BB694D4A934217D8AB
:10522C00BB699AB20A203B180F218A431A80BB69CA
:10523C005B089BB20722134099B23B183A181288AC
:10524C000A431A807B681B683A181288DA606CE093
:10525C001723FB1801221A7067E01F23FB181B7819
:10526C00022B1BD002DC002B05D049E0042B24D0F0
:10527C00082B35D044E0FFF7CFF80300FB607B68C8
:10528C005B685A08FB68D2187B685B6819001000D1
:10529C00FAF732FF03009BB2BB6136E07B685B68B8
:1052AC005B082C4A9A187B685B6819001000FAF7A7
:1052BC0023FF03009BB2BB6127E0FFF725F8030037
:1052CC00FB607B685B685A08FB68D2187B685B687C
:1052DC0019001000FAF710FF03009BB2BB6114E039
:1052EC007B685B685B08802212029A187B685B689B
:1052FC0019001000FAF700FF03009BB2BB6104E039
:10530C001723FB1801221A70C046BB690F2B08D952
:10531C00BB690F4A934204D87B681B68BA69DA6090
:10532C0003E01723FB1801221A707B6800221A660F
:10533C007B6800225A661723FB181B781800BD46A1
:10534C0008B080BD00180140001C01400024F4008E
:10535C00FFFF000000127A0080B582B000AF7860C9
:10536C007B685B6AFF2B05D9AA4AAB4B110018006E
:10537C00FBF747FF7B685B6A012213401BD07B68FD
:10538C009B6A002B0BD07B689A6A80239B029A4203
:10539C0005D0A24AA04B11001800FBF732FF7B6826
:1053AC001B685B689E4A134019007B689A6A7B688D
:1053BC001B680A435A607B685B6A022213401BD04D
:1053CC007B68DB6A002B0BD07B68DA6A80235B027C
:1053DC009A4205D0934A904B11001800FBF711FF2D
:1053EC007B681B685B68904A134019007B68DA6A1B
:1053FC007B681B680A435A607B685B6A0422134013
:10540C001CD07B681B6B002B0CD07B681A6B802329
:10541C00DB029A4206D0BD231A017F4B1100180003
:10542C00FBF7EFFE7B681B685B68804A1340190032
:10543C007B681A6B7B681B680A435A607B685B6AE3
:10544C00082213401BD07B685B6B002B0BD07B6856
:10545C005A6B80231B029A4205D0754A6E4B110081
:10546C001800FBF7CEFE7B681B685B68714A134023
:10547C0019007B685A6B7B681B680A435A607B680F
:10548C005B6A102213401BD07B689B6B002B0BD0EC
:10549C007B689A6B80235B019A4205D0664A5E4B0F
:1054AC0011001800FBF7ADFE7B681B689B68634A14
:1054BC00134019007B689A6B7B681B680A439A60DF
:1054CC007B685B6A202213401BD07B68DB6B002B54
:1054DC000BD07B68DA6B80239B019A4205D0584A2B
:1054EC004D4B11001800FBF78CFE7B681B689B680A
:1054FC00544A134019007B68DA6B7B681B680A43BB
:10550C009A607B685B6A402213405ED07B681B68A4
:10551C004D4A93420FD07B681B684C4A93420AD089
:10552C007B681B684A4A934205D04A4A3A4B1100A1
:10553C001800FBF766FE7B681B6C002B0BD07B689E
:10554C001A6C80235B039A4205D0434A324B1100FC
:10555C001800FBF756FE7B681B685B683F4A1340DC
:10556C0019007B681A6C7B681B680A435A607B685D
:10557C001A6C80235B039A4227D17B685B6C002BEF
:10558C0017D07B685A6C80239B039A4211D07B689E
:10559C005A6C8023DB039A420BD07B685A6CC02375
:1055AC00DB039A4205D02E4A1B4B11001800FBF767
:1055BC0028FE7B681B685B682A4A134019007B68CD
:1055CC005A6C7B681B680A435A607B685B6A802252
:1055DC0013401BD07B689B6C002B0BD07B689A6CA8
:1055EC0080231B039A4205D01F4A0B4B1100180055
:1055FC00FBF707FE7B681B685B681C4A13401900AD
:10560C007B689A6C7B681B680A435A60C046BD462F
:10561C0002B080BDBD0B0000FC640008C20B000092
:10562C00FFFFFDFFC90B0000FFFFFEFFFFFFFBFFAD
:10563C00D70B0000FF7FFFFFDE0B0000FFEFFFFF2B
:10564C00E50B0000FFDFFFFF003801400044004085
:10565C0000480040EC0B0000ED0B0000FFFFEFFFDB
:10566C00F20B0000FFFF9FFFFA0B0000FFFFF7FF9C
:10567C0080B586B002AF78607B680022DA67FCF7F1
:10568C0043FA0300FB607B681B681B68082213400D
:10569C00082B0DD1FA68802399037868164B009378
:1056AC001300002200F02AF8031E01D003231FE090
:1056BC007B681B681B6804221340042B0DD1FA680D
:1056CC008023D90378680C4B00931300002200F060
:1056DC0015F8031E01D003230AE07B6820225A67C9
:1056EC007B6820229A677B687022002199540023E2
:1056FC001800BD4604B080BDFFFFFF0180B584B02B
:10570C0000AFF860B9603B60FB1D1A705DE0BB69CF
:10571C0001335AD0FCF7F8F902003B68D31ABA6986
:10572C009A4202D3BB69002B1BD1FB681B681A6819
:10573C00FB681B682F490A401A60FB681B689A6853
:10574C00FB681B6801218A439A60FB6820225A6718
:10575C00FB6820229A67FB6870220021995403236E
:10576C0043E0FB681B681B68042213402DD0FB68C8
:10577C001B68DA6980231B011A4080231B019A42A3
:10578C0023D1FB681B68802212011A62FB681B681C
:10579C001A68FB681B6817490A401A60FB681B688B
:1057AC009A68FB681B6801218A439A60FB68202277
:1057BC005A67FB6820229A67FB682022DA67FB682D
:1057CC0070220021995403230FE0FB681B68DB69EE
:1057DC00BA681340BA68D31A5A425341DBB21A0062
:1057EC00FB1D1B789A4292D000231800BD4604B0D2
:1057FC0080BDC0465FFEFFFF80B582B000AF786011
:10580C007B681B681A687B681B680A490A401A6027
:10581C007B681B689A687B681B6801218A439A60C5
:10582C007B6820229A677B6800221A66C046BD46B8
:10583C0002B080BDDFFEFFFF80B584B000AF7860A2
:10584C007B685B6AFB60FB685A2200219952FB68FB
:10585C00522200219952FB681800FFF79BFAC046B0
:10586C00BD4604B080BD80B582B000AF78607B6867
:10587C005B6F212B2BD17B6852229B5A9BB2002B46
:10588C0010D17B681B681A687B681B6880218A436F
:10589C001A607B681B681A687B681B6840210A4386
:1058AC001A6014E07B68DB6C1A787B681B6892B218
:1058BC001A857B68DB6C5A1C7B68DA647B68522225
:1058CC009B5A9BB2013B99B27B6852229952C046BB
:1058DC00BD4602B080BD80B584B000AF78607B68F7
:1058EC005B6F212B2FD17B6852229B5A9BB2002BD2
:1058FC0010D17B681B681A687B681B6880218A43FF
:10590C001A607B681B681A687B681B6840210A4315
:10591C001A6018E07B68DB6CFB60FB681A887B689C
:10592C001B68D205D20D92B21A857B68DB6C9A1C6F
:10593C007B68DA647B6852229B5A9BB2013B99B21A
:10594C007B6852229952C046BD4604B080BD80B5DA
:10595C0082B000AF78607B681B681A687B681B6834
:10596C0040218A431A607B6820225A677B68002298
:10597C005A667B681800FCF72BF8C046BD4602B08F
:10598C0080BD000080B584B000AF78600E23FB189A
:10599C007A685C21525A1A807B689B6F222B40D10B
:1059AC007B681A680C217B18928C1A807B181B88D8
:1059BC00DAB20E23FB181B88D9B27B685B6D0A40E8
:1059CC00D2B21A707B685B6D5A1C7B685A657B6817
:1059DC005A229B5A9BB2013B99B27B685A2299522C
:1059EC007B685A229B5A9BB2002B22D17B681B6886
:1059FC001A687B681B6811490A401A607B681B682F
:105A0C009A687B681B6801218A439A607B68202214
:105A1C009A677B6800221A667B681800FBF7B8FF50
:105A2C0007E07B681B689A697B681B6808210A433E
:105A3C009A61C046BD4604B080BDC046DFFEFFFF84
:105A4C0080B584B000AF78600E23FB187A685C21B7
:105A5C00525A1A807B689B6F222B40D17B681A6844
:105A6C000C217B18928C1A807B685B6DBB607B1859
:105A7C000E22BA181B88128813409AB2BB681A807F
:105A8C007B685B6D9A1C7B685A657B685A229B5AB3
:105A9C009BB2013B99B27B685A2299527B685A227D
:105AAC009B5A9BB2002B22D17B681B681A687B68BF
:105ABC001B6811490A401A607B681B689A687B68EE
:105ACC001B6801218A439A607B6820229A677B6855
