:020000040800F2
:1000000000800020ED300008C52D0008CF2D00082D
:1000100000000000000000000000000000000000E0
:10002000000000000000000000000000D52D0008C6
:100030000000000000000000DF2D0008E92D00088E
:100040003D3100083D3100083D3100083D310008D8
:100050003D3100083D3100083D3100083D310008C8
:100060003D3100083D3100083D3100083D310008B8
:100070003D3100083D3100083D3100083D310008A8
:100080003D3100083D3100083D3100083D31000898
:100090003D3100083D3100083D3100083D31000888
:1000A0003D3100083D3100083D3100083D31000878
:0C00B000FD2D00083D310008152E000851
:1000BC0010B5064C2378002B07D1054B002B02D032
:1000CC00044800E000BF0123237010BD9C000020F9
:1000DC00000000001C8B0008044B10B5002B03D053
:1000EC000349044800E000BF10BDC04600000000FA
:1000FC00A00000201C8B00080023C25C0133002AE6
:10010C00FBD1581E70470000002243088B4274D369
:10011C0003098B425FD3030A8B4244D3030B8B42FC
:10012C0028D3030C8B420DD3FF22090212BA030C05
:10013C008B4202D31212090265D0030B8B4219D3E6
:10014C0000E0090AC30B8B4201D3CB03C01A524106
:10015C00830B8B4201D38B03C01A5241430B8B424E
:10016C0001D34B03C01A5241030B8B4201D30B0337
:10017C00C01A5241C30A8B4201D3CB02C01A52415E
:10018C00830A8B4201D38B02C01A5241430A8B4221
:10019C0001D34B02C01A5241030A8B4201D30B020A
:1001AC00C01A5241CDD2C3098B4201D3CB01C01A24
:1001BC00524183098B4201D38B01C01A524143092E
:1001CC008B4201D34B01C01A524103098B4201D31C
:1001DC000B01C01A5241C3088B4201D3CB00C01A89
:1001EC00524183088B4201D38B00C01A5241430801
:1001FC008B4201D34B00C01A5241411A00D2014626
:10020C00524110467047FFE701B5002000F0F0F8AE
:10021C0002BDC0460029F7D076E7704703460B4372
:10022C007FD4002243088B4274D303098B425FD3E3
:10023C00030A8B4244D3030B8B4228D3030C8B420F
:10024C000DD3FF22090212BA030C8B4202D31212F5
:10025C00090265D0030B8B4219D300E0090AC30BCA
:10026C008B4201D3CB03C01A5241830B8B4201D377
:10027C008B03C01A5241430B8B4201D34B03C01A60
:10028C005241030B8B4201D30B03C01A5241C30AD8
:10029C008B4201D3CB02C01A5241830A8B4201D349
:1002AC008B02C01A5241430A8B4201D34B02C01A33
:1002BC005241030A8B4201D30B02C01A5241CDD2D8
:1002CC00C3098B4201D3CB01C01A524183098B4223
:1002DC0001D38B01C01A524143098B4201D34B010C
:1002EC00C01A524103098B4201D30B01C01A52416F
:1002FC00C3088B4201D3CB00C01A524183088B42F6
:10030C0001D38B00C01A524143088B4201D34B00DE
:10031C00C01A5241411A00D2014652411046704750
:10032C005DE0CA0F00D04942031000D34042534055
:10033C0000229C4603098B422DD3030A8B4212D315
:10034C00FC22890112BA030A8B420CD38901921147
:10035C008B4208D3890192118B4204D389013AD084
:10036C00921100E08909C3098B4201D3CB01C01A59
:10037C00524183098B4201D38B01C01A524143096C
:10038C008B4201D34B01C01A524103098B4201D35A
:10039C000B01C01A5241C3088B4201D3CB00C01AC7
:1003AC00524183088B4201D38B00C01A5241D9D2DF
:1003BC0043088B4201D34B00C01A5241411A00D260
:1003CC000146634652415B10104601D34042002B5C
:1003DC0000D54942704763465B1000D3404201B5DB
:1003EC00002000F005F802BD0029F8D016E7704790
:1003FC007047C04680B582B000AF78600A00BB1C65
:10040C001A8010E07B68DB889BB25A1C7B689B8847
:10041C0019001000FFF7E8FF0B009AB27B68DA8036
:10042C007B6800229A72BB1C1B88BA1C591E118057
:10043C00002B05D07B68180000F0C9F8031EE1D131
:10044C00C046BD4602B080BD80B582B000AF7860BA
:10045C000A00BB1C1A8024E07B681B899BB25A1CC7
:10046C007B689B8819001000FFF7BEFF0B009AB247
:10047C007B681A817B689B7ADBB2002B05D07B688A
:10048C001B899AB27B68DA800BE07B681B899AB275
:10049C007B68DB889BB2D31A5A425341DAB27B6831
:1004AC009A72BB1C1B88BA1C591E1180002BD3D10D
:1004BC00C046BD4602B080BD80B582B000AF78604A
:1004CC007B68002B06D07B681B687A68D28892B256
:1004DC009B1800E000231800BD4602B080BD80B51B
:1004EC0082B000AF78607B68002B06D07B681B68FD
:1004FC007A68128992B29B1800E000231800BD465E
:10050C0002B080BD90B585B000AF78600023FB6071
:10051C007B68002B1CD07B681B687A6892889B18C0
:10052C001C007B681800FFF7C7FF0300E31AFB6091
:10053C007B68180000F04BF80200FB68934205D36F
:10054C007B68180000F043F8030000E0FB68FB60D8
:10055C00FB681800BD4605B090BD80B584B000AFF7
:10056C00F860B9607A60FB68002B10D0BB68002B78
:10057C000DD07B68002B0AD0FB68BA681A607B68C8
:10058C009AB2FB689A80FB68180000F004F8C04629
:10059C00BD4604B080BD80B582B000AF78607B688A
:1005AC00002B10D07B680022DA807B6800221A8135
:1005BC007B6800229A727B6818687B689B881A009B
:1005CC00002107F095FEC046BD4602B080BD80B547
:1005DC0084B000AF78600023FB607B68002B31D0C7
:1005EC007B681B899AB27B68DB889BB29A4209D9DB
:1005FC007B681B899BB21A007B68DB889BB2D31A81
:10060C00FB601FE07B681B899AB27B68DB889BB21E
:10061C009A420CD27B689B881A007B68DB889BB261
:10062C00D31A7A68128992B29B18FB600AE07B6835
:10063C009B7ADBB2002B03D07B689B88FB6001E0CC
:10064C000023FB60FB681800BD4604B080BD90B56C
:10065C0085B000AF78600023FB607B68002B09D06D
:10066C007B689B881C007B681800FFF7B0FF0300B9
:10067C00E31AFB60FB681800BD4605B090BD80B561
:10068C0084B000AF78600A00FB1C1A700023FB607A
:10069C000023BB6011E0BA687B681100180000F001
:1006AC003CF803001A00FB1C1B78934202D1BB6878
:1006BC00FB600AE0BB680133BB607B681800FFF786
:1006CC0086FF0200BB689342E5D3FB681800BD4669
:1006DC0004B080BD80B582B000AF78600A00FB1C0E
:1006EC001A700EE07B68180000F046F803001A0040
:1006FC00FB1C1B7893420BD07B6801211800FFF781
:10070C0079FE7B681800FFF762FF031EEAD100E058
:10071C00C046C046BD4602B080BD90B585B000AFA6
:10072C00786039600F23FB1800221A707B68002B4D
:10073C001BD07B681800FFF74AFF02003B6893420E
:10074C0013D27B681C687B68DB889BB21A003B6801
:10075C00D2187B689B8819001000FFF75BFD0B001B
:10076C00E2180F23FB1812781A700F23FB181B7852
:10077C001800BD4605B090BD80B584B000AF786060
:10078C000F23FB1800221A707B68002B09D07B68A2
:10079C001B687A68D28892B29A180F23FB181278C9
:1007AC001A700F23FB181B781800BD4604B080BDCF
:1007BC0080B584B000AF78600F23FB1800221A704C
:1007CC007B681800FFF703FF031E0ED07B681B68C5
:1007DC007A68D28892B29A180F23FB1812781A7082
:1007EC007B6801211800FFF705FE0F23FB181B780F
:1007FC001800BD4604B080BD90B587B000AFF8605E
:10080C00B9607A6000237B610AE07B695A1C7A61CB
:10081C00BA68D418FB681800FFF7CAFF03002370EE
:10082C00FB681800FFF7D3FE031E03D07A697B68C0
:10083C009A42EAD37B691800BD4607B090BD80B5DB
:10084C0082B000AF78600A00FB1C1A707B68002B2A
:10085C000DD07B681B687A68128992B29B18FA1CBF
:10086C0012781A707B6801211800FFF7EDFDC04665
:10087C00BD4602B080BD80B586B000AFF860B960EF
:10088C007A6000237B61FB68002B0FD00AE07B6948
:10089C005A1C7A61BA68D3181A78FB6811001800D0
:1008AC00FFF7CDFF7A697B689A42F0D37B69180019
:1008BC00BD4606B080BD000080B582B000AF786048
:1008CC0039607B683A685A637B681A4A9A637B681A
:1008DC009B6B194940221800FFF73FFE7B68174AB3
:1008EC00DA637B68DB6B164940221800FFF735FE94
:1008FC0002F0A6FC02007B681A6002F0ABFC02005E
:10090C007B685A6002F0B0FC02007B689A607B68DE
:10091C000022DA607B6800225A747B68FF221A740A
:10092C0002F062FC02007B689A61C046BD4602B0D0
:10093C0080BDC04638010020B800002044010020D2
:10094C00F800002080B584B000AF786039603B6857
:10095C00DB68002B39D13B685B68002B35D13B68D9
:10096C001B690333FB607B689B6B1800FFF76FFE02
:10097C000200FB68934229D87B68986B3B681B6824
:10098C001B0ADBB27F221340DBB21900FFF757FFC3
:10099C007B689A6B3B681B68DBB219001000FFF791
:1009AC004EFF7B689A6B3B681B69DBB21900100029
:1009BC00FFF745FF7B68986B3B681C3319003B685D
:1009CC001B691A00FFF757FF00E0C046BD4604B094
:1009DC0080BD0000B0B58CB000AF78602F23FB1841
:1009EC0001221A707B68DB6B1800FFF7F0FD031E09
:1009FC0048D0284B180003F031FA031E42D00C24C7
:100A0C003B190022DA603B1900229A603B19002244
:100A1C005A607B68DB6B1800FFF7CAFE03001B02F1
:100A2C001A003B191A607B68DB6B1800FFF7C0FEDD
:100A3C0003001A003B191B689A183B191A607B6853
:100A4C00DB6B1800FFF7B4FE03001A003B191A61A8
:100A5C007B68D86B3B191A6925003B1918331900B0
:100A6C00FFF7CAFE0823FC187B1918331A007919F2
:100A7C000848230003F05CF8031E03D12F23FB1856
:100A8C0000221A702F23FB181B781800BD460CB0DF
:100A9C00B0BDC046C401002080B586B000AF786000
:100AAC0039601723FB1801221A700323FB607B6843
:100ABC001800FFF78CFD0200FB6893422CD87B6872
:100ACC001800FFF775FE03009BB21B029AB23B683D
:100ADC001A807B681800FFF76BFE030019003B6857
:100AEC001A888BB2D3189AB23B681A807B681800AC
:100AFC00FFF75EFE03001A003B689A703B68D91C36
:100B0C003B689B781A007B681800FFF775FE17236B
:100B1C00FB1800221A7013E07B681800FFF757FDD2
:100B2C000300FB6000233B6106E07B681800FFF7C5
:100B3C003FFE3B6901333B613B69FA689A42F4D84A
:100B4C001723FB181B781800BD4606B080BD80B576
:100B5C0082B000AF786039603B681B881B0A9BB27F
:100B6C00DBB27F221340DAB27B6811001800FFF76A
:100B7C0066FE3B681B88DAB27B6811001800FFF731
:100B8C005EFE3B689A787B6811001800FFF757FEF1
:100B9C003B68D91C3B689B781A007B681800FFF7F0
:100BAC006AFE00231800BD4602B080BD80B586B039
:100BBC0000AF786039603B689B7803337B6107E05A
:100BCC007B68DB6B0822BA1811001800FFF764FF72
:100BDC007B68DB6B1800FFF73AFD02007B699342E0
:100BEC00EED87B68DB6B3A6811001800FFF7AFFF9B
:100BFC0003001800BD4606B080BD90B587B000AFAD
:100C0C0078607B689C6902F0EFFA03009C4200D389
:100C1C007DE002F0E9FA030099B27B689B699AB215
:100C2C0016203B188A1A1A807B689A8A01007B1856
:100C3C001B88D3189AB27B689A827B689A697B1856
:100C4C001B88D2187B689A617B689B8B002B15D014
:100C5C007B68998A7B68DA8B14203B188A1A1A8075
:100C6C007B689B8B3A1812889A4207D37B681800D2
:100C7C0000F051FA7B689A8A7B68DA837B681B8E5A
:100C8C00002B44D07B685B8E1A007B681B8ED318BC
:100C9C007A68928A93423ADC7B689A8A7B685A8695
:100CAC007B6800221A8632E07B689B6B1800FFF78A
:100CBC007FFD03009BB21B029AB208243B191A80D9
:100CCC007B689B6B1800FFF773FD030019003B1941
:100CDC001A888BB2D3189AB23B191A807B689B6B1B
:100CEC001800FFF765FD03001A003B199A707B682A
:100CFC00986B3B199B781A003B1903331900FFF7CB
:100D0C007BFD3A197B681100180000F013F87B6822
:100D1C009B6B1800FFF75BFC031EC5D1C0467B68BC
:100D2C001800FFF757FE031EF9D0C046BD4607B0AA
:100D3C0090BD000090B585B000AF786039600F238E
:100D4C00FB1801221A703B681B88002B0DD13B68E5
:100D5C00D91C3B689B781A000F23FC187B68180081
:100D6C0000F018FA03002370CFE03B681B88802B3F
:100D7C000DD13B68D91C3B689B781A000F23FC18DB
:100D8C007B68180000F016FA03002370BDE03B6886
:100D9C001B881A00F023DB001340802B17D13B6813
:100DAC001B885AB20E203B187F210A401A703B68F0
:100DBC00D91C3B689B781A000F23FC183B181B7836
:100DCC005BB2180000F094F9030023709DE03B68BF
:100DDC001B881A00F023DB001A40B023DB009A4278
:100DEC0027D13B681B881A004B4B13407A68127C46
:100DFC0052B2934201D001238AE03B689B78082BC6
:100E0C0001D0012384E07B685B7C032B03D07B68DF
:100E1C005B7C002B01D101237AE03B68DA1C0F23A9
:100E2C00FC187B681100180000F0DCFE0300237036
:100E3C006BE03B681B881A00F023DB001A40C023D0
:100E4C00DB009A4227D13B681B881A00324B1340B7
:100E5C007A68127C52B2934201D0012358E03B686D
:100E6C009B78082B01D0012352E07B685B7C032B21
:100E7C0003D07B685B7C002B01D1012348E03B68ED
:100E8C00DA1C0F23FC187B681100180000F0C4FD5D
:100E9C000300237039E03B681B881A00F023DB0049
:100EAC001A40C0235B009A422FD03B681B881A0063
:100EBC00F023DB001A40A0239B009A4225D03B680C
:100ECC001B881A00F023DB001A40E0239B009A4297
:100EDC001BD03B681B881A00F023DB001A409023C0
:100EEC00DB009A4211D03B681B881A00F023DB0010
:100EFC001A4080239B009A4207D03B681B881A003B
:100F0C00F023DB001A40C0239B000F23FB181B7837
:100F1C001800BD4605B090BD7FF8FFFF80B586B0C8
:100F2C0000AF786008001100BB1C021C1A807B1CEF
:100F3C000A1C1A70BB1C1B88554A93420ED9BB1C49
:100F4C001B88544A934209D87B1C1A78BB1C1988FD
:100F5C007B68180001F07AF8030095E0BB1C1B8835
:100F6C004D4A93420ED9BB1C1B884C4A934209D85C
:100F7C007B1C1A78BB1C19887B68180000F096F84B
:100F8C00030081E0BB1C1B88454A93420ED9BB1C55
:100F9C001B88444A934209D87B1C1A78BB1C1988BD
:100FAC007B68180000F093F803006DE000237B6170
:100FBC005DE07B68596B7A6913005B009B189B00A2
:100FCC00CB181B88BA1C12889A424DD17B68596B7E
:100FDC007A6913005B009B189B00CB189B78072B3E
:100FEC0033D17B68596B7A6913005B009B189B00AB
:100FFC00CB185B68FB60FB685A680B23FB181278F4
:10100C001A7001233B6119E03A6913005B009B18CD
:10101C009B001A00FB689B181A887B1C1B789BB2E0
:10102C009A4208D13A6913005B009B189B001A0086
:10103C00FB689B1828E03B6901333B610B23FB18D1
:10104C001B783A699A42DFDB0EE07B1C1B78002B85
:10105C0008D17B68596B7A6913005B009B189B0065
:10106C00CB1811E000230FE07B6901337B617B68B7
:10107C00596B7A6913005B009B189B00CB181B887B
:10108C00094A934295D100231800BD4606B080BD95
:10109C00FF1F0000FF5F0000FF130000FF150000A2
:1010AC00FF170000FF190000FFFF000080B582B0A1
:1010BC0000AF786008001100BB1C021C1A807B1C5E
:1010CC000A1C1A7000231800BD4602B080BD80B502
:1010DC0082B000AF786008001100BB1C021C1A80A3
:1010EC007B1C0A1C1A7000231800BD4602B080BD80
:1010FC0080B586B000AFB9607A600F23FB18021C74
:10110C001A7017217B1801221A707B181B78180093
:10111C00BD4606B080BD90B587B000AF78600C249A
:10112C003B1918000C231A00002107F0E1F87B682A
:10113C001B7C5BB21BB2E022D20013431BB29AB2EF
:10114C003B191A803B1901229A707B685B7C022B3D
:10115C0008D0032B0BD0012B0ED10C23FB187F22B4
:10116C00DA700BE00C23FB180522DA7006E00C2376
:10117C00FB180422DA7001E0012307E00C23FA18B3
:10118C007B6811001800FFF711FD03001800BD4625
:10119C0007B090BD80B586B000AFF860B9607A60DA
:1011AC0017217B1801221A707B181B781800BD467A
:1011BC0006B080BD80B586B000AFF860B9607A60CB
:1011CC0017217B1801221A707B181B781800BD465A
:1011DC0006B080BD90B589B000AFF860B9607A6098
:1011EC0014243B1918000C231A00002107F080F876
:1011FC00FB681B7C5BB21BB2B022D20013431BB248
:10120C009AB23B191A803B1908229A703B1980221A
:10121C00DA70BB68002B0CD0BB685A7814217B1891
:10122C001A71BB689A787B185A71BB68DA787B188C
:10123C009A717B68DAB214217B18DA717B681B0A0D
:10124C00DAB27B181A727B681B0CDAB27B185A72F2
:10125C007B681B0EDAB27B189A727A18FB68110045
:10126C001800FFF7A3FC03001800BD4609B090BDA1
:10127C0090B589B000AFF860B9607A6010243B1962
:10128C0018000C231A00002107F032F8FB681B7CB5
:10129C005BB21BB2B022D20013431BB29AB2210034
:1012AC007B181A807B1808229A70BB685A787B18B6
:1012BC001A71BB689A787B185A71BB68DA787B18FC
:1012CC009A717B689B78022B10D0032B20D0012BBA
:1012DC003AD110217B184F22DA707B685B681B783F
:1012EC00FB61FB69DAB27B18DA712FE010217B18F5
:1012FC004B22DA707B685B681B88FB61FB69DAB296
:10130C007B18DA71FB691B0ADAB27B181A721DE0C2
:10131C0010217B184322DA707B685B681B68FB61C9
:10132C00FB69DAB27B18DA71FB691B0ADAB27B183B
:10133C001A72FB691B0CDAB27B185A72FB691B0E12
:10134C00DAB27B189A7201E001230AE0FB680022F2
:10135C001A861023FA18FB6811001800FFF726FCF8
:10136C0003001800BD4609B090BD90B589B000AF20
:10137C00F860B9607A6010243B1918000C231A002D
:10138C00002106F0B5FFFB681B7C5BB21BB2B022E0
:10139C00D20013431BB29AB221007B181A807B181F
:1013AC0008229A70BB685A787B181A71BB689A78B5
:1013BC007B185A71BB68DA787B189A717B1860229B
:1013CC00DA70BB681B782B2B0ED02F2B02D0232B63
:1013DC001CD03CE0BB6804331B78FB617B685B680A
:1013EC00FA69D2B21A7034E0BB6804331B78FB6123
:1013FC00BB6805331B781B021A00FB699B18FB6149
:10140C007B685B68FA6992B21A8022E0BB6804338D
:10141C001B78FB61BB6805331B781B021A00FB6948
:10142C009B18FB61BB6806331B781B041A00FB6915
:10143C009B18FB61BB6807331B781B061A00FB6902
:10144C009B18FB617B685B68FA691A6001E00123F9
:10145C000AE0FB6800221A861023FA18FB681100B8
:10146C001800FFF7A3FB03001800BD4609B090BDA0
:10147C0090B589B000AFF860B9607A6014243B195C
:10148C0018000C231A00002106F032FFFB681B7CAD
:10149C005BB21BB2B022D20013431BB29AB23B19FF
:1014AC001A803B1908229A707B689B78052B0CD00C
:1014BC00062B05D0042B11D1FB6808225A6215E0CB
:1014CC007B689A68FB685A6210E07B685B6818005E
:1014DC00FEF712FE0200FB685A6207E0274AB96861
:1014EC00FB681800FFF776FE012343E0FB6820221F
:1014FC0001219954FB68212201219954FB68002297
:10150C009A62FB687A68DA6214217B184122DA70DD
:10151C00BB685A787B181A71BB689A787B185A7119
:10152C00BB68DA787B189A71FB685B6ADAB27B1855
:10153C00DA71FB685B6A1B0ADAB27B181A72FB68F9
:10154C005B6A1B0CDAB27B185A72FB685B6A1B0E67
:10155C00DAB27B189A72FB68FA2292001A86FB6840
:10156C009A8AFB685A867A18FB6811001800FFF7F4
:10157C001DFB03001800BD4609B090BD000001061C
:10158C0090B58BB000AF786039603B681B781B0955
:10159C00DBB21A0001231A401B23FB18511E8A418F
:1015AC001A707B68DB6A5B687B6108243B19180046
:1015BC000C231A00002106F09BFE7B681B7C5BB29F
:1015CC001BB2B022D20013431BB29AB23B191A8041
:1015DC003B1908229A707B6820229B5C01225340A5
:1015EC00DBB2002B0AD07B6800221A86484A7B6843
:1015FC0000211800FFF7EEFD012384E07B68212217
:10160C009B5C1B22BA1812789A420AD17B68002282
:10161C001A86404A7B6800211800FFF7DBFD012386
:10162C0071E07B681B22BA18212112785A547B680E
:10163C009A6A7B685B6A9A420AD37B6800221A8694
:10164C00354A7B6800211800FFF7C4FD01235AE0DE
:10165C007B685A6A7B689B6AD31A072B0ED87B6807
:10166C009A6A7B685B6AD31A07333B622723FB18A1
:10167C0001221A707B6800221A860DE000233B625F
:10168C002723FB1800221A707B68FA2292001A8614
:10169C007B689A8A7B685A860023FB6113E07B681F
:1016AC009B6A7A69D218FB69013311780822BA183F
:1016BC00D3180A1CDA707B689B6A5A1C7B689A6286
:1016CC00FB690133FB613B6A0722D21AFB699A4220
:1016DC00E5D81B23FB181B781B01DAB23B6ADBB283
:1016EC00DB18DBB21343DAB22723FB181B78134346
:1016FC00DAB208217B18DA707A187B6811001800AE
:10170C00FFF754FA03001800BD460BB090BDC0465D
:10171C0001000405000003050500040580B588B030
:10172C0000AFF860B9607A601423FB1818000C2322
:10173C001A00002106F0DCFDBB6804331B781A008C
:10174C00FB685A62FB685B6ABA680532127812024F
:10175C009A18FB685A62FB685B6ABA6806321278A0
:10176C0012049A18FB685A62FB685B6ABA68073203
:10177C00127812069A18FB685A627B689B78042BC5
:10178C000BD1FB685B6A082B07D9364AB968FB6832
:10179C001800FFF71FFD01235FE07B689B78062B89
:1017AC000DD1FB685A6A7B689B689A4207D92D4A0F
:1017BC00B968FB681800FFF70DFD01234DE07B684D
:1017CC009B78052B0ED1FB685A6A7B689B68013BA2
:1017DC009A4207D9234AB968FB681800FFF7FAFC4C
:1017EC0001233AE0FB68202200219954FB68212256
:1017FC0001219954FB6800229A62FB687A68DA62CC
:10180C00FB681B7C5BB21BB2B022D20013431BB231
:10181C009AB214217B181A807B1808229A70BB6824
:10182C005A787B181A71BB689A787B185A71BB6806
:10183C00DA787B189A717B186022DA70FB68FA22CE
:10184C0092001A86FB689A8AFB685A867A18FB689B
:10185C0011001800FFF7AAF903001800BD4608B0E4
:10186C0080BDC0460500040590B58BB000AF786014
:10187C0039603B681B781B09DBB21A0001231A4044
:10188C002323FB18511E8A411A703B681B781A00DF
:10189C0001231A402223FB18511E8A411A703B68FF
:1018AC001B785B08DBB21A0007231340FB617B68D3
:1018BC00DB6A5B68BB617B6820229B5C002B0AD0D7
:1018CC007B6800221A86514A7B6800211800FFF7BA
:1018DC0081FC012396E07B6821229B5C2322BA18B1
:1018EC0012789A420AD17B6800221A86484A7B6891
:1018FC0000211800FFF76EFC012383E07B68232294
:10190C00BA18212112785A547B689B6A002B06D195
:10191C007B685A6ABB690021180006F0E9FC7B68F9
:10192C009A6AFB69D31ADA1D7B685B6A9A420AD9F8
:10193C007B6800221A86374A7B6800211800FFF763
:10194C0049FC01235EE000237B6212E07B6A0133D9
:10195C001A003B689A187B689B6AB969CB18127895
:10196C001A707B689B6A5A1C7B689A627B6A01338B
:10197C007B62FB690722D21A7B6A9A42E6D8222341
:10198C00FB181B78002B07D07B685A6A7B689A621D
:10199C007B6800221A8607E07B68FA2292001A867E
:1019AC007B689A8A7B685A860C243B1918000C2396
:1019BC001A00002106F09CFC7B681B7C5BB21BB2FE
:1019CC00B022D20013431BB29AB221007B181A80AA
:1019DC007B1808229A707B182022DA707B18DB782F
:1019EC005AB22323FB181B781B015BB213435BB267
:1019FC00DAB27B18DA707A187B6811001800FFF7DE
:101A0C00D5F803001800BD460BB090BD01000405CD
:101A1C00000003050500040590B587B000AF7860A1
:101A2C0039601723FB1801221A703B681B78602B56
:101A3C0003D03B681B78702B07D13A687B68110088
:101A4C001800FFF79DFD0300C2E03B681B781A00ED
:101A5C00F023134006D03B681B781A00F023134088
:101A6C00102B07D13A687B6811001800FFF7FCFEB9
:101A7C000300ADE03B6801331B7899B23B6802333D
:101A8C001B789BB21B029AB214203B188A181A803E
:101A9C003B1819887B6800221800FFF73FFA0300F7
:101AAC003B613B69002B07D14B4A39687B681800B6
:101ABC00FFF790FB01238BE00F217B183A68D2785B
:101ACC001A707B181A781423FB1819887B68180075
:101ADC00FFF724FA03003B613B69002B07D13F4A17
:101AEC0039687B681800FFF775FB012370E03B68D1
:101AFC001B78402B21D13B699B78042B07D03B6989
:101B0C009B78062B03D03B699B78052B0AD11723B6
:101B1C00FC183A6939687B681800FFF7A9FC0300C8
:101B2C00237052E01723FC183A6939687B68180057
:101B3C00FFF79EFB0300237047E03B681B782F2BBD
:101B4C0007D03B681B782B2B03D03B681B78232BCF
:101B5C0019D13B69DB78012B0AD11723FC183A69A0
:101B6C0039687B681800FFF700FC030023702CE039
:101B7C001B4A39687B681800FFF72CFB1723FB18EE
:101B8C0001221A7021E03B681B78212B19D13B698B
:101B9C00DB78012B0AD11723FC183A6939687B686A
:101BAC001800FFF7BBFD030023700EE00C4A3968E8
:101BBC007B681800FFF70EFB1723FB1801221A7025
:101BCC0003E01723FB1801221A701723FB181B784C
:101BDC001800BD4607B090BD0000020611000906B2
:101BEC000200010680B584B000AF786039600F2127
:101BFC007B1801221A707B181B781800BD4604B0A4
:101C0C0080BD000080B500AF184B194A1A60174B05
:101C1C0020225A60154B8022D2059A60134B002269
:101C2C00DA60124BA022D2021A61104B8022D2032E
:101C3C005A610E4B00221A760C4B00225A760B4B33
:101C4C0000229A76094B0022DA76084B00221A778A
:101C5C00064B00225A77054B180001F00FFB031EB0
:101C6C0001D000F0B3FFC046BD4680BDC4010020CA
:101C7C000064004080B58AB000AF78601423FB1874
:101C8C00180014231A00002106F032FB7B681B6835
:101C9C00204A93423AD1204BDA691F4B80218904A8
:101CAC000A43DA611C4BDA6980239B0413403B61C5
:101CBC003B69194B5A69184B8021C9020A435A6176
:101CCC00154B5A698023DB021340FB60FB6814211F
:101CDC007B18C02292001A607B1802225A607B1873
:101CEC0000229A607B180322DA607B1804221A61A6
:101CFC007B180A4A1900100002F0A0FD00220021F6
:101D0C001E2002F00BFD1E2002F028FDC046BD4631
:101D1C000AB080BD0064004000100240000400487E
:101D2C0080B582B000AF786039607B6820229B5C04
:101D3C00DBB2022B01D1002315E00D4B18683A6879
:101D4C0013005B009B189B001900FEF7DDF90300E4
:101D5C001A007B685A607B68180001F08FFA030048
:101D6C005A425341DBB21800BD4602B080BDC0469A
:101D7C002400002080B582B000AF78607B68202200
:101D8C009B5CDBB2022B08D17B68180001F084FE4F
:101D9C0003005A425341DBB200E001231800BD4658
:101DAC0002B080BD80B58EB000AF78600C217B187E
:101DBC0000225A617B1800229A617B180122DA6199
:101DCC007B1800221A607B1800225A607B180022B4
:101DDC009A607B180022DA607B1800221A617B184B
:101DEC0001221A627B180E225A627A187B68110043
:101DFC00180001F097FC03001A0037203B185142E1
:101E0C004A411A703B181B78002B0CD0114A7B6886
:101E1C001100180002F086F903001A003723FB1892
:101E2C0051424A411A703723FB181B78002B0AD0F9
:101E3C007B68180001F0EAFD03001A003723FB1839
:101E4C0051424A411A703723FB181B781800BD46C3
:101E5C000EB080BD1380000080B582B000AF7860FA
:101E6C00396039683B6818331A000D4B786801F0FB
:101E7C005FFE031E0ED07B681800FFF77BFF7B68AC
:101E8C001800FFF78FFF074B1B685A1C054B1A6095
:101E9C00002300E001231800BD4602B080BDC046FF
:101EAC00500100201802002080B582B000AF78608D
:101EBC00204B1B685A1C1F4B1A607B685A6A802384
:101ECC005B01134004D07B680121180001F070FF06
:101EDC007B685A6A8023DB01134004D07B680221A3
:101EEC00180001F065FF7B685A6A80235B0213407F
:101EFC0004D07B680421180001F05AFF7B685A6AF1
:101F0C00FF235B0013400CD07B681800FFF732FFF7
:101F1C007B681800FFF746FF074B1B685A1C064BE3
:101F2C001A607B68180002F020FBC046BD4602B068
:101F3C0080BDC046F00100201802002080B582B0A0
:101F4C0000AF7860044B1B685A1C034B1A60C046E8
:101F5C00BD4602B080BDC046EC01002080B582B009
:101F6C0000AF7860044B1B685A1C034B1A60C046C8
:101F7C00BD4602B080BDC046EC01002080B582B0E9
:101F8C0000AF7860044B1B685A1C034B1A60C046A8
:101F9C00BD4602B080BDC046EC01002080B582B0C9
:101FAC0000AF78600E4B0F4A7868002101F08EFF6D
:101FBC00031E11D10C4B1B680A4A1100180000F0CB
:101FCC006BFA084A094B11001800FEF7BBFC084BD2
:101FDC001B685A1C064B1A60C046BD4602B080BD39
:101FEC0010020020F40100202C00002064010020CD
:101FFC001C02002080B582B000AF78600E4B0F4AF7
:10200C007868012101F062FF031E11D10C4B1B6893
:10201C000A4A1100180000F03FFA084A094B110057
:10202C001800FEF78FFC084B1B685A1C064B1A60F5
:10203C00C046BD4602B080BD10020020F401002055
:10204C002C000020640100201C02002080B586B00A
:10205C0000AF786008001100BB1C021C1A807B1CAE
:10206C000A1C1A7000237B615BE035497A69130006
:10207C005B009B189B005B5ABA1C12889A424DD18C
:10208C002F497A6913005B009B189B00CB18023315
:10209C001B78072B33D12A497A6913005B009B18F4
:1020AC009B00CB1804331B68FB60FB685A680B233E
:1020BC00FB1812781A7001233B6119E03A6913007E
:1020CC005B009B189B001A00FB689B181A887B1CF2
:1020DC001B789BB29A4208D13A6913005B009B189B
:1020EC009B001A00FB689B1826E03B6901333B619F
:1020FC000B23FB181B783A699A42DFDB0EE07B1C42
:10210C001B78002B08D17A6913005B009B189B008D
:10211C001A000B4BD3180FE000230DE07B69013341
:10212C007B6107497A6913005B009B189B005B5A23
:10213C00044A934299D100231800BD4606B080BDD5
:10214C001C8E0008FFFF000090B58BB000AF14246C
:10215C003B19180014231A00002106F0C9F8634B30
:10216C005A69624B802109030A435A615F4B5A69D1
:10217C0080231B0313403B613B695C4B5A695B4BEF
:10218C008021C9030A435A61584B5A698023DB03E7
:10219C001340FB60FB68554B5A69544B80218902F4
:1021AC000A435A61514B5A6980239B021340BB600E
:1021BC00BB684E4B5A694D4B8021C9020A435A6188
:1021CC004A4B5A698023DB0213407B607B68474B88
:1021DC005A69464B802149030A435A61434B5A6959
:1021EC0080235B0313403B603B689023DB0500229C
:1021FC002021180002F060FD3B19802292011A6028
:10220C003B193B4A5A603B1900229A603B19394AE8
:10221C001900100002F012FB3B19374A1A603B19E7
:10222C0003225A603B1900229A603B19314A19006B
:10223C00100002F003FB3B19304A1A603B190322D1
:10224C005A603B1900229A603A199023DB05110061
:10225C00180002F0F3FA3B1920221A603B190122F4
:10226C005A603B1900229A603B190022DA603A1935
:10227C009023DB051100180002F0E0FA21007B1816
:10228C001F4A1A607B1803225A607B1800229A603E
:10229C000C007B181B4A1900100002F0CFFA210029
:1022AC007B1804221A607B1803225A607B180022C8
:1022BC009A600C007B18144A1900100002F0BEFA48
:1022CC0021007B18802212011A607B1803225A60AD
:1022DC007B1800229A607B180C4A1900100002F03F
:1022EC00ADFAC046BD460BB090BDC04600100240D2
:1022FC000000211000080048FF1F0000D39F0000C1
:10230C00FFFC000000040048000C004800140048CA
:10231C0080B500AF074B1B889BB2013306491800F0
:10232C00FEF762F80B009AB2024B1A80C046BD460B
:10233C0080BDC0462002002060EA000080B582B05B
:10234C0000AF0200FB1D1A70FB1DFA1D12780F2145
:10235C000A401A70FB1D1B78092B04D9FB1D1B7836
:10236C003733DBB203E0FB1D1B783033DBB21800D4
:10237C00BD4602B080BD80B582B000AF0200FB1D2F
:10238C001A70FB1D1B782F2B08D9FB1D1B78392BC2
:10239C0004D8FB1D1B78303BDBB21AE0FB1D1B780D
:1023AC00602B08D9FB1D1B78662B04D8FB1D1B78F2
:1023BC00573BDBB20DE0FB1D1B78402B08D9FB1DF6
:1023CC001B78462B04D8FB1D1B78373BDBB200E097
:1023DC00FF231800BD4602B080BD000080B584B05C
:1023EC0000AF78607B681800FEF7C6F90300532B2A
:1023FC0004D17B6801211800FDF7FCFF7B681800F5
:10240C00FEF7D6F903001800FFF7B5FF0300082B01
:10241C001FD89A00154BD3181B689F46144BFB60B2
:10242C0019E0144BFB6016E0134BFB6013E0134BED
:10243C00FB6010E0124BFB600DE0124BFB600AE0FE
:10244C00114BFB6007E0114BFB6004E0104BFB6091
:10245C0001E0002306E0FA680E4B11001800FFF7AC
:10246C005FFC03001800BD4604B080BD4C8E000814
:10247C0010270000204E000050C30000A086010071
:10248C0048E8010090D0030020A1070000350C00A3
:10249C0040420F00C401002080B584B000AF7860CA
:1024AC0039603B681B695B00624A12789B180533E4
:1024BC0001D0042300E00123BB607B681800FEF709
:1024CC00C6F80200BB68934201D90023ADE07B68DB
:1024DC0074211800FEF7B3F93B681B681B0ADBB2CA
:1024EC001800FFF72BFF03001A007B68110018007F
:1024FC00FEF7A5F93B681B681B09DBB21800FFF758
:10250C001DFF03001A007B6811001800FEF797F9F5
:10251C003B681B68DBB21800FFF710FF03001A00C2
:10252C007B6811001800FEF78AF93B681B69DBB267
:10253C001800FFF703FF03001A007B681100180056
:10254C00FEF77DF90023FB6022E03A68FB68D318A4
:10255C001C331B781B09DBB21800FFF7EFFE0300DE
:10256C001A007B6811001800FEF769F93A68FB68DD
:10257C00D3181C331B781800FFF7E0FE03001A0079
:10258C007B6811001800FEF75AF9FB680133FB60F9
:10259C003B681A69FB689A42D7D8264B1B78002BEC
:1025AC003DD0254B1B889BB21B0B9BB2DBB218009A
:1025BC00FFF7C4FE03001A007B6811001800FEF739
:1025CC003EF91D4B1B889BB21B0A9BB2DBB2180059
:1025DC00FFF7B4FE03001A007B6811001800FEF729
:1025EC002EF9154B1B889BB21B099BB2DBB2180052
:1025FC00FFF7A4FE03001A007B6811001800FEF719
:10260C001EF90D4B1B889BB2DBB21800FFF796FE30
:10261C0003001A007B6811001800FEF710F97B68A4
:10262C000D211800FEF70BF901231800BD4604B06C
:10263C0080BDC046540100202002002080B584B02B
:10264C0000AF786039607B681800FEF795F80300DE
:10265C00742B04D17B6801211800FDF7CBFE7B683D
:10266C0000211800FEF759F803001800FFF783FE4D
:10267C000300FF2B17D07B6801211800FEF74DF8E3
:10268C0003001800FFF777FE0300FF2B0BD07B68CD
:10269C0002211800FEF741F803001800FFF76BFE4B
:1026AC000300FF2B01D10023A2E07B681800FEF78A
:1026BC007FF803001800FFF75EFE03001B021A00F0
:1026CC003B681A607B681800FEF772F8030018006C
:1026DC00FFF751FE03001A013B681B689A183B6810
:1026EC001A607B681800FEF763F803001800FFF708
:1026FC0042FE03001A003B681B689A183B681A607C
:10270C007B681800FEF754F803001800FFF733FE3F
:10271C0003001A003B681A613B681B69082B01D93E
:10272C00002365E00023FB6044E07B680021180077
:10273C00FDF7F3FF03001800FFF71DFE0300FF2B4E
:10274C000BD07B6801211800FDF7E7FF0300180090
:10275C00FFF711FE0300FF2B01D1002348E07B683B
:10276C001800FEF725F803001800FFF704FE03001D
:10277C001B01D9B23A68FB68D31818330A1C1A70BB
:10278C007B681800FEF714F803001800FFF7F3FD40
:10279C00030019003A68FB68D31818331B78CB1860
:1027AC00D9B23A68FB68D31818330A1C1A70FB6844
:1027BC000133FB603B681A69FB689A42B5D87B68A9
:1027CC001800FDF7D9FF03000D2B01D000230FE0FB
:1027DC003B680022DA603B6800229A603B6800226A
:1027EC005A603A68044B11001800FFF735FB0300E0
:1027FC001800BD4604B080BDC401002080B58CB06B
:10280C0000AF786039600023FB62D4E07B680D2157
:10281C001800FDF734FF031E00D1CCE07B681800D4
:10282C00FDF7AAFF0300433B332B00D9A0E09A002D
:10283C00724BD3181B689F460C23FB18704A03CAB3
:10284C0003C30723FB629AE06E490C23F818032399
:10285C00012205F055FD0300FB6290E06A4B180065
:10286C00FFF788FA031E0DD09023DB0500222021F0
:10287C00180002F021FA0C23FB180D221A70012308
:10288C00FB627CE00C23FB1807221A700123FB620D
:10289C0075E05D4B1800FFF785FA031E0DD09023F1
:1028AC00DB0501222021180002F006FA0C23FB188C
:1028BC000D221A700123FB6261E00C23FB18072226
:1028CC001A700123FB625AE0504A7B681100180011
:1028DC00FFF7B4FE031E06D00C23FB180D221A7052
:1028EC000123FB624BE00C23FB1807221A70012317
:1028FC00FB6244E07B6801211800FDF70EFF03002A
:10290C001800FFF738FD031E02D0012B0AD013E08C
:10291C003F4B00221A700C23FB180D221A70012356
:10292C00FB6210E03A4B01221A700C23FB180D22AB
:10293C001A700123FB6206E00C23FB1807221A70A5
:10294C000123FB621BE01AE07B681800FFF746FDD1
:10295C00031E06D00C23FB180D221A700123FB62F8
:10296C000DE00C23FB1807221A700123FB6206E012
:10297C000C23FB180D221A700123FB62C046FB6A64
:10298C00002B13D0FA6A0C23F9183B681800FDF7DA
:10299C0072FF0023FB627B680D211800FDF79AFE85
:1029AC007B6801211800FDF725FD04E07B680121FF
:1029BC001800FDF71FFD7B681800FDF708FE031ECD
:1029CC0000D023E73B681800FDF701FE031E10D072
:1029DC00104B180000F034FB03001A000123534085
:1029EC00DBB2002B05D03A680A4B1100180000F03E
:1029FC0004FBC046BD460CB080BDC046708E0008BE
:102A0C00348B00083C8B0008C4010020A40100207A
:102A1C00540100205C27002080B582B000AF00F08C
:102A2C0089FB00F061F8FA23DB00180000F0E6FBEC
:102A3C00FFF78AFB00F030FAFFF7E4F800F0DCF85F
:102A4C00224B1A68224B1100180000F0C1FA214ADF
:102A5C00214B11001800FDF72FFF1F4B64221A7435
:102A6C001D4B02225A741C4BFA2292009A830023AB
:102A7C007B600BE07B68DBB2DB18D9B2174A7B6852
:102A8C00D3180A1C1A707B6801337B607B680B2B94
:102A9C00F0D900233B6009E03B68D9B2104A3B688F
:102AAC00D3180A1C1A703B6801333B603B68FF2B40
:102ABC00F2D9064B1A680B4B1B6819001000FFF774
:102ACC009DFE054B1800FEF798F8F2E72800002051
:102ADC005C270020988D000864010020240300204E
:102AEC00240200202C00002090B599B000AF2C24BB
:102AFC003B19180034231A00002105F0F9FB1C23A4
:102B0C00FB18180010231A00002105F0F1FB3B0004
:102B1C0018001C231A00002105F0EAFB02F03AF918
:102B2C00284B1A6A274B18210A431A6221007B187A
:102B3C0005221A607B1801225A607B1801229A60C8
:102B4C007B1802225A627B18802252029A627B18EE
:102B5C00A0229203DA627B1801221A637B181800F8
:102B6C0002F026F9031E01D000F030F81C217B186E
:102B7C0007221A607B1802225A607B1800229A6086
:102B8C007B180022DA607B180121180002F026FE67
:102B9C00031E01D000F01AF83B000B4A1A603B00F0
:102BAC000022DA603B00802252005A603B00180081
:102BBC0003F01CF8031E01D000F008F8C046BD4617
:102BCC0019B090BD001002400200010080B500AFAA
:102BDC009023DB052021180002F0AEF8962000F0BF
:102BEC000DFBF5E780B582B000AF78603960C04668
:102BFC00BD4602B080BD000080B590B000AF2C2364
:102C0C00FB18180014231A00002105F071FB28236F
:102C1C00FB1800221A603B00180028231A00002120
:102C2C0005F066FB444B454A1A60434B00225A6040
:102C3C00414B7F229A60404BFF22DA603E4B0022D0
:102C4C001A613D4B00225A613B4B00229A613A4B70
:102C5C00180003F05BF9031E01D0FFF7B7FF2C211E
:102C6C007B1813221A707B1837225A707B1800229B
:102C7C009A707B180022DA607B1800221A6179188E
:102C8C002D4B0122180003F037FA031E01D0FFF779
:102C9C009DFF28217B1802221A707B1809225A707A
:102CAC007B1801229A707B182022DA707918224B3B
:102CBC000122180003F0AEFB031E01D0FFF786FFC4
:102CCC003B0000221A703B0000225A703B0000228D
:102CDC009A703B0000225A603B000022DA603B00F5
:102CEC0000221A613B0000225A613B0000229A61CB
:102CFC003B000022DA613B002022012199543B0069
:102D0C00802252005A6239000B4B0122180003F04A
:102D1C00C5FC031E01D0FFF759FF074B0022002111
:102D2C00180004F023F8031E01D0FFF74FFFC04634
:102D3C00BD4610B080BDC0463003002000280040C6
:102D4C0080B582B000AF78607B681B68064A9342FE
:102D5C0006D1064B1A6A054B802109020A431A62F6
:102D6C00C046BD4602B080BD0028004000100240A5
:102D7C0080B582B000AF0F4B9A690E4B01210A430C
:102D8C009A610C4B9B69012213407B607B68094B59
:102D9C00DA69084B802149050A43DA61054BDA6987
:102DAC0080235B0513403B603B68C046BD4602B0C8
:102DBC0080BDC0460010024080B500AFC046BD4685
:102DCC0080BD80B500AFFEE780B500AFC046BD4604
:102DDC0080BD80B500AFC046BD4680BD80B500AF9C
:102DEC0000F0F0F9FFF794FAC046BD4680BD000034
:102DFC0080B500AF034B180004F058FAC046BD462E
:102E0C0080BDC0465C27002080B500AF034B180086
:102E1C0001F0C2F9C046BD4680BDC046C4010020C9
:102E2C0080B586B000AF7860144A154BD31A7B611D
:102E3C007B693B61134B1B68002B02D1114B124A6F
:102E4C001A60104B1A687B68D3183A699A4207D2F9
:102E5C0005F024FA03000C221A6001235B4209E0FE
:102E6C00084B1B68FB60074B1A687B68D218054B34
:102E7C001A60FB681800BD4606B080BD00800020BB
:102E8C000008000058010020F027002080B500AF9A
:102E9C00C046BD4680BD000080B500AF144B154A3E
:102EAC001A60134BE12252025A60114B00229A60B5
:102EBC000F4B0022DA600E4B00221A610C4B0C22D5
:102ECC005A610B4B00229A61094B0022DA61084BC4
:102EDC0000221A62064B00225A62054B180004F0BD
:102EEC0009F8031E01D0FFF771FEC046BD4680BD38
:102EFC005C2700200044004080B58AB000AF7860A9
:102F0C001423FB18180014231A00002105F0F0F903
:102F1C007B681B68284A93424AD1284BDA69274BB5
:102F2C00802189020A43DA61244BDA6980239B02EF
:102F3C0013403B613B69214B5A69204B802189022C
:102F4C000A435A611D4B5A6980239B021340FB6054
:102F5C00FB6814217B180C221A607B1802225A6021
:102F6C007B1800229A607B180022DA607B18012201
:102F7C001A617A189023DB051100180001F05EFC31
:102F8C00002200211C2001F0C9FB1C2001F0E6FBF3
:102F9C000B4B18688023DA000A4B1900FDF7DDFA99
:102FAC00094B186880239A01084B1900FDF7D5FAD4
:102FBC00C046BD460AB080BD00440040001002402F
:102FCC00280000205C2300202C0000205C03002043
:102FDC0080B584B000AF786039603B681800FDF7AD
:102FEC007EFA0300FB60F9687B680122180004F08C
:102FFC00A5F8C046BD4604B080BD80B584B000AF16
:10300C00786039603B681800FDF756FA0300FB60E6
:10301C003B681800FDF776FA0300BB60BB689AB2F8
:10302C00F9687B68180004F01BF8BB689AB23B681F
:10303C0011001800FDF7DEF9C046BD4604B080BD96
:10304C0080B582B000AF78607B685B6F232B03D0B8
:10305C007B685B6F212B01D1012300E000231A1C3C
:10306C0001231340DBB21800BD4602B080BD000046
:10307C0080B582B000AF78600C4B1B681800FDF770
:10308C002EFA03001B780A2B05D0084B1B68012174
:10309C001800FDF7D9F9054B1A687B681100180068
:1030AC00FFF796FFC046BD4602B080BD2800002049
:1030BC0080B582B000AF7860084B1B681800FDF734
:1030CC0086FA031E06D0054B1A687B68110018009F
:1030DC00FFF793FFC046BD4602B080BD2C00002018
:1030EC000D4885460D480E490E4A002302E0D4587F
:1030FC00C4500433C4188C42F9D30B4A0B4C002334
:10310C0001E013600432A242FBD3FFF7BFFE05F0CF
:10311C00CBF8FFF781FCFEE70080002000000020C8
:10312C009C000020988F00089C000020F0270020B5
:10313C00FEE7000080B500AF074B1A68064B102164
:10314C000A431A60002000F009F8FFF711FE002373
:10315C001800BD4680BDC0460020024090B583B02B
:10316C0000AF7860144B1C68144B1B781900FA23C1
:10317C009800FCF7C9FF030019002000FCF7C4FFFE
:10318C000300180001F006FB031E01D001230FE021
:10319C007B68032B0BD8796801235B420022180053
:1031AC0001F0BCFA064B7A681A60002300E0012398
:1031BC001800BD4603B090BD240000203400002050
:1031CC003000002080B500AF054B1B781A00054B72
:1031DC001B68D218034B1A60C046BD4680BDC04662
:1031EC0034000020E827002080B500AF024B1B689C
:1031FC001800BD4680BDC046E827002080B584B0CD
:10320C0000AF7860FFF7F0FF0300BB607B68FB60EA
:10321C00FB68013305D0094B1B781A00FB689B181F
:10322C00FB60C046FFF7E0FF0200BB68D31AFA68E8
:10323C009A42F7D8C046BD4604B080BD3400002089
:10324C0080B500AF024B1B681800BD4680BDC04660
:10325C00ACF7FF1F80B500AF024B1B681800BD46D2
:10326C0080BDC046B0F7FF1F80B500AF024B1B6896
:10327C001800BD4680BDC046B4F7FF1F80B584B0B2
:10328C0000AF78607B68002B01D1012345E27B689D
:10329C001B68C64A934207D01E23FF331A00C44B47
:1032AC0011001800FFF79EFC7B681B7E002B0AD0D8
:1032BC007B681B7E012B06D08F235A00BC4B110060
:1032CC001800FFF78FFC7B685B7E002B0BD07B68B4
:1032DC005B7E012B07D02023FF331A00B44B110067
:1032EC001800FFF77FFC7B689B7E002B0AD07B6865
:1032FC009B7E012B06D090235A00AD4B1100180079
:10330C00FFF770FC7B68DB7E002B0BD07B68DB7ED1
:10331C00012B07D02223FF331A00A54B11001800F4
:10332C00FFF760FC7B681B7F002B0AD07B681B7F40
:10333C00012B06D091235A009D4B11001800FFF76A
:10334C0051FC7B685B7F002B0BD07B685B7F012B78
:10335C0007D02423FF331A00954B11001800FFF7F8
:10336C0041FC7B689B68002B18D07B689A68802393
:10337C00DB059A4212D07B689A6880231B069A421E
:10338C000CD07B689A68C0231B069A4206D0922305
:10339C005A00874B11001800FFF724FC7B68DB6890
:1033AC00002B19D07B68DA6880235B049A4213D017
:1033BC007B68DA6880239B049A420DD07B68DA68BC
:1033CC00C0239B049A4207D02623FF331A00784B64
:1033DC0011001800FFF706FC7B681B69002B60D0FE
:1033EC007B681A6980235B029A425AD07B681A69FF
:1033FC0080239B029A4254D07B681A69C0239B029B
:10340C009A424ED07B681A698023DB029A4248D0DC
:10341C007B681A69A023DB029A4242D07B681A6946
:10342C00C023DB029A423CD07B681A69E023DB02A2
:10343C009A4236D07B681A6980231B039A4230D09B
:10344C007B681A6990231B039A422AD07B681A69FD
:10345C00A0231B039A4224D07B681A69B0231B0358
:10346C009A421ED07B681A69C0231B039A4218D05B
:10347C007B681A69D0231B039A4212D07B681A69A5
:10348C00E0231B039A420CD07B681A69F0231B03C0
:10349C009A4206D093235A00454B11001800FFF7AF
:1034AC00A1FB7B685B69002B31D07B685A69802358
:1034BC005B039A422BD07B685A6980239B039A4208
:1034CC0025D07B685A69C0239B039A421FD07B6826
:1034DC005A698023DB039A4219D07B685A69A0236E
:1034EC00DB039A4213D07B685A69C023DB039A42F0
:1034FC000DD07B685A69E023DB039A4207D028235E
:10350C00FF331A002A4B11001800FFF76BFB7B6886
:10351C005B68002B05D07B685A688023DB009A42DD
:10352C0006D994235A00224B11001800FFF75AFBBE
:10353C007B6820229B5CDBB2002B03D17B681800DC
:10354C00FEF798FB7B681B681A687B681B68022176
:10355C008A431A60FFF748FE0300FB6013E0FFF795
:10356C0043FE0200FB68D31A0A2B0CD97B685B6AFA
:10357C00802292021A437B685A627B6820220521C2
:10358C0099540123C9E07B681B685B6802221340D5
:10359C00E5D17B681B681A687B681B6801210A43AC
:1035AC001A60FFF721FE0300FB6017E00064004087
:1035BC00488B0008FFF718FE0200FB68D31A0A2B91
:1035CC000CD97B685B6A802292021A437B685A6230
:1035DC007B6820220521995401239EE07B681B689F
:1035EC005B6801221340E5D07B681B7E012B08D160
:1035FC007B681B681A687B681B6880210A431A6009
:10360C0007E07B681B681A687B681B6880218A430B
:10361C001A607B685B7E012B08D17B681B681A687B
:10362C007B681B6840210A431A6007E07B681B68B3
:10363C001A687B681B6840218A431A607B689B7EF2
:10364C00012B08D17B681B681A687B681B682021DA
:10365C000A431A6007E07B681B681A687B681B6862
:10366C0020218A431A607B68DB7E012B08D17B68A2
:10367C001B681A687B681B6810218A431A6007E074
:10368C007B681B681A687B681B6810210A431A60E8
:10369C007B681B7F012B08D17B681B681A687B68D1
:1036AC001B6808210A431A6007E07B681B681A68CC
:1036BC007B681B6808218A431A607B685B7F012B3F
:1036CC0008D17B681B681A687B681B6804210A4355
:1036DC001A6007E07B681B681A687B681B6804210A
:1036EC008A431A607B689A687B68DB681A437B683C
:1036FC001B691A437B685B691A4311007B685B6822
:10370C005A1E7B681B680A43DA617B6800225A6286
:10371C007B6820220121995400231800BD4604B077
:10372C0080BDC04680B586B000AF786039607B68DC
:10373C001B687B6113203B187A682021525C1A703D
:10374C003B181B78012B05D01323FB181B78022B7D
:10375C0000D03EE13B681B68A44A934206D9D423AF
:10376C009A00A34B11001800FFF73CFA3B685B680A
:10377C009E4A934205D99F4A9D4B11001800FFF7B2
:10378C0031FA3B689B68994A934205D99A4A984BFF
:10379C0011001800FFF726FA3B68DB68934A934246
:1037AC0005D9964A924B11001800FFF71BFA3B689B
:1037BC009B69002B0AD03B689B69012B06D0D52353
:1037CC009A008B4B11001800FFF70CFA3B68DB6971
:1037DC00002B09D03B68DB69012B05D0884A844B50
:1037EC0011001800FFF7FEF93B681B69002B09D08C
:1037FC003B681B69012B05D0824A7D4B11001800D8
:10380C00FFF7F0F93B681B6A002B09D03B681B6A79
:10381C00012B05D07C4A764B11001800FFF7E2F91A
:10382C003B685B690D2B06D9D7239A00704B1100AE
:10383C001800FFF7D7F97A6980239B00D35801222F
:10384C001A4311007A6980239B00D1503B685B6955
:10385C001F22134001229A401300FB607A698723D0
:10386C009B00D358FA68D2431A4011007A69872317
:10387C009B00D1503B68DB69002B29D17A698323EB
:10388C009B00D358FA68D2431A4011007A698323FB
:10389C009B00D1503B68DB6818043B685B681B04D9
:1038AC00190C3B685A6901437B694832D200D150EC
:1038BC003B689B6819043B681B681B041A0C3B682B
:1038CC005B690A4379694833DB00CB1804331A600F
:1038DC003B68DB69012B28D17A6983239B00D25882
:1038EC00FB681A4311007A6983239B00D1503B6813
:1038FC001B6818043B685B681B04190C3B685A690D
:10390C0001437B694832D200D1503B689B68190453
:10391C003B68DB681B041A0C3B685B690A437969DA
:10392C004833DB00CB1804331A603B689B69002BCF
:10393C000CD17A6981239B00D358FA68D2431A4080
:10394C0011007A6981239B00D1500AE07A698123A6
:10395C009B00D258FB681A4311007A6981239B00A3
:10396C00D1503B681B69002B0CD17A6985239B00D5
:10397C00D358FA68D2431A4011007A6985239B0008
:10398C00D1500AE07A6985239B00D258FB681A4310
:10399C0011007A6985239B00D1503B681B6A012B6F
:1039AC000AD17A6987239B00D258FB681A4311000D
:1039BC007A6987239B00D1507A6980239B00D35866
:1039CC000122934319007A6980239B00D150002374
:1039DC0007E07B685B6A8022D2021A437B685A62DA
:1039EC0001231800BD4606B080BDC046FFFF000095
:1039FC00488B0008510300005203000053030000E1
:103A0C0055030000560300005703000080B584B036
:103A1C0000AF78607B6820229B5CDBB2012B2FD13E
:103A2C007B682022022199547B681B681A687B688A
:103A3C001B6801218A431A60FFF7D6FB0300FB6069
:103A4C0013E0FFF7D1FB0200FB68D31A0A2B0CD949
:103A5C007B685B6A802292021A437B685A627B689D
:103A6C00202205219954012312E07B681B685B68B6
:103A7C0001221340E5D17B6800225A62002307E043
:103A8C007B685B6A802212031A437B685A620123AB
:103A9C001800BD4604B080BD80B584B000AF78601E
:103AAC007B6820229B5CDBB2022B34D17B681B68C9
:103ABC001A687B681B6801210A431A60FFF794FBA4
:103ACC000300FB6013E0FFF78FFB0200FB68D31AC7
:103ADC000A2B0CD97B685B6A802292021A437B68A2
:103AEC005A627B6820220521995401231BE07B68D4
:103AFC001B685B6801221340E5D07B681B681A6861
:103B0C007B681B6802218A431A607B682022012192
:103B1C009954002307E07B685B6A802252031A43A6
:103B2C007B685A6201231800BD4604B080BD0000BA
:103B3C0080B588B000AFF860B9607A603B601F2335
:103B4C00FB18FA682021525C1A70FB681B689B6892
:103B5C00BB61BB689B68002B09D0BB689B68042BBE
:103B6C0005D08B4A8B4B11001800FFF73BF8BB6854
:103B7C00DB68002B09D0BB68DB68022B05D0864ABA
:103B8C00844B11001800FFF72DF8BB681B69082B3C
:103B9C0005D9824A7F4B11001800FFF723F8BB6848
:103BAC009B68002B0BD1BB681B687D4A934211D9D3
:103BBC007C4A784B11001800FFF714F80AE0BB6838
:103BCC005B68794A934205D9784A724B1100180008
:103BDC00FFF708F8BB681B7D002B0AD0BB681B7D68
:103BEC00012B06D09923DA006A4B11001800FEF75E
:103BFC00F9FF1F23FB181B78012B05D01F23FB1883
:103C0C001B78022B00D0B7E0BA698023DB04134089
:103C1C000AD1BA6980231B05134005D1BA698023E8
:103C2C005B05134000D19EE0BB691B0E03221340C1
:103C3C007B617B69022B08D9FB685B6A80221204CA
:103C4C001A43FB685A6201239EE001227B699A4069
:103C5C003B681A60BB689B68002B0CD1BB681B6867
:103C6C005905BB68DA68FB681B6811437A6918321E
:103C7C001201D1500FE0BB685B68DA00BB689B682F
:103C8C001A431100BB68DA68FB681B6811437A6938
:103C9C0018321201D150FB681968BB681A697B692C
:103CAC0018331B01CB1804331A60BB681B7D012B26
:103CBC0012D1FB681A687B6918331B01D3180433C3
:103CCC001A68FB68196880235B001A437B691833F8
:103CDC001B01CB1804331A607B6807331B781A0658
:103CEC007B6806331B781B041A437B6805331B78EF
:103CFC001B021A437B6804331B781900FB68186895
:103D0C000A437969C6235B0009014118CB181A6074
:103D1C007B6803331B781A067B6802331B781B0401
:103D2C001A437B6801331B781B021A437B681B7890
:103D3C001900FB6818680A437969C4235B00090100
:103D4C004118CB181A60FB681B687A69183212018B
:103D5C00D258FB681B68012111437A691832120191
:103D6C00D150002310E0FB685B6A802292031A4357
:103D7C00FB685A62012307E0FB685B6A8022D2026F
:103D8C001A43FB685A6201231800BD4608B080BD77
:103D9C00BD040000488B0008BE040000BF040000F6
:103DAC00FF070000C2040000FFFFFF1FC604000055
:103DBC0080B584B000AF786039600F23FB187A6847
:103DCC002021525C1A703B68072B05D9214A224BE3
:103DDC0011001800FEF706FF0F23FB181B78012BB0
:103DEC0004D00F23FB181B78022B27D13B68012230
:103DFC00134007D07B681B689A687B681B6880211E
:103E0C000A439A603B680222134008D07B681B6807
:103E1C009A687B681B68802109020A439A603B6898
:103E2C000422134008D07B681B689A687B681B6867
:103E3C00802109040A439A60002307E07B685B6ACF
:103E4C008022D2021A437B685A6201231800BD46B5
:103E5C0004B080BD27050000488B000880B584B0F5
:103E6C0000AF78600023FB600B203B187A682021A0
:103E7C00525C1A703B181B78012B04D00B23FB18D7
:103E8C001B78022B1DD17B681B689A688023DB048E
:103E9C00134002D0FB680133FB607B681B689A6897
:103EAC0080231B05134002D0FB680133FB607B6849
:103EBC001B689A6880235B05134002D0FB680133B2
:103ECC00FB60FB681800BD4604B080BD80B586B0B1
:103EDC0000AFF860B9607A603B601723FB18FA6892
:103EEC002021525C1A70BB68002B09D0BB68012BD7
:103EFC0006D0BA23DA008A4B11001800FEF772FEC6
:103F0C001723FB181B78012B05D01723FB181B78E4
:103F1C00022B00D0F8E0BB68002B0ED1FB681B68AD
:103F2C00DB680322134017D1FB685B6A8022920383
:103F3C001A43FB685A620123EEE0FB681B681B699D
:103F4C000322134008D1FB685B6A802292031A4358
:103F5C00FB685A620123DFE0FB681B68BA681B32FE
:103F6C001201D35804221A407B689A607B689B68C4
:103F7C00002B0BD1FB681B68BA681B321201D3589B
:103F8C005B0D5B055A0D7B681A600AE0FB681B68C9
:103F9C00BA681B321201D358DB08DB00DA087B68E5
:103FAC005A60FB681B68BA681B321201D358022294
:103FBC001A407B68DA60FB681A68BB681B331B010C
:103FCC00D31804331B680F221A407B681A61FB68F4
:103FDC001A68BB681B331B01D31804331B681B0AFC
:103FEC00FF221A407B689A61FB681A68BB681B3316
:103FFC001B01D31804331B681B0C1B041A0C7B68A5
:10400C005A61FB681968BA68DC235B0012018A18D4
:10401C00D3181B68DAB23B681A70FB681968BA6867
:10402C00DC235B0012018A18D3181B681A0A3B6840
:10403C000133D2B21A70FB681968BA68DC235B00D2
:10404C0012018A18D3181B681A0C3B680233D2B2BF
:10405C001A70FB681968BA68DC235B0012018A18B5
:10406C00D3181B681A0E3B680333D2B21A70FB6864
:10407C001968BA68DE235B0012018A18D3181A6813
:10408C003B680433D2B21A70FB681968BA68DE2335
:10409C005B0012018A18D3181B681A0A3B68053397
:1040AC00D2B21A70FB681968BA68DE235B00120181
:1040BC008A18D3181B681A0C3B680633D2B21A70D4
:1040CC00FB681968BA68DE235B0012018A18D318E2
:1040DC001B681A0E3B680733D2B21A70BB68002BF0
:1040EC0008D1FB681B68DA68FB681B6820210A434F
:1040FC00DA6007E0FB681B681A69FB681B68202103
:10410C000A431A61002307E0FB685B6A8022D20233
:10411C001A43FB685A6201231800BD4606B080BDE5
:10412C00488B000880B584B000AF786039600F23ED
:10413C00FB187A682021525C1A703B68144A93422F
:10414C0006D9CC23DA00134B11001800FEF74AFDF8
:10415C000F23FB181B78012B04D00F23FB181B78A3
:10416C00022B09D17B681B6859697B681B683A680C
:10417C000A435A61002307E07B685B6A8022D20203
:10418C001A437B685A6201231800BD4604B080BDF7
:10419C007F8F0300488B000880B58AB000AF786031
:1041AC0000237B627B681B685B693B627B681B68D6
:1041BC005B68FB617B681B689B68BB617B681B68E9
:1041CC00DB687B617B681B681B693B617B681B68D8
:1041DC009B69FB603B6A0122134000D184E0BB6900
:1041EC000122134024D07B681B6801229A60BB69B2
:1041FC000222134004D07B681800FDF79FFE17E0E5
:10420C00BB690422134005D07B6A80221201134340
:10421C007B620DE0BB690822134005D07B6A8022CB
:10422C00520113437B6203E07B68180000F065F9D0
:10423C00BA6980235B00134028D07B681B688022FE
:10424C0052009A60BA6980239B00134004D07B68AB
:10425C001800FDF783FE19E0BA698023DB001340D8
:10426C0005D07B6A8022920113437B620EE0BA690F
:10427C0080231B01134005D07B6A8022D20113439B
:10428C007B6203E07B68180000F03FF9BA69802379
:10429C005B02134028D07B681B68802252029A6014
:1042AC00BA6980239B02134004D07B681800FDF789
:1042BC0065FE19E0BA698023DB02134005D07B6AE6
:1042CC008022120213437B620EE0BA6980231B0327
:1042DC00134005D07B6A8022520213437B6203E0B9
:1042EC007B68180000F019F93B6A082213400CD0C7
:1042FC007B691022134008D07B6A80229200134302
:10430C007B627B681B681022DA603B6A04221340D4
:10431C000BD07B690822134007D07B681B680822EE
:10432C00DA607B68180000F000F93B6A0222134047
:10433C0009D07B681B68DB680322134003D07B68C1
:10434C001800FDF72BFE3B6A402213400CD03B6952
:10435C001022134008D07B6A8022D20013437B6268
:10436C007B681B6810221A613B6A202213400BD019
:10437C003B690822134007D07B681B6808221A612E
:10438C007B68180000F0D9F83B6A1022134009D062
:10439C007B681B681B690322134003D07B681800E1
:1043AC00FDF728FE3A6A80239B0213400BD0FB6971
:1043BC001022134007D07B681B6810225A607B6860
:1043CC00180000F0C2F83A6A80235B0213400BD04D
:1043DC00FB690822134007D07B681B6808225A60CF
:1043EC007B68180000F0B9F83A6A80231B0213406E
:1043FC0000D171E0FB690422134000D168E03A6AF5
:10440C0080235B00134007D0FB680122134003D0CC
:10441C007B6A012213437B623A6A80239B00134020
:10442C0007D0FB680222134003D07B6A022213439D
:10443C007B623A6A8023DB00134007D0FB680422BE
:10444C00134003D07B6A042213437B623A6A8023B5
:10445C001B0113403CD0FB687022134038D0FB6822
:10446C0070221340302B16D004D8102B09D0202BDF
:10447C000CD025E0502B18D0602B1BD0402B0FD02C
:10448C001EE07B6A082213437B6219E07B6A1022D0
:10449C0013437B6214E07B6A202213437B620FE0A0
:1044AC007B6A402213437B620AE07B6A80221343BF
:1044BC007B6205E07B6A8022520013437B62C0461C
:1044CC007B681B689A697B681B6870218A439A61B8
:1044DC007B681B6804225A607B6A002B09D07B68BE
:1044EC005A6A7B6A1A437B685A627B681800FDF72C
:1044FC00DBFCC046BD460AB080BD80B582B000AFC3
:10450C007860C046BD4602B080BD80B582B000AFB9
:10451C007860C046BD4602B080BD80B582B000AFA9
:10452C007860C046BD4602B080BD80B582B000AF99
:10453C007860C046BD4602B080BD80B582B000AF89
:10454C007860C046BD4602B080BD80B582B000AF79
:10455C007860C046BD4602B080BD80B582B000AF69
:10456C007860C046BD4602B080BD80B584B000AF57
:10457C0078600F23FB1800221A700E203B187A6803
:10458C002021525C1A703B181B78012B04D00E238F
:10459C00FB181B78022B03D17B6800225A620AE0BD
:1045AC007B685B6A8022D2021A437B685A620F23B3
:1045BC00FB1801221A700F23FB181B781800BD463C
:1045CC0004B080BD80B582B000AF0200FB1D1A7034
:1045DC00FB1D1B787F2B09D8FB1D1B781A001F2392
:1045EC001A40044B012191400A001A60C046BD4696
:1045FC0002B080BD00E100E090B583B000AF0200D6
:10460C003960FB1D1A70FB1D1B787F2B28D82F4A95
:10461C00FB1D1B785BB29B08C0339B009B58FA1D9B
:10462C001278110003220A40D200FF2191400A00A7
:10463C00D2431A4011003B689B01FF221A40FB1D1C
:10464C001B78180003230340DB009A401F48FB1D16
:10465C001B785BB29B080A43C0339B001A5031E0B5
:10466C001B4AFB1D1B7819000F230B40083B9B08B2
:10467C0006339B00D31804331B68FA1D1278110003
:10468C0003220A40D200FF2191400A00D2431A4073
:10469C0011003B689B01FF221A40FB1D1B78180080
:1046AC0003230340DB009A400948FB1D1B781C00C8
:1046BC000F232340083B9B080A4306339B00C31877
:1046CC0004331A60C046BD4603B090BD00E100E063
:1046DC0000ED00E080B582B000AF78607B68013BF4
:1046EC000C4A934201D9012310E00B4B7A68013A32
:1046FC005A6001235B4203211800FFF77DFF064B34
:10470C0000229A60044B07221A6000231800BD4651
:10471C0002B080BDFFFFFF0010E000E080B584B068
:10472C0000AFB9607A600F23FB18021C1A70BB68CB
:10473C00032B04D9084B8B211800FEF753FABA68E7
:10474C000F23FB181B785BB211001800FFF754FF06
:10475C00C046BD4604B080BD808B000880B582B0D9
:10476C0000AF0200FB1D1A70FB1D1B787F2B04D9B8
:10477C00074B9B211800FEF735FAFB1D1B785BB22B
:10478C001800FFF71FFFC046BD4602B080BDC046F3
:10479C00808B000880B582B000AF78607B68180011
:1047AC00FFF798FF03001800BD4602B080BD80B52E
:1047BC0084B000AF78600F23FB1800221A707B685E
:1047CC0021229B5CDBB2022B07D07B6804229A630C
:1047DC000F23FB1801221A7028E07B681B681A68EB
:1047EC007B681B680E218A431A607B681B681A68F9
:1047FC007B681B6801218A431A607B681A6C7B6892
:10480C00DB6B012191400A005A607B682122012157
:10481C0099547B682022002199547B685B6B002B98
:10482C0004D07B685B6B7A68100098470F23FB18E9
:10483C001B781800BD4604B080BD000080B586B062
:10484C0000AF7860396000237B617A689023DB05C8
:10485C009A4218D07B68CF4A934214D07B68CE4AD8
:10486C00934210D07B68CD4A93420CD07B68CC4AE3
:10487C00934208D07B68CB4A934204D0CA4BB821F0
:10488C001800FEF7AFF93B681B681B041B0C04D027
:10489C003B681B681B0C1B0404D0C34BB9211800CC
:1048AC00FEF7A0F93B685B68002B36D03B685B6871
:1048BC00012B32D03B685B68112B2ED03B685B68B8
:1048CC00022B2AD03B685B68122B26D03B685B68B6
:1048DC00B64A934221D03B685B68B54A93421CD0E0
:1048EC003B685B68B34A934217D03B685B68B24A3B
:1048FC00934212D03B685B68B04A93420DD03B6840
:10490C005B68AF4A934208D03B685B68032B04D0CA
:10491C00A54BBA211800FEF765F93B689B68002B84
:10492C0000D1BAE13B689B68012B00D1B5E13B6833
:10493C009B68022B00D1B0E19B4BBB211800FEF70A
:10494C0051F9AAE13B681B6801217A6991400A0080
:10495C001340FB60FB68002B00D19BE13B685B685C
:10496C00012B0BD03B685B68022B07D03B685B6864
:10497C00112B03D03B685B68122B41D13B68DB6881
:10498C00002B0CD03B68DB68012B08D03B68DB6844
:10499C00032B04D0844BCB211800FEF723F97B6842
:1049AC009B683B617B695B0003229A401300DA43EE
:1049BC003B6913403B613B68DA687B695B009A405A
:1049CC0013003A6913433B617B683A699A607B68D0
:1049DC005B683B6101227B699A401300DA433B69B7
:1049EC0013403B613B685B681B0901221A407B69E1
:1049FC009A4013003A6913433B617B683A695A60E9
:104A0C007B68DB683B617B695B0003229A40130087
:104A1C00DA433B6913403B613B689A687B695B00F6
:104A2C009A4013003A6913433B617B683A69DA6038
:104A3C003B685B68022B03D03B685B68122B4AD146
:104A4C007A689023DB059A4218D07B68514A9342CE
:104A5C0014D07B68504A934210D07B684F4A9342E3
:104A6C000CD07B684E4A934208D07B684D4A9342E7
:104A7C0004D04D4BE3211800FEF7B4F83B681B69DA
:104A8C00072B04D9484BE4211800FEF7ABF87B69DF
:104A9C00DA087B6808329200D3583B617B690722A5
:104AAC0013409B000F229A401300DA433B691340DA
:104ABC003B613B681A697B6907210B409B009A405C
:104ACC0013003A6913433B617B69DA087B6808324F
:104ADC0092003969D1507B681B683B617B695B0034
:104AEC0003229A401300DA433B6913403B613B6855
:104AFC005B6803221A407B695B009A4013003A6999
:104B0C0013433B617B683A691A603B685A6880239F
:104B1C005B05134000D1BDE02A4B9A69294B01215A
:104B2C000A439A61274B9B6901221340BB60BB6807
:104B3C00254A7B699B0802339B009B583B617B6930
:104B4C00032213409B000F229A401300DA433B6967
:104B5C0013403B617A689023DB059A4236D07B6820
:104B6C000C4A934213D07B680B4A93420DD07B685E
:104B7C000A4A934207D07B68094A934201D1042325
:104B8C0025E0052323E0032321E002231FE001237A
:104B9C001DE0C0460004004800080048000C004816
:104BAC000010004800140048BC8B000800001110D5
:104BBC000000211000003110000012100000221023
:104BCC0000003210001002400000014000237A69FE
:104BDC0003210A40920093403A6913433B613449E4
:104BEC007B699B0802339B003A695A50314B1B6816
:104BFC003B61FB68DA433B6913403B613B685A6895
:104C0C0080235B02134003D03A69FB6813433B617A
:104C1C00284B3A691A60274B5B683B61FB68DA43A7
:104C2C003B6913403B613B685A6880239B021340ED
:104C3C0003D03A69FB6813433B611E4B3A695A60D7
:104C4C001C4B9B683B61FB68DA433B6913403B613F
:104C5C003B685A6880235B03134003D03A69FB68B6
:104C6C0013433B61134B3A699A60124BDB683B610F
:104C7C00FB68DA433B6913403B613B685A6880230D
:104C8C009B03134003D03A69FB6813433B61094B08
:104C9C003A69DA607B6901337B613B681A687B692E
:104CAC00DA40131E00D04DE6C046BD4606B080BDAE
:104CBC00000001400004014080B582B000AF786074
:104CCC0008001100BB1C021C1A807B1C0A1C1A70E9
:104CDC00BB1C1B88002B04D0BB1C1B881B0C1B048F
:104CEC0007D0A623FF331A00124B11001800FDF752
:104CFC0079FF7B1C1B78002B0AD07B1C1B78012BAB
:104D0C0006D0D3235A000B4B11001800FDF76AFF95
:104D1C007B1C1B78002B04D0BB1C1A887B689A6107
:104D2C0003E0BB1C1A887B689A62C046BD4602B081
:104D3C0080BDC046BC8B000880B584B000AF7860E5
:104D4C000A00BB1C1A80BB1C1B88002B04D0BB1C8C
:104D5C001B881B0C1B0407D0BE23FF331A000C4B03
:104D6C0011001800FDF73EFF7B685B69FB60BB1C04
:104D7C001B88FA6813401A04FB68DB43B91C0988CA
:104D8C000B401A437B689A61C046BD4604B080BD97
:104D9C00BC8B000880B500AF044B1A68034B802114
:104DAC0049000A431A60C046BD4680BD00700040F1
:104DBC0080B588B000AF78607B68002B02D10123EE
:104DCC0000F006FD7B681B68002B25D07B681B68F8
:104DDC000122134020D17B681B68022213401BD197
:104DEC007B681B680822134016D17B681B68042261
:104DFC00134011D17B681B68102213400CD17B68C7
:104E0C001B682022134007D13A23FF331A00C44BEE
:104E1C0011001800FDF7E6FE7B681B6801221340A9
:104E2C0000D1A4E07B685B68002B0FD07B685B68CB
:104E3C00012B0BD07B685B68052B07D04023FF331D
:104E4C001A00B74B11001800FDF7CCFEB54B5B6890
:104E5C000C221340042B0ED0B24B5B680C22134077
:104E6C00082B17D1AF4B5A68C0235B021A40802322
:104E7C005B029A420ED1AB4B1A6880239B02134003
:104E8C0000D173E07B685B68002B00D06EE00123DF
:104E9C0000F09EFC7B685B68012B07D1A14B1A6864
:104EAC00A04B802149020A431A602FE07B685B68A3
:104EBC00002B0CD19B4B1A689A4B9B490A401A60E9
:104ECC00984B1A68974B99490A401A601EE07B6808
:104EDC005B68052B0ED1934B1A68924B8021C9024B
:104EEC000A431A608F4B1A688E4B802149020A4381
:104EFC001A600BE08B4B1A688A4B8B490A401A607C
:104F0C00884B1A68874B89490A401A607B685B6832
:104F1C00002B15D0FEF768F90300BB6109E0FEF722
:104F2C0063F90200BB69D31A642B02D9032300F086
:104F3C004FFC7C4B1A6880239B021340EFD016E089
:104F4C00FEF752F90300BB6109E0FEF74DF90200D0
:104F5C00BB69D31A642B02D9032300F039FC714BC3
:104F6C001A6880239B021340EFD100E0C0467B6897
:104F7C001B680222134000D18AE07B68DB68002B9F
:104F8C000BD07B68DB68012B07D07423FF331A002E
:104F9C00634B11001800FDF725FE7B681B691F2B66
:104FAC0006D9BA235A005E4B11001800FDF71AFE01
:104FBC005C4B5B680C2213400ED05A4B5B680C2286
:104FCC001340082B20D1574B5A68C0235B021A4060
:104FDC0080231B029A4217D1524B1B6802221340AA
:104FEC0006D07B68DB68012B02D0012300F0F0FBBC
:104FFC004C4B1B68F822934319007B681B69DA0041
:10500C00484B0A431A6043E07B68DB68002B25D0D1
:10501C00444B1A68434B01210A431A60FEF7E4F82B
:10502C000300BB6109E0FEF7DFF80200BB69D31A8D
:10503C00022B02D9032300F0CBFB3A4B1B68022254
:10504C001340F0D0374B1B68F822934319007B6850
:10505C001B69DA00334B0A431A6019E0314B1A68AA
:10506C00304B01218A431A60FEF7BEF80300BB6186
:10507C0009E0FEF7B9F80200BB69D31A022B02D97A
:10508C00032300F0A5FB274B1B6802221340F0D131
:10509C007B681B68082213404FD07B68DB69002BB0
:1050AC000AD07B68DB69012B06D0DA235A001C4B33
:1050BC0011001800FDF796FD7B68DB69002B1AD0F8
:1050CC00184B5A6A174B01210A435A62FEF78CF8A7
:1050DC000300BB6109E0FEF787F80200BB69D31A35
:1050EC00022B02D9032300F073FB0E4B5B6A0222E6
:1050FC001340F0D021E00B4B5A6A0A4B01218A4332
:10510C005A62FEF771F80300BB6111E0FEF76CF810
:10511C000200BB69D31A022B0AD9032300F058FBF7
:10512C00F88B000800100240FFFFFEFFFFFFFBFFA3
:10513C00C34B5B6A02221340E8D17B681B680422D4
:10514C00134000D1C0E01F23FB1800221A707B68AB
:10515C009B68002B0ED07B689B68012B0AD07B6868
:10516C009B68052B06D0F0235A00B64B1100180093
:10517C00FDF738FDB24BDA6980235B05134011D182
:10518C00AF4BDA69AE4B802149050A43DA61AC4B6F
:10519C00DA6980235B051340FB60FB681F23FB1857
:1051AC0001221A70A84B1A6880235B0013401AD195
:1051BC00A54B1A68A44B802149000A431A60FEF7DC
:1051CC0013F80300BB6108E0FEF70EF80200BB69A0
:1051DC00D31A642B01D90323FAE29B4B1A68802360
:1051EC005B001340F0D07B689B68012B06D1944B7D
:1051FC001A6A934B01210A431A622DE07B689B6863
:10520C00002B0CD18E4B1A6A8D4B01218A431A62EA
:10521C008B4B1A6A8A4B04218A431A621CE07B6806
:10522C009B68052B0CD1864B1A6A854B04210A43CB
:10523C001A62834B1A6A824B01210A431A620BE0F1
:10524C007F4B1A6A7E4B01218A431A627C4B1A6A85
:10525C007B4B04218A431A627B689B68002B14D019
:10526C00FDF7C2FF0300BB6109E0FDF7BDFF0200C3
:10527C00BB69D31A754A934201D90323A8E2704B38
:10528C001B6A02221340F0D013E0FDF7ADFF0300C0
:10529C00BB6109E0FDF7A8FF0200BB69D31A6B4A9A
:1052AC00934201D9032393E2654B1B6A02221340FC
:1052BC00F0D11F23FB181B78012B05D1604BDA6949
:1052CC005F4B63490A40DA617B681B68102213400C
:1052DC0000D17FE07B685B69002B0DD07B685B693C
:1052EC00012B09D07B685B69053305D0594A554BB6
:1052FC0011001800FDF776FC7B689B691F2B05D904
:10530C00554A504B11001800FDF76CFC7B685B692B
:10531C00012B2AD14A4B5A6B494B04210A435A633D
:10532C00474B5A6B464B01210A435A63FDF75CFF0E
:10533C000300BB6108E0FDF757FF0200BB69D31AFD
:10534C00022B01D9032343E23D4B5B6B022213403A
:10535C00F1D03B4B5B6BF822934319007B689B6944
:10536C00DA00374B0A435A6334E07B685B690533D8
:10537C0011D1334B5A6B324B04218A435A63304B55
:10538C005B6BF822934319007B689B69DA002C4B0A
:10539C000A435A631EE02A4B5A6B294B04210A43D9
:1053AC005A63274B5A6B264B01218A435A63FDF7EC
:1053BC001BFF0300BB6108E0FDF716FF0200BB6991
:1053CC00D31A022B01D9032302E21D4B5B6B022281
:1053DC001340F1D17B681B682022134000D179E087
:1053EC007B681B6A002B0AD07B681B6A012B06D0DA
:1053FC0099239A00134B11001800FDF7F3FB104B87
:10540C005B680C2213400C2B0ED00D4B5B680C22EE
:10541C001340082B22D10A4B5A68C0235B021A4056
:10542C00C0235B029A4219D1054B5A6B80235B0255
:10543C0013404ED07B681B6A012B4AD00123C7E175
:10544C0000100240F88B0008007000408813000028
:10545C00FFFFFFEF26020000270200007B681B6A9B
:10546C00002B1BD0BF4B5A6BBE4B802149020A4309
:10547C005A63FDF7B9FE0300BB6108E0FDF7B4FE0B
:10548C000200BB69D31A022B01D90323A0E1B54B4F
:10549C005A6B80235B021340F0D01BE0B14B5A6B6C
:1054AC00B04BB1490A405A63FDF79EFE0300BB6145
:1054BC0008E0FDF799FE0200BB69D31A022B01D953
:1054CC00032385E1A74B5A6B80235B021340F0D179
:1054DC0000E0C0467B685B6A002B0DD07B685B6A82
:1054EC00012B09D07B685B6A022B05D09F4AA04B2D
:1054FC0011001800FDF776FB7B685B6A002B00D16E
:10550C0065E1984B5B680C221340082B00D139E104
:10551C007B685B6A022B00D009E17B689A6A802366
:10552C001B029A4211D07B689A6AC0235B029A4292
:10553C000BD07B689A6A80235B029A4205D08D4A15
:10554C008B4B11001800FDF74DFB7B68DB6A002BC1
:10555C005AD07B68DA6A8023DB029A4254D07B688B
:10556C00DA6A80231B039A424ED07B68DA6AC02326
:10557C001B039A4248D07B68DA6A80235B039A4209
:10558C0042D07B68DA6AA0235B039A423CD07B68EA
:10559C00DA6AC0235B039A4236D07B68DA6AE0236E
:1055AC005B039A4230D07B68DA6A80239B039A4271
:1055BC002AD07B68DA6A90239B039A4224D07B68BA
:1055CC00DA6AA0239B039A421ED07B68DA6AB02366
:1055DC009B039A4218D07B68DA6AC0239B039A42D9
:1055EC0012D07B68DA6AD0239B039A420CD07B687A
:1055FC00DA6AE0239B039A4206D0A9239A005C4BFB
:10560C0011001800FDF7EEFA7B681B6B002B41D0E4
:10561C007B681B6B012B3DD07B681B6B022B39D03D
:10562C007B681B6B032B35D07B681B6B042B31D039
:10563C007B681B6B052B2DD07B681B6B062B29D035
:10564C007B681B6B072B25D07B681B6B082B21D031
:10565C007B681B6B092B1DD07B681B6B0A2B19D02D
:10566C007B681B6B0B2B15D07B681B6B0C2B11D029
:10567C007B681B6B0D2B0DD07B681B6B0E2B09D025
:10568C007B681B6B0F2B05D03B4A394B1100180064
:10569C00FDF7A8FA334B1A68324B38490A401A60A6
:1056AC00FDF7A2FD0300BB6108E0FDF79DFD0200C4
:1056BC00BB69D31A022B01D9032389E0294B1A6841
:1056CC0080239B041340F0D1264BDB6A0F229343BB
:1056DC0019007B681A6B234B0A43DA62214B5B6817
:1056EC00274A134019007B68DA6A7B689B6A1A4365
:1056FC001C4B0A435A601B4B1A681A4B80214904F5
:10570C000A431A60FDF770FD0300BB6108E0FDF76A
:10571C006BFD0200BB69D31A022B01D9032357E09E
:10572C00104B1A6880239B041340F0D04FE00D4BB4
:10573C001A680C4B11490A401A60FDF755FD03001D
:10574C00BB6108E0FDF750FD0200BB69D31A022BC8
:10575C0001D903233CE0034B1A6880239B041340BC
:10576C00F0D134E000100240FFFFFEFF9A0200006F
:10577C00F88B0008A3020000A5020000FFFFFFFE4B
:10578C00FF7FC2FF7B685B6A012B01D101231FE005
:10579C00114B5B687B61104BDB6A3B617A69C02300
:1057AC005B021A407B689B6A9A420ED13B690F22BE
:1057BC001A407B681B6B9A4207D17A69F0239B03D2
:1057CC001A407B68DB6A9A4201D0012300E0002377
:1057DC001800BD4608B080BD0010024080B584B0F2
:1057EC0000AF786039607B68002B01D1012344E164
:1057FC007B681B68012213400FD17B681B68022257
:10580C0013400AD17B681B680422134005D19D4AC2
:10581C009D4B11001800FDF7E5F93B68002B08D0F3
:10582C003B68012B05D0994A974B11001800FDF7E6
:10583C00D9F9974B1B68012213403A689A4211D947
:10584C00934B1B68012293431900914B3A680A430E
:10585C001A608F4B1B68012213403A689A4201D0A0
:10586C0001230AE17B681B68022213403FD07B684E
:10587C001B680422134006D0864B5A68854BE021E6
:10588C00C9000A435A607B689B68002B25D07B6853
:10589C009B68802B21D07B689B68902B1DD07B68EC
:1058AC009B68A02B19D07B689B68B02B15D07B68AC
:1058BC009B68C02B11D07B689B68D02B0DD07B686C
:1058CC009B68E02B09D07B689B68F02B05D0724A53
:1058DC006D4B11001800FDF785F96E4B5B68F022DB
:1058EC00934319007B689A686A4B0A435A607B6839
:1058FC001B680122134000D162E07B685B68002BBF
:10590C0011D07B685B68012B0DD07B685B68022B28
:10591C0009D07B685B68032B05D0604A5A4B110099
:10592C001800FDF75FF97B685B68012B07D1594BB9
:10593C001A6880239B02134020D101239DE07B68D1
:10594C005B68022B07D1534B1A6880239B041340CE
:10595C0014D1012391E07B685B68032B07D14D4B7D
:10596C005A6B80235B02134008D1012385E0494B1D
:10597C001B680222134001D101237EE0454B5B687A
:10598C000322934319007B685A68424B0A435A60BE
:10599C00FDF72AFC0300FB6009E0FDF725FC020083
:1059AC00FB68D31A3E4A934201D9032365E0394B75
:1059BC005B680C221A407B685B689B009A42ECD1B6
:1059CC00334B1B68012213403A689A4211D2304B78
:1059DC001B680122934319002D4B3A680A431A6045
:1059EC002B4B1B68012213403A689A4201D00123C9
:1059FC0043E07B681B68042213402CD07B68DB6877
:105A0C00002B1ED07B68DA688023DB009A4218D00A
:105A1C007B68DA68A023DB009A4212D07B68DA68D4
:105A2C00C023DB009A420CD07B68DA68E023DB00F1
:105A3C009A4206D0E1239A00134B11001800FDF78F
:105A4C00D1F8144B5B68174A134019007B68DA686D
:105A5C00104B0A435A6000F02BF801000D4B5B68A9
:105A6C001B090F221340104AD35C0A00DA400F4B7B
:105A7C001A600020FDF772FB00231800BD4604B02D
:105A8C0080BDC04616030000F88B00081703000009
:105A9C000020024000100240360300003D030000CD
:105AAC0088130000FFF8FFFF448F0008240000203B
:105ABC0090B58FB000AF1423FB18374A13CA13C329
:105ACC0012681A603B1D354A13CA13C312681A6058
