:020000040800F2
:1000000000800020B94900088D4500089745000888
:1000100000000000000000000000000000000000E0
:100020000000000000000000000000009D450008E6
:100030000000000000000000A7450008B1450008CE
:10004000094A0008094A0008094A0008094A000844
:10005000094A0008094A0008094A0008094A000834
:10006000094A0008094A0008094A0008094A000824
:10007000094A0008094A0008094A0008094A000814
:10008000094A0008094A0008094A0008094A000804
:10009000094A0008094A0008094A0008094A0008F4
:1000A000094A0008094A0008094A0008094A0008E4
:0C00B000FD450008094A0008154600083C
:1000BC0010B5064C2378002B07D1054B002B02D032
:1000CC00044800E000BF0123237010BDA4000020F1
:1000DC000000000048B10008044B10B5002B03D001
:1000EC000349044800E000BF10BDC04600000000FA
:1000FC00A800002048B100080023C25C0133002A8C
:10010C00FBD1581E70470000002243088B4274D369
:10011C0003098B425FD3030A8B4244D3030B8B42FC
:10012C0028D3030C8B420DD3FF22090212BA030C05
:10013C008B4202D31212090265D0030B8B4219D3E6
:10014C0000E0090AC30B8B4201D3CB03C01A524106
:10015C00830B8B4201D38B03C01A5241430B8B424E
:10016C0001D34B03C01A5241030B8B4201D30B0337
:10017C00C01A5241C30A8B4201D3CB02C01A52415E
:10018C00830A8B4201D38B02C01A5241430A8B4221
:10019C0001D34B02C01A5241030A8B4201D30B020A
:1001AC00C01A5241CDD2C3098B4201D3CB01C01A24
:1001BC00524183098B4201D38B01C01A524143092E
:1001CC008B4201D34B01C01A524103098B4201D31C
:1001DC000B01C01A5241C3088B4201D3CB00C01A89
:1001EC00524183088B4201D38B00C01A5241430801
:1001FC008B4201D34B00C01A5241411A00D2014626
:10020C00524110467047FFE701B5002000F0F0F8AE
:10021C0002BDC0460029F7D076E7704703460B4372
:10022C007FD4002243088B4274D303098B425FD3E3
:10023C00030A8B4244D3030B8B4228D3030C8B420F
:10024C000DD3FF22090212BA030C8B4202D31212F5
:10025C00090265D0030B8B4219D300E0090AC30BCA
:10026C008B4201D3CB03C01A5241830B8B4201D377
:10027C008B03C01A5241430B8B4201D34B03C01A60
:10028C005241030B8B4201D30B03C01A5241C30AD8
:10029C008B4201D3CB02C01A5241830A8B4201D349
:1002AC008B02C01A5241430A8B4201D34B02C01A33
:1002BC005241030A8B4201D30B02C01A5241CDD2D8
:1002CC00C3098B4201D3CB01C01A524183098B4223
:1002DC0001D38B01C01A524143098B4201D34B010C
:1002EC00C01A524103098B4201D30B01C01A52416F
:1002FC00C3088B4201D3CB00C01A524183088B42F6
:10030C0001D38B00C01A524143088B4201D34B00DE
:10031C00C01A5241411A00D2014652411046704750
:10032C005DE0CA0F00D04942031000D34042534055
:10033C0000229C4603098B422DD3030A8B4212D315
:10034C00FC22890112BA030A8B420CD38901921147
:10035C008B4208D3890192118B4204D389013AD084
:10036C00921100E08909C3098B4201D3CB01C01A59
:10037C00524183098B4201D38B01C01A524143096C
:10038C008B4201D34B01C01A524103098B4201D35A
:10039C000B01C01A5241C3088B4201D3CB00C01AC7
:1003AC00524183088B4201D38B00C01A5241D9D2DF
:1003BC0043088B4201D34B00C01A5241411A00D260
:1003CC000146634652415B10104601D34042002B5C
:1003DC0000D54942704763465B1000D3404201B5DB
:1003EC00002000F005F802BD0029F8D016E7704790
:1003FC007047C046002B15D1002A13D1002906DB0B
:10040C0001DC002806D00020C043410802E0802116
:10041C000906002007B4024801A14018029003BD50
:10042C00D1FFFFFF03B4684601B5029800F030F825
:10043C00019B9E4602B00CBC7047C046F0B5CE4640
:10044C00474615042D0C2E0080B50704140C3F0CE8
:10045C009946030C7E435D43674363437F19340C19
:10046C00E4199C46A54203D980235B029846C444F8
:10047C004B4643435143250C36046544360C240447
:10048C00A4195B19591820000CBC90469946F0BD74
:10049C00F0B583B016001F000090019100F014F825
:1004AC0004000D0002000B0030003900FFF7C6FFFE
:1004BC00009A019B121A8B41089920000A604B602C
:1004CC00290003B0F0BDC046F0B54E465746DE4697
:1004DC004546E0B50F00002183B006008946002F89
:1004EC0006DA3900002746428F41012149428946EC
:1004FC00002B07DA4946C94310008946190000232E
:10050C0042428B4134003D0092469846BB4269D82A
:10051C0066D04146504600F0AFF8834639003000B3
:10052C0000F0AAF85B461B1A9C46203B9B4600D564
:10053C0075E05146584681400B005146604681405B
:10054C000A00BB4261D85ED034003D005946A41A63
:10055C009D41002900DA7AE000210020012600905C
:10056C00019159468E400196614601268E406146A6
:10057C000096002950D0D90756085F080E436346F1
:10058C000EE0AF4201D1A6420CD8A41BBD41012103
:10059C0024196D410022013B64185541002B06D0F3
:1005AC00AF42EED9013B24196D41002BF8D10098D4
:1005BC0001995B4600196941002B3DDB2E00DE40A2
:1005CC0063462C00DC405B46002B4BDB34005D4665
:1005DC00AC4023006446A6403200801A994103E0E7
:1005EC00B24296D9002000214B46002B04D00300C8
:1005FC000C0000215842A14103B03CBC90469946E6
:10060C00A246AB46F0BDB1429ED90021002000901D
:10061C00019161460029AED100980199E4E72023AD
:10062C00624651469B1AD94040460091614688402B
:10063C00030000990B4380E7624620239B1A2A0093
:10064C009A40260013006246D6401E43B8E7614626
:10065C0020260127761A00200021F74000900191F6
:10066C00019781E76746202362463500BC409B1A00
:10067C00DD4023002B43ADE710B5002903D100F07A
:10068C0007F8203002E0081C00F002F810BDC0464C
:10069C001C2101231B04984201D3000C10391B0AA6
:1006AC00984201D3000A08391B09984201D300096A
:1006BC00043902A2105C40187047C04604030202C1
:1006CC0001010101000000000000000080B582B0B3
:1006DC0000AF78600A00BB1C1A8010E07B68DB88D6
:1006EC009BB25A1C7B689B8819001000FFF77CFE9C
:1006FC000B009AB27B68DA807B6800229A72BB1C72
:10070C001B88BA1C591E1180002B05D07B68180061
:10071C0000F0C9F8031EE1D1C046BD4602B080BD51
:10072C0080B582B000AF78600A00BB1C1A8024E050
:10073C007B681B899BB25A1C7B689B881900100034
:10074C00FFF752FE0B009AB27B681A817B689B7A8A
:10075C00DBB2002B05D07B681B899AB27B68DA80F0
:10076C000BE07B681B899AB27B68DB889BB2D31A3F
:10077C005A425341DAB27B689A72BB1C1B88BA1C72
:10078C00591E1180002BD3D1C046BD4602B080BD8E
:10079C0080B582B000AF78607B68002B06D07B6898
:1007AC001B687A68D28892B29B1800E0002318006C
:1007BC00BD4602B080BD80B582B000AF78607B686A
:1007CC00002B06D07B681B687A68128992B29B1842
:1007DC0000E000231800BD4602B080BD90B585B086
:1007EC0000AF78600023FB607B68002B1CD07B681B
:1007FC001B687A6892889B181C007B681800FFF7AE
:10080C00C7FF0300E31AFB607B68180000F04BF88D
:10081C000200FB68934205D37B68180000F043F894
:10082C00030000E0FB68FB60FB681800BD4605B0E8
:10083C0090BD80B584B000AFF860B9607A60FB6899
:10084C00002B10D0BB68002B0DD07B68002B0AD07E
:10085C00FB68BA681A607B689AB2FB689A80FB687E
:10086C00180000F004F8C046BD4604B080BD80B549
:10087C0082B000AF78607B68002B10D07B680022C0
:10088C00DA807B6800221A817B6800229A727B686E
:10089C0018687B689B881A00002109F06EFBC04623
:1008AC00BD4602B080BD80B584B000AF7860002337
:1008BC00FB607B68002B31D07B681B899AB27B680C
:1008CC00DB889BB29A4209D97B681B899BB21A00C0
:1008DC007B68DB889BB2D31AFB601FE07B681B89AB
:1008EC009AB27B68DB889BB29A420CD27B689B885D
:1008FC001A007B68DB889BB2D31A7A68128992B291
:10090C009B18FB600AE07B689B7ADBB2002B03D060
:10091C007B689B88FB6001E00023FB60FB68180090
:10092C00BD4604B080BD90B585B000AF78600023A3
:10093C00FB607B68002B09D07B689B881C007B6864
:10094C001800FFF7B0FF0300E31AFB60FB68180008
:10095C00BD4605B090BD80B584B000AF78600A008C
:10096C00FB1C1A700023FB600023BB6011E0BA680B
:10097C007B681100180000F03CF803001A00FB1C07
:10098C001B78934202D1BB68FB600AE0BB68013361
:10099C00BB607B681800FFF786FF0200BB689342C0
:1009AC00E5D3FB681800BD4604B080BD80B582B0AD
:1009BC0000AF78600A00FB1C1A700EE07B68180010
:1009CC0000F046F803001A00FB1C1B7893420BD076
:1009DC007B6801211800FFF779FE7B681800FFF790
:1009EC0062FF031EEAD100E0C046C046BD4602B01D
:1009FC0080BD90B585B000AF786039600F23FB18CF
:100A0C0000221A707B68002B1BD07B681800FFF744
:100A1C004AFF02003B68934213D27B681C687B68D8
:100A2C00DB889BB21A003B68D2187B689B88190044
:100A3C001000FFF7EFFB0B00E2180F23FB181278E6
:100A4C001A700F23FB181B781800BD4605B090BD1B
:100A5C0080B584B000AF78600F23FB1800221A70A9
:100A6C007B68002B09D07B681B687A68D28892B2AD
:100A7C009A180F23FB1812781A700F23FB181B7887
:100A8C001800BD4604B080BD80B584B000AF78605E
:100A9C000F23FB1800221A707B681800FFF703FF66
:100AAC00031E0ED07B681B687A68D28892B29A18A3
:100ABC000F23FB1812781A707B6801211800FFF7BE
:100ACC0005FE0F23FB181B781800BD4604B080BD33
:100ADC0090B587B000AFF860B9607A6000237B6195
:100AEC000AE07B695A1C7A61BA68D418FB68180052
:100AFC00FFF7CAFF03002370FB681800FFF7D3FE53
:100B0C00031E03D07A697B689A42EAD37B6918008A
:100B1C00BD4607B090BD80B582B000AF78600A00CA
:100B2C00FB1C1A707B68002B0DD07B681B687A68E5
:100B3C00128992B29B18FA1C12781A707B680121E8
:100B4C001800FFF7EDFDC046BD4602B080BD80B574
:100B5C0086B000AFF860B9607A6000237B61FB68F7
:100B6C00002B0FD00AE07B695A1C7A61BA68D31843
:100B7C001A78FB6811001800FFF7CDFF7A697B68C3
:100B8C009A42F0D37B691800BD4606B080BD80B593
:100B9C0082B000AF786039607B681B693A6813409B
:100BAC003A68D31A5A425341DBB21800BD4602B020
:100BBC0080BD000090B58FB000AFF860B9607A606E
:100BCC001A00FB1C1A7014210C007B18180024232B
:100BDC001A00002109F0D1F921007B1806221A72A3
:100BEC007B18402208208446BC44624412789A72D6
:100BFC007B18FA1C12781A737B18BA681A617B1866
:100C0C007A685A617B1832229A617B18084ADA6139
:100C1C007B18084A1A62FB687A1813CA13C313CAE2
:100C2C0013C313CA13C3F868BD460FB090BDC046BA
:100C3C00B80B00001027000080B584B000AF7860BE
:100C4C007B68180000F024F90300FB607B68180037
:100C5C0000F035F903001A000B23FB181A707B689F
:100C6C001B7A5BB2062B0DD17B68180000F027F9BC
:100C7C00031E01D0052200E004227B681A727B68F7
:100C8C00FF225A727B681B68FA689A4206D87B6806
:100C9C001A68FB68D21A7B681A6002E07B68002233
:100CAC001A607B681B7A5BB2052B00D9C3E09A00F3
:100CBC00684BD3181B689F460B23FB181B785BB241
:100CCC00012B07D17B6805221A727B689A697B68B5
:100CDC001A60B2E07B681B68002B00D0ADE07B682B
:100CEC0000221A727B685B7A5BB2002B00D1A4E005
:100CFC007B68180003F08AFA9FE00B23FB181B7823
:100D0C005BB2012B2DD17B681B68002B31D17B682A
:100D1C005B7A5BB2022B0BD0032B11D0012B13D1BE
:100D2C007B68DA697B681A607B6801221A7221E0A1
:100D3C007B681A6A7B681A607B6802221A7219E057
:100D4C007B6803221A7215E07B68DA697B681A608B
:100D5C007B6801221A727B68180000F0D9F8C04633
:100D6C0008E07B689A697B681A607B6800221A72BB
:100D7C006CE0C0466AE00B23FB181B785BB2012BBE
:100D8C005DD17B6800225A727B6805221A727B68DF
:100D9C009A697B681A6052E00B23FB181B785BB2D4
:100DAC00012B0FD17B681B68002B4AD17B681A6A18
:100DBC007B681A607B6802221A727B68180003F049
:100DCC004DFA3EE07B6801225A727B6804221A724B
:100DDC007B689A697B681A6033E00B23FB181B78DD
:100DEC005BB2012B0BD17B681B68002B2BD17B6872
:100DFC0003221A727B68180000F09CF823E07B68D1
:100E0C0002225A727B6804221A727B689A697B6888
:100E1C001A6018E00B23FB181B785BB2002B14D163
:100E2C007B6803225A727B6804221A727B689A6967
:100E3C007B681A6009E0C04608E0C04606E0C04680
:100E4C0004E0C04602E0C04600E0C046C046BD46D5
:100E5C0004B080BDBCB3000880B582B000AF786030
:100E6C007B685B69002B0AD07B681B69002B06D062
:100E7C007B681B7A5BB2013301D0012300E00023B5
:100E8C001A1C01231340DBB21800BD4602B080BD12
:100E9C0080B584B000AF786003F00CFE0300FB60FB
:100EAC007B685B68FA68D31ABB6003F003FE020030
:100EBC007B685A60BB681800BD4604B080BD80B525
:100ECC0084B000AF78607B681B69002B1AD07B68FC
:100EDC005B69002B16D07B681A697B685B6919000B
:100EEC001000FFF754FE02000F203B18511E8A41E0
:100EFC001A703B181B787A68127B9B1A5A42534122
:100F0C00DBB200E000231800BD4604B080BD000039
:100F1C0080B582B000AF78607B689B7A1A00044B76
:100F2C001100180009F032F8C046BD4602B080BD71
:100F3C0078B1000880B582B000AF78607B689B7A8E
:100F4C001A00044B1100180009F020F8C046BD46E9
:100F5C0002B080BDACB1000880B582B000AF786043
:100F6C0039607B685B693A6813403A68D31A5A4215
:100F7C005341DBB21800BD4602B080BD80B582B0D3
:100F8C0000AF786039607B683A689A61C046BD46AC
:100F9C0002B080BD80B582B000AF786039607B68EC
:100FAC003A689A62C046BD4602B080BD80B584B036
:100FBC0000AFF860B9607A603B60FB68180000F025
:100FCC0011F903001A0001235340DBB2002B03D0AC
:100FDC00FB68180000F03EF9FB68180000F01EF9E1
:100FEC0003001A0001235340DBB2002B54D0FB68E2
:100FFC003A685A621823FB181B88294A934203D17A
:10100C001823FB181A8807E01823FB181B881C22CE
:10101C00BA18128853431A00FB689A62FB687A6804
:10102C009A61FB68BA68DA61FB685B6A012213405B
:10103C0026D0FB68180000F07AF9031E16D0FB6866
:10104C009A6AFB689B6A17498C466344591E8B410C
:10105C00DBB2D218FB689A62FB689A69FB681A606B
:10106C00FB680021180000F08AF912E0FB68DA69CD
:10107C00FB681A60FB680121180000F080F908E099
:10108C00FB689A69FB681A60FB680021180000F085
:10109C0076F9FB6802221A72C046BD4604B080BDC8
:1010AC00FFFF00000100FFFF90B591B000AFF860AA
:1010BC00B9607A601A00FB1C1A7014210C007B18A2
:1010CC0018002C231A00002108F057FF21007B1870
:1010DC00482208208446BC44624412785A727B1819
:1010EC00FA1C12781A737B18BA681A617B187A6822
:1010FC005A61FB687A1813CA13C313CA13C313CAF1
:10110C0013C303CA03C3F868BD4611B090BD0000F9
:10111C0080B584B000AF78607B68180000F0F0F800
:10112C000300FB607B681B68FA689A4206D87B68F0
:10113C001A68FB68D21A7B681A604DE07B68002243
:10114C001A607B681B7A5BB2012B02D0022B06D093
:10115C003CE07B680121180000F011F93CE07B6851
:10116C009B6A1F4A934204D07B689B6A5A1E7B6819
:10117C009A627B689B6A002B1FD07B685B6A01229A
:10118C00D3411A007B685A627B685B6A0122134068
:10119C0009D07B68DA697B681A607B6801211800CA
:1011AC0000F0EDF818E07B689A697B681A607B6840
:1011BC000021180000F0E3F80EE07B6800221A72A0
:1011CC007B680021180000F0DAF805E07B6800214C
:1011DC00180000F0D4F8C046C046BD4604B080BD2F
:1011EC00FFFF000080B582B000AF78607B685B6960
:1011FC00002B0AD07B681B69002B06D07B681B7AFE
:10120C005BB2013301D0012300E000231A1C01233F
:10121C001340DBB21800BD4602B080BD80B582B071
:10122C0000AF78607B685B69002B0AD07B681B6918
:10123C00002B06D07B681B7A5BB2022B01D10123F9
:10124C0000E000231A1C01231340DBB21800BD463A
:10125C0002B080BD80B582B000AF78607B680022A0
:10126C001A727B680021180000F089F8C046BD4650
:10127C0002B080BD80B582B000AF78600A00FB1C64
:10128C001A707B6800221A607B6820220021995416
:10129C00FB1C1B785AB27B681A72FB1C1A787B6891
:1012AC001100180000F06BF8C046BD4602B080BDBE
:1012BC0090B587B002AFF860B9601900BB1D1A80F9
:1012CC007B1D0A1C1A70FB687A1D202112785A5457
:1012DC00BB1D1B88012B01D9BA6800E00122074C09
:1012EC00B968F86802230193BB1D1B880093230087
:1012FC00FFF75CFEC046BD4605B090BD5555555533
:10130C0080B584B000AF786003F0D4FB0300FB60C1
:10131C007B685B68FA68D31ABB6003F0CBFB0200F6
:10132C007B685A60BB681800BD4604B080BD80B5B0
:10133C0084B000AF78607B681B69002B1AD07B6887
:10134C005B69002B16D07B681A697B685B69190096
:10135C001000FFF701FE02000F203B18511E8A41BE
:10136C001A703B181B787A68127B9B1A5A425341AD
:10137C00DBB200E000231800BD4604B080BD80B590
:10138C0084B000AF78600A00FB1C1A707B681B6984
:10139C00002B3FD07B685B69002B3BD0FB1C1A7881
:1013AC007B681B7B19000F23FB18521A51424A41D0
:1013BC001A707B6820229B5C002B0DD00F23FB182E
:1013CC001B785A1E9341DBB201225340DBB21A1C2C
:1013DC0001231340DBB205E00F23FB181B785A1EC8
:1013EC009341DBB20F217A1813707B181B78002BFA
:1013FC0008D07B681A697B685B6919001000FFF7DD
:10140C00BDFD07E07B681A697B685B6919001000F9
:10141C00FFF7C0FDC046BD4604B080BD80B586B0A8
:10142C0000AF786039601723FB1801221A70032370
:10143C00FB607B681800FFF736FA0200FB689342EA
:10144C002CD87B681800FFF71FFB03009BB21B0214
:10145C009AB23B681A807B681800FFF715FB0300F3
:10146C0019003B681A888BB2D3189AB23B681A8061
:10147C007B681800FFF708FB03001A003B689A70A2
:10148C003B68D91C3B689B781A007B681800FFF7F7
:10149C001FFB1723FB1800221A7013E07B6818003F
:1014AC00FFF701FA0300FB6000233B6106E07B6859
:1014BC001800FFF7E9FA3B6901333B613B69FA68B5
:1014CC009A42F4D81723FB181B781800BD4606B0B7
:1014DC0080BD80B582B000AF786039603B681B88F6
:1014EC001B0A9BB2DBB27F221340DAB27B6811007D
:1014FC001800FFF710FB3B681B88DAB27B68110001
:10150C001800FFF708FB3B689A787B6811001800FD
:10151C00FFF701FB3B68D91C3B689B781A007B6882
:10152C001800FFF714FB00231800BD4602B080BD65
:10153C0090B585B000AF786039600F23FB1801229D
:10154C001A703B681B88002B0DD13B68D91C3B687B
:10155C009B781A000F23FC187B68180000F02EFCF7
:10156C0003002370CFE03B681B88802B0DD13B68B8
:10157C00D91C3B689B781A000F23FC187B68180059
:10158C0000F02CFC03002370BDE03B681B881A00A4
:10159C00F023DB001340802B17D13B681B885AB219
:1015AC000E203B187F210A401A703B68D91C3B68FF
:1015BC009B781A000F23FC183B181B785BB21800A1
:1015CC0000F088FB030023709DE03B681B881A0029
:1015DC00F023DB001A40B023DB009A4227D13B6892
:1015EC001B881A004B4B13407A68127C52B2934200
:1015FC0001D001238AE03B689B78082B01D00123A2
:10160C0084E07B685B7C032B03D07B685B7C002BCA
:10161C0001D101237AE03B68DA1C0F23FC187B68AC
:10162C001100180001F03AFA030023706BE03B68DC
:10163C001B881A00F023DB001A40C023DB009A42FF
:10164C0027D13B681B881A00324B13407A68127CF6
:10165C0052B2934201D0012358E03B689B78082B8F
:10166C0001D0012352E07B685B7C032B03D07B68A9
:10167C005B7C002B01D1012348E03B68DA1C0F2373
:10168C00FC187B681100180001F0E0F803002370CF
:10169C0039E03B681B881A00F023DB001A40C0239A
:1016AC005B009A422FD03B681B881A00F023DB00AA
:1016BC001A40A0239B009A4225D03B681B881A0035
:1016CC00F023DB001A40E0239B009A421BD03B68BE
:1016DC001B881A00F023DB001A409023DB009A428F
:1016EC0011D03B681B881A00F023DB001A408023C2
:1016FC009B009A4207D03B681B881A00F023DB0042
:10170C001A40C0239B000F23FB181B781800BD4602
:10171C0005B090BD7FF8FFFF90B587B000AF786043
:10172C007B689C6903F0C6F903009C425ED003F011
:10173C00C1F9030099B27B689B699AB216203B18D9
:10174C008A1A1A807B689A8A01007B181B88D31826
:10175C009AB27B689A827B689A697B181B88D2182C
:10176C007B689A617B68180000F0C7FA7B681800E8
:10177C0000F044FB7B68180000F0F2FF36E07B6859
:10178C00AC229B581800FFF77FF903009BB21B0299
:10179C009AB208243B191A807B68AC229B5818001B
:1017AC00FFF772F9030019003B191A888BB2D31892
:1017BC009AB23B191A807B68AC229B581800FFF731
:1017CC0063F903001A003B199A707B68AC22985895
:1017DC003B199B781A003B1903331900FFF778F972
:1017EC003A197B6811001800FFF7A2FE7B68AC2247
:1017FC009B581800FFF757F8031EC0D1C0467B68F2
:10180C00180000F0E7F8031EF9D0C046BD4607B03B
:10181C0090BD000080B582B000AF786039607B6805
:10182C00A8213A685A507B68AC211C4A5A507B68F4
:10183C00AC229B581A4940221800FEF7FAFF7B682D
:10184C00B021184A5A507B68B022985880235A000D
:10185C00154B1900FEF7EDFF03F058F902007B68F9
:10186C001A6003F05DF902007B685A6003F062F9BC
:10187C0002007B689A607B680022DA607B68002239
:10188C005A747B68FF221A7403F014F902007B6807
:10189C009A61C046BD4602B080BDC0460002002021
:1018AC00C00000200C0200200001002080B584B094
:1018BC0000AF786039603B68DB68002B3ED13B6839
:1018CC005B68002B3AD13B681B690333FB607B6878
:1018DC00AC229B581800FFF726F80200FB689342D5
:1018EC002DD87B68AC2298583B681B681B0ADBB26E
:1018FC007F221340DBB21900FFF70DF97B68AC2295
:10190C009A583B681B68DBB219001000FFF703F90B
:10191C007B68AC229A583B681B69DBB2190010003B
:10192C00FFF7F9F87B68AC2298583B681C33190018
:10193C003B681B691A00FFF70AF900E0C046BD4678
:10194C0004B080BDB0B58CB000AF786039602F2387
:10195C00FB1801221A701E4B180003F0E5FE031E43
:10196C002FD00C203B180022DA603B1800229A6022
:10197C003B1800225A603B681B881A003B181A60FF
:10198C003B689B781A003B181A613B68D91C3B6872
:10199C009B781A0005003B181833180008F0E4FA7D
:1019AC000823FC1828003B1818331A00391808486B
:1019BC00230003F023FD031E03D12F23FB18002269
:1019CC001A702F23FB181B781800BD460CB0B0BD45
:1019DC0050030020B0B58CB000AF78602F23FB18FB
:1019EC0001221A707B68B0229B581800FEF75BFF2F
:1019FC00031E4CD0294B180003F096FE031E46D054
:101A0C000C243B190022DA603B1900229A603B1926
:101A1C0000225A607B68B0229B581800FFF734F8FC
:101A2C0003001B021A003B191A607B68B0229B58FA
:101A3C001800FFF729F803001A003B191B689A18C5
:101A4C003B191A607B68B0229B581800FFF71CF8F2
:101A5C0003001A003B191A617B68B02298583B1995
:101A6C001A6925003B1918331900FFF731F80823C0
:101A7C00FC187B1918331A0079190848230003F055
:101A8C00BDFC031E03D12F23FB1800221A702F2339
:101A9C00FB181B781800BD460CB0B0BD50030020DD
:101AAC0080B586B000AF786039603B689B780333B3
:101ABC007B6108E07B68B0229B580822BA181100A1
:101ACC001800FFF7ABFC7B68B0229B581800FEF7A0
:101ADC002AFF02007B699342ECD87B68B0229B58AA
:101AEC003A6811001800FFF7F4FC03001800BD461B
:101AFC0006B080BD80B586B000AF786008001100DC
:101B0C00BB1C021C1A807B1C0A1C1A70BB1C1B8879
:101B1C00584A93420ED9BB1C1B88574A934209D88A
:101B2C007B1C1A78BB1C19887B68180001F078FDA7
:101B3C0003009AE0BB1C1B88504A93420ED9BB1C75
:101B4C001B884F4A934209D87B1C1A78BB1C1988F6
:101B5C007B68180000F09CF8030086E0BB1C1B8817
:101B6C00484A93420ED9BB1C1B88474A934209D85A
:101B7C007B1C1A78BB1C19887B68180000F099F83C
:101B8C00030072E000237B6161E07B68A822995816
:101B9C007A6913005B009B189B00CB181B88BA1C3E
:101BAC0012889A4250D17B68A82299587A691300FE
:101BBC005B009B189B00CB189B78072B34D17B6860
:101BCC00A82299587A6913005B009B189B00CB18CC
:101BDC005B68FB60FB685A680B23FB1812781A7061
:101BEC0001233B6119E03A6913005B009B189B00D1
:101BFC001A00FB689B181A887B1C1B789BB29A42B4
:101C0C0008D13A6913005B009B189B001A00FB6813
:101C1C009B182AE03B6901333B610B23FB181B78B3
:101C2C003A699A42DFDB0FE07B1C1B78002B09D151
:101C3C007B68A82299587A6913005B009B189B005B
:101C4C00CB1812E0002310E07B6901337B617B68C9
:101C5C00A82299587A6913005B009B189B00CB183B
:101C6C001B880A4A934290D100231800BD4606B047
:101C7C0080BDC046FF1F0000FF5F0000FF13000087
:101C8C00FF150000FF170000FF190000FFFF000008
:101C9C0080B582B000AF786008001100BB1C021C3C
:101CAC001A807B1C0A1C1A7000231800BD4602B057
:101CBC0080BD80B582B000AF786008001100BB1CFD
:101CCC00021C1A807B1C0A1C1A7000231800BD46CB
:101CDC0002B080BD80B586B000AFB9607A600F23CA
:101CEC00FB18021C1A7017217B1801221A707B1822
:101CFC001B781800BD4606B080BD80B584B000AF1F
:101D0C0078607B689B8B002B15D07B68998A7B68ED
:101D1C00DA8B0E203B188A1A1A807B689B8B3A1838
:101D2C0012889A4207D37B68180000F008F87B6889
:101D3C009A8A7B68DA83C046BD4604B080BD90B5F4
:101D4C0087B000AF78600C243B1918000C231A00E4
:101D5C00002108F012F97B681B7C5BB21BB2E022FD
:101D6C00D20013431BB29AB23B191A803B190122C1
:101D7C009A707B685B7C022B08D0032B0BD0012B59
:101D8C000ED10C23FB187F22DA700BE00C23FB180E
:101D9C000522DA7006E00C23FB180422DA7001E04D
:101DAC00012307E00C23FA187B6811001800FFF7D9
:101DBC00C9FD03001800BD4607B090BD80B586B0C4
:101DCC0000AFF860B9607A6017217B1801221A7095
:101DDC007B181B781800BD4606B080BD80B586B058
:101DEC0000AFF860B9607A6017217B1801221A7075
:101DFC007B181B781800BD4606B080BD80B584B03A
:101E0C0000AF78600023FB6039E07A68FB681B0147
:101E1C00D3183C331B88002B2DD17A68FB681B012F
:101E2C00D31838331B88002B26D07B68998A7A68A4
:101E3C00FB681B01D3183A331A880A203B188A1AFC
:101E4C001A807A68FB681B01D31838331B883A1840
:101E5C0012889A4210D3FA687B681100180000F0BF
:101E6C0015F87B68998A7A68FB681B01D3183A339A
:101E7C000A1C1A8000E0C046FB680133FB60FB685B
:101E8C00032BC2D9C046BD4604B080BDB0B588B0E6
:101E9C0000AF786039601F23FB1801221A700C23E5
:101EAC00FB1818000C231A00002108F066F87B6858
:101EBC005B7C022B01D0012372E03B68002B02DB20
:101ECC003B68042B01DD01236AE03A687B68110052
:101EDC00180002F0DBF9031E5FD13B68022B11D016
:101EEC0002DC012B05D028E0032B14D0042B1BD0D3
:101EFC0023E00C23FB18C02252001A807B68383375
:101F0C00BB611AE00C23FB18A02292001A807B689C
:101F1C004833BB6111E00C23FB18E02292001A80BD
:101F2C007B685833BB6108E00C23FB189022D2006D
:101F3C001A807B686833BB61C046BB699B68002B09
:101F4C002BD0BB69DB68082B27D80C217B181B888E
:101F5C001AB27B681B7C5BB21BB213431BB29AB2E6
:101F6C007B181A80BB69DB68DAB208007B189A70A0
:101F7C00BB699968BB69DA6805003B180333180024
:101F8C0007F0F2FF1F23FC1828003A187B68110099
:101F9C001800FFF785FD030023701F23FB181B7827
:101FAC001800BD4608B0B0BD80B582B000AF7860F7
:101FBC007B6800229A627B6800225A627B6800224E
:101FCC00DA627B6800221A867B68322200219954DF
:101FDC007B6800229A86C046BD4602B080BD90B593
:101FEC0087B000AF786008243B1918000C231A0046
:101FFC00002107F0C2FF7B681B7C5BB21BB2B022D6
:10200C00D20013431BB29AB23B191A803B19082217
:10201C009A707B681B8EDAB23B191A717B681B8E27
:10202C001B0A9BB2DAB23B195A717B6832229A5C5A
:10203C003B199A717B68DB6A9B78022B11D0032BBE
:10204C0022D0012B3DD108217B184F22DA707B68FE
:10205C00DB6A5B681B787B617B69DAB27B18DA71AF
:10206C0031E008217B184B22DA707B68DB6A5B68F5
:10207C001B887B617B69DAB27B18DA717B691B0A7E
:10208C00DAB27B181A721EE008217B184322DA7030
:10209C007B68DB6A5B681B687B617B69DAB27B18E7
:1020AC00DA717B691B0ADAB27B181A727B691B0C1A
:1020BC00DAB27B185A727B691B0EDAB27B189A72F1
:1020CC0001E0012307E00823FA187B6811001800CF
:1020DC00FFF7E6FC03001800BD4607B090BDB0B595
:1020EC0088B000AFF8607A600B257B190A1C1A7057
:1020FC0010243B1918000C231A00002107F03DFF97
:10210C00FB681B7C5BB21BB2B022D20013431BB228
:10211C009AB23B191A803B1908229A70FB681B8EE5
:10212C00DAB23B191A71FB681B8E1B0A9BB2DAB22E
:10213C003B195A71FB6832229A5C3B199A713B1914
:10214C006022DA707B191B782B2B0ED02F2B02D030
:10215C00232B1CD03CE07B681B78FB61FB68DB6AA3
:10216C005B68FA69D2B21A7034E07B681B78FB6149
:10217C007B6801331B781B021A00FB699B18FB61FF
:10218C00FB68DB6A5B68FA6992B21A8022E07B68B2
:10219C001B78FB617B6801331B781B021A00FB69FF
:1021AC009B18FB617B6802331B781B041A00FB69CC
:1021BC009B18FB617B6803331B781B061A00FB69B9
:1021CC009B18FB61FB68DB6A5B68FA691A6001E0CB
:1021DC00012307E01023FA18FB6811001800FFF721
:1021EC005FFC03001800BD4608B0B0BD90B587B0C9
:1021FC0000AF78600C243B1918000C231A00002146
:10220C0007F0BBFE7B681B7C5BB21BB2B022D2001A
:10221C0013431BB29AB23B191A803B1908229A70CD
:10222C007B68DB6A9B78052B0DD0062B05D0042B25
:10223C0013D17B6808225A6217E07B68DB6A9A68C4
:10224C007B685A6211E07B68DB6A5B681800FDF7FB
:10225C0053FF02007B685A6207E0294A7B68110031
:10226C00180000F09EFA012345E07B682122012131
:10227C0099547B682022012199547B6800229A6230
:10228C000C217B184122DA707B681B8EDAB27B182A
:10229C001A717B681B8E1B0A9BB2DAB27B185A71BF
:1022AC007B6832229A5C7B189A717B685B6ADAB223
:1022BC007B18DA717B685B6A1B0ADAB27B181A72BC
:1022CC007B685B6A1B0CDAB27B185A727B685B6AA0
:1022DC001B0EDAB27B189A727B68FA2292009A86ED
:1022EC007B689A8A7B68DA867A187B6811001800FA
:1022FC00FFF7D6FB03001800BD4607B090BDC046E3
:10230C000000010690B58BB000AF78600A00FB1C92
:10231C001A7008243B1918000C231A00002107F02E
:10232C002CFEFB1C1B781B09DBB21A0001231A4084
:10233C001B23FB18511E8A411A707B68DB6A5B6891
:10234C007B617B681B7C5BB21BB2B022D200134357
:10235C001BB29AB23B191A803B1908229A707B68FF
:10236C00DB6A002B07D07B6820229B5C0122534048
:10237C00DBB2002B07D0494A7B681100180000F033
:10238C0010FA012385E07B6821229B5C1B22BA1882
:10239C0012789A4207D1424A7B681100180000F06B
:1023AC0000FA012375E07B681B22BA1821211278F0
:1023BC005A547B689A6A7B685B6A9A4207D3394A9B
:1023CC007B681100180000F0ECF9012361E07B68D8
:1023DC005A6A7B689B6AD31A072B0BD87B689A6A5C
:1023EC007B685B6AD31A07333B622723FB180122F5
:1023FC001A7005E000233B622723FB1800221A7099
:10240C000023FB6113E07B689B6A7A69D218FB6935
:10241C00013311780822BA18D3180A1CDA707B68B9
:10242C009B6A5A1C7B689A62FB690133FB613B6AAD
:10243C000722D21AFB699A42E5D81B23FB181B789A
:10244C001B01DAB23B6ADBB2DB18DBB21343DAB244
:10245C0027217B181B781343DAB20823FB18DA7098
:10246C007B181B78002B04D07B681800FFF79CFDB1
:10247C0007E07B68FA2292009A867B689A8A7B68CE
:10248C00DA860823FA187B6811001800FFF708FB9E
:10249C0003001800BD460BB090BDC04601000405FA
:1024AC00000003050500040580B586B000AF786018
:1024BC000C23FB1818000C231A00002107F05DFDFB
:1024CC007B68DB6A9B78042B0BD17B685B6A082BDF
:1024DC0007D9394A7B681100180000F062F9012312
:1024EC0065E07B68DB6A9B78062B0ED17B685A6AA9
:1024FC007B68DB6A9B689A4207D92F4A7B6811007C
:10250C00180000F04EF9012351E07B68DB6A9B78E0
:10251C00052B0FD17B685A6A7B68DB6A9B68013B91
:10252C009A4207D9244A7B681100180000F039F947
:10253C0001233CE07B682022002199547B682122F6
:10254C00012199547B6800229A627B681B7C5BB2E8
:10255C001BB2B022D20013431BB29AB20C217B18CF
:10256C001A807B1808229A707B186022DA707B68BC
:10257C001B8EDAB27B181A717B681B8E1B0A9BB2FE
:10258C00DAB27B185A717B6832229A5C7B189A718A
:10259C007B68FA2292009A867B689A8A7B68DA8634
:1025AC007A187B6811001800FFF77AFA03001800FC
:1025BC00BD4606B080BDC0460500040590B58DB083
:1025CC0000AFF8607A600B203B180A1C1A703B189D
:1025DC001B781B09DBB21A0001231A402B23FB18B2
:1025EC00511E8A411A703B181B7801221A402A236B
:1025FC00FB18511E8A411A703B181B785B08DBB222
:10260C001A00072313407B62FB68DB6A5B683B6242
:10261C00FB68DB6A002B04D0FB6820229B5C002B40
:10262C0007D04C4AFB681100180000F0BAF80123DF
:10263C008CE0FB6821229B5C2B22BA1812789A4200
:10264C0007D1454AFB681100180000F0AAF80123D5
:10265C007CE0FB682B22BA18212112785A54FB68B3
:10266C009B6A002B06D1FB685A6A3B6A0021180052
:10267C0007F083FCFB689A6A7B6AD31ADA1DFB6845
:10268C005B6A9A4207D9354AFB681100180000F0C2
:10269C0088F801235AE00023FB6210E0FB6A7A6899
:1026AC00D218FB689B6A396ACB1812781A70FB68CF
:1026BC009B6A5A1CFB689A62FB6A0133FB627B6A59
:1026CC000722D21AFB6A9A42E8D814243B19180044
:1026DC000C231A00002107F050FCFB681B7C5BB23A
:1026EC001BB2B022D20013431BB29AB221007B184A
:1026FC001A807B1808229A707B182022DA707B18BB
:10270C00DB785AB22B23FB181B781B015BB21343EB
:10271C005BB2DAB27B18DA702A23FB181B78002B19
:10272C0004D0FB681800FFF73FFC07E0FB68FA22B7
:10273C0092009A86FB689A8AFB68DA861423FA1848
:10274C00FB6811001800FFF7ABF903001800BD4639
:10275C000DB090BD01000405000003050500040543
:10276C0080B584B000AF78607B689B8E002B14D052
:10277C007B68998A7B68DA8E0E203B188A1A1A803D
:10278C007B689B8E3A1812889A4206D37B689A8A89
:10279C007B68DA867B6800229A86C046BD4604B008
:1027AC0080BD90B587B000AF786039600C243B19C0
:1027BC0018000C231A00002107F0DFFB7B681B7C40
:1027CC005BB21BB2B022D20013431BB29AB22100EF
:1027DC007B181A807B1808229A707B188022DA707A
:1027EC007B681B8EDAB27B181A717B681B8E1B0AF6
:1027FC009BB2DAB27B185A717B6832229A5C7B18D6
:10280C009A713B68DAB27B18DA713B681B0ADAB250
:10281C007B181A723B681B0CDAB27B185A723B6835
:10282C001B0EDAB20C007B189A727B681800FFF74B
:10283C00BBFB21007A187B6811001800FFF730F9F8
:10284C0003001800BD4607B090BD000090B585B0E0
:10285C0000AF786039600F23FB1801221A700E212B
:10286C007B183A6812781A700D203B187A18127877
:10287C000F218A431A703B181B78802B05D17B687B
:10288C001800FFF791FB0023FDE00D23FB181B78CC
:10289C00602B04D00D23FB181B78702B09D10E2351
:1028AC00FB181A787B6811001800FFF72BFD03004A
:1028BC00E9E00D23FB181B78002B04D00D23FB182B
:1028CC001B78102B0AD13B685A1C0E23FB18197865
:1028DC007B681800FFF772FE0300D4E03B680133FD
:1028EC001B781AB23B6802331B781B021BB21343D2
:1028FC001BB29AB27B681A863B68D9787B68322205
:10290C0099547B68198E7B6800221800FFF7F2F847
:10291C0002007B68DA627B68DB6A002B07D15C4AB9
:10292C007B6811001800FFF73CFF0123ABE07B68CC
:10293C00198E7B6832229A5C7B681800FFF7DAF8F4
:10294C0002007B68DA627B68DB6A002B07D1514A94
:10295C007B6811001800FFF724FF012393E03B680C
:10296C001B78402B20D17B68DB6A9B78042B09D029
:10297C007B68DB6A9B78062B04D07B68DB6A9B78D0
:10298C00052B08D10F23FC187B681800FFF72EFCD1
:10299C000300237074E00F23FC187B681800FFF70A
:1029AC001EFB030023706BE03B681B782F2B07D0BA
:1029BC003B681B782B2B03D03B681B78232B1DD13A
:1029CC007B68DB6ADB78012B0DD13B681A1D0F236A
:1029DC00FC180E23FB1819787B681800FFF77FFB97
:1029EC00030023704CE02C4A7B6811001800FFF7A1
:1029FC00D8FE0F23FB1801221A7041E03B681B78AC
:102A0C00212B39D17B68DB6ADB78012B29D13B6820
:102A1C0004331B781A007B685A627B685B6A3A68DD
:102A2C000532127812029A187B685A627B685B6ACC
:102A3C003A680632127812049A187B685A627B68DC
:102A4C005B6A3A680732127812069A187B685A62E7
:102A5C000F23FC187B681800FFF726FD030023707A
:102A6C000EE00D4A7B6811001800FFF79AFE0F2349
:102A7C00FB1801221A7003E00F23FB1801221A70B5
:102A8C000F23FB181B781800BD4605B090BDC0463F
:102A9C0000000206110009060200010680B584B090
:102AAC0000AF786039600F217B1801221A707B18F7
:102ABC001B781800BD4604B080BD80B582B000AF55
:102ACC0078607B681B681B0C3F2213401800BD46C6
:102ADC0002B080BD80B582B000AF78607B681B68A7
:102AEC001B0A7F2213401800BD4602B080BD80B582
:102AFC0082B000AF78607B681B687F22134018009F
:102B0C00BD4602B080BD80B582B000AF78607B68F6
:102B1C005B681B0CFF2213401800BD4602B080BD41
:102B2C0080B582B000AF78607B685B681B0A1F229F
:102B3C0013401800BD4602B080BD80B582B000AF16
:102B4C0078607B685B683F2213401800BD4602B07A
:102B5C0080BD000080B584B000AF78607B68DBB2CC
:102B6C001B09DBB21A1C9200D318DB18DAB27B6893
:102B7C00DBB20F210B40DBB2D318DBB29AB20E21C1
:102B8C007B181648844662441A807B181A88C8231E
:102B9C0059001000FDF73EFB0B009BB2002B12D02E
:102BAC000E23FB181B88032213409BB2002B0CD165
:102BBC000E23FB181B8864211800FDF72BFB0B0060
:102BCC009BB2002B01D0012300E000231A1C01232F
:102BDC001340DBB21800BD4604B080BDB207000044
:102BEC0090B58BB000AF786039600823FB181E4A93
:102BFC0013CA13C313CA13C300237B627B68DBB2F3
:102C0C001B09DBB21A1C9200D318DB18DAB27B68F2
:102C1C00DBB20F210B40DBB2D318DBB23B623B6A59
:102C2C00002B1CD03B6A122B19D83B6A5A1E082366
:102C3C00FB185200D35A1A007B6A9B187B623B6AC2
:102C4C00022B07D93B681800FFF784FF031E01D045
:102C5C00012300E000231A007B6A9B187B627B6ACD
:102C6C001800BD460BB090BDD8B1000890B585B02A
:102C7C0000AF78600023FB607B68DBB21B09DBB222
:102C8C001A1C9200D318DB18DAB27B68DBB20F2166
:102C9C000B40DBB2D318DBB2BB607B68982B1AD825
:102CAC00BA681300DB009B18DB009B189A009A187B
:102CBC00BB6801339B08D418BB6809491800FDF7A1
:102CCC0023FA0300E418BB6806491800FDF71CFA48
:102CDC000300E318FB60FB681800BD4605B090BD0F
:102CEC00F41A00009040020090B585B000AF386037
:102CFC0079600023FB60386879680D4A0023FDF782
:102D0C0079FB03000C00BB60BB680433072118007F
:102D1C00FDF780FA0B00FB60FB68002B02D0FB6810
:102D2C00DBB200E007231800BD4605B090BDC046DD
:102D3C0080510100F0B587B000AF002300243B6147
:102D4C007C61424B1800FFF7B8FE0300DBB21B118D
:102D5C00DBB20F221340DBB21A1C9200D318DB1823
:102D6C00DCB23A4B1800FFF7A8FE0300DBB20F22CF
:102D7C001340DBB2E318DBB21A0013001B019B1AE1
:102D8C001A01D21A13011A001300BB600023FB6056
:102D9C003B697C69B968FA685B1854413B617C619A
:102DAC002A4B1800FFF796FE0300DBB21B11DBB2B7
:102DBC000F221340DBB21A1C9200D318DB18DCB2C2
:102DCC00224B1800FFF786FE0300DBB20F221340E4
:102DDC00DBB2E318DBB21A0013001B019B1A9B0039
:102DEC003B6000237B603B697C6939687A685B18BF
:102DFC0054413B617C61154B1800FFF778FE0300D2
:102E0C00DBB21B11DBB20F221340DBB21A1C920097
:102E1C00D318DB18DCB20D4B1800FFF768FE03006B
:102E2C00DBB20F221340DBB2E318DBB21D00002330
:102E3C001E003B697C695B1974413B617C613B6999
:102E4C007C6918002100BD4607B0F0BD0028004089
:102E5C00F0B587B000AF002300243B617C61324B9E
:102E6C001800FFF750FE03001800FFF7FFFE0300E9
:102E7C00BB600023FB603B697C69B968FA685B182E
:102E8C0054413B617C61284B1800FFF749FE04005C
:102E9C00254B1800FFF737FE030019002000FFF741
:102EAC009FFE03003B6000237B603B697C693968B3
:102EBC007A685B1854413B617C611B4B1800FFF72F
:102ECC003CFE0300DBB21B11DBB20F221340DBB262
:102EDC001A1C9200D318DB18DCB2134B1800FFF746
:102EEC002CFE0300DBB20F221340DBB2E318DBB283
:102EFC00013B1D00DB171E003B697C695B197441AB
:102F0C003B617C61094A002338697969FDF796FABF
:102F1C0003000C003B617C613B697C69180021005B
:102F2C00BD4607B0F0BDC0460028004080510100EE
:102F3C0090B583B000AF002300243B607C60FFF7AA
:102F4C0087FF0A0001003B687C685B1854413B60BA
:102F5C007C60FFF7EFFE0A0001003B687C685B18A1
:102F6C0054413B607C603B687C6818002100BD4686
:102F7C0003B090BDF0B58BB000AF386079603868A5
:102F8C007968934A0023FDF735FA03000C00BB6106
:102F9C00BA696E23FF3319001000FDF7B5F8030072
:102FAC00FB61FB690A211800FDF7AEF80300DBB2E8
:102FBC001B01DCB2FB690A211800FDF72BF90B0091
:102FCC00DBB22343DBB21800FFF750FE03007B6239
:102FDC00BA697B6A9A4219D2FB69013BFB61FB69B6
:102FEC000A211800FDF790F80300DBB21B01DCB2DC
:102FFC00FB690A211800FDF70DF90B00DBB2234326
:10300C00DBB21800FFF732FE03007B62FB69DAB219
:10301C001423FB18DA70BA697B6AD31A0133BB61CB
:10302C00BB691D211800FDF76FF803000133FB612C
:10303C00FB690C2B00D90C23FB61FB690A211800DE
:10304C00FDF762F80300DBB21B01DCB2FB690A215D
:10305C001800FDF7DFF80B00DBB22343DBB21D00D9
:10306C001426BB19DB780A211800FDF74DF8030074
:10307C00DBB21B01DCB2BB19DB780A211800FDF7AF
:10308C00C9F80B00DBB22343DBB219002800FFF7B1
:10309C00A7FD03003B62BA693B6A9A4230D8FB69D0
:1030AC00013BFB61FB690A211800FDF72DF80300B9
:1030BC00DBB21B01DCB2FB690A211800FDF7AAF890
:1030CC000B00DBB22343DBB21D001426BB19DB78EB
:1030DC000A211800FDF718F80300DBB21B01DCB263
:1030EC00BB19DB780A211800FDF794F80B00DBB252
:1030FC002343DBB219002800FFF772FD03003B628B
:10310C00FB69DAB214217B185A70BA693B6AD31A7C
:10311C00FB61FB69DAB20D007B189A703B687C6826
:10312C0018002100FFF7E0FD03001A0029007B18AE
:10313C001A707B1827481A00002106F0BFF839686E
:10314C007A6A3B6AD218FB69D21813005B009B1891
:10315C001A01D21A13019B1ADB015B42CB181C4AD1
:10316C0094466344FB61FA69E12319011000FCF7F2
:10317C00CBFF0300DAB20C243B191A71FA69E12374
:10318C0019011000FDF746F80B00FB61FB693C21AF
:10319C001800FCF7B9FF0300DAB23B195A71FB694E
:1031AC003C211800FDF736F80B00FB61FB69DAB225
:1031BC003B199A713B1900221A603B1905481A00F9
:1031CC00002105F0E7FEC046BD460BB0F0BDC04681
:1031DC00805101000028004080B500AF184B194AFF
:1031EC001A60174B20225A60154B00229A60144B20
:1031FC000022DA60124BA022D2021A61104B8022FC
:10320C00D2035A610E4B00221A760D4B00225A76CD
:10321C000B4B00229A760A4B0022DA76084B0022DE
:10322C001A77074B00225A77054B180001F08CFCDB
:10323C00031E01D001F082F8C046BD4680BDC046D9
:10324C00500300200064004080B58AB000AF786065
:10325C001423FB18180014231A00002106F08DFE0D
:10326C007B681B68204A93423AD1204BDA691F4B8A
:10327C00802189040A43DA611C4BDA6980239B04A0
:10328C0013403B613B69194B5A69184B8021C902A9
:10329C000A435A61154B5A698023DB021340FB60C9
:1032AC00FB6814217B18C02292001A607B18022242
:1032BC005A607B1800229A607B180322DA607B1814
:1032CC0004221A617B180A4A1900100002F01CFF34
:1032DC00002200211E2002F087FE1E2002F0A4FE18
:1032EC00C046BD460AB080BD0064004000100240DC
:1032FC000004004880B582B000AF786039607B680C
:10330C0020229B5CDBB2022B01D1002315E00D4B7C
:10331C0018683A6813005B009B189B001900FCF7B7
:10332C00F3FE03001A007B685A607B68180001F0FA
:10333C000BFC03005A425341DBB21800BD4602B0ED
:10334C0080BDC0462C00002080B582B000AF7860F4
:10335C007B6820229B5CDBB2022B08D17B681800B7
:10336C0002F000F803005A425341DBB200E00123A3
:10337C001800BD4602B080BD80B58EB000AF78603D
:10338C000C217B1800225A617B1800229A617B1851
:10339C000122DA617B1800221A607B1800225A6025
:1033AC007B1800229A607B180022DA607B180022BE
:1033BC001A617B1801221A627B180E225A627A1843
:1033CC007B681100180001F013FE03001A0037206F
:1033DC003B1851424A411A703B181B78002B0CD0F9
:1033EC00114A7B681100180002F002FB03001A005E
:1033FC003723FB1851424A411A703723FB181B78AC
:10340C00002B0AD07B68180001F066FF03001A003D
:10341C003723FB1851424A411A703723FB181B788B
:10342C001800BD460EB080BD1380000080B582B080
:10343C0000AF7860396039683B6818331A000D4B5F
:10344C00786801F0DBFF031E0ED07B681800FFF7D5
:10345C007BFF7B681800FFF78FFF074B1B685A1C1C
:10346C00054B1A60002300E001231800BD4602B092
:10347C0080BDC04618020020A403002080B582B095
:10348C0000AF7860204B1B685A1C1F4B1A607B687E
:10349C005A6A80235B01134004D07B680121180019
:1034AC0002F0ECF87B685A6A8023DB01134004D0ED
:1034BC007B680221180002F0E1F87B685A6A8023CD
:1034CC005B02134004D07B680421180002F0D6F88C
:1034DC007B685A6AFF235B0013400CD07B68180092
:1034EC00FFF732FF7B681800FFF746FF074B1B689E
:1034FC005A1C064B1A607B68180002F09CFCC046F4
:10350C00BD4602B080BDC0467C030020A403002051
:10351C0080B582B000AF7860044B1B685A1C034B1B
:10352C001A60C046BD4602B080BDC046780300207C
:10353C0080B582B000AF7860044B1B685A1C034BFB
:10354C001A60C046BD4602B080BDC046780300205C
:10355C0080B582B000AF7860044B1B685A1C034BDB
:10356C001A60C046BD4602B080BDC046780300203C
:10357C0080B582B000AF78600E4B0F4A786800219E
:10358C0002F00AF9031E11D10C4B1B680A4A1100F8
:10359C00180000F06BFA084A094B11001800FEF7EE
:1035AC0085F9084B1B685A1C064B1A60C046BD4671
:1035BC0002B080BD9C03002080030020340000205A
:1035CC007C020020A803002080B582B000AF786098
:1035DC000E4B0F4A7868012102F0DEF8031E11D160
:1035EC000C4B1B680A4A1100180000F03FFA084AFD
:1035FC00094B11001800FEF759F9084B1B685A1CAF
:10360C00064B1A60C046BD4602B080BD9C0300202C
:10361C0080030020340000207C020020A80300203E
:10362C0080B586B000AF786008001100BB1C021C8E
:10363C001A807B1C0A1C1A7000237B615BE03549E5
:10364C007A6913005B009B189B005B5ABA1C1288AA
:10365C009A424DD12F497A6913005B009B189B004D
:10366C00CB1802331B78072B33D12A497A69130004
:10367C005B009B189B00CB1804331B68FB60FB683A
:10368C005A680B23FB1812781A7001233B6119E05E
:10369C003A6913005B009B189B001A00FB689B188F
:1036AC001A887B1C1B789BB29A4208D13A6913008A
:1036BC005B009B189B001A00FB689B1826E03B697B
:1036CC0001333B610B23FB181B783A699A42DFDB11
:1036DC000EE07B1C1B78002B08D17A6913005B0071
:1036EC009B189B001A000B4BD3180FE000230DE026
:1036FC007B6901337B6107497A6913005B009B1876
:10370C009B005B5A044A934299D100231800BD4692
:10371C0006B080BDB4B40008FFFF000090B58BB0BC
:10372C0000AF14243B19180014231A00002106F0D2
:10373C0024FC634B5A69624B802109030A435A618A
:10374C005F4B5A6980231B0313403B613B695C4B05
:10375C005A695B4B8021C9030A435A61584B5A6919
:10376C008023DB031340FB60FB68554B5A69544BB9
:10377C00802189020A435A61514B5A6980239B026A
:10378C001340BB60BB684E4B5A694D4B8021C9023C
:10379C000A435A614A4B5A698023DB0213407B600F
:1037AC007B68474B5A69464B802149030A435A614F
:1037BC00434B5A6980235B0313403B603B68902367
:1037CC00DB0500222021180002F0DCFE3B198022D0
:1037DC0092011A603B193B4A5A603B1900229A60CD
:1037EC003B19394A1900100002F08EFC3B19374A7C
:1037FC001A603B1903225A603B1900229A603B194C
:10380C00314A1900100002F07FFC3B19304A1A6053
:10381C003B1903225A603B1900229A603A199023F3
:10382C00DB051100180002F06FFC3B1920221A6016
:10383C003B1901225A603B1900229A603B19002265
:10384C00DA603A199023DB051100180002F05CFCD9
:10385C0021007B181F4A1A607B1803225A607B18C0
:10386C0000229A600C007B181B4A1900100002F011
:10387C004BFC21007B1804221A607B1803225A602F
:10388C007B1800229A600C007B18144A1900100057
:10389C0002F03AFC21007B18802212011A607B187E
:1038AC0003225A607B1800229A607B180C4A19007C
:1038BC00100002F029FCC046BD460BB090BDC046BE
:1038CC00001002400000211000080048FF1F0000FB
:1038DC00D39F0000FFFC000000040048000C0048CF
:1038EC000014004880B500AF074B1B889BB2013316
:1038FC0006491800FCF778FD0B009AB2024B1A80AF
:10390C00C046BD4680BDC046AC03002060EA000046
:10391C0080B582B000AF0200FB1D1A70FB1DFA1DB2
:10392C0012780F210A401A70FB1D1B78092B04D941
:10393C00FB1D1B783733DBB203E0FB1D1B783033E8
:10394C00DBB21800BD4602B080BD80B582B000AFBE
:10395C000200FB1D1A70FB1D1B782F2B08D9FB1DB9
:10396C001B78392B04D8FB1D1B78303BDBB21AE0DB
:10397C00FB1D1B78602B08D9FB1D1B78662B04D80C
:10398C00FB1D1B78573BDBB20DE0FB1D1B78402B5E
:10399C0008D9FB1D1B78462B04D8FB1D1B78373B25
:1039AC00DBB200E0FF231800BD4602B080BD000072
:1039BC0080B584B000AF78607B681800FDF748F8DC
:1039CC000300532B04D17B6801211800FCF77EFE09
:1039DC007B681800FDF758F803001800FFF7B5FFD7
:1039EC000300082B1FD89A00154BD3181B689F4651
:1039FC00144BFB6019E0144BFB6016E0134BFB609F
:103A0C0013E0134BFB6010E0124BFB600DE0124B0C
:103A1C00FB600AE0114BFB6007E0114BFB6004E01C
:103A2C00104BFB6001E0002306E0FA680E4B11001E
:103A3C001800FFF75FFC03001800BD4604B080BD02
:103A4C00E4B4000810270000204E000050C3000012
:103A5C00A086010048E8010090D0030020A10700D7
:103A6C0000350C0040420F005003002080B584B09C
:103A7C0000AF786039603B681B695B00624A127862
:103A8C009B18053301D0042300E00123BB607B6845
:103A9C001800FCF748FF0200BB68934201D90023D1
:103AAC00ADE07B6874211800FDF735F83B681B68A6
:103ABC001B0ADBB21800FFF72BFF03001A007B6810
:103ACC0011001800FDF727F83B681B681B09DBB2D7
:103ADC001800FFF71DFF03001A007B681100180087
:103AEC00FDF719F83B681B68DBB21800FFF710FFF5
:103AFC0003001A007B6811001800FDF70CF83B68F6
:103B0C001B69DBB21800FFF703FF03001A007B6888
:103B1C0011001800FCF7FFFF0023FB6022E03A685D
:103B2C00FB68D3181C331B781B09DBB21800FFF79A
:103B3C00EFFE03001A007B6811001800FCF7EBFF86
:103B4C003A68FB68D3181C331B781800FFF7E0FEAB
:103B5C0003001A007B6811001800FCF7DCFFFB68FF
:103B6C000133FB603B681A69FB689A42D7D8264B35
:103B7C001B78002B3DD0254B1B889BB21B0B9BB29B
:103B8C00DBB21800FFF7C4FE03001A007B681100BB
:103B9C001800FCF7C0FF1D4B1B889BB21B0A9BB285
:103BAC00DBB21800FFF7B4FE03001A007B681100AB
:103BBC001800FCF7B0FF154B1B889BB21B099BB27E
:103BCC00DBB21800FFF7A4FE03001A007B6811009B
:103BDC001800FCF7A0FF0D4B1B889BB2DBB2180042
:103BEC00FFF796FE03001A007B6811001800FCF723
:103BFC0092FF7B680D211800FCF78DFF0123180044
:103C0C00BD4604B080BDC0461C020020AC030020A1
:103C1C0080B584B000AF786039607B681800FCF721
:103C2C0017FF0300742B04D17B6801211800FCF7EB
:103C3C004DFD7B6800211800FCF7DBFE030018002B
:103C4C00FFF783FE0300FF2B17D07B6801211800C0
:103C5C00FCF7CFFE03001800FFF777FE0300FF2BE5
:103C6C000BD07B6802211800FCF7C3FE0300180080
:103C7C00FFF76BFE0300FF2B01D10023A2E07B6852
:103C8C001800FCF701FF03001800FFF75EFE0300AD
:103C9C001B021A003B681A607B681800FCF7F4FEE4
:103CAC0003001800FFF751FE03001A013B681B6864
:103CBC009A183B681A607B681800FCF7E5FE030055
:103CCC001800FFF742FE03001A003B681B689A18A5
:103CDC003B681A607B681800FCF7D6FE03001800DE
:103CEC00FFF733FE03001A003B681A613B681B693F
:103CFC00082B01D9002365E00023FB6044E07B68BE
:103D0C0000211800FCF775FE03001800FFF71DFEDC
:103D1C000300FF2B0BD07B6801211800FCF769FE18
:103D2C0003001800FFF711FE0300FF2B01D1002345
:103D3C0048E07B681800FCF7A7FE03001800FFF7AB
:103D4C0004FE03001B01D9B23A68FB68D318183380
:103D5C000A1C1A707B681800FCF796FE030018000A
:103D6C00FFF7F3FD030019003A68FB68D31818330A
:103D7C001B78CB18D9B23A68FB68D31818330A1CD5
:103D8C001A70FB680133FB603B681A69FB689A4246
:103D9C00B5D87B681800FCF75BFE03000D2B01D037
:103DAC0000230FE03B680022DA603B6800229A6037
:103DBC003B6800225A603A68044B11001800FFF768
:103DCC0035FB03001800BD4604B080BD5003002035
:103DDC0080B58CB000AF786039600023FB62D2E014
:103DEC007B680D211800FCF7B6FD031E00D1CAE05C
:103DFC007B681800FCF72CFE0300433B332B00D9E7
:103E0C009EE09A00714BD3181B689F460C23FB183D
:103E1C006F4A03CA03C30723FB6298E06D490C2366
:103E2C00F8180323012206F0CBF80300FB628EE0A6
:103E3C00694B1800FFF788FA031E0CD0674B1B6800
:103E4C0000211800FDF716FA0C23FB180D221A702E
:103E5C000123FB627BE00C23FB1807221A70012361
:103E6C00FB6274E05C4B1800FFF786FA031E0CD063
:103E7C005A4B1B6801211800FDF7FCF90C23FB18A9
:103E8C000D221A700123FB6261E00C23FB18072240
:103E9C001A700123FB625AE0514A7B68110018002A
:103EAC00FFF7B6FE031E06D00C23FB180D221A706A
:103EBC000123FB624BE00C23FB1807221A70012331
:103ECC00FB6244E07B6801211800FCF792FD0300C3
:103EDC001800FFF73AFD031E02D0012B0AD013E0A5
:103EEC00404B00221A700C23FB180D221A70012370
:103EFC00FB6210E03B4B01221A700C23FB180D22C5
:103F0C001A700123FB6206E00C23FB1807221A70BF
:103F1C000123FB621BE01AE07B681800FFF748FDE9
:103F2C00031E06D00C23FB180D221A700123FB6212
:103F3C000DE00C23FB1807221A700123FB6206E02C
:103F4C000C23FB180D221A700123FB62C046FB6A7E
:103F5C00002B13D0FA6A0C23F9183B681800FCF7F5
:103F6C00F6FD0023FB627B680D211800FCF71EFD9B
:103F7C007B6801211800FCF7A9FB04E07B68012198
:103F8C001800FCF7A3FB7B681800FCF78CFC031EE5
:103F9C0000D025E73B681800FCF785FC031E10D009
:103FAC00114B180000F0B2FC03001A00012353401F
:103FBC00DBB2002B05D03A680B4B1100180000F057
:103FCC0082FCC046BD460CB080BDC04608B500089A
:103FDC00F0B10008F8B100085003002028000020C0
:103FEC00300300201C020020D828002090B591B08E
:103FFC0002AF00F005FD00F097F8FA23DB00180083
:10400C0000F062FDFFF78AFB00F0ACFBFFF7E4F871
:10401C0000F004FA394B002418002100FEF7AAFF27
:10402C00374B1C6838009023D905012300930123DA
:10403C002022FDF739F83A00230013CA13C313CA20
:10404C0013C313CA13C303CA03C32E4B1C68380013
:10405C0080239A012C49012300930023FCF7AAFD2D
:10406C003A00230013CA13C313CA13C313CA13C3CE
:10407C00264B1A68264B1100180000F00FFC254A3D
:10408C00254B11001800FDF7C5FB234B64221A7455
:10409C00214B02225A74204BFA2292009A8300235D
:1040AC007B630BE07B6BDBB2DB18D9B21B4A7B6BFF
:1040BC00D3180A1C1A707B6B01337B637B6B0B2B45
:1040CC00F0D900233B6309E03B6BD9B2144A3B6B3C
:1040DC00D3180A1C1A703B6B01333B633B6BFF2BF1
:1040EC00F2D90A4B1A680F4B1B6819001000FFF726
:1040FC006FFE094B1800FDF70FFBF2E770F46D38FB
:10410C002800002024000020000800483000002077
:10411C00D828002030B400087C020020C004002005
:10412C00B80300203400002090B599B000AF2C24C7
:10413C003B19180034231A00002105F01EFF1C2324
:10414C00FB18180010231A00002105F016FF3B0085
:10415C0018001C231A00002105F00FFF02F080FA52
:10416C00284B1A6A274B18210A431A6221007B1824
:10417C0005221A607B1801225A607B1801229A6072
:10418C007B1802225A627B18802252029A627B1898
:10419C00A0229203DA627B1801221A637B181800A2
:1041AC0002F06CFA031E01D000F0C8F81C217B1839
:1041BC0007221A607B1802225A607B1800229A6030
:1041CC007B180022DA607B180121180002F06CFFCA
:1041DC00031E01D000F0B2F83B000B4A1A603B0002
:1041EC000022DA603B00802252005A603B0018002B
:1041FC0003F062F9031E01D000F0A0F8C046BD46E2
:10420C0019B090BD001002400200010090B583B0BF
:10421C0000AF78607B685B7A5BB2012B16D10D4BDB
:10422C001C680C4B1B681800FDF781F80300022278
:10423C0064212000FDF73CF8074B01211800FDF725
:10424C0025FE054B02211800FDF720FEC046BD4699
:10425C0003B090BD280000207C02002090B583B0F4
:10426C0000AF7860084B1C68074B1B681800FDF703
:10427C005EF80300032296212000FDF719F8C046D2
:10428C00BD4603B090BDC0462800002090B585B057
:10429C0000AF786039600F23FB1801221A70FEF70B
:1042AC0047FE03000C00BB603B68012B22D1BB68AE
:1042BC00DAB21E4B1A70BB681B0ADAB21B4B5A706F
:1042CC00BB681B0CDAB2194B9A70BB681B0EDAB2C6
:1042DC00164BDA701649174B0422180005F044FEF1
:1042EC007B68124A1A647B6808225A640F23FB18F5
:1042FC0000221A703B68022B11D10F4A0C4B100094
:10430C0004330822190005F02FFE7B680A4A1A654F
:10431C007B6808225A650F23FB1800221A700F23A2
:10432C00FB181B781800BD4605B090BDB0030020EB
:10433C00C0040020B4030020B804002080B500AFF6
:10434C009023DB052021180002F05CF9962000F088
:10435C00BBFBF5E780B582B000AF78603960C04632
:10436C00BD4602B080BD000080B582B000AF786061
:10437C0039607B681B69054A1A403B681B041A4369
:10438C007B681A61C046BD4602B080BDFFFF80FF4E
:10439C0080B582B000AF786039607B681B69DB0B3D
:1043AC00DA033B681A437B681A61C046BD4602B00B
:1043BC0080BD90B585B000AFF860B9607A6000241C
:1043CC00FB6850331C00BB689B00E41823007A6820
:1043DC001A60C046BD4605B090BD90B583B000AF25
:1043EC007860396000247B6850331C003B689B006C
:1043FC00E41823001B681800BD4603B090BD0000F4
:10440C0080B500AF044B1A6A034B802109020A43A2
:10441C001A62C046BD4680BD0010024090B58DB0FA
:10442C0000AF24243B1918000C231A00002105F0BE
:10443C00A4FD1C23FB18180008231A00002105F00A
:10444C009CFD1823FB1800221A603B1D1800142336
:10445C001A00002105F091FDFFF7D2FF3B19002255
:10446C001A603B197F225A603B19FF229A603B1954
:10447C002F4A1900100004F021FD2D4B7F2118004C
:10448C00FFF772FF2A4BFF211800FFF781FF284B23
:10449C0000211800FFF7A1FF0200264B9A4225D0FD
:1044AC001C217B180D221A717B1825225A717B183E
:1044BC0000229A717B181E481A00012104F06AFD33
:1044CC0018217B1802221A707B1809225A707B184B
:1044DC001422DA707B1816481A00012104F0EEFE43
:1044EC00144A134B00211800FFF763FF104B0021F7
:1044FC001800FFF772FF02000E4B9A4205D00D4ACE
:10450C000B4B00211800FFF754FF3B1D00229A6053
:10451C003B1D0022DA603B1D01221A743B1D04482E
:10452C001A00012105F03AF9C046BD460DB090BD08
:10453C0000280040F232000080B582B000AF0F4B73
:10454C009A690E4B01210A439A610C4B9B6901221B
:10455C0013407B607B68094BDA69084B8021490565
:10456C000A43DA61054BDA6980235B0513403B6033
:10457C003B68C046BD4602B080BDC046001002403C
:10458C0080B500AFC046BD4680BD80B500AFFEE72C
:10459C0080B500AFC046BD4680BD80B500AFC046FB
:1045AC00BD4680BD80B500AF00F072FAFFF79AF9F6
:1045BC000D4B1B681800FCF74FFC031E04D00A4B74
:1045CC001B681800FCF738FB084B1B681800FCF73D
:1045DC0009FE031E04D0054B1B681800FCF798FD60
:1045EC00C046BD4680BDC0462400002028000020E7
:1045FC0080B500AF034B180003F0CAFAC046BD46A5
:10460C0080BDC046D828002080B500AF034B1800F1
:10461C0001F028FAC046BD4680BDC04650030020BC
:10462C0080B586B000AFF860B9607A6000237B611A
:10463C000AE000E000BF0100BB685A1CBA60CAB2B5
:10464C001A707B6901337B617A697B689A42F0DB73
:10465C007B681800BD4606B080BD80B586B000AF43
:10466C00F860B9607A6000237B6109E0BB685A1C72
:10467C00BA601B78180000E000BF7B6901337B61D6
:10468C007A697B689A42F1DB7B681800BD4606B0FC
:10469C0080BD80B582B000AF786001235B4218000A
:1046AC00BD4602B080BD80B582B000AF7860396085
:1046BC003B68802292015A6000231800BD4602B06C
:1046CC0080BD80B582B000AF786001231800BD4674
:1046DC0002B080BD80B584B000AFF860B9607A607C
:1046EC0000231800BD4604B080BD000080B586B024
:1046FC0000AF7860144A154BD31A7B617B693B6120
:10470C00134B1B68002B02D1114B124A1A60104B31
:10471C001A687B68D3183A699A4207D205F0FAFBFB
:10472C0003000C221A6001235B4209E0084B1B6852
:10473C00FB60074B1A687B68D218054B1A60FB6844
:10474C001800BD4606B080BD0080002000080000A7
:10475C00700200207029002080B500AFC046BD4615
:10476C0080BD000080B500AF144B154A1A60134B86
:10477C00E12252025A60114B00229A600F4B002228
:10478C00DA600E4B00221A610C4B0C225A610B4B57
:10479C0000229A61094B0022DA61084B00221A624E
:1047AC00064B00225A62054B180003F015F8031E45
:1047BC0001D0FFF7C3FDC046BD4680BDD828002000
:1047CC000044004080B58AB000AF78601423FB1819
:1047DC00180014231A00002105F0CFFB7B681B681E
:1047EC00284A93424AD1284BDA69274B8021890207
:1047FC000A43DA61244BDA6980239B0213403B6144
:10480C003B69214B5A69204B802189020A435A612A
:10481C001D4B5A6980239B021340FB60FB681421DB
:10482C007B180C221A607B1802225A607B1800221B
:10483C009A607B180022DA607B1801221A617A18C0
:10484C009023DB051100180001F05EFC0022002112
:10485C001C2001F0C9FB1C2001F0E6FB0B4B186877
:10486C008023DA000A4B1900FBF7E3FF094B1868A9
:10487C0080239A01084B1900FBF7DBFFC046BD46AD
:10488C000AB080BD004400400010024030000020FF
:10489C00D824002034000020D804002080B584B037
:1048AC0000AF786039603B681800FBF784FF0300A9
:1048BC00FB60F9687B680122180003F0B1F8C04670
:1048CC00BD4604B080BD80B584B000AF786039605F
:1048DC003B681800FBF75CFF0300FB603B681800AB
:1048EC00FBF77CFF0300BB60BB689AB2F9687B687E
:1048FC00180003F027F8BB689AB23B681100180047
:10490C00FBF7E4FEC046BD4604B080BD80B582B066
:10491C0000AF78607B685B6F232B03D07B685B6F89
:10492C00212B01D1012300E000231A1C0123134089
:10493C00DBB21800BD4602B080BD000080B582B06D
:10494C0000AF78600C4B1B681800FBF734FF0300BA
:10495C001B780A2B05D0084B1B6801211800FBF7AC
:10496C00DFFE054B1A687B6811001800FFF796FFF5
:10497C00C046BD4602B080BD3000002080B582B07C
:10498C0000AF7860084B1B681800FBF78CFF031E08
:10499C0006D0054B1A687B6811001800FFF793FFCF
:1049AC00C046BD4602B080BD340000200D4885468F
:1049BC000D480E490E4A002302E0D458C45004336B
:1049CC00C4188C42F9D30B4A0B4C002301E0136042
:1049DC000432A242FBD3FFF7BFFE05F0A1FAFFF7AA
:1049EC0005FBFEE70080002000000020A400002052
:1049FC009CB60008A40000206C290020FEE70000F3
:104A0C0080B500AF074B1A68064B10210A431A6099
:104A1C00002000F009F8FFF78FFD00231800BD46B9
:104A2C0080BDC0460020024090B583B000AF7860D6
:104A3C00144B1C68144B1B781900FA239800FBF7D5
:104A4C0063FB030019002000FBF75EFB030018005A
:104A5C0001F006FB031E01D001230FE07B68032B42
:104A6C000BD8796801235B420022180001F0BCFAD4
:104A7C00064B7A681A60002300E001231800BD463B
:104A8C0003B090BD2C0000203C000020380000201A
:104A9C0080B500AF054B1B781A00054B1B68D2186C
:104AAC00034B1A60C046BD4680BDC0463C0000208A
:104ABC006429002080B500AF024B1B681800BD466E
:104ACC0080BDC0466429002080B584B000AF7860FA
:104ADC00FFF7F0FF0300BB607B68FB60FB680133F2
:104AEC0005D0094B1B781A00FB689B18FB60C0466D
:104AFC00FFF7E0FF0200BB68D31AFA689A42F7D8B6
:104B0C00C046BD4604B080BD3C00002080B500AF5F
:104B1C00024B1B681800BD4680BDC046ACF7FF1F9A
:104B2C0080B500AF024B1B681800BD4680BDC04667
:104B3C00B0F7FF1F80B500AF024B1B681800BD46D5
:104B4C0080BDC046B4F7FF1F80B584B000AF78605D
:104B5C007B68002B01D1012345E27B681B68C64AA8
:104B6C00934207D01E23FF331A00C44B11001800C8
:104B7C00FFF7F0FB7B681B7E002B0AD07B681B7E4B
:104B8C00012B06D08F235A00BC4B11001800FFF7E5
:104B9C00E1FB7B685B7E002B0BD07B685B7E012B83
:104BAC0007D02023FF331A00B44B11001800FFF775
:104BBC00D1FB7B689B7E002B0AD07B689B7E012BF4
:104BCC0006D090235A00AD4B11001800FFF7C2FB22
:104BDC007B68DB7E002B0BD07B68DB7E012B07D048
:104BEC002223FF331A00A54B11001800FFF7B2FB6C
:104BFC007B681B7F002B0AD07B681B7F012B06D0A8
:104C0C0091235A009D4B11001800FFF7A3FB7B6802
:104C1C005B7F002B0BD07B685B7F012B07D02423A1
:104C2C00FF331A00954B11001800FFF793FB7B68BC
:104C3C009B68002B18D07B689A688023DB059A420E
:104C4C0012D07B689A6880231B069A420CD07B6832
:104C5C009A68C0231B069A4206D092235A00874BAF
:104C6C0011001800FFF776FB7B68DB68002B19D06E
:104C7C007B68DA6880235B049A4213D07B68DA681D
:104C8C0080239B049A420DD07B68DA68C0239B0476
:104C9C009A4207D02623FF331A00784B11001800D4
:104CAC00FFF758FB7B681B69002B60D07B681A6987
:104CBC0080235B029A425AD07B681A6980239B023C
:104CCC009A4254D07B681A69C0239B029A424ED0F8
:104CDC007B681A698023DB029A4248D07B681A6988
:104CEC00A023DB029A4242D07B681A69C023DB0204
:104CFC009A423CD07B681A69E023DB029A4236D098
:104D0C007B681A6980231B039A4230D07B681A692E
:104D1C0090231B039A422AD07B681A69A0231B0399
:104D2C009A4224D07B681A69B0231B039A421ED086
:104D3C007B681A69C0231B039A4218D07B681A69D6
:104D4C00D0231B039A4212D07B681A69E0231B0301
:104D5C009A420CD07B681A69F0231B039A4206D046
:104D6C0093235A00454B11001800FFF7F3FA7B68A8
:104D7C005B69002B31D07B685A6980235B039A42B4
:104D8C002BD07B685A6980239B039A4225D07B6881
:104D9C005A69C0239B039A421FD07B685A698023AF
:104DAC00DB039A4219D07B685A69A023DB039A4231
:104DBC0013D07B685A69C023DB039A420DD07B6801
:104DCC005A69E023DB039A4207D02823FF331A00E9
:104DDC002A4B11001800FFF7BDFA7B685B68002BAB
:104DEC0005D07B685A688023DB009A4206D994234D
:104DFC005A00224B11001800FFF7ACFA7B682022F6
:104E0C009B5CDBB2002B03D17B681800FEF71CFA0D
:104E1C007B681B681A687B681B6802218A431A60CE
:104E2C00FFF748FE0300FB6013E0FFF743FE0200B0
:104E3C00FB68D31A0A2B0CD97B685B6A802292021E
:104E4C001A437B685A627B682022052199540123FE
:104E5C00C9E07B681B685B6802221340E5D17B6864
:104E6C001B681A687B681B6801210A431A60FFF7EC
:104E7C0021FE0300FB6017E00064004004B2000850
:104E8C00FFF718FE0200FB68D31A0A2B0CD97B68BB
:104E9C005B6A802292021A437B685A627B682022EA
:104EAC000521995401239EE07B681B685B680122F5
:104EBC001340E5D07B681B7E012B08D17B681B68F7
:104ECC001A687B681B6880210A431A6007E07B68BC
:104EDC001B681A687B681B6880218A431A607B6890
:104EEC005B7E012B08D17B681B681A687B681B688A
:104EFC0040210A431A6007E07B681B681A687B68CC
:104F0C001B6840218A431A607B689B7E012B08D169
:104F1C007B681B681A687B681B6820210A431A602F
:104F2C0007E07B681B681A687B681B6820218A4332
:104F3C001A607B68DB7E012B08D17B681B681A68C2
:104F4C007B681B6810218A431A6007E07B681B682A
:104F5C001A687B681B6810210A431A607B681B7FE8
:104F6C00012B08D17B681B681A687B681B680821B9
:104F7C000A431A6007E07B681B681A687B681B6829
:104F8C0008218A431A607B685B7F012B08D17B6800
:104F9C001B681A687B681B6804210A431A6007E0C7
:104FAC007B681B681A687B681B6804218A431A603B
:104FBC007B689A687B68DB681A437B681B691A43B9
:104FCC007B685B691A4311007B685B685A1E7B68BF
:104FDC001B680A43DA617B6800225A627B682022D4
:104FEC000121995400231800BD4604B080BDC04671
:104FFC0080B586B000AF786039607B681B687B61D8
:10500C0013203B187A682021525C1A703B181B78CD
:10501C00012B05D01323FB181B78022B00D03EE18B
:10502C003B681B68A44A934206D9D4239A00A34B2D
:10503C0011001800FFF78EF93B685B689E4A93429B
:10504C0005D99F4A9D4B11001800FFF783F93B6867
:10505C009B68994A934205D99A4A984B11001800BB
:10506C00FFF778F93B68DB68934A934205D9964A77
:10507C00924B11001800FFF76DF93B689B69002BF0
:10508C000AD03B689B69012B06D0D5239A008B4B29
:10509C0011001800FFF75EF93B68DB69002B09D0A3
:1050AC003B68DB69012B05D0884A844B1100180042
:1050BC00FFF750F93B681B69002B09D03B681B6953
:1050CC00012B05D0824A7D4B11001800FFF742F9E5
:1050DC003B681B6A002B09D03B681B6A012B05D06F
:1050EC007C4A764B11001800FFF734F93B685B697A
:1050FC000D2B06D9D7239A00704B11001800FFF71F
:10510C0029F97A6980239B00D35801221A43110094
:10511C007A6980239B00D1503B685B691F22134046
:10512C0001229A401300FB607A6987239B00D358B5
:10513C00FA68D2431A4011007A6987239B00D15038
:10514C003B68DB69002B29D17A6983239B00D358F8
:10515C00FA68D2431A4011007A6983239B00D1501C
:10516C003B68DB6818043B685B681B04190C3B68E4
:10517C005A6901437B694832D200D1503B689B6825
:10518C0019043B681B681B041A0C3B685B690A43D7
:10519C0079694833DB00CB1804331A603B68DB6950
:1051AC00012B28D17A6983239B00D258FB681A43C0
:1051BC0011007A6983239B00D1503B681B6818044B
:1051CC003B685B681B04190C3B685A6901437B699B
:1051DC004832D200D1503B689B6819043B68DB68AD
:1051EC001B041A0C3B685B690A4379694833DB0082
:1051FC00CB1804331A603B689B69002B0CD17A697D
:10520C0081239B00D358FA68D2431A4011007A6963
:10521C0081239B00D1500AE07A6981239B00D258EC
:10522C00FB681A4311007A6981239B00D1503B68BB
:10523C001B69002B0CD17A6985239B00D358FA6823
:10524C00D2431A4011007A6985239B00D1500AE0A1
:10525C007A6985239B00D258FB681A4311007A693E
:10526C0085239B00D1503B681B6A012B0AD17A69BC
:10527C0087239B00D258FB681A4311007A69872355
:10528C009B00D1507A6980239B00D3580122934311
:10529C0019007A6980239B00D150002307E07B68BA
:1052AC005B6A8022D2021A437B685A62012318007F
:1052BC00BD4606B080BDC046FFFF000004B200082A
:1052CC00510300005203000053030000550300007B
:1052DC00560300005703000080B584B000AF78601F
:1052EC007B6820229B5CDBB2012B2FD17B682022B8
:1052FC00022199547B681B681A687B681B68012122
:10530C008A431A60FFF7D6FB0300FB6013E0FFF73C
:10531C00D1FB0200FB68D31A0A2B0CD97B685B6AA1
:10532C00802292021A437B685A627B6820220521F4
:10533C009954012312E07B681B685B6801221340BF
:10534C00E5D17B6800225A62002307E07B685B6A28
:10535C00802212031A437B685A6201231800BD464F
:10536C0004B080BD80B584B000AF78607B6820222B
:10537C009B5CDBB2022B34D17B681B681A687B68A0
:10538C001B6801210A431A60FFF794FB0300FB60C2
:10539C0013E0FFF78FFB0200FB68D31A0A2B0CD922
:1053AC007B685B6A802292021A437B685A627B6834
:1053BC0020220521995401231BE07B681B685B6844
:1053CC0001221340E5D07B681B681A687B681B6858
:1053DC0002218A431A607B68202201219954002300
:1053EC0007E07B685B6A802252031A437B685A622F
:1053FC0001231800BD4604B080BD000080B588B004
:10540C0000AFF860B9607A603B601F23FB18FA6844
:10541C002021525C1A70FB681B689B68BB61BB68DF
:10542C009B68002B09D0BB689B68042B05D08B4A6A
:10543C008B4B11001800FEF78DFFBB68DB68002B4F
:10544C0009D0BB68DB68022B05D0864A844B11005F
:10545C001800FEF77FFFBB681B69082B05D9824A31
:10546C007F4B11001800FEF775FFBB689B68002B83
:10547C000BD1BB681B687D4A934211D97C4A784B8F
:10548C0011001800FEF766FF0AE0BB685B68794AFA
:10549C00934205D9784A724B11001800FEF75AFF57
:1054AC00BB681B7D002B0AD0BB681B7D012B06D073
:1054BC009923DA006A4B11001800FEF74BFF1F23EB
:1054CC00FB181B78012B05D01F23FB181B78022B14
:1054DC0000D0B7E0BA698023DB0413400AD1BA6963
:1054EC0080231B05134005D1BA6980235B0513404B
:1054FC0000D19EE0BB691B0E032213407B617B69CC
:10550C00022B08D9FB685B6A802212041A43FB68E1
:10551C005A6201239EE001227B699A403B681A6023
:10552C00BB689B68002B0CD1BB681B685905BB681A
:10553C00DA68FB681B6811437A6918321201D15082
:10554C000FE0BB685B68DA00BB689B681A4311000C
:10555C00BB68DA68FB681B6811437A691832120160
:10556C00D150FB681968BB681A697B6918331B0139
:10557C00CB1804331A60BB681B7D012B12D1FB685E
:10558C001A687B6918331B01D31804331A68FB683B
:10559C00196880235B001A437B6918331B01CB18F5
:1055AC0004331A607B6807331B781A067B68063352
:1055BC001B781B041A437B6805331B781B021A43A8
:1055CC007B6804331B781900FB6818680A437969F7
:1055DC00C6235B0009014118CB181A607B680333A2
:1055EC001B781A067B6802331B781B041A437B68F2
:1055FC0001331B781B021A437B681B781900FB686C
:10560C0018680A437969C4235B0009014118CB1857
:10561C001A60FB681B687A6918321201D258FB6851
:10562C001B68012111437A6918321201D1500023F1
:10563C0010E0FB685B6A802292031A43FB685A6293
:10564C00012307E0FB685B6A8022D2021A43FB68E5
:10565C005A6201231800BD4608B080BDBD0400008D
:10566C0004B20008BE040000BF040000FF070000E5
:10567C00C2040000FFFFFF1FC604000080B584B009
:10568C0000AF786039600F23FB187A682021525CD8
:10569C001A703B68072B05D9214A224B11001800C0
:1056AC00FEF758FE0F23FB181B78012B04D00F2399
:1056BC00FB181B78022B27D13B680122134007D023
:1056CC007B681B689A687B681B6880210A439A6018
:1056DC003B680222134008D07B681B689A687B6881
:1056EC001B68802109020A439A603B68042213401C
:1056FC0008D07B681B689A687B681B68802109044A
:10570C000A439A60002307E07B685B6A8022D2021E
:10571C001A437B685A6201231800BD4604B080BD51
:10572C002705000004B2000880B584B000AF786093
:10573C000023FB600B203B187A682021525C1A7006
:10574C003B181B78012B04D00B23FB181B78022B66
:10575C001DD17B681B689A688023DB04134002D040
:10576C00FB680133FB607B681B689A6880231B0510
:10577C00134002D0FB680133FB607B681B689A689E
:10578C0080235B05134002D0FB680133FB60FB6890
:10579C001800BD4604B080BD80B586B000AFF8607F
:1057AC00B9607A603B601723FB18FA682021525CC1
:1057BC001A70BB68002B09D0BB68012B06D0BA232A
:1057CC00DA008A4B11001800FEF7C4FD1723FB18F2
:1057DC001B78012B05D01723FB181B78022B00D04C
:1057EC00F8E0BB68002B0ED1FB681B68DB6803225A
:1057FC00134017D1FB685B6A802292031A43FB6843
:10580C005A620123EEE0FB681B681B6903221340FC
:10581C0008D1FB685B6A802292031A43FB685A62C8
:10582C000123DFE0FB681B68BA681B321201D358F6
:10583C0004221A407B689A607B689B68002B0BD112
:10584C00FB681B68BA681B321201D3585B0D5B05F1
:10585C005A0D7B681A600AE0FB681B68BA681B3239
:10586C001201D358DB08DB00DA087B685A60FB684E
:10587C001B68BA681B321201D35802221A407B688B
:10588C00DA60FB681A68BB681B331B01D31804333E
:10589C001B680F221A407B681A61FB681A68BB6888
:1058AC001B331B01D31804331B681B0AFF221A403D
:1058BC007B689A61FB681A68BB681B331B01D318A1
:1058CC0004331B681B0C1B041A0C7B685A61FB68A5
:1058DC001968BA68DC235B0012018A18D3181B689C
:1058EC00DAB23B681A70FB681968BA68DC235B0093
:1058FC0012018A18D3181B681A0A3B680133D2B2FA
:10590C001A70FB681968BA68DC235B0012018A18EC
:10591C00D3181B681A0C3B680233D2B21A70FB689E
:10592C001968BA68DC235B0012018A18D3181B684B
:10593C001A0E3B680333D2B21A70FB681968BA6846
:10594C00DE235B0012018A18D3181A683B680433F3
:10595C00D2B21A70FB681968BA68DE235B001201B8
:10596C008A18D3181B681A0A3B680533D2B21A700E
:10597C00FB681968BA68DE235B0012018A18D31819
:10598C001B681A0C3B680633D2B21A70FB68196894
:10599C00BA68DE235B0012018A18D3181B681A0E32
:1059AC003B680733D2B21A70BB68002B08D1FB6876
:1059BC001B68DA68FB681B6820210A43DA6007E081
:1059CC00FB681B681A69FB681B6820210A431A6173
:1059DC00002307E0FB685B6A8022D2021A43FB6853
:1059EC005A6201231800BD4606B080BD04B20008FF
:1059FC0080B584B000AF786039600F23FB187A68EB
:105A0C002021525C1A703B68144A934206D9CC236D
:105A1C00DA00134B11001800FEF79CFC0F23FB1847
:105A2C001B78012B04D00F23FB181B78022B09D1F8
:105A3C007B681B6859697B681B683A680A435A6122
:105A4C00002307E07B685B6A8022D2021A437B68E2
:105A5C005A6201231800BD4604B080BD7F8F03003D
:105A6C0004B2000880B58AB000AF786000237B6276
:105A7C007B681B685B693B627B681B685B68FB61CE
:105A8C007B681B689B68BB617B681B68DB687B6100
:105A9C007B681B681B693B617B681B689B69FB60AF
:105AAC003B6A0122134000D184E0BB690122134000
:105ABC0024D07B681B6801229A60BB6902221340C8
:105ACC0004D07B681800FDF723FD17E0BB690422A6
