:020000040800F2
:100000000080002065600008015C00080B5C0008AF
:1000100000000000000000000000000000000000E0
:10002000000000000000000000000000115C00085B
:1000300000000000000000001B5C0008255C0008B8
:10004000B5600008B5600008B5600008B56000083C
:10005000B5600008B5600008B5600008B56000082C
:10006000B5600008B5600008B5600008B56000081C
:10007000B5600008B5600008B5600008B56000080C
:10008000B5600008B5600008B5600008B5600008FC
:10009000B5600008B5600008B5600008B5600008EC
:1000A000B5600008B5600008B5600008B5600008DC
:0C00B0006D5C0008B5600008855C00086D
:1000BC0010B5064C2378002B07D1054B002B02D032
:1000CC00044800E000BF0123237010BDA0000020F5
:1000DC000000000010C80008044B10B5002B03D022
:1000EC000349044800E000BF10BDC04600000000FA
:1000FC00A400002010C800080023C25C0133002AB1
:10010C00FBD1581E70470000002243088B4274D369
:10011C0003098B425FD3030A8B4244D3030B8B42FC
:10012C0028D3030C8B420DD3FF22090212BA030C05
:10013C008B4202D31212090265D0030B8B4219D3E6
:10014C0000E0090AC30B8B4201D3CB03C01A524106
:10015C00830B8B4201D38B03C01A5241430B8B424E
:10016C0001D34B03C01A5241030B8B4201D30B0337
:10017C00C01A5241C30A8B4201D3CB02C01A52415E
:10018C00830A8B4201D38B02C01A5241430A8B4221
:10019C0001D34B02C01A5241030A8B4201D30B020A
:1001AC00C01A5241CDD2C3098B4201D3CB01C01A24
:1001BC00524183098B4201D38B01C01A524143092E
:1001CC008B4201D34B01C01A524103098B4201D31C
:1001DC000B01C01A5241C3088B4201D3CB00C01A89
:1001EC00524183088B4201D38B00C01A5241430801
:1001FC008B4201D34B00C01A5241411A00D2014626
:10020C00524110467047FFE701B5002000F0F0F8AE
:10021C0002BDC0460029F7D076E7704703460B4372
:10022C007FD4002243088B4274D303098B425FD3E3
:10023C00030A8B4244D3030B8B4228D3030C8B420F
:10024C000DD3FF22090212BA030C8B4202D31212F5
:10025C00090265D0030B8B4219D300E0090AC30BCA
:10026C008B4201D3CB03C01A5241830B8B4201D377
:10027C008B03C01A5241430B8B4201D34B03C01A60
:10028C005241030B8B4201D30B03C01A5241C30AD8
:10029C008B4201D3CB02C01A5241830A8B4201D349
:1002AC008B02C01A5241430A8B4201D34B02C01A33
:1002BC005241030A8B4201D30B02C01A5241CDD2D8
:1002CC00C3098B4201D3CB01C01A524183098B4223
:1002DC0001D38B01C01A524143098B4201D34B010C
:1002EC00C01A524103098B4201D30B01C01A52416F
:1002FC00C3088B4201D3CB00C01A524183088B42F6
:10030C0001D38B00C01A524143088B4201D34B00DE
:10031C00C01A5241411A00D2014652411046704750
:10032C005DE0CA0F00D04942031000D34042534055
:10033C0000229C4603098B422DD3030A8B4212D315
:10034C00FC22890112BA030A8B420CD38901921147
:10035C008B4208D3890192118B4204D389013AD084
:10036C00921100E08909C3098B4201D3CB01C01A59
:10037C00524183098B4201D38B01C01A524143096C
:10038C008B4201D34B01C01A524103098B4201D35A
:10039C000B01C01A5241C3088B4201D3CB00C01AC7
:1003AC00524183088B4201D38B00C01A5241D9D2DF
:1003BC0043088B4201D34B00C01A5241411A00D260
:1003CC000146634652415B10104601D34042002B5C
:1003DC0000D54942704763465B1000D3404201B5DB
:1003EC00002000F005F802BD0029F8D016E7704790
:1003FC007047C046002B15D1002A13D1002906DB0B
:10040C0001DC002806D00020C043410802E0802116
:10041C000906002007B4024801A14018029003BD50
:10042C00D1FFFFFF03B4684601B5029800F030F825
:10043C00019B9E4602B00CBC7047C046F0B5CE4640
:10044C00474615042D0C2E0080B50704140C3F0CE8
:10045C009946030C7E435D43674363437F19340C19
:10046C00E4199C46A54203D980235B029846C444F8
:10047C004B4643435143250C36046544360C240447
:10048C00A4195B19591820000CBC90469946F0BD74
:10049C00F0B583B016001F000090019100F014F825
:1004AC0004000D0002000B0030003900FFF7C6FFFE
:1004BC00009A019B121A8B41089920000A604B602C
:1004CC00290003B0F0BDC046F0B54E465746DE4697
:1004DC004546E0B50F00002183B006008946002F89
:1004EC0006DA3900002746428F41012149428946EC
:1004FC00002B07DA4946C94310008946190000232E
:10050C0042428B4134003D0092469846BB4269D82A
:10051C0066D04146504600F0AFF8834639003000B3
:10052C0000F0AAF85B461B1A9C46203B9B4600D564
:10053C0075E05146584681400B005146604681405B
:10054C000A00BB4261D85ED034003D005946A41A63
:10055C009D41002900DA7AE000210020012600905C
:10056C00019159468E400196614601268E406146A6
:10057C000096002950D0D90756085F080E436346F1
:10058C000EE0AF4201D1A6420CD8A41BBD41012103
:10059C0024196D410022013B64185541002B06D0F3
:1005AC00AF42EED9013B24196D41002BF8D10098D4
:1005BC0001995B4600196941002B3DDB2E00DE40A2
:1005CC0063462C00DC405B46002B4BDB34005D4665
:1005DC00AC4023006446A6403200801A994103E0E7
:1005EC00B24296D9002000214B46002B04D00300C8
:1005FC000C0000215842A14103B03CBC90469946E6
:10060C00A246AB46F0BDB1429ED90021002000901D
:10061C00019161460029AED100980199E4E72023AD
:10062C00624651469B1AD94040460091614688402B
:10063C00030000990B4380E7624620239B1A2A0093
:10064C009A40260013006246D6401E43B8E7614626
:10065C0020260127761A00200021F74000900191F6
:10066C00019781E76746202362463500BC409B1A00
:10067C00DD4023002B43ADE710B5002903D100F07A
:10068C0007F8203002E0081C00F002F810BDC0464C
:10069C001C2101231B04984201D3000C10391B0AA6
:1006AC00984201D3000A08391B09984201D300096A
:1006BC00043902A2105C40187047C04604030202C1
:1006CC0001010101000000000000000080B582B0B3
:1006DC0000AF78607B68002B0DD07B6820229B5C80
:1006EC00DBB2012B07D07B68180006F091F9031ED2
:1006FC0003D1002302E0002300E001231800BD46D3
:10070C0002B080BD80B58EB000AF78607B68002BE6
:10071C003ED07B6820229B5CDBB2022B38D0204B76
:10072C007B630C217B1800225A617B1800229A6192
:10073C007B180122DA617B1800221A607B180022D8
:10074C005A607B1800229A607B180022DA607B18B2
:10075C0000221A617B1801221A627B180E225A623F
:10076C007A187B681100180005F098FF031E11D150
:10077C007A6B7B681100180006F090FC031E09D1FF
:10078C007B68180006F0FEF8031E03D1002303E07B
:10079C00002301E0C04601231800BD460EB080BD09
:1007AC001380000080B582B000AF786039607B6840
:1007BC00002B1BD07B6820229B5CDBB2012B15D15C
:1007CC000D4B18683A6813005B009B189B001900CE
:1007DC00FFF79AFC03001A007B685A607B681800CC
:1007EC0005F008FD031E01D1002300E001231800D1
:1007FC00BD4602B080BDC0462800002080B584B044
:10080C0000AF78607B680833180000F0A6FD030089
:10081C00FB607B681B68F9680122180008F056FC25
:10082C00031E01D1002300E001231800BD4604B0D3
:10083C0080BD80B582B000AF0200FB1D1A70FB1D9D
:10084C00FA1D12780F210A401A70FB1D1B78092B18
:10085C0004D9FB1D1B783733DBB203E0FB1D1B787F
:10086C003033DBB21800BD4602B080BD80B582B01B
:10087C0000AF0200FB1D1A70FB1D1B782F2B08D933
:10088C00FB1D1B78392B04D8FB1D1B78303BDBB2CE
:10089C001AE0FB1D1B78602B08D9FB1D1B78662BFF
:1008AC0004D8FB1D1B78573BDBB20DE0FB1D1B78FE
:1008BC00402B08D9FB1D1B78462B04D8FB1D1B783D
:1008CC00373BDBB200E0FF231800BD4602B080BD11
:1008DC0080B584B000AF786039607B68180000F098
:1008EC00A5FE0300742B00D0B7E03B6800221A7100
:1008FC003B6800225A717B680021180000F04BFE07
:10090C0003001800FFF7B2FF0300FF2B17D07B6822
:10091C000121180000F03FFE03001800FFF7A6FFAE
:10092C000300FF2B0BD07B680221180000F033FE74
:10093C0003001800FFF79AFF0300FF2B01D10123DE
:10094C0097E07B68180000F071FE03001800FFF7B9
:10095C008DFF03001B021A003B681A607B681800AD
:10096C0000F064FE03001800FFF780FF03001A017B
:10097C003B681B689A183B681A607B68180000F08B
:10098C0055FE03001800FFF771FF03001A003B68C7
:10099C001B689A183B681A607B68180000F046FECA
:1009AC0003001800FFF762FF03001A003B689A71FE
:1009BC003B689B79082B01D901235AE00023FB608B
:1009CC0044E07B680021180000F0E5FD03001800EE
:1009DC00FFF74CFF0300FF2B0BD07B6801211800A5
:1009EC0000F0D9FD03001800FFF740FF0300FF2BB8
:1009FC0001D101233DE07B68180000F017FE0300D5
:100A0C001800FFF733FF03001B01D9B23A68FB68EB
:100A1C00D31808330A1C1A707B68180000F006FE05
:100A2C0003001800FFF722FF030019003A68FB6867
:100A3C00D31808331B78CB18D9B23A68FB68D31893
:100A4C0008330A1C1A70FB680133FB603B689B7906
:100A5C001A00FB689342B4DB01E0012309E07B68D8
:100A6C00180000F0C7FD03000D2B01D1002300E09E
:100A7C0001231800BD4604B080BD000080B584B0D1
:100A8C0000AFF860B9607A60FB68BA681A60FB68FE
:100A9C007A685A60FB6808330F498022180000F00E
:100AAC009AFCFB681433180080235A010B4B190075
:100ABC0000F091FCFB682033180080231A01084BCE
:100ACC00190000F088FCFB681800FFF797FE002364
:100ADC001800BD4604B080BDBC0000203C010020C5
:100AEC003C110020B0B592B000AF786000237B645D
:100AFC007B681C6B05F034FB03009C4200D19CE12D
:100B0C0005F02EFB030099B27B681B6B9AB23E2357
:100B1C00FB188A1A1A8005F023FB02007B681A6303
:100B2C007B682C229B5C012B0FD17B689B8E1A005F
:100B3C003E23FB181B88D318C8491800FFF754FC38
:100B4C000B009AB27B689A8677E17B6800229A86C2
:100B5C0073E17B6808330D21180000F0CEFC031EF6
:100B6C0000D16AE17B680833180000F043FD0300F4
:100B7C00433B332B00D939E19A00B94BD3181B688E
:100B8C009F46B84AB8491C23FB1818000AF07CFD94
:100B9C0003007B6431E1B54AB3491C23FB181800F0
:100BAC000AF072FD03007B6427E17B6808330121A6
:100BBC00180000F05DFB7B680833180000F036FD70
:100BCC0003003D257C191800FFF750FE030023702D
:100BDC007B191B78082B13D87B6858683D23FB18AE
:100BEC001A78A34B9200D3581900FFF7DBFD031EB4
:100BFC0006D11C23FB180D221A7001237B64FCE028
:100C0C001C23FB1807221A7001237B64F5E07B6818
:100C1C005B681800FFF75AFD031E0AD17B681800A9
:100C2C0005F0D8F81C23FB180D221A7001237B64E5
:100C3C00E3E01C23FB1807221A7001237B64DCE021
:100C4C007B685B681800FFF75DFD031E0AD17B68AB
:100C5C00180005F0CFF81C23FB180D221A70012385
:100C6C007B64CAE01C23FB1807221A7001237B64E7
:100C7C00C3E07B6808330121180000F0F9FA7B68A7
:100C8C000833180000F0D2FC03001800FFF7EEFD4B
:100C9C00031E02D0012B0BD015E07B682C22002107
:100CAC0099541C23FB180D221A7001237B6411E04C
:100CBC007B682C22012199541C23FB180D221A70DD
:100CCC0001237B6406E01C23FB1807221A70012306
:100CDC007B6492E091E07B685B6820229B5CDBB2DA
:100CEC00022B00D07BE07B6808330C22BA18110071
:100CFC001800FFF7EDFD031E6AD17B6820331A0044
:100D0C000C243B191B791900100000F0D6FC7B68F1
:100D1C0020331A003B191B68DBB21900100000F0DD
:100D2C00CCFC7B6820331A003B191B681B0ADBB216
:100D3C001900100000F0C1FC7B6820331A003B192D
:100D4C001B681B0CDBB21900100000F0B6FC7B68B2
:100D5C0020331A003B191B681B0EDBB21900100064
:100D6C0000F0ABFC7B6820331A003B195B7919004F
:100D7C00100000F0A2FC7B6820331A003B199B7911
:100D8C001900100000F099FC00233B640EE07B6816
:100D9C00203318000C23FA183B6CD31808331B783B
:100DAC00190000F08AFC3B6C01333B640C23FB18EC
:100DBC009B791A003B6C9342E9DB7B68180000F0CE
:100DCC00ADF91C23FB180D221A7001237B6414E06F
:100DDC001C23FB1807221A7001237B640DE01C23D3
:100DEC00FB1807221A7001237B6406E01C23FB18F6
:100DFC000D221A7001237B64C0467B6C002B16D02D
:100E0C007B6814337A6C1C217918180000F071FC83
:100E1C0000237B647B6808330D21180000F098FBDD
:100E2C007B6808330121180000F022FA05E07B688A
:100E3C0008330121180000F01BFA7B6808331800F6
:100E4C0000F003FB031E00D083E67B68180000F063
:100E5C0038F800231800BD4612B0B0BD60EA00009F
:100E6C00B8CA000828C8000834C8000838C80008E8
:100E7C0094CA000880B584B000AFF860B9607A609D
:100E8C00FB68002B03D0FB689B68002B01D101236E
:100E9C0013E0FB680833180000F05FFA03001B78BE
:100EAC000A2B05D0FB6808330121180000F00AFA60
:100EBC00FB681800FFF7A2FC03001800BD4604B045
:100ECC0080BD80B584B000AF78607B68002B03D008
:100EDC007B685B69002B01D1012335E07B681433FF
:100EEC00180000F0B2FA031E01D100232CE07B683D
:100EFC001433180000F01EFA0300FB607B681433F7
:100F0C00180000F03DFA0300BB607B681B685B6F48
:100F1C00212B18D07B681B685B6F232B13D07B684D
:100F2C001B68BA6892B2F968180008F061F8031EE1
:100F3C0009D17B681433BA6892B21100180000F022
:100F4C0097F9002300E001231800BD4604B080BDD2
:100F5C0090B587B000AFF860B9607A6005233B614B
:100F6C00BB681B695A003B69D31801333B61FB68B2
:100F7C002C229B5C012B01D1042300E000233A6955
:100F8C00D3183B61FB681433180000F09EFA020082
:100F9C003B69934200D9BBE0FB6814337421180001
:100FAC0000F08BFBFB6814331C00BB681B681B0A2E
:100FBC00DBB21800FFF73DFC03001900200000F025
:100FCC007CFBFB6814331C00BB681B681B09DBB281
:100FDC001800FFF72EFC03001900200000F06DFB39
:100FEC00FB6814331C00BB681B68DBB21800FFF7EE
:100FFC0020FC03001900200000F05FFBFB68143399
:10100C001C00BB681B69DBB21800FFF712FC030065
:10101C001900200000F051FB00237B6122E0FB68EB
:10102C0014331C007B697A68D3181B781B09DBB25C
:10103C001800FFF7FEFB03001900200000F03DFB39
:10104C00FB6814331C007B697A68D3181B78180072
:10105C00FFF7EFFB03001900200000F02EFB7B696B
:10106C0001337B61BB681A697B699A42D7D8FB68EC
:10107C002C229B5C012B3DD1FB6814331C00FB68BC
:10108C009B8E1B0B9BB2DBB21800FFF7D2FB03004D
:10109C001900200000F011FBFB6814331C00FB68E6
:1010AC009B8E1B0A9BB2DBB21800FFF7C2FB03003E
:1010BC001900200000F001FBFB6814331C00FB68D6
:1010CC009B8E1B099BB2DBB21800FFF7B2FB03002F
:1010DC001900200000F0F1FAFB6814331C00FB68C7
:1010EC009B8EDBB21800FFF7A4FB03001900200055
:1010FC0000F0E3FAFB6814330D21180000F0DDFA60
:10110C007A68B968FB68180000F0A8F8002300E0C2
:10111C0001231800BD4607B090BD000090B58DB0FE
:10112C0000AF78607B682033180000F08EF9031E46
:10113C0000D182E07B685B68180005F04BFE031E53
:10114C0000D17AE07B682033180000F06FFA0300BE
:10115C001A0014243B199A607B682033180000F0A5
:10116C0065FA03001A003B191A607B6820331800DB
:10117C0000F05CFA03001A023B191B689A183B1921
:10118C001A607B682033180000F050FA03001A0430
:10119C003B191B689A183B191A607B68203318009E
:1011AC0000F044FA03001A063B191B689A183B1905
:1011BC001A603B191A683B195A607B682033180077
:1011CC0000F034FA03001A003B19DA607B68203314
:1011DC00180000F02BFA03001A003B191A610023C7
:1011EC00FB620FE07B682033180000F01FFA03004D
:1011FC0019000C23FA18FB6AD3180A1C1A70FB6A24
:10120C000133FB621423FB181A69FB6A9A42E9D872
:10121C007B6858680B4B0C22BA181421791805F00E
:10122C0043FC031E09D10C23FA181423F9187B680C
:10123C00180000F009F8002300E001231800BD4657
:10124C000DB090BD7419002080B584B000AFF8606B
:10125C00B9607A60C046BD4604B080BD80B584B02C
:10126C0000AFF860B9607A60C046BD4604B080BD7E
:10127C0080B582B000AF78600A00BB1C1A8010E009
:10128C007B68DB889BB25A1C7B689B88190010001A
:10129C00FFF7AAF80B009AB27B68DA807B68002211
:1012AC009A72BB1C1B88BA1C591E1180002B05D0CE
:1012BC007B68180000F0C9F8031EE1D1C046BD469A
:1012CC0002B080BD80B582B000AF78600A00BB1C54
:1012DC001A8024E07B681B899BB25A1C7B689B8814
:1012EC0019001000FFF780F80B009AB27B681A8186
:1012FC007B689B7ADBB2002B05D07B681B899AB28A
:10130C007B68DA800BE07B681B899AB27B68DB8890
:10131C009BB2D31A5A425341DAB27B689A72BB1C05
:10132C001B88BA1C591E1180002BD3D1C046BD4658
:10133C0002B080BD80B582B000AF78607B68002BB6
:10134C0006D07B681B687A68D28892B29B1800E042
:10135C0000231800BD4602B080BD80B582B000AF3E
:10136C0078607B68002B06D07B681B687A681289D2
:10137C0092B29B1800E000231800BD4602B080BD5D
:10138C0090B585B000AF78600023FB607B68002BC4
:10139C001CD07B681B687A6892889B181C007B6841
:1013AC001800FFF7C7FF0300E31AFB607B68180007
:1013BC0000F04BF80200FB68934205D37B681800E1
:1013CC0000F043F8030000E0FB68FB60FB681800CA
:1013DC00BD4605B090BD80B584B000AFF860B96073
:1013EC007A60FB68002B10D0BB68002B0DD07B689B
:1013FC00002B0AD0FB68BA681A607B689AB2FB684B
:10140C009A80FB68180000F004F8C046BD4604B092
:10141C0080BD80B582B000AF78607B68002B10D0A7
:10142C007B680022DA807B6800221A817B680022AC
:10143C009A727B6818687B689B881A0000210AF0F6
:10144C0001F9C046BD4602B080BD80B584B000AF86
:10145C0078600023FB607B68002B31D07B681B8994
:10146C009AB27B68DB889BB29A4209D97B681B894C
:10147C009BB21A007B68DB889BB2D31AFB601FE01F
:10148C007B681B899AB27B68DB889BB29A420CD230
:10149C007B689B881A007B68DB889BB2D31A7A68BE
:1014AC00128992B29B18FB600AE07B689B7ADBB2D4
:1014BC00002B03D07B689B88FB6001E00023FB6062
:1014CC00FB681800BD4604B080BD90B585B000AF78
:1014DC0078600023FB607B68002B09D07B689B88BD
:1014EC001C007B681800FFF7B0FF0300E31AFB60D9
:1014FC00FB681800BD4605B090BD80B584B000AF48
:10150C0078600A00FB1C1A700023FB600023BB6090
:10151C0011E0BA687B681100180000F03CF8030079
:10152C001A00FB1C1B78934202D1BB68FB600AE0DB
:10153C00BB680133BB607B681800FFF786FF0200B5
:10154C00BB689342E5D3FB681800BD4604B080BD70
:10155C0080B582B000AF78600A00FB1C1A700EE0F8
:10156C007B68180000F046F803001A00FB1C1B787F
:10157C0093420BD07B6801211800FFF779FE7B6842
:10158C001800FFF762FF031EEAD100E0C046C04618
:10159C00BD4602B080BD90B585B000AF78603960B3
:1015AC000F23FB1800221A707B68002B1BD07B6862
:1015BC001800FFF74AFF02003B68934213D27B6886
:1015CC001C687B68DB889BB21A003B68D2187B686E
:1015DC009B8819001000FEF71DFE0B00E2180F236C
:1015EC00FB1812781A700F23FB181B781800BD46D5
:1015FC0005B090BD80B584B000AF78600F23FB18A8
:10160C0000221A707B68002B09D07B681B687A68F3
:10161C00D28892B29A180F23FB1812781A700F23E3
:10162C00FB181B781800BD4604B080BD80B584B093
:10163C0000AF78600F23FB1800221A707B6818002B
:10164C00FFF703FF031E0ED07B681B687A68D288F5
:10165C0092B29A180F23FB1812781A707B6801212A
:10166C001800FFF705FE0F23FB181B781800BD466A
:10167C0004B080BD90B587B000AFF860B9607A60F7
:10168C0000237B610AE07B695A1C7A61BA68D41822
:10169C00FB681800FFF7CAFF03002370FB681800F3
:1016AC00FFF7D3FE031E03D07A697B689A42EAD314
:1016BC007B691800BD4607B090BD80B582B000AF05
:1016CC0078600A00FB1C1A707B68002B0DD07B68BD
:1016DC001B687A68128992B29B18FA1C12781A70DD
:1016EC007B6801211800FFF7EDFDC046BD4602B036
:1016FC0080BD80B586B000AFF860B9607A60002319
:10170C007B61FB68002B0FD00AE07B695A1C7A6165
:10171C00BA68D3181A78FB6811001800FFF7CDFFD0
:10172C007A697B689A42F0D37B691800BD4606B093
:10173C0080BD80B582B000AF786039607B681B6972
:10174C003A6813403A68D31A5A425341DBB2180034
:10175C00BD4602B080BD000090B58FB000AFF86000
:10176C00B9607A601A00FB1C1A7014210C007B18EB
:10177C00180024231A00002109F064FF21007B18B3
:10178C0006221A727B18402208208446BC4462440C
:10179C0012789A727B18FA1C12781A737B18BA6832
:1017AC001A617B187A685A617B1832229A617B180D
:1017BC00084ADA617B18084A1A62FB687A1813CA5D
:1017CC0013C313CA13C313CA13C3F868BD460FB0AF
:1017DC0090BDC046B80B00001027000080B584B047
:1017EC0000AF78607B68180000F024F90300FB6000
:1017FC007B68180000F035F903001A000B23FB1866
:10180C001A707B681B7A5BB2062B0DD17B681800B3
:10181C0000F027F9031E01D0052200E004227B68AA
:10182C001A727B68FF225A727B681B68FA689A42AC
:10183C0006D87B681A68FB68D21A7B681A6002E0CB
:10184C007B6800221A607B681B7A5BB2052B00D97F
:10185C00C3E09A00684BD3181B689F460B23FB18F8
:10186C001B785BB2012B07D17B6805221A727B684F
:10187C009A697B681A60B2E07B681B68002B00D009
:10188C00ADE07B6800221A727B685B7A5BB2002B3E
:10189C0000D1A4E07B68180004F0BCFA9FE00B2395
:1018AC00FB181B785BB2012B2DD17B681B68002BBE
:1018BC0031D17B685B7A5BB2022B0BD0032B11D03E
:1018CC00012B13D17B68DA697B681A607B68012273
:1018DC001A7221E07B681A6A7B681A607B680222A4
:1018EC001A7219E07B6803221A7215E07B68DA69B8
:1018FC007B681A607B6801221A727B68180000F002
:10190C00D9F8C04608E07B689A697B681A607B68E6
:10191C0000221A726CE0C0466AE00B23FB181B789D
:10192C005BB2012B5DD17B6800225A727B68052269
:10193C001A727B689A697B681A6052E00B23FB1859
:10194C001B785BB2012B0FD17B681B68002B4AD133
:10195C007B681A6A7B681A607B6802221A727B6841
:10196C00180004F0A5FA3EE07B6801225A727B68ED
:10197C0004221A727B689A697B681A6033E00B2325
:10198C00FB181B785BB2012B0BD17B681B68002BFF
:10199C002BD17B6803221A727B68180000F09CF82C
:1019AC0023E07B6802225A727B6804221A727B68DD
:1019BC009A697B681A6018E00B23FB181B785BB2E2
:1019CC00002B14D17B6803225A727B6804221A7292
:1019DC007B689A697B681A6009E0C04608E0C046DB
:1019EC0006E0C04604E0C04602E0C04600E0C04647
:1019FC00C046BD4604B080BD88CB000880B582B01F
:101A0C0000AF78607B685B69002B0AD07B681B6930
:101A1C00002B06D07B681B7A5BB2013301D001230B
:101A2C0000E000231A1C01231340DBB21800BD4652
:101A3C0002B080BD80B584B000AF786004F090FB3C
:101A4C000300FB607B685B68FA68D31ABB6004F028
:101A5C0087FB02007B685A60BB681800BD4604B067
:101A6C0080BD80B584B000AF78607B681B69002BAB
:101A7C001AD07B685B69002B16D07B681A697B686F
:101A8C005B6919001000FFF754FE02000F203B1891
:101A9C00511E8A411A703B181B787A68127B9B1A6C
:101AAC005A425341DBB200E000231800BD4604B09B
:101ABC0080BD000080B582B000AF78607B689B7AF7
:101ACC001A00044B1100180009F0C4FDC046BD46B5
:101ADC0002B080BD58C8000880B582B000AF7860F5
:101AEC007B689B7A1A00044B1100180009F0B2FDB8
:101AFC00C046BD4602B080BD8CC8000880B582B01F
:101B0C0000AF786039607B685B693A6813403A686B
:101B1C00D31A5A425341DBB21800BD4602B080BD05
:101B2C0080B582B000AF786039607B683A689A61A2
:101B3C00C046BD4602B080BD80B582B000AF7860B3
:101B4C0039607B683A689A62C046BD4602B080BD77
:101B5C0080B584B000AFF860B9607A603B60FB6818
:101B6C00180000F011F903001A0001235340DBB2F6
:101B7C00002B03D0FB68180000F03EF9FB6818003E
:101B8C0000F01EF903001A0001235340DBB2002BB6
:101B9C0054D0FB683A685A621823FB181B88294AF0
:101BAC00934203D11823FB181A8807E01823FB185B
:101BBC001B881C22BA18128853431A00FB689A62BD
:101BCC00FB687A689A61FB68BA68DA61FB685B6AE1
:101BDC000122134026D0FB68180000F07AF9031E8E
:101BEC0016D0FB689A6AFB689B6A17498C4663445B
:101BFC00591E8B41DBB2D218FB689A62FB689A695A
:101C0C00FB681A60FB680021180000F08AF912E0EA
:101C1C00FB68DA69FB681A60FB680121180000F0A8
:101C2C0080F908E0FB689A69FB681A60FB68002180
:101C3C00180000F076F9FB6802221A72C046BD4605
:101C4C0004B080BDFFFF00000100FFFF90B591B014
:101C5C0000AFF860B9607A601A00FB1C1A7014218E
:101C6C000C007B1818002C231A00002109F0EAFC48
:101C7C0021007B18482208208446BC446244127818
:101C8C005A727B18FA1C12781A737B18BA681A618C
:101C9C007B187A685A61FB687A1813CA13C313CA83
:101CAC0013C313CA13C303CA03C3F868BD4611B0E8
:101CBC0090BD000080B584B000AF78607B681800E0
:101CCC0000F0F0F80300FB607B681B68FA689A422E
:101CDC0006D87B681A68FB68D21A7B681A604DE0DC
:101CEC007B6800221A607B681B7A5BB2012B02D0E6
:101CFC00022B06D03CE07B680121180000F011F9A2
:101D0C003CE07B689B6A1F4A934204D07B689B6AC9
:101D1C005A1E7B689A627B689B6A002B1FD07B687B
:101D2C005B6A0122D3411A007B685A627B685B6A4A
:101D3C000122134009D07B68DA697B681A607B68E2
:101D4C000121180000F0EDF818E07B689A697B68B7
:101D5C001A607B680021180000F0E3F80EE07B6845
:101D6C0000221A727B680021180000F0DAF805E0F6
:101D7C007B680021180000F0D4F8C046C046BD4670
:101D8C0004B080BDFFFF000080B582B000AF78606A
:101D9C007B685B69002B0AD07B681B69002B06D023
:101DAC007B681B7A5BB2013301D0012300E0002376
:101DBC001A1C01231340DBB21800BD4602B080BDD3
:101DCC0080B582B000AF78607B685B69002B0AD06D
:101DDC007B681B69002B06D07B681B7A5BB2022BDD
:101DEC0001D1012300E000231A1C01231340DBB2B4
:101DFC001800BD4602B080BD80B582B000AF7860DF
:101E0C007B6800221A727B680021180000F089F8A8
:101E1C00C046BD4602B080BD80B582B000AF7860D0
:101E2C000A00FB1C1A707B6800221A607B68202257
:101E3C0000219954FB1C1B785AB27B681A72FB1C4C
:101E4C001A787B681100180000F06BF8C046BD468C
:101E5C0002B080BD90B587B002AFF860B9601900D0
:101E6C00BB1D1A807B1D0A1C1A70FB687A1D202171
:101E7C0012785A54BB1D1B88012B01D9BA6800E09B
:101E8C000122074CB968F86802230193BB1D1B881B
:101E9C0000932300FFF75CFEC046BD4605B090BD25
:101EAC005555555580B584B000AF786004F058F99D
:101EBC000300FB607B685B68FA68D31ABB6004F0B4
:101ECC004FF902007B685A60BB681800BD4604B02D
:101EDC0080BD80B584B000AF78607B681B69002B37
:101EEC001AD07B685B69002B16D07B681A697B68FB
:101EFC005B6919001000FFF701FE02000F203B1870
:101F0C00511E8A411A703B181B787A68127B9B1AF7
:101F1C005A425341DBB200E000231800BD4604B026
:101F2C0080BD80B584B000AF78600A00FB1C1A70CD
:101F3C007B681B69002B3FD07B685B69002B3BD017
:101F4C00FB1C1A787B681B7B19000F23FB18521A99
:101F5C0051424A411A707B6820229B5C002B0DD0A9
:101F6C000F23FB181B785A1E9341DBB201225340FE
:101F7C00DBB21A1C01231340DBB205E00F23FB1864
:101F8C001B785A1E9341DBB20F217A1813707B1801
:101F9C001B78002B08D07B681A697B685B69190079
:101FAC001000FFF7BDFD07E07B681A697B685B6971
:101FBC0019001000FFF7C0FDC046BD4604B080BD3F
:101FCC0080B584B000AF786039600F217B18012296
:101FDC001A707B181B781800BD4604B080BD80B504
:101FEC0082B000AF78600A00FB1C1A707B68FA1C88
:101FFC002A2112785A547B682A229B5C002B03D12D
:10200C007B68180000F062FB7B682A229B5C012B2A
:10201C0003D17B68180000F061FB00231800BD465B
:10202C0002B080BD90B589B000AFF8607A600B2328
:10203C00FB180A1C1A7014210C007B1818000C23B6
:10204C001A00002109F0FEFA21007B18424A1A807E
:10205C007B1808229A70FB682A229B5C012B07D103
:10206C00FB682A2200219954FB68180000F02EFB13
:10207C000B23FB181B78412B15D002DC402B05D011
:10208C0064E0422B24D0432B37D05FE0FB681B6805
:10209C007A689A4203D1314B01221A7056E02F4BC9
:1020AC00FF221A7052E02D4B1B78FF2B0CD02B4BC0
:1020BC001B781A00FB689200D3587A689A4203D1B5
:1020CC00264B02221A7041E0244BFF221A703DE08D
:1020DC00224B1B78FF2B0CD0204B1B781A00FB6873
:1020EC009200D3587A689A4203D11C4B03221A707F
:1020FC002CE01A4BFF221A7028E0184B1B78FF2B90
:10210C0020D0164B1B781A00FB689200D3587A68C3
:10211C009A4217D1FB682A2201219954FB681800B6
:10212C0000F0DCFA14217B184422DA70FB682A22B6
:10213C009A5C7B181A717A18FB681100180001F070
:10214C0051FF02E0054BFF221A70C0460023180015
:10215C00BD4609B090BDC046E407000078190020C8
:10216C0090B587B000AF78600A00FB1C1A7017237B
:10217C00FB1801221A7008210C007B1818000C2384
:10218C001A00002109F05EFA21007B181A4A1A8005
:10219C007B1808229A70FB1C1B78002B16D0FB1C9A
:1021AC001B785BB2002B11DBFB1C00229A567B6860
:1021BC001A747B68180000F099FA0823FB180022A7
:1021CC001A711723FB1800221A7003E00823FB185E
:1021DC0001221A7108217B181122DA707A187B6897
:1021EC001100180001F0FEFE1723FB181B781800D5
:1021FC00BD4607B090BDC046E4070000B0B586B040
:10220C0000AF786008001100FB1C021C1A70BB1C8C
:10221C000A1C1A7017257B1901221A7008243B1905
:10222C0018000C231A00002109F00CFA3B190D4A76
:10223C001A803B1908229A707B68180000F05EFA2D
:10224C003B1901221A713B191322DA703A197B6877
:10225C001100180001F0C6FE7B191B781800BD4652
:10226C0006B0B0BDE407000090B585B000AF786053
:10227C000A00BB1C1A800F243B1901221A707B68C0
:10228C00180000F043FA3B191B781800BD4605B046
:10229C0090BD0000B0B586B000AF786017257B19F3
:1022AC0001221A7008243B1918000C231A00002173
:1022BC0009F0C8F93B190D4A1A803B1908229A708B
:1022CC007B68180000F02AFA3B1901221A713B199D
:1022DC001722DA703A197B681100180001F082FE9F
:1022EC007B191B781800BD4606B0B0BDE407000092
:1022FC0090B587B000AF78600A00FB1C1A700821FB
:10230C000C007B1818000C231A00002109F09AF914
:10231C0021007B18224A1A807B1808229A70FB1C19
:10232C001B785B2B0CD002DC5A2B05D014E05C2BF9
:10233C000AD05D2B0CD00FE07B681B687B610BE037
:10234C007B685B687B6107E07B689B687B6103E073
:10235C007B68DB687B61C0467B69DAB208217B183D
:10236C001A717B691B0ADAB27B185A717B691B0CD8
:10237C00DAB27B189A717B691B0EDAB27B18DA71B0
:10238C007B18FA1C1278DA707A187B681100180026
:10239C0001F028FE00231800BD4607B090BDC046D2
:1023AC00E407000090B58BB000AF7860396027234C
:1023BC00FB183A6892791A702623FB183A68D2797E
:1023CC001A702523FB183A6852791A700C23FB18E3
:1023DC00484A13CA13C37B682A229B5C012B07D182
:1023EC007B682A22002199547B68180000F06EF952
:1023FC002523FB181B78802B0CD17B682B2200210A
:10240C0099540C23FA187B681100180001F0EAFDAE
:10241C0000236AE07B682B229B5C2722BA18127877
:10242C009A4201D0012360E02523FB181B7801227E
:10243C0052429A4013003B623B6801331B781A00EE
:10244C003B6802331B781B02D2183B6803331B78A2
:10245C001B04D2183B6804331B781B06D318FB6192
:10246C00FB693A6A1340FB617B682B229B5C1A0068
:10247C007B689200D358BB61BB693A6A1340BB615D
:10248C00BA69FB699A420DD02723FA182623FB1848
:10249C0012781B789A4203D07B682B22FF21995427
:1024AC00012322E02523FB181B78002B0FD12623B8
:1024BC00FA182723FB1812781B789A4207D27B68EC
:1024CC002A22012199547B68180000F007F97B68D7
:1024DC002622BA182B2112785A540C23FA187B682E
:1024EC001100180001F07EFD00231800BD460BB052
:1024FC0090BDC046ACC8000890B587B000AF7860FE
:10250C0039601723FB1801221A703B681B78512B7A
:10251C000FD17B681B7C5BB201330AD11723FC18EB
:10252C003A687B6811001800FFF73CFF030023702A
:10253C00C5E03B681B78042B11D13B6801331B7839
:10254C00012B0CD83B6801331A781723FC187B68D5
:10255C0011001800FFF743FD03002370AFE03B6848
:10256C001B783F2B23D93B681B78432B1FD83B6828
:10257C0001331B781A003B6802331B781B02D218FC
:10258C003B6803331B781B04D2183B6804331B785D
:10259C001B06D3183B613B6819781723FC183A6962
:1025AC007B681800FFF73EFD0300237087E03B6853
:1025BC001B78112B11D17B682A229B5C012B0CD12F
:1025CC003B6801331A781723FC187B68110018003C
:1025DC00FFF7C6FD0300237071E03B681B78132BDB
:1025EC0013D17B682A229B5C012B0ED13B680133F3
:1025FC0019783B6802331A781723FC187B6818008B
:10260C00FFF7FCFD0300237059E03B681B78152B8A
:10261C001ED17B682A229B5C012B19D13B680133AC
:10262C001B7899B23B6802331B789BB21B029AB29F
:10263C000E203B188A181A801723FC183B181A888E
:10264C007B6811001800FFF70FFE0300237036E0C3
:10265C003B681B78172B0DD17B682A229B5C012BC6
:10266C0008D11723FC187B681800FFF713FE030032
:10267C00237024E03B681B78592B14D93B681B78DA
:10268C005D2B10D87B682A229B5C012B0BD13B68FD
:10269C001A781723FC187B6811001800FFF728FE26
:1026AC00030023700BE03B681B78452B07D93B6874
:1026BC001B784B2B03D81723FB1800221A701723F7
:1026CC00FB181B781800BD4607B090BD80B582B0D2
:1026DC0000AF7860C046BD4602B080BD80B582B008
:1026EC0000AF7860C046BD4602B080BD80B582B0F8
:1026FC0000AF7860C046BD4602B080BD80B582B0E8
:10270C0000AF7860C046BD4602B080BD80B582B0D7
:10271C0000AF7860C046BD4602B080BD80B582B0C7
:10272C0000AF7860C046BD4602B080BD80B500AF3A
:10273C00BFF34F8F034B044ADA60BFF34F8FC04691
:10274C00FDE7C04600ED00E00400FA0590B585B049
:10275C0000AF78607B681B8C002B16D07B68998A45
:10276C007B68DA8B0E203B188A1A1A807B681B8CCC
:10277C003A1812889A4241D37B68180000F06AF824
:10278C007B689A8A7B68DA8338E07B68DB8C002B69
:10279C0034D07B68998A7B689A8C0E203B188A1AF5
:1027AC001A807B68DA8C7B6822215B5C99B20C24E2
:1027BC003B194A431A807B6828229B5C19003A1803
:1027CC003B1912881B889A429B415B42DBB29942AF
:1027DC0014D00E23FA180C23FB1812881B889A426B
:1027EC009B415B42D9B27B68282299547B68282292
:1027FC009A5C7B681100180002F0AAFDC046BD4629
:10280C0005B090BD90B587B000AF78600C243B1933
:10281C0018000C231A00002108F014FF7B681B7CA5
:10282C005BB21BB2E022D20013431BB29AB23B192B
:10283C001A803B1901229A703B190022DA703A195E
:10284C007B681100180001F0CDFB03001800BD4699
:10285C0007B090BD90B587B000AF78600C243B19E1
:10286C0018000C231A00002108F0ECFE7B681B7C7E
:10287C005BB21BB2E022D20013431BB29AB23B19DB
:10288C001A803B1901229A707B685B7C022B08D062
:10289C00032B0BD0012B0ED10C23FB187F22DA70EB
:1028AC000BE00C23FB180522DA7006E00C23FB1856
:1028BC000422DA7001E0012307E00C23FA187B688C
:1028CC001100180001F08EFB03001800BD4607B084
:1028DC0090BD000080B584B000AF78600800110096
:1028EC00FB1C021C1A70BB1C0A1C1A700F23FB1851
:1028FC0000221A70FB1C1B78802B12D004DC012BDD
:10290C0007D0022B09D021E0812B0ED0822B0ED0C8
:10291C001CE07B6802225A741DE07B6803225A7407
:10292C0019E07B6801225A7415E0FFF7FFFE7B6803
:10293C0000225A747B68FF221A740A4B180004F0A8
:10294C0067F8084B180004F01DF804E00F23FB187F
:10295C0001221A70C0460F23FB181B781800BD46C5
:10296C0004B080BD0C1C002080B584B000AF786032
:10297C000023FB6034E07A68FB6805331B01D31835
:10298C0006331B88002B28D07B68998A7A68FB68F1
:10299C0005331B01D31804331A880A203B188A1AF2
:1029AC001A807A68FB6805331B01D31806331B8821
:1029BC003A1812889A4210D3FB685A1C7B68110093
:1029CC00180000F014F87B68998A7A68FB68053364
:1029DC001B01D31804330A1C1A80FB680133FB60FB
:1029EC00FB68032BC7D9C046BD4604B080BDB0B54B
:1029FC0088B000AF786039601F23FB1801221A7071
:102A0C000C23FB1818000C231A00002108F01AFEE6
:102A1C007B685B7C022B01D001236CE03A687B68FD
:102A2C001100180002F01AFC031E61D13B68022B46
:102A3C0011D002DC012B05D028E0032B14D0042B81
:102A4C001BD023E00C23FB18C02252001A807B6899
:102A5C004833BB611CE00C23FB18A02292001A80A7
:102A6C007B685833BB6113E00C23FB18E022920007
:102A7C001A807B686833BB610AE00C23FB18902238
:102A8C00D2001A807B687833BB6101E0012332E00D
:102A9C00BB695B68002B2BD0BB699B68082B27D8C4
:102AAC000C217B181B881AB27B681B7C5BB21BB297
:102ABC0013431BB29AB27B181A80BB699B68DAB2BB
:102ACC0008007B189A70BB695968BB699A68050045
:102ADC003B180333180008F0ACFD1F23FC1828002A
:102AEC003A187B681100180001F070FB030023708A
:102AFC001F23FB181B781800BD4608B0B0BD80B56D
:102B0C0082B000AF78607B6800229A637B680022F9
:102B1C005A637B680022DA637B6840220021995259
:102B2C007B684222002199547B68462200219952ED
:102B3C00C046BD4602B080BD80B586B000AF78609F
:102B4C000823FB1818000C231A00002108F07AFD4A
:102B5C007B684022995A7B6842229A5C7B681800F9
:102B6C0002F03AFC031E08D080231A057B68110082
:102B7C00180000F0B3FC012380E07B681B7C5BB287
:102B8C001BB2B022D20013431BB29AB208217B189D
:102B9C001A807B1808229A707B6840229B5ADAB202
:102BAC007B181A717B6840229B5A1B0A9BB2DAB2C3
:102BBC007B185A717B6842229A5C7B189A717B68ED
:102BCC00DB6B9B78022B11D0032B22D0012B3DD138
:102BDC0008217B184F22DA707B68DB6B5B681B78F3
:102BEC007B617B69DAB27B18DA7131E008217B18E2
:102BFC004B22DA707B68DB6B5B681B887B617B69C3
:102C0C00DAB27B18DA717B691B0ADAB27B181A729A
:102C1C001EE008217B184322DA707B68DB6B5B6853
:102C2C001B687B617B69DAB27B18DA717B691B0AE2
:102C3C00DAB27B181A727B691B0CDAB27B185A72E7
:102C4C007B691B0EDAB27B189A7201E0012315E046
:102C5C000823FA187B681100180001F0B7FA031E5C
:102C6C000BD17B684022995A7B6842229A5C7B6824
:102C7C00180000F019FE002300E001231800BD46E7
:102C8C0006B080BDB0B588B000AFF8607A600B2597
:102C9C007B190A1C1A7010243B1918000C231A00FB
:102CAC00002108F0CFFCFB681B7C5BB21BB2B0228E
:102CBC00D20013431BB29AB23B191A803B1908225B
:102CCC009A70FB6840229B5ADAB23B191A71FB6866
:102CDC0040229B5A1B0A9BB2DAB23B195A71FB6811
:102CEC0042229A5C3B199A713B196022DA707B196B
:102CFC001B782B2B1BD02F2B02D0232B36D063E031
:102D0C00FB68DB6B9B78012B09D17B681B78FB6123
:102D1C00FB68DB6B5B68FA69D2B21A7056E0434A07
:102D2C00FB681100180000F0D9FB012379E0FB6867
:102D3C00DB6B9B78022B11D17B681B78FB617B686A
:102D4C0001331B781B021A00FB699B18FB61FB68A3
:102D5C00DB6B5B68FA6992B21A8037E0334AFB6826
:102D6C001100180000F0BAFB01235AE0FB68DB6B82
:102D7C009B78032B20D17B681B78FB617B6801332C
:102D8C001B781B021A00FB699B18FB617B680233E2
:102D9C001B781B041A00FB699B18FB617B680333CF
:102DAC001B781B061A00FB699B18FB61FB68DB6B2D
:102DBC005B68FA691A6009E01C4AFB68110018008C
:102DCC0000F08CFB01232CE001232AE0FB6840225D
:102DDC00995AFB6842229A5CFB68180002F024FBAB
:102DEC00031E08D080231A05FB681100180000F0A0
:102DFC0075FB012315E01023FA18FB68110018006D
:102E0C0001F0E4F9031E0BD1FB684022995AFB68D0
:102E1C0042229A5CFB68180000F036FD002300E0AB
:102E2C0001231800BD4608B0B0BDC046050004051E
:102E3C0080B586B000AF78600C23FB1818000C230B
:102E4C001A00002108F0FEFB7B684022995A7B682F
:102E5C0042229A5C7B68180002F0BEFA031E08D06E
:102E6C0080231A057B681100180000F037FB012342
:102E7C00A3E07B681B7C5BB21BB2B022D200134375
:102E8C001BB29AB20C217B181A807B1808229A70FC
:102E9C007B68DB6B9B78052B1ED0062B05D0042B97
:102EAC0035D17B6808225A633CE07B684022995AF2
:102EBC007B6842229A5C7B68180002F05BFA020085
:102ECC007B685A637B685B6B002B28D17B68DB6B60
:102EDC009A687B685A6322E07B684022995A7B6827
:102EEC0042229A5C7B68180000F0A3FC02007B680D
:102EFC005A637B685B6B002B13D17B68DB6B5B6865
:102F0C001800FDF7F9F802007B685A6309E02D4AB6
:102F1C007B681100180000F0E1FA01234DE0C04677
:102F2C0000E0C0467B683122012199547B68302235
:102F3C00012199547B6800229A630C217B18412251
:102F4C00DA707B6840229B5ADAB27B181A717B6864
:102F5C0040229B5A1B0A9BB2DAB208003B185A71EA
:102F6C007B6842229A5C3B189A717B685B6BDAB285
:102F7C003B18DA717B685B6B1B0ADAB23B181A726E
:102F8C007B685B6B1B0CDAB23B185A727B685B6B11
:102F9C001B0EDAB23B189A727B684622FA21890022
:102FAC0099527B68998A7B68442299523A187B68BB
:102FBC001100180001F00AF903001800BD4606B014
:102FCC0080BDC0460000010690B58BB000AF7860A4
:102FDC000A00FB1C1A7008243B1918000C231A0059
:102FEC00002108F02FFBFB1C1B781B09DBB21A001D
:102FFC0001231A401B23FB18511E8A411A707B684F
:10300C00DB6B5B687B617B681B7C5BB21BB2B022A9
:10301C00D20013431BB29AB23B191A803B190822F7
:10302C009A707B68DB6B002B07D07B6830229B5C33
:10303C0001225340DBB2002B07D0514A7B681100B0
:10304C00180000F04BFA012395E07B6831229B5C61
:10305C001B22BA1812789A4207D14A4A7B6811008F
:10306C00180000F03BFA012385E07B681B22BA189C
:10307C00312112785A547B689A6B7B685B6B9A424D
:10308C0007D3414A7B681100180000F027FA01238E
:10309C0071E07B685A6B7B689B6BD31A072B0BD840
:1030AC007B689A6B7B685B6BD31A07333B62272375
:1030BC00FB1801221A7005E000233B622723FB1842
:1030CC0000221A700023FB6113E07B689B6B7A690A
:1030DC00D218FB69013311780822BA18D3180A1CCC
:1030EC00DA707B689B6B5A1C7B689A63FB690133B3
:1030FC00FB613B6A0722D21AFB699A42E5D81B2373
:10310C00FB181B781B01DAB23B6ADBB2DB18DBB2B3
:10311C001343DAB22723FB181B781343DAB20821C6
:10312C007B18DA707A187B681100180001F04EF8E1
:10313C00031E1FD12723FB181B78002B0ED07B6896
:10314C004022995A7B6842229A5C7B68180000F0F6
:10315C00ABFB7B681800FFF7D2FC09E07B684622CA
:10316C00FA21890099527B68998A7B68442299528A
:10317C00002300E001231800BD460BB090BDC046F3
:10318C0001000405000003050500040580B586B0A8
:10319C0000AF78600C23FB1818000C231A000021D8
:1031AC0008F050FA7B68DB6B9B78042B0BD17B68A7
:1031BC005B6B082B07D93B4A7B681100180000F0A9
:1031CC008DF9012369E07B68DB6B9B78062B0ED1B4
:1031DC007B685A6B7B68DB6B9B689A4207D9314AD8
:1031EC007B681100180000F079F9012355E07B6829
:1031FC00DB6B9B78052B0FD17B685A6B7B68DB6B89
:10320C009B68013B9A4207D9264A7B68110018003B
:10321C0000F064F9012340E07B68302200219954CE
:10322C007B683122012199547B6800229A637B6868
:10323C001B7C5BB21BB2B022D20013431BB29AB2FE
:10324C000C203B181A803B1808229A703B186022FD
:10325C00DA707B6840229B5ADAB23B181A717B6891
:10326C0040229B5A1B0A9BB2DAB23B185A717B68FC
:10327C0042229A5C3B189A717B684622FA2189009B
:10328C0099527B68998A7B68442299523A187B68D8
:10329C001100180000F09AFF03001800BD4606B09C
:1032AC0080BDC0460500040590B58DB000AFF86038
:1032BC007A600B203B180A1C1A703B181B781B09F0
:1032CC00DBB21A0001231A402B23FB18511E8A4132
:1032DC001A703B181B7801221A402A23FB18511E26
:1032EC008A411A703B181B785B08DBB21A00072363
:1032FC0013407B62FB68DB6B5B683B62FB68DB6BE0
:10330C00002B04D0FB6830229B5C002B07D05D4A5D
:10331C00FB681100180000F0E1F80123ADE0FB6838
:10332C0031229B5C2B22BA1812789A4207D1564A4A
:10333C00FB681100180000F0D1F801239DE0FB6838
:10334C002B22BA18312112785A54FB689B6B002B34
:10335C0006D1FB685A6B3B6A0021180008F072F921
:10336C00FB689A6B7B6AD31ADA1DFB685B6B9A421B
:10337C0007D9464AFB681100180000F0AFF801238A
:10338C007BE00023FB6210E0FB6A7A68D218FB68D2
:10339C009B6B396ACB1812781A70FB689B6B5A1CA2
:1033AC00FB689A63FB6A0133FB627B6A0722D21AC1
:1033BC00FB6A9A42E8D814243B1918000C231A0013
:1033CC00002108F03FF9FB681B7C5BB21BB2B022FA
:1033DC00D20013431BB29AB221007B181A807B18BF
:1033EC0008229A707B182022DA707B18DB785AB28C
:1033FC002B23FB181B781B015BB213435BB2DAB2B5
:10340C007B18DA702A23FB181B78002B23D0FB685F
:10341C004022995AFB6842229A5CFB68180002F021
:10342C0003F8031E08D080231A05FB68110018004E
:10343C0000F054F8012320E0FB684022995AFB6805
:10344C0042229A5CFB68180000F01EFAFB68180018
:10345C00FFF755FB09E0FB684622FA2189009952D7
:10346C00FB68998AFB68442299521423FA18FB686A
:10347C001100180000F0AAFE03001800BD460DB0A4
:10348C0090BDC046010004050000030505000405BD
:10349C0080B584B000AF78607B6846229B5A002BC5
:1034AC0018D07B68998A7B6844229A5A0E203B1864
:1034BC008A1A1A807B6846229B5A3A1812889A42BA
:1034CC0008D37B68998A7B68442299527B68462290
:1034DC0000219952C046BD4604B080BD90B587B05E
:1034EC0000AF786039600C243B1918000C231A00CB
:1034FC00002108F0A7F87B681B7C5BB21BB2B022E2
:10350C00D20013431BB29AB221007B181A807B188D
:10351C0008229A707B188022DA707B6840229B5AB2
:10352C00DAB27B181A717B6840229B5A1B0A9BB239
:10353C00DAB20C003B195A717B6842229A5C3B1937
:10354C009A713B68DAB23B19DA713B681B0ADAB242
:10355C003B191A723B681B0CDAB23B195A723B6866
:10356C001B0EDAB23B199A727B684022995A7B681F
:10357C0042229A5C3B68786800F0A6F97B681800D8
:10358C00FFF7BDFA3A197B681100180000F01EFE17
:10359C0003001800BD4607B090BD000090B585B083
:1035AC0000AF786039600F23FB1801221A700E21CE
:1035BC007B183A6812781A700D203B187A1812781A
:1035CC000F218A431A703B181B78802B05D17B681E
:1035DC001800FFF794FA00230FE10D23FB181B785A
:1035EC00602B04D00D23FB181B78702B09D10E23F4
:1035FC00FB181A787B6811001800FFF7E5FC030034
:10360C00FBE00D23FB181B78002B04D00D23FB18BB
:10361C001B78102B0AD13B685A1C0E23FB18197807
:10362C007B681800FFF740FE0300E6E03B680133BF
:10363C001B781AB23B6802331B781B021BB2134374
:10364C001BB299B27B68402299523B68D9787B684F
:10365C00422299547B684022995A7B6800221800B8
:10366C0000F0DEFD02007B68DA637B68DB6B002B0D
:10367C0007D1644A7B6811001800FFF72FFF012364
:10368C00BBE07B684022995A7B6842229A5C7B683B
:10369C00180000F0C5FD02007B68DA637B68DB6B09
:1036AC00002B07D1584A7B6811001800FFF716FF52
:1036BC000123A2E03B681B78402B2FD17B68DB6B8E
:1036CC00DB78012B09D1514A7B6811001800FFF7F8
:1036DC0005FF0F23FB1801221A707B68DB6B9B78AC
:1036EC00042B09D07B68DB6B9B78062B04D07B68A2
:1036FC00DB6B9B78052B08D10F23FC187B6818001B
:10370C00FFF796FB0300237074E00F23FC187B6813
:10371C001800FFF711FA030023706BE03B681B786D
:10372C002F2B07D03B681B782B2B03D03B681B78C7
:10373C00232B1DD17B68DB6BDB78002B0DD03B681A
:10374C001A1D0F23FC180E23FB1819787B68180020
:10375C00FFF798FA030023704CE02D4A7B681100A8
:10376C001800FFF7BBFE0F23FB1801221A7041E073
:10377C003B681B78212B39D17B68DB6BDB78002B0A
:10378C0029D03B6804331B781A007B685A637B682A
:10379C005B6B3A680532127812029A187B685A638E
:1037AC007B685B6B3A680632127812049A187B6855
:1037BC005A637B685B6B3A680732127812069A1868
:1037CC007B685A630F23FC187B681800FFF7DEFC3C
:1037DC00030023700EE00E4A7B6811001800FFF7FF
:1037EC007DFE0F23FB1801221A7003E00F23FB1838
:1037FC0001221A700F23FB181B781800BD4605B068
:10380C0090BDC04600000206110009060100010629
:10381C000200010680B584B000AF786039600F21DA
:10382C007B1801221A707B181B781800BD4604B057
:10383C0080BD80B584B000AF786008001100BB1C5F
:10384C00021C1A807B1C0A1C1A700023FB607B1C58
:10385C001A78BB1C19887B68180000F0E1FC030087
:10386C00BB60BB68002B0AD0BB689B78052B06D1CC
:10387C00BB685B681800FCF73FFC0300FB60FB684F
:10388C001800BD4604B080BD80B582B000AF786032
:10389C0008001100BB1C021C1A807B1C0A1C1A702D
:1038AC00C046BD4602B080BD80B582B000AF786026
:1038BC0008001100BB1C021C1A807B1C0A1C1A700D
:1038CC00C046BD4602B080BD80B584B000AFF86084
:1038DC00080011007B600A23FB18021C1A800923C4
:1038EC00FB180A1C1A70C046BD4604B080BD80B5DA
:1038FC0084B000AF78607B681B7F002B0BD07B689B
:10390C001B8C002B07D17B689A8A7B689A847B6816
:10391C001800FEF79FFF0023FB6012E07A68FB683B
:10392C0048211B01D3185B181B78002B06D0FB68B1
:10393C005A1C7B6811001800FFF759F8FB6801331B
:10394C00FB60FB68032BE9D900231800BD4604B0CB
:10395C0080BDF0B589B000AF786139613B691B78E7
:10396C00BB610023FB613B6901331B781B02BB600D
:10397C00DB17FB60BB69FC69B968FA685B185441DA
:10398C00BB61FC613B6902331B781B043B60DB179A
:10399C007B60BB69FC6939687A685B185441BB6110
:1039AC00FC613B6903331B781B061D00DB171E00F3
:1039BC00BB69FC695B197441BB61FC61BB69FC6947
:1039CC001800210000F078FF00231800BD4609B054
:1039DC00F0BD80B586B000AF786039601723FB1856
:1039EC0001221A700323FB607B681800FDF72DFD84
:1039FC000200FB6893422CD87B681800FDF716FE7A
:103A0C0003009BB21B029AB23B681A807B681800B9
:103A1C00FDF70CFE030019003B681A888BB2D31813
:103A2C009AB23B681A807B681800FDF7FFFD030013
:103A3C001A003B689A703B68D91C3B689B781A004B
:103A4C007B681800FDF716FE1723FB1800221A706E
:103A5C0013E07B681800FDF7F8FC0300FB60002303
:103A6C003B6106E07B681800FDF7E0FD3B69013324
:103A7C003B613B69FA689A42F4D81723FB181B7810
:103A8C001800BD4606B080BD80B582B000AF78602E
:103A9C0039603B681B881B0A9BB2DBB27F22134048
:103AAC00DAB27B6811001800FDF707FE3B681B8833
:103ABC00DAB27B6811001800FDF7FFFD3B689A78BD
:103ACC007B6811001800FDF7F8FD3B68D91C3B68BA
:103ADC009B781A007B681800FDF70BFE002318007A
:103AEC00BD4602B080BD000090B585B000AF7860D7
:103AFC0039600F23FB1801221A703B681B88002BBE
:103B0C0025D13B689B78022B21D13B681A790E2179
:103B1C007B181A707B681B7C5BB27A18127852B2D5
:103B2C009A4206D00E23FB181B785BB2002B00D0F8
:103B3C000EE13B68D9783B681B795AB20F23FC180D
:103B4C007B681800FEF7C6FE0300237000E13B689B
:103B5C001B88834A93420FD13B689B78082B0BD16F
:103B6C003B68DA1C0F23FC187B6811001800FEF769
:103B7C00C3FC03002370ECE03B681B88802B0CD14A
:103B8C003B689B78002B08D10F23FC187B6818002E
:103B9C00FFF7ADFE03002370DBE03B681B881A00C7
:103BAC00F023DB001340802B1DD13B689B78082B46
:103BBC0019D13B681B885AB20E203B187F210A4052
:103BCC001A703B181B785BB2002B00D0C1E03B682D
:103BDC00DA1C0F23FC187B6811001800FEF7F0F9B3
:103BEC0003002370B5E03B681B881A00F023DB0050
:103BFC001A4080235B009A420FD13B689B78062BBE
:103C0C000BD13B68DA1C0F23FC187B6811001800E1
:103C1C00FFF79FFE030023709BE03B681B881A0094
:103C2C00F023DB001A40B023DB009A4225D13B681D
:103C3C009B78082B21D13B681B881A00494B1340F9
:103C4C007A68127C52B2934201D0012384E07B68E3
:103C5C005B7C032B03D07B685B7C002B01D10123A5
:103C6C007AE03B68DA1C0F23FC187B681100180003
:103C7C00FFF7D0FD030023706BE03B681B881A0034
:103C8C00F023DB001A40C023DB009A4261D13B6871
:103C9C009B78082B21D13B681B881A00314B1340B1
:103CAC007A68127C52B2934201D0012354E07B68B3
:103CBC005B7C032B03D07B685B7C002B01D1012345
:103CCC004AE03B68DA1C0F23FC187B6811001800D3
:103CDC00FFF764FC030023703BE03B681B881A0071
:103CEC00F023DB001A40C0235B009A4231D03B68C2
:103CFC001B881A00F023DB001A40A0239B009A4279
:103D0C0027D03B681B881A00F023DB001A40E02305
:103D1C009B009A421DD03B681B881A00F023DB00E5
:103D2C001A409023DB009A4213D03B681B881A0080
:103D3C00F023DB001A4080239B009A4209D03B6899
:103D4C001B881A00F023DB001A40C0239B0000E004
:103D5C00C0460F23FB181B781800BD4605B090BD5C
:103D6C00E50700007FF8FFFF90B587B000AF7860E3
:103D7C007B689C6902F0F4F903009C4200D17AE064
:103D8C0002F0EEF9030099B27B689B699AB2162097
:103D9C003B188A1A1A807B689A8A01007B181B8848
:103DAC00D3189AB27B689A827B689A697B181B88B5
:103DBC00D2187B689A617B681800FEF7C7FC7B6899
:103DCC001800FEF7D1FD7B681800FFF761FB52E08D
:103DDC007B68BC229B581800FDF728FC03009BB2A3
:103DEC001B029AB208243B191A807B68BC229B5890
:103DFC001800FDF71BFC030019003B191A888BB245
:103E0C00D3189AB23B191A807B68BC229B581800B5
:103E1C00FDF70CFC03001A003B199A707B68BC225E
:103E2C0098583B199B781A003B1903331900FDF77E
:103E3C0021FC3A197B6811001800FFF755FE7B68CE
:103E4C001B7C5BB201330AD07B685B7C002B06D1F8
:103E5C007B6802225A747B681800FEF7D3FC7B68DF
:103E6C001B7C5BB2013306D17B685B7C002B02D0E0
:103E7C007B6800225A747B68BC229B581800FDF7A3
:103E8C00E4FA031EA4D1C0467B68180000F0F2F8D7
:103E9C00031EF9D0C046BD4607B090BD80B582B0B8
:103EAC0000AF786039607B68B8213A685A507B68FB
:103EBC00BC21214A5A507B68BC229B581F49402286
:103ECC001800FDF788FA7B68C0211D4A5A507B68A0
:103EDC00C022985880235A001A4B1900FDF77BFA20
:103EEC0002F06AF902007B681A6002F06FF90200B6
:103EFC007B685A6002F074F902007B689A607B68F8
:103F0C000122DA607B6800225A747B68FF221A74E3
:103F1C007B680D4ADA847B682222022199547B68E3
:103F2C0001221A7702F01CF902007B689A61C046E4
:103F3C00BD4602B080BDC046BC1A00207C190020D2
:103F4C00C81A0020BC190020DC05000080B586B022
:103F5C0000AFF860B9607A60BB68DB68002B3CD1BD
:103F6C00BB689B68042B38D0BB681B6903337B612F
:103F7C00FB68BC229B581800FDF7A7FA02007B696E
:103F8C0093422BD8FB68BC229858BB681B681B0A51
:103F9C00DBB27F221340DBB21900FDF78EFBFB680E
:103FAC00BC229A58BB681B68DBB219001000FDF7E5
:103FBC0084FBFB68BC229A58BB681B69DBB21900F6
:103FCC001000FDF77AFBFB68BC229858BB681A6995
:103FDC007B681900FDF78DFB00E0C046BD4606B0BE
:103FEC0080BD0000B0B58CB000AF786039602F2375
:103FFC00FB1801221A701423FB18180018231A003E
:10400C00002107F01FFB1A4B180002F0E3FE031E01
:10401C0027D014243B190022DA603B1900229A6045
:10402C003B681B881A003B191A603B689B781A0086
:10403C003B191A613B68D91C3B689B781A000C250C
:10404C007B19180007F0F5FA0823FB187A193919AF
:10405C00074802F029FD031E03D12F23FB18002271
:10406C001A702F23FB181B781800BD460CB0B0BD7E
:10407C000C1C0020B0B58CB000AF78602F23FB185F
:10408C0001221A701423FB18180018231A0000219F
:10409C0007F0D8FA7B68C0229B581800FDF7D5F9B9
:1040AC00031E00D188E0484B180002F093FE031E5B
:1040BC0000D181E014243B190022DA603B19002264
:1040CC009A607B68C0229B581800FDF7AFFA03007A
:1040DC001B021A003B191A607B68C0229B581800FF
:1040EC00FDF7A4FA03001A003B191B689A183B1938
:1040FC001A603B191A68F023DB001A40C0235B00DE
:10410C009A421DD01423FB181A68F023DB001A40C6
:10411C00A0239B009A4213D01423FB181A68F02397
:10412C00DB001A40E0239B009A4209D01423FB18B1
:10413C001A68F023DB001A409023DB009A4219D155
:10414C001423FB181B687F2213407A68127C52B22E
:10415C0093420FD014217B181B687F2293431A00C3
:10416C007B181A607B181B687A68127C52B21A434F
:10417C007B181A607B68C0229B581800FDF756FA12
:10418C0003001A0014243B191A617B68C02298584A
:10419C003B191A690C257B191900FDF76BFA0823DA
:1041AC00FB187A193919084802F07EFC031E03D15A
:1041BC002F23FB1800221A702F23FB181B781800D2
:1041CC00BD460CB0B0BDC0460C1C002080B586B0FE
:1041DC0000AF786039603B689B7803337B6108E003
:1041EC007B68C0229B580822BA1811001800FFF7F0
:1041FC00F0FB7B68C0229B581800FDF766F90200A3
:10420C007B699342ECD87B68C0229B583A681100BA
:10421C001800FFF739FC03001800BD4606B080BD3E
:10422C0080B586B000AF786008001100BB1C021C82
:10423C001A807B1C0A1C1A70BB1C1B88584A9342A0
:10424C000ED9BB1C1B88574A934209D87B1C1A7881
:10425C00BB1C19887B68180000F080FF03009BE0F2
:10426C00BB1C1B88504A93420ED9BB1C1B884F4A5F
:10427C00934209D87B1C1A78BB1C19887B681800E0
:10428C0000F09CF8030087E0BB1C1B88484A934253
:10429C000ED9BB1C1B88474A934209D87B1C1A7841
:1042AC00BB1C19887B68180000F099F8030073E0B8
:1042BC0000237B6162E07B68B82299587A6913000D
:1042CC005B009B189B00CB181B88BA1C12889A4267
:1042DC0051D17B68B82299587A6913005B009B18FE
:1042EC009B00CB189B78072B35D17B68B82299584B
:1042FC007A6913005B009B189B00CB185B68FB6012
:10430C00FB685A680B23FB1812781A7000233B6168
:10431C0019E03A6913005B009B189B001A00FB68BC
:10432C009B181A887B1C1B789BB29A4208D13A695D
:10433C0013005B009B189B001A00FB689B182BE07A
:10434C003B6901333B610B23FB181B7801333A6942
:10435C009A42DEDB0FE07B1C1B78002B09D17B68BB
:10436C00B82299587A6913005B009B189B00CB18F4
:10437C0012E0002310E07B6901337B617B68B8227B
:10438C0099587A6913005B009B189B00CB181B880B
:10439C00094A93428FD100231800BD4606B080BD58
:1043AC00FF1F0000FF5F0000FF130000FF1500005F
:1043BC00FF170000FF190000FFFF000080B582B05E
:1043CC0000AF786008001100BB1C021C1A807B1C1B
:1043DC000A1C1A7000231800BD4602B080BD80B5BF
:1043EC0082B000AF786008001100BB1C021C1A8060
:1043FC007B1C0A1C1A7000231800BD4602B080BD3D
:10440C0080B582B000AF78607B681B681B0C3F22C4
:10441C0013401800BD4602B080BD80B582B000AF1D
:10442C0078607B681B681B0A7F2213401800BD460E
:10443C0002B080BD80B582B000AF78607B681B682D
:10444C007F2213401800BD4602B080BD80B582B0FB
:10445C0000AF78607B685B681B0CFF221340180070
:10446C00BD4602B080BD80B582B000AF78607B687D
:10447C005B681B0A1F2213401800BD4602B080BDAA
:10448C0080B582B000AF78607B685B683F221340D8
:10449C001800BD4602B080BD80B584B000AF786016
:1044AC007B68DBB21B09DBB21A1C9200D318DB1839
:1044BC00DAB27B68DBB20F210B40DBB2D318DBB274
:1044CC009AB20E217B181648844662441A807B18D7
:1044DC001A88C82359001000FBF79CFE0B009BB2F6
:1044EC00002B12D00E23FB181B88032213409BB207
:1044FC00002B0CD10E23FB181B8864211800FBF732
:10450C0089FE0B009BB2002B01D0012300E000239D
:10451C001A1C01231340DBB21800BD4604B080BD49
:10452C00B207000090B58BB000AF786039600823FB
:10453C00FB181E4A13CA13C313CA13C300237B628E
:10454C007B68DBB21B09DBB21A1C9200D318DB1898
:10455C00DAB27B68DBB20F210B40DBB2D318DBB2D3
:10456C003B623B6A002B1CD03B6A122B19D83B6A6E
:10457C005A1E0823FB185200D35A1A007B6A9B1848
:10458C007B623B6A022B07D93B681800FFF784FF5C
:10459C00031E01D0012300E000231A007B6A9B1844
:1045AC007B627B6A1800BD460BB090BDC4C8000886
:1045BC0090B585B000AF78600023FB607B68DBB200
:1045CC001B09DBB21A1C9200D318DB18DAB27B6819
:1045DC00DBB20F210B40DBB2D318DBB2BB607B68C4
:1045EC00982B1AD8BA681300DB009B18DB009B18B9
:1045FC009A009A18BB6801339B08D418BB68094908
:10460C001800FBF781FD0300E418BB68064918008D
:10461C00FBF77AFD0300E318FB60FB681800BD464E
:10462C0005B090BDF41A00009040020090B585B022
:10463C0000AF386079600023FB60386879680D4AF8
:10464C000023FBF7D7FE03000C00BB60BB680433F0
:10465C0007211800FBF7DEFD0B00FB60FB68002B4D
:10466C0002D0FB68DBB200E007231800BD4605B0A2
:10467C0090BDC04680510100F0B587B000AF00235B
:10468C0000243B617C61424B1800FFF7B9FE03002C
:10469C00DBB21B11DBB20F221340DBB21A1C9200EF
:1046AC00D318DB18DCB23A4B1800FFF7A9FE030055
:1046BC00DBB20F221340DBB2E318DBB21A0013009B
:1046CC001B019B1A1A01D21A13011A001300BB60AA
:1046DC000023FB603B697C69B968FA685B1854413C
:1046EC003B617C612A4B1800FFF797FE0300DBB29D
:1046FC001B11DBB20F221340DBB21A1C9200D31831
:10470C00DB18DCB2224B1800FFF787FE0300DBB28C
:10471C000F221340DBB2E318DBB21A0013001B01AB
:10472C009B1A9B003B6000237B603B697C6939686A
:10473C007A685B1854413B617C61154B1800FFF79C
:10474C0079FE0300DBB21B11DBB20F221340DBB28C
:10475C001A1C9200D318DB18DCB20D4B1800FFF7B3
:10476C0069FE0300DBB20F221340DBB2E318DBB2AD
:10477C001D0000231E003B697C695B1974413B6181
:10478C007C613B697C6918002100BD4607B0F0BD17
:10479C0000280040F0B587B000AF002300243B6137
:1047AC007C61324B1800FFF751FE03001800FFF735
:1047BC00FFFE0300BB600023FB603B697C69B968AA
:1047CC00FA685B1854413B617C61284B1800FFF779
:1047DC004AFE0400254B1800FFF738FE03001900B1
:1047EC002000FFF79FFE03003B6000237B603B69CA
:1047FC007C6939687A685B1854413B617C611B4B5E
:10480C001800FFF73DFE0300DBB21B11DBB20F22D9
:10481C001340DBB21A1C9200D318DB18DCB2134B1A
:10482C001800FFF72DFE0300DBB20F221340DBB2A2
:10483C00E318DBB2013B1D00DB171E003B697C69F2
:10484C005B1974413B617C61094A002338697969C1
:10485C00FBF7F4FD03000C003B617C613B697C6958
:10486C0018002100BD4607B0F0BDC046002800402E
:10487C008051010090B583B000AF002300243B6051
:10488C007C60FFF787FF0A0001003B687C685B18BF
:10489C0054413B607C60FFF7EFFE0A0001003B686F
:1048AC007C685B1854413B607C603B687C681800FA
:1048BC002100BD4603B090BDF0B58BB000AF3860A1
:1048CC00796038687968934A0023FBF793FD0300FD
:1048DC000C00BB61BA696E23FF3319001000FBF7A3
:1048EC0013FC0300FB61FB690A211800FBF70CFCAD
:1048FC000300DBB21B01DCB2FB690A211800FBF7D9
:10490C0089FC0B00DBB22343DBB21800FFF750FE2F
:10491C0003007B62BA697B6A9A4219D2FB69013B3C
:10492C00FB61FB690A211800FBF7EEFB0300DBB20D
:10493C001B01DCB2FB690A211800FBF76BFC0B00B6
:10494C00DBB22343DBB21800FFF732FE03007B62BD
:10495C00FB69DAB21423FB18DA70BA697B6AD31AD2
:10496C000133BB61BB691D211800FBF7CDFB0300B4
:10497C000133FB61FB690C2B00D90C23FB61FB6938
:10498C000A211800FBF7C0FB0300DBB21B01DCB2F1
:10499C00FB690A211800FBF73DFC0B00DBB223433B
:1049AC00DBB21D001426BB19DB780A211800FBF7BB
:1049BC00ABFB0300DBB21B01DCB2BB19DB780A21B9
:1049CC001800FBF727FC0B00DBB22343DBB219000A
:1049DC002800FFF7A7FD03003B62BA693B6A9A42C5
:1049EC0030D8FB69013BFB61FB690A211800FBF71E
:1049FC008BFB0300DBB21B01DCB2FB690A21180044
:104A0C00FBF708FC0B00DBB22343DBB21D001426C2
:104A1C00BB19DB780A211800FBF776FB0300DBB22D
:104A2C001B01DCB2BB19DB780A211800FBF7F2FB87
:104A3C000B00DBB22343DBB219002800FFF772FD39
:104A4C0003003B62FB69DAB214217B185A70BA6915
:104A5C003B6AD31AFB61FB69DAB20D007B189A70C2
:104A6C003B687C6818002100FFF7E0FD03001A008A
:104A7C0029007B181A707B1827481A00002105F0B2
:104A8C0073FF39687A6A3B6AD218FB69D218130033
:104A9C005B009B181A01D21A13019B1ADB015B42B3
:104AAC00CB181C4A94466344FB61FA69E123190153
:104ABC001000FBF729FB0300DAB20C243B191A7126
:104ACC00FA69E12319011000FBF7A4FB0B00FB6151
:104ADC00FB693C211800FBF717FB0300DAB23B190A
:104AEC005A71FB693C211800FBF794FB0B00FB612E
:104AFC00FB69DAB23B199A713B1900221A603B1917
:104B0C0005481A00002105F09BFDC046BD460BB0C0
:104B1C00F0BDC046805101000028004080B500AFB8
:104B2C00184B194A1A60174B20225A60154B002259
:104B3C009A60144B0022DA60124BA022D2021A6146
:104B4C00104B8022D2035A610E4B00221A760D4B69
:104B5C0000225A760B4B00229A760A4B0022DA7608
:104B6C00084B00221A77074B00225A77054B180086
:104B7C0001F040FB031E01D000F01AFFC046BD46F9
:104B8C0080BDC0460C1C00200064004080B58AB07B
:104B9C0000AF78601423FB18180014231A000021AE
:104BAC0006F050FD7B681B68204A93423AD1204B9B
:104BBC00DA691F4B802189040A43DA611C4BDA69DC
:104BCC0080239B0413403B613B69194B5A69184B7A
:104BDC008021C9020A435A61154B5A698023DB02B2
:104BEC001340FB60FB6814217B18C02292001A60F2
:104BFC007B1802225A607B1800229A607B180322D1
:104C0C00DA607B1804221A617B180A4A190010001A
:104C1C0002F0D0FD002200211E2002F03BFD1E20E0
:104C2C0002F058FDC046BD460AB080BD006400408D
:104C3C00001002400004004880B584B000AF7860DA
:104C4C00214B1B685A1C204B1A607B685A6A8023C4
:104C5C005B01134004D07B680121180002F064F85A
:104C6C007B685A6A8023DB01134004D07B680221E5
:104C7C00180002F059F87B685A6A80235B021340D3
:104C8C0004D07B680421180002F04EF8FF235B006F
:104C9C00FB607B685B6AFA6813400CD07B68180079
:104CAC0001F0B6FE7B68180001F06CFE074B1B6828
:104CBC005A1C064B1A607B68180002F012FCC046A6
:104CCC00BD4604B080BDC046381C00203C1C0020F2
:104CDC0080B582B000AF7860044B1B685A1C034B44
:104CEC001A60C046BD4602B080BDC046341C0020D0
:104CFC0080B582B000AF7860044B1B685A1C034B24
:104D0C001A60C046BD4602B080BDC046341C0020AF
:104D1C0080B582B000AF7860044B1B685A1C034B03
:104D2C001A60C046BD4602B080BDC046341C00208F
:104D3C00B0B58CB000AF78600C23FB181422BA18F5
:104D4C007868002102F07EF8031E13D10B4B1B6810
:104D5C000C243A19142579191800FCF7F9F83A19AA
:104D6C007919074B1800FFF7F1F8064B1B685A1C12
:104D7C00044B1A60C046BD460CB0B0BD000000200C
:104D8C00481B0020401C0020B0B58CB000AF7860F0
:104D9C000C23FB181422BA187868012102F052F87F
:104DAC00031E13D10B4B1B680C243A1914257919CB
:104DBC001800FCF7CDF83A197919074B1800FFF7D2
:104DCC00C5F8064B1B685A1C044B1A60C046BD46FE
:104DDC000CB0B0BD00000020481B0020401C00207F
:104DEC0080B586B000AFF860B9607A60BB68042B00
:104DFC0013D800237B610CE07B69DB007A68DA4016
:104E0C0011007B69FA68D318CAB21A707B69013336
:104E1C007B617B69BA689A42EED8C046BD4606B043
:104E2C0080BDB0B586B000AFF860B9603A607B6009
:104E3C00BB68082B24D800237B611DE07B69DB0059
:104E4C001A00203A002A03DB7968D1400C0008E0F4
:104E5C002022D21A796891400A003968D9400C0096
:104E6C0014437A68DA4015007B69FA68D318E2B209
:104E7C001A707B6901337B617B69BA689A42DDD811
:104E8C00C046BD4606B0B0BDF0B58DB000AF78627F
:104E9C000A002223FB181A807B6ABB62444B052252
:104EAC001A80BB6A00221A70BB6A40225A70BB6A15
:104EBC0000229A70BB6A181D3E4B3F4C1A0023000F
:104ECC000821FFF7AEFF0123FB6266E0FA6A1300CC
:104EDC005B009B189B001A00BB6A9B1801221A707E
:104EEC00FA6A13005B009B189B001A00BB6A9B18A4
:104EFC0040225A70FA6A13005B009B189B001A0040
:104F0C00BB6A9B1801229A70FA6A13005B009B180B
:104F1C009B001A00BB6A9B18181DFB6A3B60DB17D1
:104F2C007B603B687C685A08E6071643DD073968E6
:104F3C007A680B0014005B197441DB1864415B1A2E
:104F4C0094411A0F2101F961F9691143F9611A01B0
:104F5C00BA61B969FA695B1854411A0E2102796178
:104F6C007969114379611A023A6139697A695B1876
:104F7C0054411A0C2104F960F9681143F9601A04C0
:104F8C00BA60B968FA685B1854411A00230008210A
:104F9C00FFF747FFFB6A0133FB62054B1B881A00C6
:104FAC00FB6A934292DBC046BD460DB0F0BDC046D5
:104FBC002C4C0020EFCDAB896745230180B582B026
:104FCC0000AF78600A00BB1C1A80C046BD4602B018
:104FDC0080BD000080B586B000AF02003960FB1DBB
:104FEC001A701223FB18022252421A803B68002BC3
:104FFC002ED0FB1D1B78002B2AD0FB1D1B78402BC1
:10500C0026D8174BFB6000237B611BE0FB685B78A9
:10501C00FA1D12789A4212D17A6913005B009B1820
:10502C009B001A00FB689B1804333968082218008F
:10503C0006F0F0FA031E02D17B699BB20BE07B6990
:10504C0001337B61074B1B881A007B699342DDDBC4
:10505C001223FB181B881800BD4606B080BDC04645
:10506C003C1D00202C4C002080B584B000AF786033
:10507C000A00BB1C1A807B68FB60FB68354A042164
:10508C001800FFF7ADFEFB680433324A0421180008
:10509C00FFF7A6FEFB6808332E4A04211800FFF721
:1050AC009FFEFB680C332B4A04211800FFF798FE77
:1050BC00FB681033274A04211800FFF791FEFB68A8
:1050CC001433244A04211800FFF78AFEFB681833B6
:1050DC00204A04211800FFF783FEFB681C331800DC
:1050EC001D4B1A000421FFF77BFEFB681C330433B5
:1050FC00194A04211800FFF773FEFB681C330833B0
:10510C00154A04211800FFF76BFEFB681C330C33A7
:10511C00114A04211800FFF763FEFB681C3310339F
:10512C000D4A04211800FFF75BFEFB681C33143397
:10513C00002204211800FFF753FEFB681C331833C0
:10514C00002204211800FFF74BFEC046BD4604B0F8
:10515C0080BDC046FFFFFF0000FF010080B586B098
:10516C0000AF786008001100BB1C021C1A807B1C6D
:10517C000A1C1A7000237B615CE036497A691300C3
:10518C005B009B189B005B5ABA1C12889A424ED14A
:10519C0030497A6913005B009B189B00CB180233D3
:1051AC001B78072B34D12B497A6913005B009B18B1
:1051BC009B00CB1804331B68FB60FB685A680B23FD
:1051CC00FB1812781A7000233B6119E03A6913003E
:1051DC005B009B189B001A00FB689B181A887B1CB1
:1051EC001B789BB29A4208D13A6913005B009B185A
:1051FC009B001A00FB689B1827E03B6901333B615D
:10520C000B23FB181B7801333A699A42DEDB0EE064
:10521C007B1C1B78002B08D17A6913005B009B1850
:10522C009B001A000B4BD3180FE000230DE07B6999
:10523C0001337B6107497A6913005B009B189B0063
:10524C005B5A054A934298D100231800BD4606B01C
:10525C0080BDC04608CD0008FFFF000090B585B0AA
:10526C0000AF786039600F23FB1801221A70FFF72A
:10527C0001FB03000C00BB603B68012B22D1BB6817
:10528C00DAB22E4B1A70BB681B0ADAB22B4B5A706F
:10529C00BB681B0CDAB2294B9A70BB681B0EDAB2D6
:1052AC00264BDA702649274B0422180006F0C1F968
:1052BC007B68224ADA647B6808221A650F23FB1884
:1052CC0000221A703B68022B11D11F4A1C4B100094
:1052DC0004330822190006F0ACF97B681A4ADA6527
:1052EC007B6808221A660F23FB1800221A703B6891
:1052FC00032B1CD1BB68DAB2144B1A70BB681B0AA7
:10530C00DAB2124B5A70BB681B0CDAB20F4B9A70A4
:10531C00BB681B0EDAB20D4BDA707B680B4ADA668F
:10532C007B6804221A670F23FB1800221A700F23C4
:10533C00FB181B781800BD4605B090BDD41A002090
:10534C00441C0020D81A0020DC1A0020E41A00208B
:10535C0080B582B000AF78600A00FB1C1A70044B59
:10536C00FA1C12781A70C046BD4602B080BDC04609
:10537C001C4C002080B584B000AF78600800110090
:10538C00BB1C021C1A807B1C0A1C1A700023FB60BD
:10539C007B1C1A78BB1C19887B681800FEF740FF31
:1053AC000300BB60BB68002B0CD0BB685A68084B71
:1053BC009A4207D1074B1B881A0013005B009B18FD
:1053CC009B00FB60FB681800BD4604B080BDC04666
:1053DC003C1D00202C4C002080B582B000AF7860C2
:1053EC0008001100BB1C021C1A807B1C0A1C1A70C2
:1053FC00BB1C1B88094A93420BD17B1C1B78002BCE
:10540C0007D1074A074B100019000C231A0006F0AD
:10541C0010F900231800BD4602B080BD0120000029
:10542C00204C00203C1D0020B0B58AB000AF786045
:10543C0008001100BB1C021C1A807B1C0A1C1A7071
:10544C00BB1C1B88674A934217D17B1C1B78002B13
:10545C0013D1654B3B623B6A1B78002B03D13B6A33
:10546C009B78002B01D00123B8E0604A5E4B100002
:10547C0019000C231A0006F0DCF8BB1C1B885C4AD4
:10548C00934237D17B1C1B78002B33D1594BFB61DA
:10549C00594B1B88594A93420BD8FB695B78002BFC
:1054AC0007D0FB695B78402B03D8FB691B78002B7A
:1054BC0001D1012392E0504B1A881A203B180C2181
:1054CC004A431A803B181A88484BD218494B100093
:1054DC0019000C231A0006F0ACF8474B1B8801335B
:1054EC009AB2454B1A80444B1A88404B1100180055
:1054FC00FFF764FDBB1C1B88414A934200D06CE053
:10550C007B1C1B78002B00D067E03E4B7B613A4B39
:10551C001B88012B0BD97B695B78002B07D07B692F
:10552C005B78402B03D87B691B78002B01D10123BE
:10553C0054E07B695A787B69043312257C19190075
:10554C001000FFF747FD030023807B191B88002BFD
:10555C0043D01223FB181B882B4A93423DD01223B5
:10556C00FB181B887B621DE07B6A9AB210203B18EB
:10557C000C214A431A807B6A01339AB20E243B19E0
:10558C000C214A431A803B181A88184BD0183B1927
:10559C001A88164BD3180C22190006F04AF87B6AAD
:1055AC0001337B62144B1B881A007B6A9342DBDB52
:1055BC00114B1B88013B9AB20F4B1A800E4B1B8868
:1055CC001A0013005B009B189B001A00074BD318A2
:1055DC000C220021180006F035F800231800BD46F7
:1055EC000AB0B0BD01200000204C00203C1D002062
:1055FC0002200000301D00202C4C0020E70300008E
:10560C0003200000304C0020FEFF000090B58BB052
:10561C0000AF14243B19180014231A00002106F0C3
:10562C0011F8634B5A69624B802109030A435A6192
:10563C005F4B5A6980231B0313403B613B695C4BF6
:10564C005A695B4B8021C9030A435A61584B5A690A
:10565C008023DB031340FB60FB68554B5A69544BAA
:10566C00802189020A435A61514B5A6980239B025B
:10567C001340BB60BB684E4B5A694D4B8021C9022D
:10568C000A435A614A4B5A698023DB0213407B6000
:10569C007B68474B5A69464B802149030A435A6140
:1056AC00434B5A6980235B0313403B603B68902358
:1056BC00DB0500222021180002F0BAFA3B198022E7
:1056CC0092011A603B193B4A5A603B1900229A60BE
:1056DC003B19394A1900100002F06CF83B19374A93
:1056EC001A603B1903225A603B1900229A603B193D
:1056FC00314A1900100002F05DF83B19304A1A606B
:10570C003B1903225A603B1900229A603A199023E4
:10571C00DB051100180002F04DF83B1920221A602D
:10572C003B1901225A603B1900229A603B19002256
:10573C00DA603A199023DB051100180002F03AF8F0
:10574C0021007B181F4A1A607B1803225A607B18B1
:10575C0000229A600C007B181B4A1900100002F002
:10576C0029F821007B1804221A607B1803225A6046
:10577C007B1800229A600C007B18144A1900100048
:10578C0002F018F821007B18802212011A607B1895
:10579C0003225A607B1800229A607B180C4A19006D
:1057AC00100002F007F8C046BD460BB090BDC046D5
:1057BC00001002400000211000080048FF1F0000EC
:1057CC00D39F0000FFFC000000040048000C0048C0
:1057DC000014004890B58FB002AF00F067FC00F0E9
:1057EC0075F8FA23DB00180000F0C4FCFFF70EFF7D
:1057FC0000F08CFBFFF792F900F04AF9284B0024DB
:10580C0018002100FFF758F8264B1C68380090232D
:10581C00D9050123009301232022FCF717FA3A0043
:10582C00230013CA13C313CA13C313CA13C303CA63
:10583C0003C31D4B1C68380080239A011B490123AC
:10584C0000930023FBF788FF3A00230013CA13C30D
:10585C0013CA13C313CA13C3154B1B68154A164935
:10586C001800FBF70BF9154A154B11001800FEF741
:10587C0015FBFA239A00134B11001800FFF704FBD9
:10588C00114B08211800FFF7EFFB094B1B681800A0
:10589C00FBF728F90A4B1800FEF766FAF5E7C04645
:1058AC0070F46D38300000202C00002000080048F7
:1058BC00000000200C1C0020404C0020F8CB0008FD
:1058CC00481B00203C1D0020501C002090B599B0B6
:1058DC0000AF2C243B19180034231A00002105F0CA
:1058EC00B1FE1C23FB18180010231A00002105F030
:1058FC00A9FE3B0018001C231A00002105F0A2FE93
:10590C0002F004FA284B1A6A274B18210A431A6230
:10591C0021007B1805221A607B1801225A607B1823
:10592C0001229A607B1802225A627B188022520252
:10593C009A627B18A0229203DA627B1801221A6306
:10594C007B18180002F0F0F9031E01D000F030F8BB
:10595C001C217B1807221A607B1802225A607B18C4
:10596C0000229A607B180022DA607B180121180053
:10597C0002F0F0FE031E01D000F01AF83B000B4AB7
:10598C001A603B000022DA603B00802252005A6011
:10599C003B00180003F0E6F8031E01D000F008F8F5
:1059AC00C046BD4619B090BD001002400200010077
:1059BC0080B500AF9023DB052021180002F078F9A8
:1059CC00962000F0D7FBF5E780B582B000AF786089
:1059DC003960C046BD4602B080BD000080B582B0C3
:1059EC0000AF786039607B681B69054A1A403B68D8
:1059FC001B041A437B681A61C046BD4602B080BDC9
:105A0C00FFFF80FF80B582B000AF786039607B68A3
:105A1C001B69DB0BDA033B681A437B681A61C046CF
:105A2C00BD4602B080BD90B585B000AFF860B960DE
:105A3C007A600024FB6850331C00BB689B00E418A0
:105A4C0023007A681A60C046BD4605B090BD90B57B
:105A5C0083B000AF7860396000247B6850331C0041
:105A6C003B689B00E41823001B681800BD4603B07C
:105A7C0090BD000080B500AF044B1A6A034B802127
:105A8C0009020A431A62C046BD4680BD001002409E
:105A9C0090B58DB000AF24243B1918000C231A00CC
:105AAC00002105F0CFFD1C23FB18180008231A0059
:105ABC00002105F0C7FD1823FB1800221A603B1DBE
:105ACC00180014231A00002105F0BCFDFFF7D2FFCB
